:100000000C9464020C94AB020C94AB020C94AB0203
:100010000C94AB020C94AB020C94AB020C94AB02AC
:100020000C94AB020C94AB020C94F6230C94CA24EF
:100030000C94291F0C94AB020C94AB020C94AB02F1
:100040000C94AB020C94AB020C94AB020C94AB027C
:100050000C94AB020C94801F0C94AB020C94AB027A
:100060000C94AB020C94AB020C94AB020C94AB025C
:100070000C94AB020C94AB020C94AB020C94AB024C
:100080000C94AB020C94AB020C94AB020C94AB023C
:100090000C94AB020C94AB020C94AB020C94AB022C
:1000A0000C94AB020C94AB020C94AB0204436800BA
:1000B00069006A006B0004436C006D006E006F0005
:1000C0000443700071007200730000000000000023
:1000D00000002A2B280000000000000000000000A3
:1000E000000000000029000000002C1E3420212206
:1000F00024342627252E362D3738271E1F2021226F
:10010000232425263333362E37381F0405060708E7
:10011000090A0B0C0D0E0F101112131415161718D7
:10012000191A1B1C1D2F3130232D35040506070815
:10013000090A0B0C0D0E0F101112131415161718B7
:10014000191A1B1C1D2F3130354C00000000000017
:10015000000000000000000000000000000000009F
:1001600000000000000000000000000000007E0F02
:1001700000D4FFFFFFC7000000781E0F0500047FBA
:100180003F1F643214643214783C1E1E140A052288
:1001900023252628292A2C2D2F3032333536383A7C
:1001A0003B3D3E4042434547494A4C4E50515355D2
:1001B00057595A5C5E6062646668696B6D6F7173F3
:1001C0007577797B7D7F81838587898A8C8E9092F4
:1001D0009496989A9C9E9FA1A3A5A7A8AAACAEAFFF
:1001E000B1B3B4B6B8B9BBBCBEBFC1C2C3C5C6C744
:1001F000C9CACBCCCDCED0D1D2D2D3D4D5D6D7D7F5
:10020000D8D9D9DADADBDBDBDCDCDCDCDCDDDDDD3C
:10021000DDDCDCDCDCDCDBDBDBDADAD9D9D8D7D738
:10022000D6D5D4D3D2D2D1D0CECDCCCBCAC9C7C6E5
:10023000C5C3C2C1BFBEBCBBB9B8B6B4B3B1AFAE23
:10024000ACAAA8A7A5A3A19F9E9C9A9896949290C9
:100250008E8C8A89878583817F7D7B7977757371A1
:100260006F6D6B6968666462605E5C5A595755537E
:1002700051504E4C4A4947454342403E3D3B3A3837
:1002800036353332302F2D2C2A292826252322FFDC
:10029000AA7F554000010101010101010101020293
:1002A0000202020202020203030303030303030424
:1002B00004040404040405050505050606060606EF
:1002C000070707070708080808090909090A0A0AA9
:1002D0000B0B0B0C0C0C0D0D0D0E0E0E0F0F0F104B
:1002E00010111111121213131414151516161717D5
:1002F000181819191A1A1B1B1C1D1D1E1E1F202041
:10030000212222232424252626272829292A2B2C8A
:100310002D2D2E2F30313232333435363738393AAD
:100320003B3C3D3E3F404142434445464748494AA5
:100330004C4D4E4F50515354555658595A5B5D5E73
:100340005F616264656668696B6C6D6F707273750E
:1003500077787A7B7D7E8082838587888A8C8E8F72
:1003600091939596989A9C9EA0A2A3A5A7A9ABADA0
:10037000AFB1B3B5B7BABCBEC0C2C4C6C9CBCDCF8E
:10038000D1D4D6D8DBDDDFE2E4E7E9EBEEF0F3F53C
:10039000F8FAFDFF14036200690067004B004E008D
:1003A0004F0042007600320000001E036C00650022
:1003B00061006600630075007400740065007200DF
:1003C0006C0061006200730000000403090409026C
:1003D0003B00020100A0FA09040000010301010032
:1003E0000921110100012240000705810308000ACC
:1003F000090401000103000000092111010001228C
:100400006D000705820320000A12011001000000A0
:1004100008EBCE070001000102000105010980A1DF
:1004200001850319012AB700150126B7009501754A
:10043000108100C0050C0901A101850419012AA041
:1004400002150126A002950175108100C005010961
:1004500006A1018505050719E029E7150025019585
:1004600008750181020507190029EF15002501957E
:10047000F07501810205081901290595057501919D
:1004800002950175039101C005010906A101050747
:1004900019E029E7150025019508750181029501EC
:1004A000750881010507190029FF150026FF009531
:1004B0000675088100050819012905950575019142
:1004C00002950175039101C011241FBECFEFDAE040
:1004D000DEBFCDBF04B603FE27C08091D00290914D
:1004E000D102A091D202B091D3028730904BA740A5
:1004F000B04BD1F41092D0021092D1021092D202DD
:100500001092D30214BE84B7877F84BF0FB6F894CD
:10051000A8958091600088618093600010926000CF
:100520000FBEE0E0F8E3099511E0A0E0B1E0EAE4F5
:10053000F0E502C005900D92AA3CB107D9F722E080
:10054000AAECB1E001C01D92A03DB207E1F70E9404
:1005500030210C94E7270C9400008091CE0190E0AC
:100560002091040130910501821793071CF4019634
:100570000C94241B80E0FCCF8091CE0190E000978A
:1005800019F001970C94241B8091040190910501AE
:10059000F9CF81113BC08091CC019091CD016623B0
:1005A00031F197FF04C01092CD011092CC018091DF
:1005B000CC019091CD0101969093CD018093CC0117
:1005C0008091CC019091CD019C0197FF04C022271E
:1005D0003327281B390B409106015091070124173E
:1005E0003507A4F0181619067CF40C94AD02181601
:1005F000190624F41092CD011092CC018091CC0107
:100600009091CD010197D8CF0C94BC0208958091B0
:10061000CE01813069F0882331F0823069F04FEFEC
:100620006FEF8BE203C04FEF6FEF80E00C94A50AF1
:100630004FEF6FEF85E5FACF4FEF6FEF8AEAF6CF16
:10064000CF92DF92EF92FF926B017C011092CD016D
:100650001092CC010E94E1048093CE010E94070316
:10066000C701B601FF90EF90DF90CF9008950E94F0
:100670000E0E0E94D00881110C9407030895843057
:10068000934481F4FB0182819581907F31F088232E
:1006900051F00E94AD0280E00895882321F00E946D
:1006A0003703F9CF81E00895CF93DF939C013A950A
:1006B00021153F4168F5EC01CC27D170DC01AA2758
:1006C000B270AC01442754709C012227387094FF0B
:1006D00011C080E1CD2B09F480E0AB2B09F08062E2
:1006E000452B09F08064232B09F08068FB01DF9122
:1006F000CF91099481E0CD2B09F480E0AB2B09F078
:100700008260452B09F08460232B81F38860EECF53
:10071000DF91CF910895CF93DF93EC01805E910933
:10072000089720F060E277E1209711F468EC74E11B
:10073000CE010E9454038C2FDF91CF910C943B1477
:10074000CF93DF93EC010E948114CE01805E91096A
:10075000089720F067E277E1209711F46FEC74E1DD
:10076000CE01DF91CF910C945403CF93DF93EC0132
:100770000E948B03CE01DF91CF910C94A00381E006
:1007800008950C943F0308950C94C3031F93CF93D3
:10079000DF9300D000D00F92CDB7DEB749835A83E4
:1007A0006B833091120289819A8131111DC06623B9
:1007B000B9F02223A9F00E942C1C182F682F8981E0
:1007C0009A810E94D51B69817A81812F0F900F90A9
:1007D0000F900F900F90DF91CF911F910C944105D6
:1007E0000E94031C182FEFCF0E942C1C69817A8174
:1007F000EDCFFC01262F408151816281738184817C
:100800000C94C603CF93DF93EC0160E00E94F903E0
:10081000BE01DF91CF910C94C4030E94751D81111C
:1008200002C00E94191E0E9412100C9446070C94DC
:10083000490708950E9440170E9419042FEF84E38E
:100840009CE0215080409040E1F700C000000C94F3
:10085000A41F0F931F93CF93DF93EC0161E00E94DD
:10086000F9038C01BE010E94C103882389F1BE01F6
:10087000C8010E949D10882359F1BE01C8010E9441
:100880002711882329F1BE01C8010E94791188230C
:10089000F9F0BE01C8010E949C128823C9F0BE0174
:1008A000C8010E94090F882399F08A81882339F0B2
:1008B00001158CE5180751F00F3D1C4579F0CE016C
:1008C000DF91CF911F910F910C94BF030E941A04E6
:1008D00080E0DF91CF911F910F9108950E94191E22
:1008E000F7CFDF92EF92FF920F931F93CF93DF9397
:1008F000E82FF0E0E653FF4FD490282F2695269559
:10090000269530E0F901E659FE4F0491877010E01A
:10091000082E02C0159507950A94E2F70170112779
:10092000F901E65AFE4FE490F12C082E02C0F5942E
:10093000E7940A94E2F791E0E922FF24F901E65BEB
:10094000FE4FC491D0E002C0D595C7958A95E2F7D5
:10095000C170DD270115110519F081EE0E943B14CD
:10096000E114F10419F086EE0E943B148D2D0E94D3
:10097000C014EF2819F086EE0E948114012B19F0A3
:1009800081EE0E948114CD2B51F08CE2DF91CF914A
:100990001F910F91FF90EF90DF900C94C014DF91A6
:1009A000CF911F910F91FF90EF90DF900895982FB6
:1009B0009F709A50963018F0805D0C947104895A9B
:1009C000FCCFCF92DF92EF92FF926C01EE24FF24D6
:1009D00020E0C114D104E104F10419F0C701B6010B
:1009E00020E1C72ED82EE92EFF24C114D104E10442
:1009F000F10419F0285FC701B6016B017C0154E0D6
:100A0000F694E794D794C7945A95D1F7C114D104BA
:100A1000E104F10419F02C5FC701B6016B017C0100
:100A200042E0F694E794D794C7944A95D1F7C1145D
:100A3000D104E104F10419F02E5FC701B6019695C7
:100A4000879577956795672B682B692B09F02F5F42
:100A5000822FFF90EF90DF90CF90089508950C942F
:100A60002E0581E008950C943105CF93C82F0E9484
:100A70002F058C2FCF910C94330590E080E00895E2
:100A80000895E62F272F280F3327331FC90125E0AC
:100A9000289FB001299F700D1124E60FF72FF11D3B
:100AA000EE0FFF1FE455FF4F859194910895FC01CF
:100AB000EE0FFF1FE658FE4F859194910895CF9356
:100AC000DF930E9441050E946B06EC01811520E531
:100AD000920708F041C0811530E4930708F0B4C0D4
:100AE000803E910518F5803C910508F09DC0883A3C
:100AF000910570F4853A910508F08EC0813091051A
:100B0000F9F00097E9F00497D8F4D0E0C0E018C0FD
:100B10008F3B9105D0F7C85AD0E0CC0FDD1FC85DE0
:100B2000DE4F0990D881C02DD4640AC0811590424F
:100B300058F4C11581E0D80718F4C83ED10528F74C
:100B4000CE01DF91CF910895C11590E3D90708F048
:100B500071C0CE019F706AC0811525E5920758F5D6
:100B6000811534E5930708F09EC0811542E594078E
:100B700050F4C11581E5D80708F469C0DC2FCC27F3
:100B8000C16FD06ADDCF982F969596959E01237000
:100B90003327C115D34508F077C0C1E0D0E002C0CB
:100BA000CC0FDD1F2A95E2F720E2929FC0011124AD
:100BB000C82BD92B67C0C11589E5D807A8F4C11582
:100BC00098E5D90708F074C0C11526E5D20708F0EA
:100BD0009CCF8C2F0E940207C82FD0E0DC2FCC279F
:100BE000CC27DF71D062ACCFC1153AE5D30708F44A
:100BF00064C0CE0190568115904208F086CF8D2FAB
:100C00008F710E94020790E0982F882788279F7194
:100C10009C012C2BE901E6CFC55AD0E0CA5ADE4F21
:100C2000C881D0E0D0648CCF805C91090E945705C8
:100C3000EC0186CFCE019927D3FF03C0EC01D86C1D
:100C40007FCFEC01D06C7CCFDF70D06A79CFCE0142
:100C5000E4E096958795EA95E1F783702C2F269529
:100C60002695237090E2299F90011124382B8C2F18
:100C70008370C1E0D0E002C0CC0FDD1F8A95E2F79F
:100C8000C22BD32BDC685CCFC1E0D0E002C0CC0F1C
:100C9000DD1F2A95E2F730E2939FC0011124C82B93
:100CA000D92BDA684DCFD82FCC27C46FD06A48CF64
:100CB000DC2FCC27C06FD06A43CF8C2F8F700E945F
:100CC000020734E0D695C7953A95E1F7CF709C2F8F
:100CD000EC01D06935CF82389105B1F1B0F48133A0
:100CE000910509F475C048F48932910509F469C089
:100CF0008A32910509F473C008958533910509F48A
:100D000059C08933910501F10895833E9105A9F1F8
:100D100038F4803E9105F9F0823E910549F108953D
:100D2000863E9105A9F1873E9105C9F1843E910562
:100D300019F52091C20221FF1FC08091C10284FDDC
:100D400014C087EE90E008952091C1022370A1F0B5
:100D500080EE90E008952091C10220FD47C03091BF
:100D6000C20230FF09C024FF44C090E080E004C00C
:100D70002091C10222FDF7CF08952091C10222FDEA
:100D80003BC03091C20230FDE3CF24FFF5CFEDCF61
:100D90002091C10223FFF0CF24FDE7CFD2CF2091D5
:100DA000C10223FD2CC03091C20231FFEECF84EE90
:100DB00090E008952091C10225FFDECF89E290E006
:100DC00008952091C10225FFD7CF85E390E00895D3
:100DD0002091C10226FFD0CF8AE290E008952091B1
:100DE000C10226FFC9CF81E390E0089589E390E036
:100DF000089583EE90E0089582EE90E0089586EEE7
:100E000090E008959091C10292FF06C0282F2871AA
:100E10002830F9F4877F846093FF06C0282F28715B
:100E20002831F1F4877E84612091C20220FF06C040
:100E3000382F38713830D9F4877F816021FF06C0A0
:100E4000282F28712831D1F4877E816194FD877E17
:100E50000895282F24712430F9F68B7F8860DCCF29
:100E6000282F2471243101F78B7E8861DDCF382F44
:100E70003171313019F78E7F8860E0CF282F2171D2
:100E8000213121F78E7E8861E1CF08950C944507CA
:100E900008950C944807E82FF0E0EE55FD4F80814F
:100EA00008950895A9E5B1E041E050E08D918F3FAC
:100EB00091F0E82FE295EF70F0E061A18F709A0158
:100EC00001C0220F8A95EAF7922F9095962391A35D
:100ED00082A1822B82A381E0AE35B80739F7109248
:100EE000A1021092A20281E00E94B4070C940D04AA
:100EF000CF93A9E5B1E050E040E030E061E070E080
:100F00002D912F3FA9F0E22FE295EF70F0E080A144
:100F100090E02F7002C0959587952A95E2F780FDA5
:100F200021C0CB01042E01C0880F0A94EAF7382BA8
:100F30004F5F5F4F4530510519F78091A102C0E026
:100F4000831719F03093A102C1E02C2F41E062EA2F
:100F500072E081EA92E00E94B5070E9417048C2F8C
:100F6000CF91089580E0E3CF0895FF920F931F93F0
:100F7000CF93DF93F82E092F162FD72FC42F2223BC
:100F800049F081E08093D1010E94591F9093D001D4
:100F90008093CF018091D1018823A1F08091CF016E
:100FA0009091D0010E94711F069760F0EF2DF02FF5
:100FB000A12FBD2FCE0FDF2FD11DEC17FD0741F460
:100FC0001092D101DF91CF911F910F91FF90089561
:100FD00081918D93F2CFEF92FF920F931F93CF9356
:100FE000DF93EB01E82FD11110C0442321F0F0E092
:100FF000EC56FD4FE4916E2F7E2F8E2FDF91CF9117
:101000001F910F91FF90EF9008950D2F10E0282F62
:1010100030E0442329F02C563D4FF901249130E073
:10102000F6E0CF9FC0011124EFEFF0E0BF010E9476
:101030009626AB018C2F90E0880F991FA5E5A49F01
:10104000B001A59F700D1124861B970B982F990F47
:10105000980FBF01601B710B629FD001639FB00DA1
:10106000729FB00D11248B2F9D9FB0011124672F0B
:101070007727EF01C61BD70BBE01629FE001639F7C
:10108000D00D729FD00D11247F01E91AF108E09E66
:10109000B001E19E700DF09E700D1124672F77272F
:1010A000E61BF70BE29F8001E39F100DF29F100DEE
:1010B0001124E12F722F4230510599F048F4411567
:1010C000510569F04130510581F0EB2F8D2F07C09C
:1010D0004430510569F080F046305105B1F76E2F6C
:1010E0008DCFE22F7B2F812FFACFE22F7D2FF7CFED
:1010F000EB2F822F712FF3CF7B2F822FED2FEFCF8E
:1011000041E00C94EB0708950C948008CF93DF9393
:10111000762FE901682F842F0E94840879836883E1
:101120008A83DF91CF9108958091A302982F9E7FAB
:1011300029F4817082608093A30208958635E8F3D4
:1011400081708465F8CF88E090E00C948827CF9276
:10115000DF92EF92FF926B017C010E949408B7012D
:10116000A60188E090E0FF90EF90DF90CF900C9484
:10117000A627E3EAF2E083E0808311828FEF828387
:101180008383148260817181828193810C94A7088A
:101190008091A30280FF02C08695089580E00895A3
:1011A0008091A302817008959091A702933018F462
:1011B0009F5F9093A702882351F06091A3027091E2
:1011C000A4028091A5029091A6020C94A70808950C
:1011D00081E00C94D4089091A702992319F09150C2
:1011E0009093A702882351F06091A3027091A4020A
:1011F0008091A5029091A6020C94A708089581E021
:101200000C94EB0870E00C94790F60910C018091C4
:10121000A30280FF0AC080910B0123E0829FC001DE
:10122000112488559D4F0C94020980910D019091D5
:101230000E0123E0829FF0011124E855FD4F89172C
:1012400050F71182108212828F5F3396F8CF9091FF
:10125000A30290FF14C090910D0120910E0133E084
:10126000939FF0011124E855FD4F921710F00C9454
:1012700005098183608342839F5F3396F6CF08958B
:10128000CF93DF9300D00F92CDB7DEB79091A3023A
:1012900090FF0AC09E012F5F3F4F0E9486084B813E
:1012A00069818A810E9427090F900F900F90DF912A
:1012B000CF910895CF93DF93EC01EC81F0E0E157FB
:1012C000FE4F4491E3EAF2E0628181810E9440098D
:1012D0008C818F5F8C83DF91CF910895CF93DF93C3
:1012E000EC01E3EAF2E0438162818C810E944009D3
:1012F0008C818F5F8C83DF91CF9108950F931F9323
:10130000CF93DF9300D00F92CDB7DEB78C018091E1
:10131000D20181110AC09E012F5F3F4F4FEF6FEF47
:101320000E9486088A818093D201F801648161302D
:1013300069F08091D20140E0662361F040E06230C4
:1013400011F44091D20180E060E004C06091D201CC
:1013500040E080E00E942709F801848190E0019636
:1013600063E070E00E94AA2684830F900F900F9094
:10137000DF91CF911F910F910895AF92BF92CF92BD
:10138000DF92EF92FF920F931F93CF93DF9300D0E2
:101390000F92CDB7DEB7182FF62E042FE22E9091C4
:1013A000A30290FF29C0E92FE695AE2FB0E0A25A24
:1013B000BE4F8C918093F5019E7F923059F59E012E
:1013C0002F5F3F4F812F0E9486084B8169818A8160
:1013D0000E9427091093A402F092A5020093A6028E
:1013E000EE2051F06091A3027091A4028091A502B9
:1013F0009091A6020E94A7080F900F900F90DF9186
:10140000CF911F910F91FF90EF90DF90CF90BF9001
:10141000AF900895823019F40091A602DBCF863098
:1014200019F41091A402D6CF8930D9F3893191F6FD
:10143000E9518E2F8170D82EE695F0E0E157FD4FEF
:10144000A590B490C12CBB2460910F01C61618F072
:101450000E940509BFCF2C2D30E0A29EC001A39EA3
:10146000900DB29E900D112470E00E949626812F5F
:10147000D11013C0860F40910D01420F532F511D03
:101480009A01220F331F240F351F28553D4F402F3F
:101490006F2D0E948608C394D7CF861BECCFE3EA5A
:1014A000F2E09181282F4381628188E0890F0C94BA
:1014B000BD0981E00C944F0AE3EAF2E09181282F04
:1014C0004381628188EF890F0C94BD0981E00C94FF
:1014D0005C0AE3EAF2E0628121E1620F08F46FEF57
:1014E000282F438181810C94BD0981E00C94690A05
:1014F000E3EAF2E0628121E1621B08F460E0282F58
:10150000438181810C94BD0981E00C94780AE3EA5F
:10151000F2E0438121E1420F08F44FEF282F62816E
:1015200081810C94BD0981E00C94870AE3EAF2E022
:10153000438121E1421B08F440E0282F6281818130
:101540000C94BD0981E00C94960A21E00C94BD092D
:1015500020E00C94BD09EF92FF921F93CF93DF938D
:10156000EC0110E0EE24EA94F12C60910F011617C3
:1015700070F00E9405099A818C8190FF27C08F5FCF
:101580008C83DF91CF911F91FF90EF900895209170
:101590000D01422F410F5527551FCA019A01220FF5
:1015A000331F280F391F28553D4F70E0C7010E9497
:1015B000AA26962F8C814091A6026091A502199FC0
:1015C000800D11240E9486081F5FCFCF8150D8CF95
:1015D000AF92BF92CF92DF92EF92FF920F931F9341
:1015E000CF93DF93FC0182810FEF80FF01E010E0D9
:1015F00045E0A42E80910F011817C8F00E9405093C
:101600008091D401013009F055C0811102C0809150
:101610000F0181508093D401DF91CF911F910F91E1
:10162000FF90EF90DF90CF90BF90AF900895C09162
:101630000D01C12ED12CCC0DDD2DD11DCE01880F79
:10164000991FC80FD91FC855DD4F198218821A82F9
:1016500034E0E32EF12CB12C8091D4018B0D863037
:101660001CF16A2D0E948826892F082E000C990BE8
:10167000C816D90691F48091A6028E9DA0018F9D77
:10168000500D112455954795559547959E016091AC
:10169000A5028091A4020E948608B00EF1E0EF1A24
:1016A000F108D1F61F5FA6CF87FFDFCF90910F0122
:1016B000890FDBCF90E0019660910F0170E00E94EE
:1016C000AA26A8CF0F931F93CF93DF9380910D018C
:1016D00090910E0123E0829FF0011124E855FD4F07
:1016E000891740F1C0E0D3E060910F01C61740F1C7
:1016F0000E940509209109018091D301820F8093F6
:10170000D30190910A01920F90930A01191654F493
:10171000082E000C990B40910F014150550B841776
:1017200095071CF0219520930901DF91CF911F911E
:101730000F9108951182108212828F5F3396D0CF5D
:101740000C2F10E070E0C8010E94AA2620910D0124
:10175000820F482F50E02091D301022E000C330B52
:1017600002171307BCF020910A01022E000C330B64
:10177000201731077CF08D9F9001112428553D4F93
:101780004091A6026091A5028091A4020E94860861
:10179000CF5FAACFFA01EE0FFF1FE40FF51FE85548
:1017A000FD4F118210821282F3CF8F929F92AF92DF
:1017B000BF92CF92DF92EF92FF920F931F93CF933E
:1017C000DF93EC014C81042F10E09801D8010E94B6
:1017D000EE269B01AC010E9404274B015C01E0E274
:1017E000F0E0E01BF10BA5E5B0E0AC019B010E942D
:1017F00004276B017C019F01DF010E94E6269B010B
:10180000AC010E940F279B01AC01280D391D4A1D18
:101810005B1DC701B6010E94BE26F22E822F90E00A
:1018200039E23F1560F143E0249F90011124359582
:101830002795122F109500E085E5E82EEF1880918E
:101840000F01081758F10E9405099C8181E0992336
:1018500019F0903219F48FEF8093080180910801FC
:10186000890F8C83DF91CF911F910F91FF90EF90A3
:10187000DF90CF90BF90AF909F908F90089525E517
:1018800030E0B901681B790B9B01220F331F260F33
:10189000371F37FFCCCF2F5F3F4FC9CF8E2D01FDB4
:1018A0008F2D20910D01622F600F7727771F9B01ED
:1018B000220F331F260F371F28553D4F412F6091B0
:1018C000A5020E9486080F5FBACF0F931F93CF9394
:1018D000DF93EC0110E000E090910F0190171106EA
:1018E00009F06CF40E9405098C8190E001968170EA
:1018F00099278C83DF91CF911F910F9108952091AB
:101900000D01A801420F511D9A01220F331F240F10
:10191000351F28553D4F4C816091A5028091A4024E
:1019200096959017110651F04CF0442349F04091E0
:10193000A6020E9486080F5F1F4FCECF4423B9F343
:1019400040E0F7CF4F925F926F927F928F929F927B
:10195000AF92BF92CF92DF92EF92FF920F931F93BD
:10196000CF93DF93FC016280448081E08483EFE8C1
:10197000F1E07490EEE0F2E0E491812C75E0972EB6
:10198000F2E0CF2EDD24D394AA24AA94B12C5524BE
:101990005A94E7190E2F10E080910F01881690F0ED
:1019A000DF91CF911F910F91FF90EF90DF90CF903B
:1019B000BF90AF909F908F907F906F905F904F906F
:1019C0000C940509E82CF12C82E0861568F09E9CA9
:1019D000F0019F9CF00D1124EB52FE4F8091A40268
:1019E00080838091A5028183411023C09E9CF001D9
:1019F0009F9CF00D1124EB52FE4F13821282209116
:101A00000D01C701820F911D9C01220F331F280F6A
:101A1000391F28553D4F9E9CF0019F9CF00D1124CD
:101A2000EB52FE4F4281618180810E94860883943F
:101A3000B3CF9E9CE0019F9CD00D1124CB52DE4F72
:101A40008B818823E9F081508B83859DC00111240F
:101A50006C8170E00E949626FB01FF27E157FE4F44
:101A60008491E82FE719E59DC0011124B8010E9477
:101A700096268091A602689FB00111247A83BFCF79
:101A80000E9463272091A602269521582C9DA00133
:101A90002D9D500D1124452F5527841795070CF0C7
:101AA000AECF82E0861588F40E946327B5010E94BC
:101AB000AA2688830E9463272091A5022695622F7B
:101AC00070E00E94AA26280F29839E9CF0019F9C0B
:101AD000F00D1124EB52FE4F12828091A602893C38
:101AE00058F088EC9E9CF0019F9CF00D1124EB5265
:101AF000FE4F8483838383CF8431A0F784E1F2CFC8
:101B0000E3EAF2E080818E7F80836081718182814F
:101B100093810E94A7081092F6012FEF80E792E0D0
:101B2000215080409040E1F700C000000C9405096E
:101B30006091A302669570E04BE050E080E191E097
:101B40000E947327892B19F481E08093F6010E948B
:101B5000591F9093EF018093EE0108959091A30295
:101B600090FF35C09170811128C092609093A302BC
:101B7000662351F06091A3027091A4028091A502A6
:101B80009091A6020E94A7086091A302669570E05A
:101B90004BE050E080E191E00E947327892BA1F097
:101BA0001092F60181E08093F1014091A6026091CC
:101BB000A5028091A4020C94A80A8B3210F09465BF
:101BC000D5CF880F982BD2CF0E94980DEBCF0895D8
:101BD000682F9091A302969581E0890F8B3208F0CF
:101BE00081E00C94AE0D81E00C94E80D682F90918B
:101BF000A30296958FEF890F09F48AE20C94AE0D3B
:101C000081E00C94F60D61E00C94AE0DE3EAF2E095
:101C100080818160808386950C94030E8091A3025D
:101C200080FD0C94800D0C94060E60E00C94AE0DBB
:101C30008091F40181112EC00E94751D811104C094
:101C40000E94191E0E94B9080E94A3086093A30273
:101C50007093A4028093A5029093A6026E7F61F414
:101C60000E94B9080E94A3086093A3027093A40283
:101C70008093A5029093A6020E9494081092F60108
:101C80008091A30280FF03C086950E94150E81E01B
:101C90008093F40108950F931F93CF93DF93809166
:101CA000F601882309F496C08091F501E091A30222
:101CB000E695E81BE093F001823091F5F0E0E557FE
:101CC000FE4FE491CE2FD0E00AE519E08091F101BA
:101CD000882361F01092F1010E94591F9093EF0147
:101CE0008093EE011092F3011092F2010E94591FAD
:101CF000E091EE01F091EF018E1B9F0B8F3F9F470C
:101D000008F068C0EC0FFD1FF093EF01E093EE01C7
:101D10008EEE91E0F801DF91CF911F910F91099420
:101D2000863049F4F0E0E857FE4FE491CE2FD0E042
:101D30000EE619E0CBCF893051F4E695F0E0EB5791
:101D4000FE4FE491CE2FD0E00BEA1AE0BFCF8F30E8
:101D500051F4E695F0E0EE57FE4FE491CE2FD0E03F
:101D600008EE1AE0B3CF853149F4F0E0E158FE4FB8
:101D7000E491CE2FD0E002E61BE0A8CFC8E2D0E08D
:101D800005ED1BE0883109F4A1CF833239F4EDE78A
:101D9000F1E0C591D4910EE719E098CFC4EFD1E0FE
:101DA00005E61CE0843209F491CFC0EDD7E003E8EA
:101DB00018E0853209F08ACF8E2F63E00E947C26DE
:101DC000E92FF0E0E658FE4FE491CE2FD0E002EA92
:101DD0001CE07CCFDF91CF911F910F910895FA0104
:101DE000811101C0FB010994CF93DF93C82FD62F37
:101DF0000E94C8088C1740F00E94C8088D1720F474
:101E0000DF91CF910C94F30D8C2FDF91CF910C9437
:101E1000030E0F931F93CF938C01FB01C281CC2340
:101E200009F465C00E94C11C8272F801E35CFC45A4
:101E3000E431F10538F4E751F84D0C94E0260E94A6
:101E40000E0EC0E08C2FCF911F910F91089540E0AE
:101E50005EE063EF7DE00E94EF0EF3CF43EF5DE0C5
:101E600060E07EE0F8CF46E65AE069E57AE0F3CF3D
:101E700049E55AE066E67AE0EECF44E85AE065E7E5
:101E80007AE0E9CF45E75AE064E87AE0E4CF42EA55
:101E90005AE063E97AE0DFCF43E95AE062EA7AE0A8
:101EA000DACF4FEF58E068EE78E0D5CF48EE58E053
:101EB0006FEF78E0D0CF81E00E94030EC2CF65E0E3
:101EC00082E00E94F40EBDCF68E086E0FACF6EE0BB
:101ED00089E0F7CF64E18FE0F4CF67E185E1F1CFEE
:101EE00088E1EACF62E289E1ECCF83E2E5CFC1E0AD
:101EF000A9CF3F9A48B14F7758B15068EFB7F894DF
:101F00009B01220F331F260F371F280F391F281759
:101F1000390741F4EFBF8FE594E00197F1F700C076
:101F200000000895DC016D91CD0178E058B9000002
:101F300000C067FF48B9660F000000C000C000C0C5
:101F400048B900C07A9591F7E2CF0C94C902509835
:101F5000589A52985A9A89B181704A9905C090E06E
:101F6000892B8093F901089592E0FACFE091F9016D
:101F7000EE0FEE0FE093F90149B1842F817049B162
:101F800042FB222720F942FF02C022E030E0822BF0
:101F9000E82BE093F901EF70F0E0E757FE4F808106
:101FA0009091F801890F8093F80120E0823054F07D
:101FB0008091F7018F5F8093F70160E080E00E94DD
:101FC000A50F21E08091F8018F3F54F48091F70133
:101FD00081508093F70161E080E00E94A50F21E02D
:101FE0008091F801082E000C990B62E070E00E94CD
:101FF000AA268093F801822F0895CF93DF93EC01F6
:1020000097FF0CC0FB018281882341F00E942810B9
:10201000CE019F770E9482100E94631081E0DF91C1
:10202000CF9108958CE090E00E94802790E0B0E08E
:10203000A0E08093B7029093B802A093B902B09346
:10204000BA0208956091B7028CE090E00C94942756
:102050000E94D712869581708093BC029091B7023E
:10206000913029F4882319F089E30E94C0140E945A
:10207000C11C8093BB020E94D41C8091B7028130A6
:1020800089F0882359F0823091F08430B9F08FE3E1
:102090009CE90197F1F700C00000089582EE0E94CC
:1020A0003B14F5CF88E193E00E94B503F0CF82EEB8
:1020B0000E943B1487E50E94C014E9CF86EE0E947F
:1020C000C01488E1F8CF8091B702813071F0882385
:1020D00041F0823031F0843099F08091BB020C9451
:1020E000D11C82EE0E948114F8CF8CE20E94C014B1
:1020F0008091BC02882389F389E30E94C014EDCF4C
:1021000088E2FBCF0F931F93CF93DF938C01CCE03A
:10211000D0E0C8010C2E02C0969587950A94E2F78C
:102120008F700E94D7042497CC3F8FEFD80789F790
:10213000DF91CF911F910F9108950F931F93CF932C
:10214000DF93EC018B01FB018281882361F00E9407
:10215000C11CCE01825E9C458530910520F48093A0
:10216000B7020E942210B801CE01DF91CF911F91DA
:102170000F910C94FD0F0F931F93CF93DF93C42FF8
:10218000D22FFC0182818823C9F04093FC010E9478
:10219000591F9093FB018093FA0180E28C0F8830E5
:1021A00008F050C0C77081E001C0880FCA95EAF7F7
:1021B000DF91CF911F910F910C94C8141091FC01E5
:1021C000141335C08091FA019091FB010E94711F98
:1021D0008C32914060F5C0E2CD0F1D17B9F080E25E
:1021E000810F883040F4177081E001C0880F1A9584
:1021F000EAF70E94CF14C83048F481E09D2F977011
:1022000001C0880F9A95EAF70E94C814802F0E9497
:10221000C014C830B8F4D77081E001C0880FDA95D7
:10222000EAF7DF91CF911F910F910C94CF1480E2C8
:102230008C0F883038F4C77081E001C0880FCA95D0
:10224000EAF7EFCFDF91CF911F910F9108950F9390
:102250009C01CB01243F4CE5340759F1A8F4293DFA
:10226000FCE53F0701F12A3D4CE53407D1F1283D5B
:102270003C4591F406E221EE41EE68ED7CE50E94DA
:10228000BB1080E00F910895263FFCE53F07E9F081
:10229000B0F0273F3C45F9F0FC018281882339F1F9
:1022A0001092FC01EFCF07E225EE45EE69ED7CE5EB
:1022B000E6CF06E221EE40EE64EF7CE5E0CF07E2F8
:1022C00025EE44EE65EF7CE5DACF06E221EE42EE44
:1022D00066EF7CE5D4CF07E225EE46EE67EF7CE5BE
:1022E000CECF08E221E045EE6AED7CE5C8CF81E083
:1022F000C9CFCF93DF93EC01FB018281882309F4DE
:1023000019C1C230FCE5DF07C0F1C6319CE5D90731
:1023100030F09E012B5F3C452930310570F50E945D
:10232000881D9093C2028093C102C031ECE5DE07A4
:1023300009F4CFC008F05BC0C8308CE5D80709F4B9
:10234000B6C088F5C430ECE5DE0709F4A8C0C0F4D7
:10235000C2308CE5D80709F49CC08091C10282602C
:10236000C330DC4509F498C08091C1029091C2024B
:102370000E94961D0E94401780E0DF91CF91089542
:102380008091C1028061C630ECE5DE0709F484C0AB
:102390008091C1028860C730DC4508F47DC080911F
:1023A000C102806279C0CC308CE5D80709F489C0BD
:1023B00070F48091C1028C60CA30ECE5DE0709F44C
:1023C0006BC008F478C08091C1028E7F65C0CE30AA
:1023D0008CE5D80709F479C08091C1028B7FCF309A
:1023E000DC4508F459C08091C1028F7E55C0CC3FB6
:1023F000ECE5DE0709F457C030F5C3318CE5D807AA
:1024000009F46FC078F4C131ECE5DE0709F465C06A
:10241000C231DC4509F0A8CF0E9440178091C1026B
:102420008F773AC0C5318CE5D80709F462C008F44B
:1024300076C08091C2028160CB3FDC4509F094CF29
:102440008093C20291CFC115FDE5DF0709F44DC0AD
:1024500088F48091C2028D7FCE3F9CE5D90781F33D
:102460008091C2028E7FCF3FDC4550F38091C20243
:102470008360E6CFC230FDE5DF0709F459C008F4F8
:1024800044C080E0C330DD4509F06ECF0E941B1EC2
:102490006BCF8091C10281608093C10265CF809132
:1024A000C1028460F9CF8091C2028260C9CF80915D
:1024B000C1028064F1CF0E9440178091C102806800
:1024C000EBCF8091C1028D7FE7CF8091C102877FE2
:1024D000E3CF8091C1028F7DDFCF8091C1028F7BDE
:1024E000DBCF8091C102837FD7CF8091C2028C7FE6
:1024F000A7CF8091C10282FB992790F921E0922712
:1025000090FB82F990FB83F9C7CF8091C202982F8C
:10251000909591708E7F892B90FB81F991CF0E94CD
:1025200040179091C102892F97FB87F98058B4CF4B
:1025300081E0ACCF81E021CFCF93DF93EB018631F7
:102540009C4511F50E94C11C9A81992399F08A7AC1
:1025500091E009F490E09093FD01811109C089E2B6
:102560000E949C1C0E94101D80E0DF91CF91089575
:1025700085E3F6CF8091FD01811104C089E20E94BC
:10258000A31CF0CF85E3FBCF81E0EFCF9093030254
:10259000809302020895E0910202F09103023097C5
:1025A00021F00190F081E02D099480E00895E09100
:1025B0000202F0910302309711F480E00895019037
:1025C000F081E02D09950895E0910202F091030257
:1025D000309799F020912701222359F02091C102D0
:1025E00027FF07C0DC012C9111962C93119725E051
:1025F0002C930280F381E02D09940895209100022C
:10260000309101022817390771F0909301028093ED
:102610000002E0910202F0910302309721F006805F
:10262000F781E02D099408952091FE013091FF017A
:102630002817390771F09093FF018093FE01E09114
:102640000202F0910302309721F00084F185E02D21
:10265000099408950E94651F60930E0270930F0203
:10266000809310029093110260930A0270930B0200
:1026700080930C0290930D0208950E94651F609351
:102680000E0270930F0280931002909311026093D8
:10269000060270930702809308029093090208953E
:1026A00085B7806885BF85B7806885BF0895089520
:1026B00008950C94571308950C945B130E945013C3
:1026C00083E79DE10E94B51F0E9458130C94591393
:1026D00081E008950C946813089508950E94501F96
:1026E0000E9452070E94BA1F0E94180E0E94A70F54
:1026F0000C945C13EF92FF920F931F93CF93DF9391
:10270000CDB7DEB72A970FB6F894DEBF0FBECDBFA8
:102710000E946C130E946D130E94780781110E9421
:102720002A1380E00E944B07182F80910502E82EA3
:10273000E126811709F44AC080917D0281FD0E9443
:102740005107F12C01E08E2D8023D9F10E946A13EC
:10275000882399F0FE821F82102381E009F480E033
:1027600088870E94591F8160782F9A8789874E81B8
:102770005F8168858A850E9404148091050208277C
:10278000009305020E944B0E0E94B60F81110E9419
:102790003D130E94CB1290910402891741F10E94CF
:1027A000CB12809304022A960FB6F894DEBF0FBEB8
:1027B000CDBFDF91CF911F910F91FF90EF900C94BF
:1027C0003505F394000F85E0F812BDCF8FEF8983B4
:1027D0008A831B820E94591F8160782F9D838C837E
:1027E00049815A816B818D810E940414CBCF2A9636
:1027F0000FB6F894DEBF0FBECDBFDF91CF911F9112
:102800000F91FF90EF900895DF92EF92FF920F9358
:102810001F93CF93DF93CDB7DEB72B970FB6F89406
:10282000DEBF0FBECDBF7A878B87F42E052F162F04
:10283000E72ED82E61110E94E41C1E821D827E2D7F
:10284000EC82DD824F2D502F612F8D2D9E812B9696
:102850000FB6F894DEBF0FBECDBFDF91CF911F91B1
:102860000F91FF90EF90DF900C94B719FC018081DD
:1028700091810C946E1CCF93C82F882309F43FC01C
:102880008CEF8C0F813AA0F46C2F80911B019091FA
:102890001C010E94341E882329F08C2F0E94A31C47
:1028A0000E94101D8C2F0E949C1CCF910C94101D17
:1028B00080E28C0F883048F4C77081E001C0880F37
:1028C000CA95EAF70E94C41CF0CFEBE5EC0FE330A9
:1028D00040F4F0E0E953FE4F808190E0CF910C94FA
:1028E000FE12C85AC73158F4EC2FF0E0EE0FFF1F6C
:1028F000E756FE4F80819181CF910C941413CF91B4
:102900000895882329F19CEF980F913A20F40E94B2
:10291000A31C0C94101D90E2980F983050F487700F
:1029200091E001C0990F8A95EAF7892F0E94CA1C8D
:10293000F0CF9BE5980F933020F490E080E00C946A
:10294000FE12885A873120F490E080E00C94141332
:1029500008951F93CF93DF93182FEB010E943B1430
:10296000209731F4812FDF91CF911F910C94811426
:102970008FE99FE00197F1F700C000002197F0CFA9
:1029800070E060E0893311F460E570E00C94A91404
:10299000882321F00E94C41C0C94101D08958823E4
:1029A00021F00E94CA1C0C94101D0895BF92CF9272
:1029B000DF92EF92FF920F931F93CF93DF936C01FF
:1029C000D62FC72FFC011281058102950F700E943E
:1029D000BA1CE82E8823A1F0E12E112389F08C2F58
:1029E000807F803429F080E28D0FE12C883040F028
:1029F00082E00E945B1D0E94BA1C91E0E82EE9264D
:102A0000BC2EB2949FE0B922EB2DF0E0E350F84DDC
:102A10000C94E0260C2F0F70C07F11F00295007F00
:102A20001123A9F0002359F080E28D0F883010F0B7
:102A3000D11109C0802F0E94C41C0E94101D8D2F2F
:102A40000E943B1414C0802F0E94D71CF6CF8D2FFC
:102A50000E948114002359F080E28D0F883010F01D
:102A6000D1112CC0802F0E94CA1C0E94101D2B2D3A
:102A70002850330B2430310520F40E94CB120E94E1
:102A80003505EE2009F493C10E94B61C80FD8FC16C
:102A9000F60112820E94B01C0E94391BC6010E94DE
:102AA000F8160E94B01CDF91CF911F910F91FF90FB
:102AB000EF90DF90CF90BF900C945A1B802F0E9414
:102AC000DD1CD3CFFC2FFF70FF2EC07FC03219F06A
:102AD000F29480EFF822DD2369F0D13049F111231F
:102AE00091F1002351F1F601858180FFA8CF8F700D
:102AF000858323C0112381F0011106C00E94F71CB9
:102B00008F290E94C814B3CF0130C1F70E94F71C6F
:102B10008F290E94FD1CABCF011106C00E94061D2B
:102B20008F2D0E94CF14A3CF013009F4A0CFF6CF90
:102B3000112329F0063008F09ACF8F2DE2CF05300F
:102B400008F095CFEDCF002359F3D93349F4FFEFC7
:102B500027EE33E0F15020403040E1F700C00000A4
:102B60008D2F0E94811483CF8C2F8695869583703C
:102B700069F0813009F07BCF8D2F9C2F937011115C
:102B800002C090E080E00E94141371CF8D2F9C2F23
:102B90009370111102C090E080E00E94FE1267CF96
:102BA0008C2F837009F041C0111161CF4D2F4295D8
:102BB00046954770440F440F0D2F0F7010E030E022
:102BC00020E0042E04C0000F111F221F331F0A949F
:102BD000D2F760E070E0CB01D4FF0FC06FE070E08F
:102BE00080E090E004C0660F771F881F991F4A9508
:102BF000D2F76095709580959095C695C695C370EF
:102C0000602B712B822B932BC23049F058F4C130CA
:102C100019F00E94ED1A2BCF0E94DB1A28CF0E94D8
:102C2000FF1A25CF0E94D91A22CF8695112311F0C1
:102C30008C2F8170882309F41ACF4D2F4295469529
:102C40004770440F440F0D2F0F7010E030E020E06C
:102C5000042E04C0000F111F221F331F0A94D2F745
:102C600060E070E0CB01D4FF0FC06FE070E080E067
:102C700090E004C0660F771F881F991F4A95D2F70E
:102C80006095709580959095C695C695C370602B9C
:102C9000712B822B932BC23049F058F4C13019F0BC
:102CA0000E94B01BE4CE0E949E1BE1CE0E94C21B7C
:102CB000DECE0E94131BDBCECF70112329F08C2FA8
:102CC0000E94391B8D2F1DCF8D2F0E94CF148C2F6A
:102CD0000E945A1BCCCED23F89F160F4D03FC9F09C
:102CE000D13F29F1112309F442C00111A8CE8C2F44
:102CF0008F7121C0D33F39F1D43FA1F7112369F17E
:102D0000CF718C2F0E94391B63E08C2F0E94461DCF
:102D1000AECE112341F0053008F0A9CE8C2F8F7173
:102D20000E947D1BA4CE063008F0A1CEF7CF8C2FD9
:102D30008F71112369F20E94391B99CE8C2F8F71EC
:102D40001123C9F3C5CF112329F08C2F8F710E9455
:102D5000241B8DCE0E941F1B8ACE81E00E945B1D2A
:102D6000023008F484CE82E00E945B1D80CE0023F6
:102D700059F0D93309F0F4CE8FEF97EEE3E08150AC
:102D80009040E040E1F7EACE8C2F8F71A1CF4C2F1D
:102D90004F706D2FC6010E943D050E94511A67CEEB
:102DA0004C2F4F706D2FC6010E94400560CEDF9101
:102DB000CF911F910F91FF90EF90DF90CF90BF9038
:102DC00008950F931F93CF93DF93EC01688179816E
:102DD0008A810E94781C8C010E94D41B0E94D81A00
:102DE000B801CE01DF91CF911F910F910C94D614B1
:102DF000CF93DF93EC018B819C81892B29F0888113
:102E0000998189238F3F59F4DF91CF910895CE01A5
:102E10000E94E116CE01DF91CF910C940204CE0105
:102E20000E9429048111F3CF0E94BA1C882361F308
:102E30008A81882349F382E0DF91CF910C945B1D56
:102E4000882321F00E94D71C0C94101D089588231C
:102E500021F00E94DD1C0C94101D089590E080E08C
:102E60000E94FE1290E080E00E9414130E94E41C75
:102E70000E94F41C0C94101D0E94AA1C0C942E1786
:102E80000E94D41C0C943C17E92FE295EF70E2509D
:102E9000EE3070F4F0E0E35FF74D0C94E026803FF5
:102EA00019F020F4883E20F481E00895843FE1F396
:102EB00080E00895883EC0F3813FD1F7F5CF93FBC2
:102EC000882780F908950E946E1C0C944417CF93B4
:102ED000DF9300D000D00F92CDB7DEB70F900F90E8
:102EE0000F900F900F90DF91CF910895CF93DF93C4
:102EF00000D000D000D0CDB7DEB726960FB6F8943C
:102F0000DEBF0FBECDBFDF91CF9108951F93CF934A
:102F1000DF93C091130216E0809114028C1304C059
:102F2000DF91CF911F910895D0E01C9FF0011D9F6C
:102F3000F00D1124EB5EFD4F408151816281738160
:102F4000848195810E9476172196C770E5CF4091C4
:102F5000450250914602609147027091480280916B
:102F6000490290914A020C9476171F93CF93DF93F6
:102F700080914A02807FA9F480914702882389F0DA
:102F800080911302C0911402609145027091460233
:102F9000A0914802B0914902D62FD72316E0C8135A
:102FA00004C0DF91CF911F91089590E0109711F028
:102FB000DF3F19F401968770F2CF189F9001199F97
:102FC000300D1124F901EB5EFD4F41814713F2CF23
:102FD00040814613EFCF42814111ECCF43815481B0
:102FE0004A1B5B0B4C32514028F780914A028F708C
:102FF000806180934A02F901E65EFD4F80818F7007
:103000008061808385E492E00E94F816DF91CF9181
:103010001F910C948617AF92BF92CF92DF92EF92DE
:10302000FF920F931F93CF93DF93CDB7DEB76197D6
:103030000FB6F894DEBF0FBECDBF8C0185E0F8015E
:10304000DE011D9601900D928A95E1F7F80140810D
:103050005181E28085E4C82E82E0D82E609148023A
:10306000709149026115710509F462C190914502A0
:1030700020914602892F82238F3F09F459C1A380F2
:10308000B480F0904702F501E61BF70BBF01FF206B
:1030900009F4FCC080914A02382F307F6C327140B5
:1030A00008F0B2C0311179C0FE2C251323C094134F
:1030B00021C0E1101FC08F70806180934A020E947E
:1030C000A717C6010E94F81680914A02F80185836D
:1030D0008F2D61960FB6F894DEBF0FBECDBFDF9186
:1030E000CF911F910F91FF90EF90DF90CF90BF9005
:1030F000AF900895AB2829F0842F85238F3F09F0E6
:1031000033C180E0F82FF170DF2E80FF3CC080914A
:1031100013022091140236E0821315C04D875E879A
:103120008D859E850E946E1C292F22952F7022303E
:10313000F0F0243018F59F70F1F0F8019581907F40
:10314000D1F4D12C1EC090E0389FF001399FF00DD2
:103150001124EB5EFD4F6181651306C0608164132D
:1031600003C062816E110FC001968770D5CF9F702A
:1031700011F0882331F3805E883018F3C8010E9473
:10318000F816FD2CA5CFEE2009F4A2CF80914A02BB
:10319000816080934A02F12C9BCF251306C09413C3
:1031A00004C0F801EE2009F48DC04D875E878D853F
:1031B0009E850E946317882319F1EE2009F1809102
:1031C0004A02803270F020914502309146023887E1
:1031D0002F831986BB86AA868C87CE0107960E940C
:1031E000F81686E0F801A5E4B2E001900D928A9508
:1031F000E1F70E94B5170E94A717FF24F39468CF48
:10320000C8010E94F816F9CF311113C07A2DB98A7E
:10321000A88A6E2D89890E94671785E492E00E9432
:10322000F81686E0F60111928A95E9F70E94A71731
:10323000B2CF25130FC094130DC0E1100BC0F801DD
:103240008583C8010E94F81686E0F60111928A95DE
:10325000E9F73ECF4D875E878D859E850E94631777
:10326000882371F2EE2061F280914A02803208F4E4
:10327000B8CF20914502309146023A8329831B82C0
:10328000BD82AC828E83CE010196A9CF6C32714093
:1032900008F041C0FE2CEE2009F4B2CF25132AC05D
:1032A000941328C080914A0280FD1BC0982F907F04
:1032B000C1F0F8018583903F31F0982F907F905FA7
:1032C0008F70892B8583C8010E94F81686E0F8016B
:1032D000A5E4B2E001900D928A95E1F70E94A7174C
:1032E000F7CE86E0F801A5E4B2E001900D928A9550
:1032F000E1F7EECE4D875E878D859E850E94631730
:1033000081116FCF80914A02816080934A02C80187
:103310000E94F816DDCE7A2DB98AA88A6E2D898989
:103320000E94671786E0F60111928A95E9F7D6CFD9
:10333000EE2009F465CF4D875E878D859E850E94BE
:103340006317F82E882309F45BCF86E0F801A5E423
:10335000B2E001900D928A95E1F785E492E00E9437
:1033600036140E94B517BACF81E08E25CBCE1F93BD
:10337000CF93DF93CDB7DEB72C970FB6F894DEBFAF
:103380000FBECDBF4F83588769877A878B879C870D
:10339000CE0107960E940B18882369F08A859B85C9
:1033A000892B39F04F815885842F85238F3F09F071
:1033B00071C016E05FC086E0FE013796DE0111960F
:1033C00001900D928A95E1F78A859B85892B89F377
:1033D0008F81988589238F3F61F32091140230E01B
:1033E000C901019687709927409113024817190661
:1033F00071F40E944017109214021092130286E09A
:10340000E5E4F2E0DF011D928A95E9F7D2CF96E07C
:10341000929FD001939FB00D1124AB5EBD4FFE0172
:10342000319601900D929A95E1F7809314020E94D3
:103430008617BFCF819FC00111248B5E9D4F0E94D4
:103440000B188823E9F0E09113021E9FF00111246C
:10345000EB5EFD4F40815181628173818481958152
:103460000E9476178091130290E001968770992749
:103470008093130280911302909114028913DACF82
:103480002C960FB6F894DEBF0FBECDBFDF91CF9163
:103490001F91089569857A858B859C850E94761792
:1034A00088CFEF92FF920F931F93CF93DF938C01FE
:1034B000892B81F0F12CEE24E394E8012196F801A8
:1034C0008491843770F4843008F05FC08130B1F0AB
:1034D0008230A1F1DF91CF911F910F91FF90EF907A
:1034E0000895853709F44CC008F43DC09CE7980F57
:1034F000903780F78F770E94811449C00E5F1F4F6D
:10350000FE01849190E2980F983060F48770FE2D50
:1035100001C0FF0F8A95EAF78F2F0E94E71C0E94D7
:10352000101D02C00E943B148F2D815030F2EFE934
:10353000FFE03197F1F700C00000F7CF0E5F1F4F9B
:10354000FE01849190E2980F983050F48770FE2D20
:1035500001C0FF0F8A95EAF78F2F0E94ED1CDFCF85
:103560000E948114E1CF0E5F1F4FFE01C491C15034
:10357000D8F28FE99FE00197F1F700C00000F7CF84
:103580000E5F1F4FFE01F490CFCF0E943B148E01BF
:10359000CBCF08950C94C91A0E94CA1A60935402A2
:1035A0007093550280935602909357020C942E17F5
:1035B00008950C94CC1A0F931F930091540210910C
:1035C00055022091560230915702602B712B822BAD
:1035D000932B1F910F910C94CC1A0F931F93009172
:1035E00054021091550220915602309157026023E7
:1035F0007123822393231F910F910C94CC1A0F9364
:103600001F9300915402109155022091560230915F
:10361000570260277127822793271F910F910C94DF
:10362000CC1A0C9420030E94111B609350027093DB
:10363000510280935202909353020C942E1760E033
:1036400070E0CB010C94131B0F931F9341E050E0EB
:1036500060E070E08A019B0104C0000F111F221F6F
:10366000331F8A95D2F7C901B8011F910F910C94AD
:10367000131B0F931F9341E050E060E070E004C023
:10368000440F551F661F771F8A95D2F7809150020D
:1036900090915102A0915202B09153028A019B0174
:1036A000082B192B2A2B3B2BC901B8011F910F9115
:1036B0000C94131B0F931F9341E050E060E070E007
:1036C00004C0440F551F661F771F8A95D2F7CB01A0
:1036D000BA01609570958095909500915002109177
:1036E00051022091520230915302602371238223B0
:1036F00093231F910F910C94131B0F931F9341E081
:1037000050E060E070E004C0440F551F661F771F53
:103710008A95D2F78091500290915102A091520265
:10372000B09153028A019B01082719272A273B27BA
:10373000C901B8011F910F910C94131B0F931F9394
:103740000091500210915102209152023091530287
:10375000602B712B822B932B1F910F910C94131BB9
:103760000F931F9300915002109151022091520229
:103770003091530260237123822393231F910F9171
:103780000C94131B0F931F93009150021091510240
:10379000209152023091530260277127822793278C
:1037A0001F910F910C94131B0895E92FEE0FEE0F4C
:1037B0009E0F890F982F977041E001C0440F9A9592
:1037C000EAF786958695869595E0899FF001112404
:1037D000E55BFD4F30E020E070E05191DF01119793
:1037E000CB01022E02C0969587950A94E2F781706C
:1037F00081958527842385278C932F5F3F4F253024
:10380000310559F70895E92FEE0FEE0F9E0F890F3E
:10381000982F977086958695869525E0829FF00172
:103820001124E55BFD4F50E040E080E0219130E065
:10383000092E02C0369527950A94E2F721703327A6
:10384000042E01C0220F0A94EAF7822B4F5F5F4FCC
:103850004530510559F70895BF92CF92DF92EF920C
:10386000FF920F931F93CF93DF938C01C090500270
:10387000D0905102E0905202F09053028091540295
:1038800090915502A0915602B0915702C82AD92AA8
:10389000EA2AFB2ACFE1D0E0BC2ED701C6010C2ECC
:1038A00004C0B695A795979587950A94D2F780FDA1
:1038B0000EC0219788F7B12C8B2DDF91CF911F91EE
:1038C0000F91FF90EF90DF90CF90BF900895B801D7
:1038D0008C2F0E945F05019761F3EECFCF93DF93AA
:1038E000EC010E942C1CBE01DF91CF910C945F056E
:1038F0001F93CF93DF93EB0190911202992331F044
:10390000CB01DF91CF911F910C946E1C882379F02D
:10391000CB010E942C1C182F682FCE010E94D51BB2
:10392000BE01812FDF91CF911F910C945F05CB01D8
:103930000E94031C182FF4CF682F80911B019091D7
:103940001C010C94B41E682F80911B0190911C01E6
:103950000C94BF1E80911B0190911C010C94CA1EF7
:103960008091580285958595859508958091580296
:103970008770089590915802977081E009F480E073
:10398000089580917C02089590917C02892B809308
:103990007C020895809590917C02982390937C02FC
:1039A000089580937C02089510927C02089590916E
:1039B0007B02892B80937B020895809590917B02F6
:1039C000982390937B02089510927B020895909122
:1039D0007A02892B80937A020895809590917A02D9
:1039E000982390937A02089510927A020895809114
:1039F0005902089508950C94FA1C90915902981751
:103A000021F0809359020C94FB1C08958091590277
:103A1000882329F01092590280E00C94FB1C089531
:103A2000E0911B01F0911C0180917C028083E09168
:103A30001B01F0911C01808190917B02892B808376
:103A4000E0911B01F0911C01808190917A02892BF9
:103A5000808390915902992381F0E0911B01F091AC
:103A60001C018081892B808380911B0190911C0116
:103A70000E94201E81110E94061D80911B019091C1
:103A80001C010C94E41208950C94431D98E0899F46
:103A900090011124622B609358020E94391B80917F
:103AA00058028595859585950C94441D1092580271
:103AB00080E00C94441D9091580280958923809356
:103AC0005802282F277071F4282F082E000C330B72
:103AD0009217130639F08595859585950E945A1B96
:103AE0000C94561D089580E0089590E080E00E94B7
:103AF0008E2721E08B3E9E4F09F020E0822F089513
:103B000082E090E00C94802783E090E00C94802782
:103B1000CF9384E090E00E948027C82F81E290E05C
:103B20000E948027982F8C2FCF910895CF93C92F73
:103B3000682F84E090E00E9494276C2F81E290E04F
:103B4000CF910C949427AB01BC018FE090E00C94D2
:103B5000A627AB01BC0183E190E00C94A62760E0AE
:103B600070E0CB010C94A91D60E070E0CB010E94D5
:103B7000A31D0C94AF1D6BEE7EEF90E080E00E94E1
:103B8000B22760E082E090E00E94942760E083E04A
:103B900090E00E94942710925402109255021092C5
:103BA00056021092570260E084E090E00E94942751
:103BB00060E081E290E00E94942760E085E090E080
:103BC0000E94942760E086E090E00E9494276FEFC7
:103BD00087E090E00E94942740E050E0BA0188E03E
:103BE00090E00E94A62760E08DE090E00E9494277C
:103BF00040E050E0BA0188E190E00E94A62760E032
:103C000087E190E00E94942740E050E0BA018CE107
:103C100090E00E94A62760E080E290E00E94942756
:103C200040E050E0BA0188E190E00E94A6270C94A1
:103C3000B41D0C94BB1D682F8EE090E00C9494276B
:103C4000FC01329680912701882321F08091C102E6
:103C50009EE187FF96E080E0915008F4089521915D
:103C60002223D1F38F5FF8CF662301F12091270142
:103C70002223F1F02091C10227FF1AC0462F46955A
:103C8000469546954E3190F4677021E030E002C0D1
:103C9000220F331F6A95E2F7840F911DFC01828188
:103CA00090E02823392381E0232B69F480E00895F4
:103CB000FC01329608962191261721F0E817F907A2
:103CC000D1F7F4CF81E008959C01FC0132969FEF7B
:103CD00080E04191461751F09F3F19F4411101C016
:103CE000982F8F5F8630A9F79F3F09F40895290F19
:103CF000311D97FD3A95F90162830895FC013296D2
:103D000008962191261303C0DF0111971C92E81732
:103D1000F907B9F70895E62FE695E695E695EE31B1
:103D200068F4E80FF92FF11D677021E030E001C061
:103D3000220F6A95EAF78281822B82830895E62F0B
:103D4000E695E695E695EE3170F4E80FF92FF11D52
:103D5000677021E030E001C0220F6A95EAF72095F4
:103D6000828128232283089520912701222329F08C
:103D70002091C10227FD0C948B1E0C94641E20918F
:103D80002701222329F02091C10227FD0C949F1EB8
:103D90000C947E1EFC01329680912701882351F0FD
:103DA0008091C10287FF06C08EE1DF011D928A95D6
:103DB000E9F7089586E0F9CF089508950C94DD1E83
:103DC0008091C702843049F10E94DE1E80E00E948B
:103DD000350510927E0288E190E020E40FB6F89459
:103DE000A895809360000FBE2093600083B7817F09
:103DF000846083BF83B7816083BF7894889583B7DD
:103E00008E7F83BF0FB6F894A8958091600088617B
:103E100080936000109260000FBE089508950E9484
:103E2000DC1E0E9478070E940E1F80E00E944B0754
:103E300091E0811101C090E0892F089508950C94BC
:103E40001E1F0E9440170E94CB120E9435050C9441
:103E50001F1F1F921FB61F9211248F939F93AF9322
:103E6000BF9380917E02811113C08091BD02909119
:103E7000BE02A091BF02B091C0024196A11DB11D2A
:103E80008093BD029093BE02A093BF02B093C00284
:103E9000BF91AF919F918F911F901FBE1F9018955A
:103EA00082E084BD93E095BD9AEF97BD80936E004C
:103EB00008952FB7F8948091BD029091BE02A09111
:103EC000BF02B091C0022FBF08952FB7F894609140
:103ED000BD027091BE028091BF029091C0022FBFBF
:103EE00008959C014FB7F8948091BD029091BE0255
:103EF000A091BF02B091C0024FBF821B930B0895E7
:103F000078941F921FB61F9211248F939F93AF93A3
:103F1000BF938091BD029091BE02A091BF02B0916B
:103F2000C0020196A11DB11D8093BD029093BE02F7
:103F3000A093BF02B093C002BF91AF919F918F91A8
:103F40001F901FBE1F90189587E797E79093010871
:103F50008093000888E19AE00FB6F894A8958093C2
:103F600060000FBE90936000FFCF9093CB018093D1
:103F7000CA0108950E94751D811102C00E94191E78
:103F80000E94801D80937D020E94881D9093C20232
:103F90008093C1020E94841D682F70E090E080E051
:103FA0000E94D91A60915002709151028091520280
:103FB000909153020C94111B80919F0208950895D3
:103FC000CF93DF9300D00F92CDB7DEB79091C702A9
:103FD000943019F589837B836A8382E08093E900BA
:103FE0008FEF9091E800815095FD06C095ED9A9570
:103FF000F1F700008111F5CF8091E80085FF0DC039
:1040000050E040E063E070E0CE0101960E94EB21B9
:104010008091E8008E778093E8000F900F900F90CA
:10402000DF91CF910895BC0184E00C94E01FBC01A6
:1040300083E00C94E01FCF93DF93EC018091270184
:104040008823B1F18091C10287FF32C060E282E033
:104050008093E9008FEF9091E800815095FD06C0B4
:1040600095ED9A95F1F700008111F5CF8091E80068
:1040700085FF1BC08091270170E050E040E0811176
:1040800004C050E040E068E070E0CE010E94EB2107
:104090008091E8008E778093E80080E2FE01AFE730
:1040A000B2E001900D928A95E1F7DF91CF910895EA
:1040B00068E081E0CDCF8091C602811109C00E94E5
:1040C0007B230E94D8238091E20084608093E200E9
:1040D00008951092C602089508950895089542E043
:1040E00061EC81E00E94F72242E261EC82E00C94F4
:1040F000F7228091C902833009F45FC030F4813027
:10410000C1F1823009F49BC008958A3009F487C058
:104110008B3009F46DC0893009F04EC08091C8021F
:10412000813209F049C08091CC029091CD02029772
:1041300008F042C08091E800877F8093E80080917A
:10414000E80082FF35C09091F3008091F200029761
:1041500029F48091F1008B7F813021F48091F1006E
:1041600080939F028091E8008B778093E8000C9405
:104170002B238091C802813AF9F48091E800877F6F
:104180008093E8008091CC029091CD02892B61F45C
:1041900060E28FE792E070E00E943A228091E800AE
:1041A0008B778093E800089560E090E080E0F3CFA3
:1041B0008091C7028111C3CF08958091C802813ACE
:1041C000D9F78091CC029091CD02892BA9F78091EB
:1041D000E800877F8093E8008091E80080FFFCCFB3
:1041E000809127018093F1008091E8008E77BDCF08
:1041F0008091C802813201F78091CC029091CD026A
:10420000892BD1F68091E800877F8093E8000E9497
:104210002B238091CA02809327010C944017809130
:10422000C802813249F68091E800877F8093E800D8
:104230000E942B238091CB028093A002089580914D
:10424000C802813A09F0B8CF8091E800877F809357
:10425000E8008091E80080FFFCCF8091A002C2CFEF
:1042600084B7877F84BF0FB6F894A89580916000CB
:10427000886180936000109260000FBE80E890E03B
:104280000FB6F89480936100909361000FBE0E9476
:104290005E130E947B230E94D8238091E2008460F9
:1042A0008093E20078940E9461260E946E138DE153
:1042B00091E00E94C6128091C7028530A9F00E9449
:1042C0007A130E946C130E946D13F5CF0E94E01EBA
:1042D0008091C502882341F00E940F1F882321F09E
:1042E0000E94D5210E9440178091C702853071F34A
:1042F0000E94211FE4CF0C947D21292F33272330E6
:10430000310519F168F42130310509F444C0223037
:10431000310509F445C090E080E030E020E025C0A0
:104320002132310549F122323105A9F780E490E0CC
:1043300028E834E061157105C1F08DE690E02BE1CD
:1043400034E06130710589F0E6CF9927813091051D
:1043500081F0009729F00297F1F6E4E9F3E002C05A
:10436000EAECF3E0849190E09F01FA01318320832D
:104370000895EAEAF3E0F6CF89E090E020EE33E03A
:104380006115710591F389E090E029EF33E0613028
:10439000710559F3C0CF82E190E029E034E0E5CF28
:1043A0008BE390E02EEC33E0E0CF80E189BD82E149
:1043B00089BD09B400FEFDCF8091D8008F7D809328
:1043C000D8008091E00082608093E0008091E0005E
:1043D00081FDFCCF0895AF92BF92CF92DF92FF9202
:1043E0000F931F93CF93DF936C01EB018A010E941F
:1043F0004A23F82E811123C00115110539F0F80167
:1044000080819181C81BD90BC80ED91EB12CA12C5B
:104410002097A9F08091E80085FD22C08091E800F6
:104420008E778093E80001151105A1F0F8018081D5
:104430009181A80EB91EB182A08285E0F82E8F2D41
:10444000DF91CF911F910F91FF90DF90CF90BF90A0
:10445000AF9008950E944A238823D1F2F82EEFCF1F
:10446000F60181916F018093F1002197FFEFAF1A60
:10447000BF0ACECFFC018091CE029091CF02861769
:104480009707A0F06115710529F49091E8009E77D7
:104490009093E80090E06115710551F4911108C006
:1044A0008091E80082FF34C080E00895BC01F2CF23
:1044B0008091C7028823C1F18530C1F18091E80065
:1044C00083FD30C08091E80082FDEACF8091E80052
:1044D00080FFE1CF8091F3002091F200382F611529
:1044E000710519F02830310558F091E02830310578
:1044F00009F090E02091E8002E772093E800CBCFE0
:1045000081918093F100615071092F5F3F4FE7CF98
:104510008091C702882341F0853041F08091E80006
:1045200083FFBECF81E0089582E0089583E008957F
:10453000FC018091CE029091CF0286179707A0F0E0
:104540006115710529F48091E8008E778093E80069
:1045500090E06115710551F4911108C08091E80057
:1045600082FF35C080E00895BC01F2CF8091C70280
:104570008823C9F18530C9F18091E80083FD31C0FD
:104580008091E80082FDEACF8091E80080FFE1CFD2
:104590008091F3002091F200382F6115710519F018
:1045A0002830310558F091E02830310509F090E0CD
:1045B0008091E8008E778093E800CBCF8491809340
:1045C000F1003196615071092F5F3F4FE6CF809126
:1045D000C702882341F0853041F08091E80083FFD5
:1045E000BDCF81E0089582E0089583E00895982F7B
:1045F000973028F08F708093E90081E008959093C0
:10460000E900242F762F50E0981731F07091EC00DC
:104610002091ED005091F00021FD02C09F5FE8CF96
:104620003091EB003E7F3093EB003091ED003D7F09
:104630003093ED003091EB0031603093EB007093DC
:10464000EC002093ED005093F0002091EE0027FD48
:10465000E5CF80E008958091C80287FF13C0809164
:10466000E80082FF06C08091E8008B778093E80025
:1046700004C08091C7028111F2CF08958091C702D2
:104680008823D9F38091E80080FFF8CF8091E8007B
:104690008E77ECCF2091E4003091E50095E6A901FA
:1046A0002091EC00822F817020FF06C08091E800ED
:1046B00080FF06C080E008952091E80022FD1AC026
:1046C0008091C702882389F0853089F08091EB00C2
:1046D00085FD0FC02091E4003091E500421753079B
:1046E000F9F29150E1F684E0089582E0089583E0C4
:1046F000089581E008950E94E9230E94F123E0EEED
:10470000F0E0808181608083E8EDF0E080818F7748
:10471000808319BCA7EDB0E08C918E7F8C93808153
:104720008F7E80831092C60208950F931F93CF93BC
:10473000DF930E94E9230E94F123C8EDD0E0888135
:104740008F77888388818068888388818F7D88833C
:1047500019BC1092C7021092C3021092C5021092A7
:10476000C40200EE10E0F80180818B7F8083888195
:104770008160888342E060E080E00E94F722E1EE01
:10478000F0E080818E7F8083E2EEF0E080818160C6
:104790008083808188608083F80180818E7F808320
:1047A000888180618883DF91CF911F910F91089557
:1047B000E8EDF0E080818F7E8083E7EDF0E080819E
:1047C0008160808384E082BF81E08093C6020C9484
:1047D0009523E8EDF0E080818E7F80831092E200E7
:1047E00008951092DA001092E10008951F920F923E
:1047F0000FB60F9211242F933F934F935F936F93B4
:104800007F938F939F93AF93BF93EF93FF93809189
:10481000E10082FF0BC08091E20082FF07C080911F
:10482000E1008B7F8093E1000E9460268091DA0096
:1048300080FF19C08091D80080FF15C08091DA00F8
:104840008E7F8093DA008091D90080FF96C080E14E
:1048500089BD82E189BD09B400FEFDCF81E080936E
:10486000C7020E945B208091E10080FF19C0809107
:10487000E20080FF15C08091E2008E7F8093E2000D
:104880008091E20080618093E2008091D800806294
:104890008093D80019BC85E08093C7020E946D20E8
:1048A0008091E10084FF2BC08091E20084FF27C04B
:1048B00080E189BD82E189BD89B5982F917080FF23
:1048C000FBCF8091D8008F7D8093D8008091E1004C
:1048D0008F7E8093E1008091E2008F7E8093E200E2
:1048E0008091E20081608093E2008091C30288237E
:1048F00009F449C084E08093C7020E946E20809131
:10490000E10083FF29C08091E20083FF25C08091F0
:10491000E100877F8093E10082E08093C7021092DC
:10492000C3028091E1008E7F8093E1008091E200DC
:104930008E7F8093E2008091E20080618093E200AC
:1049400042E060E080E00E94F7228091F000886001
:104950008093F0000E946C20FF91EF91BF91AF9186
:104960009F918F917F916F915F914F913F912F9187
:104970000F900FBE0F901F90189519BC1092C70290
:104980000E94692070CF8091E30087FD93E09093AF
:10499000C702B3CF1F920F920FB60F9211242F931D
:1049A0003F934F935F936F937F938F939F93AF93B7
:1049B000BF93CF93DF93EF93FF93D091E900DF7024
:1049C0008091EC00C82FC17080FDC0E81092E90012
:1049D0008091F000877F8093F00078940E940E25EC
:1049E0001092E9008091F00088608093F000CD2B58
:1049F000CF70C093E900FF91EF91DF91CF91BF910C
:104A0000AF919F918F917F916F915F914F913F9166
:104A10002F910F900FBE0F901F9018951F93CF935B
:104A2000DF93CDB7DEB7AA970FB6F894DEBF0FBEFF
:104A3000CDBF88EC92E02091F100FC012193CF01E1
:104A4000F2E0803D9F07B9F70E9479208091E8004D
:104A500083FF1EC18091C8029091C9029A3008F06C
:104A600017C1E92FF0E0E55EF74D0C94E0268038A1
:104A700099F0823809F00CC18091CC028F70873098
:104A800008F006C18093E9008091EB0085FB882740
:104A900080F91092E90006C08091C4029091C5028D
:104AA000911182609091E800977F9093E800809345
:104AB000F1001092F1008091E8008E77E5C0882324
:104AC00009F4D3C0823009F0E3C08091CA02811199
:104AD000D6C08091CC028F702FEF280F263008F0BF
:104AE000D7C08093E9002091EB0020FFC8C093302D
:104AF00031F48091EB0080628093EB00C0C0909114
:104B0000EB0090619093EB0021E030E001C0220FB8
:104B10008A95EAF72093EA001092EA008091EB0070
:104B20008860EACF8111B4C01091CA021F778091CA
:104B3000E3008078812B8093E3008091E800877FF9
:104B40008093E8000E942B238091E80080FFFCCF37
:104B50008091E30080688093E30082E0111183E09C
:104B60008093C70295C08058823008F091C0809130
:104B7000CA029091CB028C3D23E09207A1F583E01D
:104B80008A838AE289834FB7F894DE01139620E086
:104B90003EE051E2E32FF0E050935700E49120FF14
:104BA00003C0E295EF703F5FEF708E2F90E0EA3028
:104BB000C0F0C7968D939D932F5F243159F74FBF57
:104BC0008091E800877F8093E8006AE270E0CE0180
:104BD00001960E943A228091E8008B778093E8004A
:104BE00057C0C096E7CF6091CC027091CD02AE0164
:104BF0004F5F5F4F0E947B21BC01892B09F448C0A5
:104C00009091E800977F9093E80089819A810E94B3
:104C10009822E1CF8038E1F58091E800877F80938A
:104C2000E8008091C3028093F10045CF811130C02C
:104C30009091CA02923060F58091E800877F80935E
:104C4000E8009093C3020E942B238091C302882323
:104C500011F084E005C08091E30087FDFACF81E088
:104C60008093C7020E946F2013C08091CA028130D6
:104C700079F481E0933009F080E08093C5021092CE
:104C8000E9008091E800877F8093E8000E942B2351
:104C90008091E80083FF0AC08091E800877F8093BD
:104CA000E8008091EB0080628093EB00AA960FB63B
:104CB000F894DEBF0FBECDBFDF91CF911F91089555
:104CC0000895CF938091C7028823A1F0C091E90095
:104CD000CF709091EC00892F817090FD80E8C82BF7
:104CE0001092E9008091E80083FD0E940E25CF70AC
:104CF000C093E900CF910895991B79E004C0991FF2
:104D0000961708F0961B881F7A95C9F78095089525
:104D100087FB082E062687FD819567FD61950E9419
:104D20007C260EF4919507FC81950895AA1BBB1B68
:104D300051E107C0AA1FBB1FA617B70710F0A61B9B
:104D4000B70B881F991F5A95A9F780959095BC01BC
:104D5000CD01089597FB072E16F4009407D077FD38
:104D600009D00E94962607FC05D03EF490958195C7
:104D70009F4F0895709561957F4F0895A1E21A2E77
:104D8000AA1BBB1BFD010DC0AA1FBB1FEE1FFF1FEF
:104D9000A217B307E407F50720F0A21BB30BE40B3F
:104DA000F50B661F771F881F991F1A9469F7609586
:104DB0007095809590959B01AC01BD01CF01089540
:104DC000EE0FFF1F0590F491E02D09940E94EE264E
:104DD000332312F48A1B9B0B0C94FF26A29FB00175
:104DE000B39FC001A39F700D811D1124911DB29F1F
:104DF000700D811D1124911D08950E94EE26B7FFAC
:104E00000895821B930B08950E94EE26A59F900D96
:104E1000B49F900DA49F800D911D11240895B7FF9C
:104E20000C9404270E940427821B930B08958F92F1
:104E30009F92AF92BF92CF92DF92EF92FF92CF9369
:104E4000DF93EC01688179818A819B81611571050D
:104E50008105910521F464E279ED8BE597E02DE180
:104E600033EF41E050E00E94C82749015A019B01FD
:104E7000AC01A7EAB1E40E9404276B017C01ACEE0F
:104E8000B4EFA50194010E941227DC01CB018C0D27
:104E90009D1DAE1DBF1DB7FF03C00197A109B048FE
:104EA00088839983AA83BB839F77DF91CF91FF90FB
:104EB000EF90DF90CF90BF90AF909F908F9008952C
:104EC0000E941727089580E091E00E941727089517
:104ED000B0E0A0E08093000190930101A093020153
:104EE000B09303010895FC014150504030F001900F
:104EF0000616D1F73197CF0108958827992708958D
:104F0000F999FECF92BD81BDF89A992780B5089591
:104F1000A6E1B0E044E050E00C94BA27A8E1B0E08C
:104F200042E050E00C94BA27262FF999FECF92BDAB
:104F300081BDF89A019700B4021639F01FBA20BD5E
:104F40000FB6F894FA9AF99A0FBE08950396272F90
:104F50000E9495270E949427252F0E949527242F91
:104F60000C9495270196272F0E9495270C9494273F
:104F7000DC01CB01FC01F999FECF06C0F2BDE1BD19
:104F8000F89A319600B40D9241505040B8F7089508
:104F9000052E97FB1EF400940E94DF2757FD07D0D3
:104FA0000E94BE2607FC03D04EF40C94DF275095D8
:104FB0004095309521953F4F4F4F5F4F0895909505
:104FC0008095709561957F4F8F4F9F4F0895F8940E
:104FD000FFCF1F0F270F2E0F330F380F3D0F420F3C
:104FE000470F4C0F510F560F5B0F5F0F640F670F8A
:104FF0006A0F6D0F700F720F750F0A150A15621583
:105000006215B415371537153715D0155C166B16A4
:105010006B16C71637153715D0164F174F17581779
:1050200058175A175817581758174F174F175F1711
:10503000581758175F1737255F2548265F254826DC
:0A5040009225B32548260A261626FD
:10504A00010000000200060001010200050005053A
:10505A0001191A1B1C1D1E1F2021225A02DC1F1BAC
:10506A0020DF1F1720132001E200E900EA00B50043
:10507A00B600B700CD008301CC008A0192019401E9
:10508A002102230224022502260227022A02B30051
:10509A00B4006F007000818283379496F6F700019E
:1050AA00020202020606060909090909090F0F0F79
:1050BA000F0F0F1515151819191919191919191981
:1050CA0019232425252525252500FF010001000097
:1050DA00FFFF0000010001FF00E200E900EA00B55D
:1050EA0000B600B700CD008301CC008A019201947A
:1050FA00012102230224022502260227022A02B3E0
:0A510A0000B4006F00700081828382
:00000001FF
