:100000000C9464020C94AB020C94AB020C94AB0203
:100010000C94AB020C94AB020C94AB020C94AB02AC
:100020000C94AB020C94AB020C9462240C94362515
:100030000C94951F0C94AB020C94AB020C94AB0285
:100040000C94AB020C94AB020C94AB020C94AB027C
:100050000C94AB020C94EC1F0C94AB020C94AB020E
:100060000C94AB020C94AB020C94AB020C94AB025C
:100070000C94AB020C94AB020C94AB020C94AB024C
:100080000C94AB020C94AB020C94AB020C94AB023C
:100090000C94AB020C94AB020C94AB020C94AB022C
:1000A0000C94AB020C94AB020C94AB022D5D690076
:1000B0006A006B006C002D5D6E006F0070007100B7
:1000C0002D5D295D2A5D2B5D2C5D00000000000088
:1000D00000002A2B280000000000000000000000A3
:1000E000000000000029000000002C1E3420212206
:1000F00024342627252E362D3738271E1F2021226F
:10010000232425263333362E37381F0405060708E7
:10011000090A0B0C0D0E0F101112131415161718D7
:10012000191A1B1C1D2F3130232D35040506070815
:10013000090A0B0C0D0E0F101112131415161718B7
:10014000191A1B1C1D2F3130354C00000000000017
:10015000000000000000000000000000000000009F
:1001600000000000000000000000000000007E0F02
:1001700000D4FFFFFFC7000000781E0F0500047FBA
:100180003F1F643214643214783C1E1E140A052288
:1001900023252628292A2C2D2F3032333536383A7C
:1001A0003B3D3E4042434547494A4C4E50515355D2
:1001B00057595A5C5E6062646668696B6D6F7173F3
:1001C0007577797B7D7F81838587898A8C8E9092F4
:1001D0009496989A9C9E9FA1A3A5A7A8AAACAEAFFF
:1001E000B1B3B4B6B8B9BBBCBEBFC1C2C3C5C6C744
:1001F000C9CACBCCCDCED0D1D2D2D3D4D5D6D7D7F5
:10020000D8D9D9DADADBDBDBDCDCDCDCDCDDDDDD3C
:10021000DDDCDCDCDCDCDBDBDBDADAD9D9D8D7D738
:10022000D6D5D4D3D2D2D1D0CECDCCCBCAC9C7C6E5
:10023000C5C3C2C1BFBEBCBBB9B8B6B4B3B1AFAE23
:10024000ACAAA8A7A5A3A19F9E9C9A9896949290C9
:100250008E8C8A89878583817F7D7B7977757371A1
:100260006F6D6B6968666462605E5C5A595755537E
:1002700051504E4C4A4947454342403E3D3B3A3837
:1002800036353332302F2D2C2A292826252322FFDC
:10029000AA7F554000010101010101010101020293
:1002A0000202020202020203030303030303030424
:1002B00004040404040405050505050606060606EF
:1002C000070707070708080808090909090A0A0AA9
:1002D0000B0B0B0C0C0C0D0D0D0E0E0E0F0F0F104B
:1002E00010111111121213131414151516161717D5
:1002F000181819191A1A1B1B1C1D1D1E1E1F202041
:10030000212222232424252626272829292A2B2C8A
:100310002D2D2E2F30313232333435363738393AAD
:100320003B3C3D3E3F404142434445464748494AA5
:100330004C4D4E4F50515354555658595A5B5D5E73
:100340005F616264656668696B6C6D6F707273750E
:1003500077787A7B7D7E8082838587888A8C8E8F72
:1003600091939596989A9C9EA0A2A3A5A7A9ABADA0
:10037000AFB1B3B5B7BABCBEC0C2C4C6C9CBCDCF8E
:10038000D1D4D6D8DBDDDFE2E4E7E9EBEEF0F3F53C
:10039000F8FAFDFF14036200690067004B004E008D
:1003A0004F0042007600320000001E036C00650022
:1003B00061006600630075007400740065007200DF
:1003C0006C0061006200730000000403090409026C
:1003D0003B00020100A0FA09040000010301010032
:1003E0000921110100012240000705810308000ACC
:1003F000090401000103000000092111010001228C
:100400006D000705820320000A12011001000000A0
:1004100008EBCE070001000102000105010980A1DF
:1004200001850319012AB700150126B7009501754A
:10043000108100C0050C0901A101850419012AA041
:1004400002150126A002950175108100C005010961
:1004500006A1018505050719E029E7150025019585
:1004600008750181020507190029EF15002501957E
:10047000F07501810205081901290595057501919D
:1004800002950175039101C005010906A101050747
:1004900019E029E7150025019508750181029501EC
:1004A000750881010507190029FF150026FF009531
:1004B0000675088100050819012905950575019142
:1004C00002950175039101C011241FBECFEFDAE040
:1004D000DEBFCDBF04B603FE27C08091D402909149
:1004E000D502A091D602B091D7028730904BA74099
:1004F000B04BD1F41092D4021092D5021092D602D1
:100500001092D70214BE84B7877F84BF0FB6F894C9
:10051000A8958091600088618093600010926000CF
:100520000FBEE0E0F8E3099511E0A0E0B1E0E2E2FF
:10053000F1E502C005900D92AA3CB107D9F722E07F
:10054000AAECB1E001C01D92A43DB207E1F70E9400
:100550009C210C9453280C9400008091CE0190E0D3
:100560002091040130910501821793071CF4019634
:100570000C948C1B80E0FCCF8091CE0190E0009722
:1005800019F001970C948C1B809104019091050146
:10059000F9CF81113BC08091CC019091CD016623B0
:1005A00031F197FF04C01092CD011092CC018091DF
:1005B000CC019091CD0101969093CD018093CC0117
:1005C0008091CC019091CD019C0197FF04C022271E
:1005D0003327281B390B409106015091070124173E
:1005E0003507A4F0181619067CF40C94AD02181601
:1005F000190624F41092CD011092CC018091CC0107
:100600009091CD010197D8CF0C94BC0208958091B0
:10061000CE01813069F0882331F0823069F04FEFEC
:100620006FEF8BE203C04FEF6FEF80E00C94D90ABD
:100630004FEF6FEF85E5FACF4FEF6FEF8AEAF6CF16
:10064000CF92DF92EF92FF926B017C011092CD016D
:100650001092CC010E9415058093CE010E940703E1
:10066000C701B601FF90EF90DF90CF9008950E94F0
:10067000650E0E94040981110C9407030895FB0183
:100680008B322DE5920749F148F489322DE5920726
:10069000B1F08A329D45D9F081E008958C322DE584
:1006A000920709F18D329D45B9F78281882309F1BE
:1006B0000E94C51F9093A4028093A302EDCF828174
:1006C000882351F388E691E00E94E903E5CF828117
:1006D000882311F389E691E0F7CF82818823E1F244
:1006E0008AE691E0F1CF82818823B1F28BE691E036
:1006F000EBCF8091A3029091A4020E94DD1F8C3267
:10070000914018F40E94AD02C7CF0E943703C4CFB6
:10071000CF93DF939C013A9521153F4168F5EC0199
:10072000CC27D170DC01AA27B270AC0144275470E9
:100730009C012227387094FF11C080E1CD2B09F471
:1007400080E0AB2B09F08062452B09F08064232BFD
:1007500009F08068FB01DF91CF91099481E0CD2BF6
:1007600009F480E0AB2B09F08260452B09F084602E
:10077000232B81F38860EECFDF91CF910895CF9343
:10078000DF93EC01805E9109089720F068E877E13B
:10079000209711F460E375E1CE010E9488038C2F4D
:1007A000DF91CF910C94A314CF93DF93EC010E94BF
:1007B000E914CE01805E9109089720F06FE877E197
:1007C000209711F467E375E1CE01DF91CF910C948E
:1007D0008803CF93DF93EC010E94BF03CE01DF912A
:1007E000CF910C94D40381E008950C943F030895B5
:1007F0000C94F7031F93CF93DF9300D000D00F9298
:10080000CDB7DEB749835A836B8330911402898157
:100810009A8131111DC06623B9F02223A9F00E94EC
:10082000941C182F682F89819A810E943D1C698130
:100830007A81812F0F900F900F900F900F90DF9182
:10084000CF911F910C9475050E946B1C182FEFCF50
:100850000E94941C69817A81EDCFFC01262F408192
:1008600051816281738184810C94FA03CF93DF9369
:10087000EC0160E00E942D04BE01DF91CF910C9449
:10088000F8030E94DD1D811102C00E94811E0E949A
:100890007A100C947A070C947D0708950E94A8178B
:1008A0000E944D042FEF84E39CE021508040904053
:1008B000E1F700C000000C9410200F931F93CF931A
:1008C000DF93EC0161E00E942D048C01BE010E94C7
:1008D000F503882389F1BE01C8010E940511882310
:1008E00059F1BE01C8010E948F11882329F1BE0170
:1008F000C8010E94E1118823F9F0BE01C8010E94DD
:1009000004138823C9F0BE01C8010E94710F882317
:1009100099F08A81882339F001158CE5180751F088
:100920000F3D1C4579F0CE01DF91CF911F910F91C2
:100930000C94F3030E944E0480E0DF91CF911F914D
:100940000F9108950E94811EF7CFDF92EF92FF92E0
:100950000F931F93CF93DF93E82FF0E0E653FF4F01
:10096000D490282F26952695269530E0F901E65952
:10097000FE4F0491877010E0082E02C01595079570
:100980000A94E2F701701127F901E65AFE4FE4904C
:10099000F12C082E02C0F594E7940A94E2F791E056
:1009A000E922FF24F901E65BFE4FC491D0E002C0CA
:1009B000D595C7958A95E2F7C170DD270115110518
:1009C00019F081EE0E94A314E114F10419F086EEEF
:1009D0000E94A3148D2D0E942815EF2819F086EE91
:1009E0000E94E914012B19F081EE0E94E914CD2B2D
:1009F00051F08CE2DF91CF911F910F91FF90EF901A
:100A0000DF900C942815DF91CF911F910F91FF90EB
:100A1000EF90DF900895982F9F709A50963018F0BD
:100A2000805D0C94A504895AFCCFCF92DF92EF929F
:100A3000FF926C01EE24FF2420E0C114D104E104F4
:100A4000F10419F0C701B60120E1C72ED82EE92E16
:100A5000FF24C114D104E104F10419F0285FC70197
:100A6000B6016B017C0154E0F694E794D794C794E7
:100A70005A95D1F7C114D104E104F10419F02C5FA7
:100A8000C701B6016B017C0142E0F694E794D7946C
:100A9000C7944A95D1F7C114D104E104F10419F0C7
:100AA0002E5FC701B6019695879577956795672B59
:100AB000682B692B09F02F5F822FFF90EF90DF905A
:100AC000CF90089508950C94620581E008950C94E8
:100AD0006505CF93C82F0E9463058C2FCF910C948E
:100AE000670590E080E008950895E62F272F280FEE
:100AF0003327331FC90125E0289FB001299F700DBE
:100B00001124E60FF72FF11DEE0FFF1FE455FF4FE5
:100B1000859194910895FC01EE0FFF1FE658FE4F5A
:100B2000859194910895CF93DF930E9475050E945B
:100B30009F06EC01811520E5920708F041C0811560
:100B400030E4930708F0B4C0803E910518F5803C6E
:100B5000910508F09DC0883A910570F4853A910599
:100B600008F08EC081309105F9F00097E9F0049704
:100B7000D8F4D0E0C0E018C08F3B9105D0F7C85A38
:100B8000D0E0CC0FDD1FC85DDE4F0990D881C02DAD
:100B9000D4640AC08115904258F4C11581E0D80789
:100BA00018F4C83ED10528F7CE01DF91CF91089502
:100BB000C11590E3D90708F071C0CE019F706AC0DB
:100BC000811525E5920758F5811534E5930708F05E
:100BD0009EC0811542E5940750F4C11581E5D80700
:100BE00008F469C0DC2FCC27C16FD06ADDCF982F05
:100BF000969596959E0123703327C115D34508F02D
:100C000077C0C1E0D0E002C0CC0FDD1F2A95E2F72B
:100C100020E2929FC0011124C82BD92B67C0C115B7
:100C200089E5D807A8F4C11598E5D90708F074C07C
:100C3000C11526E5D20708F09CCF8C2F0E943607FD
:100C4000C82FD0E0DC2FCC27CC27DF71D062ACCF0F
:100C5000C1153AE5D30708F464C0CE01905681155A
:100C6000904208F086CF8D2F8F710E94360790E05A
:100C7000982F882788279F719C012C2BE901E6CFAC
:100C8000C55AD0E0CA5ADE4FC881D0E0D0648CCFBC
:100C9000805C91090E948B05EC0186CFCE019927DB
:100CA000D3FF03C0EC01D86C7FCFEC01D06C7CCFBC
:100CB000DF70D06A79CFCE01E4E096958795EA950A
:100CC000E1F783702C2F26952695237090E2299FBB
:100CD00090011124382B8C2F8370C1E0D0E002C02A
:100CE000CC0FDD1F8A95E2F7C22BD32BDC685CCFDB
:100CF000C1E0D0E002C0CC0FDD1F2A95E2F730E260
:100D0000939FC0011124C82BD92BDA684DCFD82F5F
:100D1000CC27C46FD06A48CFDC2FCC27C06FD06AF5
:100D200043CF8C2F8F700E94360734E0D695C7953D
:100D30003A95E1F7CF709C2FEC01D06935CF82381E
:100D40009105B1F1B0F48133910509F475C048F40F
:100D50008932910509F469C08A32910509F473C09A
:100D600008958533910509F459C08933910501F13E
:100D70000895833E9105A9F138F4803E9105F9F07C
:100D8000823E910549F10895863E9105A9F1873E7D
:100D90009105C9F1843E910519F52091C60221FF04
:100DA0001FC08091C50284FD14C087EE90E00895B5
:100DB0002091C5022370A1F080EE90E0089520916B
:100DC000C50220FD47C03091C60230FF09C024FF94
:100DD00044C090E080E004C02091C50222FDF7CF1E
:100DE00008952091C50222FD3BC03091C60230FD1E
:100DF000E3CF24FFF5CFEDCF2091C50223FFF0CF45
:100E000024FDE7CFD2CF2091C50223FD2CC0309125
:100E1000C60231FFEECF84EE90E008952091C50226
:100E200025FFDECF89E290E008952091C50225FFDD
:100E3000D7CF85E390E008952091C50226FFD0CF5B
:100E40008AE290E008952091C50226FFC9CF81E390
:100E500090E0089589E390E0089583EE90E008958E
:100E600082EE90E0089586EE90E008959091C5029C
:100E700092FF06C0282F28712830F9F4877F8460FC
:100E800093FF06C0282F28712831F1F4877E8461F2
:100E90002091C60220FF06C0382F38713830D9F4AF
:100EA000877F816021FF06C0282F28712831D1F467
:100EB000877E816194FD877E0895282F24712430D8
:100EC000F9F68B7F8860DCCF282F2471243101F75D
:100ED0008B7E8861DDCF382F3171313019F78E7FED
:100EE0008860E0CF282F2171213121F78E7E886123
:100EF000E1CF08950C94790708950C947C07E82FAE
:100F0000F0E0EA55FD4F808108950895A9E5B1E02C
:100F100041E050E08D918F3F91F0E82FE295EF7026
:100F2000F0E061A18F709A0101C0220F8A95EAF763
:100F3000922F9095962391A382A1822B82A381E088
:100F4000AE35B80739F71092A5021092A60281E0DB
:100F50000E94E8070C944104CF93A9E5B1E050E06A
:100F600040E030E061E070E02D912F3FA9F0E22FEA
:100F7000E295EF70F0E080A190E02F7002C09595AF
:100F800087952A95E2F780FD21C0CB01042E01C090
:100F9000880F0A94EAF7382B4F5F5F4F45305105B1
:100FA00019F78091A502C0E0831719F03093A502CC
:100FB000C1E02C2F41E066EA72E085EA92E00E94EF
:100FC000E9070E944B048C2FCF91089580E0E3CF76
:100FD0000895FF920F931F93CF93DF93F82E092F5D
:100FE000162FD72FC42F222349F081E08093D101FF
:100FF0000E94C51F9093D0018093CF018091D101B1
:101000008823A1F08091CF019091D0010E94DD1F33
:10101000069760F0EF2DF02FA12FBD2FCE0FDF2F01
:10102000D11DEC17FD0741F41092D101DF91CF9152
:101030001F910F91FF90089581918D93F2CFEF92C0
:10104000FF920F931F93CF93DF93EB01E82FD11102
:1010500010C0442321F0F0E0EC56FD4FE4916E2FD8
:101060007E2F8E2FDF91CF911F910F91FF90EF90E8
:1010700008950D2F10E0282F30E0442329F02C563E
:101080003D4FF901249130E0F6E0CF9FC0011124DB
:10109000EFEFF0E0BF010E940227AB018C2F90E040
:1010A000880F991FA5E5A49FB001A59F700D11247D
:1010B000861B970B982F990F980FBF01601B710B20
:1010C000629FD001639FB00D729FB00D11248B2FD2
:1010D0009D9FB0011124672F7727EF01C61BD70B07
:1010E000BE01629FE001639FD00D729FD00D11245D
:1010F0007F01E91AF108E09EB001E19E700DF09EBB
:10110000700D1124672F7727E61BF70BE29F8001F4
:10111000E39F100DF29F100D1124E12F722F42302A
:10112000510599F048F44115510569F041305105D8
:1011300081F0EB2F8D2F07C04430510569F080F00E
:1011400046305105B1F76E2F8DCFE22F7B2F812FC7
:10115000FACFE22F7D2FF7CFEB2F822F712FF3CF16
:101160007B2F822FED2FEFCF41E00C941F080895C5
:101170000C94B408CF93DF93762FE901682F842F66
:101180000E94B808798368838A83DF91CF9108959C
:101190008091A702982F9E7F29F4817082608093AE
:1011A000A70208958635E8F381708465F8CF88E05A
:1011B00090E00C94F427CF92DF92EF92FF926B01B4
:1011C0007C010E94C808B701A60188E090E0FF906A
:1011D000EF90DF90CF900C941228E7EAF2E083E0E2
:1011E000808311828FEF8283838314826081718177
:1011F000828193810C94DB088091A70280FF02C05A
:101200008695089580E008958091A70281700895E1
:101210009091AB02933018F49F5F9093AB028823B8
:1012200051F06091A7027091A8028091A90290915B
:10123000AA020C94DB08089581E00C9408099091AF
:10124000AB02992319F091509093AB02882351F08F
:101250006091A7027091A8028091A9029091AA02C0
:101260000C94DB08089581E00C941F0970E00C9445
:10127000E10F60910C018091A70280FF0AC080916C
:101280000B0123E0829FC001112484559D4F0C94D3
:10129000360980910D0190910E0123E0829FF001AB
:1012A0001124E455FD4F891750F7118210821282E4
:1012B0008F5F3396F8CF9091A70290FF14C0909162
:1012C0000D0120910E0133E0939FF0011124E455AC
:1012D000FD4F921710F00C9439098183608342838B
:1012E0009F5F3396F6CF0895CF93DF9300D00F9290
:1012F000CDB7DEB79091A70290FF0AC09E012F5F85
:101300003F4F0E94BA084B8169818A810E945B0924
:101310000F900F900F90DF91CF910895CF93DF93AF
:10132000EC01EC81F0E0E157FE4F4491E7EAF2E096
:10133000628181810E9474098C818F5F8C83DF912F
:10134000CF910895CF93DF93EC01E7EAF2E0438178
:1013500062818C810E9474098C818F5F8C83DF9104
:10136000CF9108950F931F93CF93DF9300D00F92E7
:10137000CDB7DEB78C018091D20181110AC09E01E8
:101380002F5F3F4F4FEF6FEF0E94BA088A81809323
:10139000D201F8016481613069F08091D20140E0AE
:1013A000662361F040E0623011F44091D20180E0A8
:1013B00060E004C06091D20140E080E00E945B09DF
:1013C000F801848190E0019663E070E00E941627A6
:1013D00084830F900F900F90DF91CF911F910F9109
:1013E0000895AF92BF92CF92DF92EF92FF920F9348
:1013F0001F93CF93DF9300D00F92CDB7DEB7182F96
:10140000F62E042FE22E9091A70290FF29C0E92F1B
:10141000E695AE2FB0E0A25ABE4F8C918093F701B3
:101420009E7F923059F59E012F5F3F4F812F0E9482
:10143000BA084B8169818A810E945B091093A802D6
:10144000F092A9020093AA02EE2051F06091A70247
:101450007091A8028091A9029091AA020E94DB08D3
:101460000F900F900F90DF91CF911F910F91FF90F0
:10147000EF90DF90CF90BF90AF900895823019F435
:101480000091AA02DBCF863019F41091A802D6CFC2
:101490008930D9F3893191F6E9518E2F8170D82E98
:1014A000E695F0E0E157FD4FA590B490C12CBB2428
:1014B00060910F01C61618F00E943909BFCF2C2D7C
:1014C00030E0A29EC001A39E900DB29E900D11240B
:1014D00070E00E940227812FD11013C0860F409127
:1014E0000D01420F532F511D9A01220F331F240F5C
:1014F000351F24553D4F402F6F2D0E94BA08C394CD
:10150000D7CF861BECCFE7EAF2E09181282F438109
:10151000628188E0890F0C94F10981E00C94830AC0
:10152000E7EAF2E09181282F4381628188EF890FF9
:101530000C94F10981E00C94900AE7EAF2E06281F0
:1015400021E1620F08F46FEF282F438181810C9411
:10155000F10981E00C949D0AE7EAF2E0628121E161
:10156000621B08F460E0282F438181810C94F1090B
:1015700081E00C94AC0AE7EAF2E0438121E1420FFA
:1015800008F44FEF282F628181810C94F10981E0EA
:101590000C94BB0AE7EAF2E0438121E1421B08F424
:1015A00040E0282F628181810C94F10981E00C9444
:1015B000CA0A21E00C94F10920E00C94F109EF92A1
:1015C000FF921F93CF93DF93EC0110E0EE24EA9497
:1015D000F12C60910F01161770F00E9439099A8161
:1015E0008C8190FF27C08F5F8C83DF91CF911F91FB
:1015F000FF90EF90089520910D01422F410F552744
:10160000551FCA019A01220F331F280F391F245575
:101610003D4F70E0C7010E941627962F8C814091A4
:10162000AA026091A902199F800D11240E94BA0894
:101630001F5FCFCF8150D8CFAF92BF92CF92DF92B2
:10164000EF92FF920F931F93CF93DF93FC01828160
:101650000FEF80FF01E010E045E0A42E80910F0124
:101660001817C8F00E9439098091D401013009F09F
:1016700055C0811102C080910F0181508093D40127
:10168000DF91CF911F910F91FF90EF90DF90CF905E
:10169000BF90AF900895C0910D01C12ED12CCC0DFB
:1016A000DD2DD11DCE01880F991FC80FD91FC4553C
:1016B000DD4F198218821A8234E0E32EF12CB12C0E
:1016C0008091D4018B0D86301CF16A2D0E94F42686
:1016D000892F082E000C990BC816D90691F4809119
:1016E000AA028E9DA0018F9D500D112455954795FE
:1016F000559547959E016091A9028091A8020E948C
:10170000BA08B00EF1E0EF1AF108D1F61F5FA6CFCC
:1017100087FFDFCF90910F01890FDBCF90E001961B
:1017200060910F0170E00E941627A8CF0F931F93BE
:10173000CF93DF9380910D0190910E0123E0829F62
:10174000F0011124E455FD4F891740F1C0E0D3E0CA
:1017500060910F01C61740F10E94390920910901DB
:101760008091D301820F8093D30190910A01920F4F
:1017700090930A01191654F4082E000C990B40910D
:101780000F014150550B841795071CF021952093AC
:101790000901DF91CF911F910F910895118210825D
:1017A00012828F5F3396D0CF0C2F10E070E0C8010B
:1017B0000E94162720910D01820F482F50E02091A2
:1017C000D301022E000C330B02171307BCF020913B
:1017D0000A01022E000C330B201731077CF08D9F7D
:1017E0009001112424553D4F4091AA026091A90215
:1017F0008091A8020E94BA08CF5FAACFFA01EE0F2B
:10180000FF1FE40FF51FE455FD4F11821082128275
:10181000F3CF8F929F92AF92BF92CF92DF92EF92CF
:10182000FF920F931F93CF93DF93EC014C81042F12
:1018300010E09801D8010E945A279B01AC010E9438
:1018400070274B015C01E0E2F0E0E01BF10BA5E545
:10185000B0E0AC019B010E9470276B017C019F01ED
:10186000DF010E9452279B01AC010E947B279B0154
:10187000AC01280D391D4A1D5B1DC701B6010E9430
:101880002A27F22E822F90E039E23F1560F143E0E3
:10189000249F9001112435952795122F109500E073
:1018A00085E5E82EEF1880910F01081758F10E9486
:1018B00039099C8181E0992319F0903219F48FEF56
:1018C0008093080180910801890F8C83DF91CF916B
:1018D0001F910F91FF90EF90DF90CF90BF90AF904E
:1018E0009F908F90089525E530E0B901681B790B32
:1018F0009B01220F331F260F371F37FFCCCF2F5FDF
:101900003F4FC9CF8E2D01FD8F2D20910D01622FEC
:10191000600F7727771F9B01220F331F260F371F7A
:1019200024553D4F412F6091A9020E94BA080F5FD4
:10193000BACF0F931F93CF93DF93EC0110E000E039
:1019400090910F019017110609F06CF40E9439096B
:101950008C8190E00196817099278C83DF91CF91E3
:101960001F910F91089520910D01A801420F511D63
:101970009A01220F331F240F351F24553D4F4C81F0
:101980006091A9028091A80296959017110651F0D6
:101990004CF0442349F04091AA020E94BA080F5F1C
:1019A0001F4FCECF4423B9F340E0F7CF4F925F9261
:1019B0006F927F928F929F92AF92BF92CF92DF925F
:1019C000EF92FF920F931F93CF93DF93FC016280FE
:1019D000448081E08483EFE8F1E07490EEE0F2E08F
:1019E000E491812C75E0972EF2E0CF2EDD24D39484
:1019F000AA24AA94B12C55245A94E7190E2F10E06A
:101A000080910F01881690F0DF91CF911F910F9177
:101A1000FF90EF90DF90CF90BF90AF909F908F900E
:101A20007F906F905F904F900C943909E82CF12CC7
:101A300082E0861568F09E9CF0019F9CF00D1124B9
:101A4000EB52FE4F8091A80280838091A90281838E
:101A5000411023C09E9CF0019F9CF00D1124EB527D
:101A6000FE4F1382128220910D01C701820F911D3A
:101A70009C01220F331F280F391F24553D4F9E9C78
:101A8000F0019F9CF00D1124EB52FE4F42816181C9
:101A900080810E94BA088394B3CF9E9CE0019F9CF2
:101AA000D00D1124CB52DE4F8B818823E9F0815079
:101AB0008B83859DC00111246C8170E00E940227F8
:101AC000FB01FF27E157FE4F8491E82FE719E59DC1
:101AD000C0011124B8010E9402278091AA02689FC8
:101AE000B00111247A83BFCF0E94CF272091AA0290
:101AF000269521582C9DA0012D9D500D1124452F78
:101B00005527841795070CF0AECF82E0861588F430
:101B10000E94CF27B5010E94162788830E94CF27F5
:101B20002091A9022695622F70E00E941627280FA7
:101B300029839E9CF0019F9CF00D1124EB52FE4FD7
:101B400012828091AA02893C58F088EC9E9CF00198
:101B50009F9CF00D1124EB52FE4F8483838383CF2F
:101B60008431A0F784E1F2CFE7EAF2E080818E7F52
:101B7000808360817181828193810E94DB08109251
:101B8000F8012FEF80E792E0215080409040E1F78C
:101B900000C000000C943909E7EAF2E080818E7FF2
:101BA00080831092F8012FEF80E792E0215080406F
:101BB0009040E1F700C000000C9439091092F80140
:101BC0008091F50181110AC081E08093F501809137
:101BD000A70281708093F4010C94CC0D089560915C
:101BE000A702669570E04BE050E080E191E00E9432
:101BF000DF27892B19F481E08093F8010E94C51F2B
:101C00009093EF018093EE0108959091A70290FFC9
:101C100035C09170811128C092609093A70266230D
:101C200051F06091A7027091A8028091A902909151
:101C3000AA020E94DB086091A702669570E04BE063
:101C400050E080E191E00E94DF27892BA1F0109203
:101C5000F80181E08093F1014091AA026091A9020C
:101C60008091A8020C94DC0A8B3210F09465D5CFD9
:101C7000880F982BD2CF0E94EF0DEBCF0895682FDD
:101C80009091A702969581E0890F8B3208F081E050
:101C90000C94050E81E00C943F0E682F9091A702E2
:101CA00096958FEF890F09F48AE20C94050E81E076
:101CB0000C944D0E61E00C94050EE7EAF2E0808191
:101CC0008160808386950C945A0E8091A70280FDD6
:101CD0000C94B40D0C945D0E60E00C94050E809194
:101CE000F60181112EC00E94DD1D811104C00E94E9
:101CF000811E0E94ED080E94D7086093A70270938E
:101D0000A8028093A9029093AA026E7F61F40E94B8
:101D1000ED080E94D7086093A7027093A8028093F1
:101D2000A9029093AA020E94C8081092F80180911B
:101D3000A70280FF03C086950E946C0E81E080930D
:101D4000F6010895E7EAF2E080818160808386955C
:101D50000C946C0E1092F5018091F40181110E9497
:101D6000A20E0C94EF0D0F931F93CF93DF938091EE
:101D7000F801882309F496C08091F701E091A70249
:101D8000E695E81BE093F001823091F5F0E0E5572D
:101D9000FE4FE491CE2FD0E00EE819E08091F101E2
:101DA000882361F01092F1010E94C51F9093EF010A
:101DB0008093EE011092F3011092F2010E94C51F70
:101DC000E091EE01F091EF018E1B9F0B8F3F9F473B
:101DD00008F068C0EC0FFD1FF093EF01E093EE01F7
:101DE0008EEE91E0F801DF91CF911F910F91099450
:101DF000863049F4F0E0E857FE4FE491CE2FD0E072
:101E000002EA19E0CBCF893051F4E695F0E0EB57C8
:101E1000FE4FE491CE2FD0E00FED1AE0BFCF8F3010
:101E200051F4E695F0E0EE57FE4FE491CE2FD0E06E
:101E30000CE11BE0B3CF853149F4F0E0E158FE4FEF
:101E4000E491CE2FD0E006E91BE0A8CFC8E2D0E0B5
:101E500009E01CE0883109F4A1CF833239F4EDE7C1
:101E6000F1E0C591D49102EB19E098CFC4EFD1E035
:101E700009E91CE0843209F491CFC0EDD7E007EB0B
:101E800018E0853209F08ACF8E2F63E00E94E826A1
:101E9000E92FF0E0E658FE4FE491CE2FD0E006EDBA
:101EA0001CE07CCFDF91CF911F910F910895FA0133
:101EB000811101C0FB010994CF93DF93C82FD62F66
:101EC0000E94FC088C1740F00E94FC088D1720F43B
:101ED000DF91CF910C944A0E8C2FDF91CF910C940F
:101EE0005A0E0F931F93CF938C01FB01C281CC2319
:101EF00009F465C00E94291D8272F801E35CFC456B
:101F0000E431F10538F4EB5AF74D0C944C270E945C
:101F1000650EC0E08C2FCF911F910F91089547E57A
:101F20005EE06AE47EE00E94570FF3CF4AE45EE091
:101F300067E57EE0F8CF4AE95AE06DE87AE0F3CF52
:101F40004DE85AE06AE97AE0EECF48EB5AE069EAF8
:101F50007AE0E9CF49EA5AE068EB7AE0E4CF46ED6F
:101F60005AE067EC7AE0DFCF47EC5AE066ED7AE0C2
:101F7000DACF43E359E06CE179E0D5CF4CE159E0A9
:101F800063E379E0D0CF81E00E945A0EC2CF65E0D2
:101F900082E00E945C0FBDCF68E086E0FACF6EE081
:101FA00089E0F7CF64E18FE0F4CF67E185E1F1CF1D
:101FB00088E1EACF62E289E1ECCF83E2E5CFC1E0DC
:101FC000A9CF3F9A48B14F7758B15068EFB7F8940E
:101FD0009B01220F331F260F371F280F391F281789
:101FE000390741F4EFBF8FE594E00197F1F700C0A6
:101FF00000000895DC016D91CD0178E058B9000032
:1020000000C067FF48B9660F000000C000C000C0F4
:1020100048B900C07A9591F7E2CF0C94C902509864
:10202000589A52985A9A89B181704A9905C090E09D
:10203000892B8093FB01089592E0FACFE091FB0198
:10204000EE0FEE0FE093FB0149B1842F817049B18F
:1020500042FB222720F942FF02C022E030E0822B1F
:10206000E82BE093FB01EF70F0E0E757FE4F808133
:102070009091FA01890F8093FA0120E0823054F0A8
:102080008091F9018F5F8093F90160E080E00E9408
:102090000D1021E08091FA018F3F54F48091F901F5
:1020A00081508093F90161E080E00E940D1021E0F1
:1020B0008091FA01082E000C990B62E070E00E94FA
:1020C00016278093FA01822F0895CF93DF93EC01B6
:1020D00097FF0CC0FB018281882341F00E94901081
:1020E000CE019F770E94EA100E94CB1081E0DF9121
:1020F000CF9108958CE090E00E94EC2790E0B0E052
:10210000A0E08093BB029093BC02A093BD02B09369
:10211000BE0208956091BB028CE090E00C94002810
:102120000E943F13869581708093C0029091BB02FC
:10213000913029F4882319F089E30E9428150E9420
:10214000291D8093BF020E943C1D8091BB028130FB
:1021500089F0882359F0823091F08430B9F08FE310
:102160009CE90197F1F700C00000089582EE0E94FB
:10217000A314F5CF88E193E00E94E903F0CF82EE4B
:102180000E94A31487E50E942815E9CF86EE0E94DD
:10219000281588E1F8CF8091BB02813071F0882347
:1021A00041F0823031F0843099F08091BF020C947C
:1021B000391D82EE0E94E914F8CF8CE20E942815A6
:1021C0008091C002882389F389E30E942815EDCF0E
:1021D00088E2FBCF0F931F93CF93DF938C01CCE06A
:1021E000D0E0C8010C2E02C0969587950A94E2F7BC
:1021F0008F700E940B052497CC3F8FEFD80789F78B
:10220000DF91CF911F910F9108950F931F93CF935B
:10221000DF93EC018B01FB018281882361F00E9436
:10222000291DCE01825E9C458530910520F4809366
:10223000BB020E948A10B801CE01DF91CF911F919D
:102240000F910C9465100F931F93CF93DF93C42FBE
:10225000D22FFC0182818823C9F04093FE010E94A5
:10226000C51F9093FD018093FC0180E28C0F8830A4
:1022700008F050C0C77081E001C0880FCA95EAF726
:10228000DF91CF911F910F910C9430151091FE01A9
:10229000141335C08091FC019091FD010E94DD1F57
:1022A0008C32914060F5C0E2CD0F1D17B9F080E28D
:1022B000810F883040F4177081E001C0880F1A95B3
:1022C000EAF70E943715C83048F481E09D2F9770D7
:1022D00001C0880F9A95EAF70E943015802F0E945E
:1022E0002815C830B8F4D77081E001C0880FDA959E
:1022F000EAF7DF91CF911F910F910C94371580E28F
:102300008C0F883038F4C77081E001C0880FCA95FF
:10231000EAF7EFCFDF91CF911F910F9108950F93BF
:102320009C01CB01243F4CE5340759F1A8F4293D29
:10233000FCE53F0701F12A3D4CE53407D1F1283D8A
:102340003C4591F406E221EE41EE68ED7CE50E9409
:10235000231180E00F910895263FFCE53F07E9F047
:10236000B0F0273F3C45F9F0FC018281882339F128
:102370001092FE01EFCF07E225EE45EE69ED7CE518
:10238000E6CF06E221EE40EE64EF7CE5E0CF07E227
:1023900025EE44EE65EF7CE5DACF06E221EE42EE73
:1023A00066EF7CE5D4CF07E225EE46EE67EF7CE5ED
:1023B000CECF08E221E045EE6AED7CE5C8CF81E0B2
:1023C000C9CFCF93DF93EC01FB018281882309F40D
:1023D00019C1C230FCE5DF07C0F1C6319CE5D90761
:1023E00030F09E012B5F3C452930310570F50E948D
:1023F000F01D9093C6028093C502C031ECE5DE0764
:1024000009F4CFC008F05BC0C8308CE5D80709F4E8
:10241000B6C088F5C430ECE5DE0709F4A8C0C0F406
:10242000C2308CE5D80709F49CC08091C502826057
:10243000C330DC4509F498C08091C5029091C60272
:102440000E94FE1D0E94A81780E0DF91CF910895A1
:102450008091C5028061C630ECE5DE0709F484C0D6
:102460008091C5028860C730DC4508F47DC080914A
:10247000C502806279C0CC308CE5D80709F489C0E8
:1024800070F48091C5028C60CA30ECE5DE0709F477
:102490006BC008F478C08091C5028E7F65C0CE30D5
:1024A0008CE5D80709F479C08091C5028B7FCF30C5
:1024B000DC4508F459C08091C5028F7E55C0CC3FE1
:1024C000ECE5DE0709F457C030F5C3318CE5D807D9
:1024D00009F46FC078F4C131ECE5DE0709F465C09A
:1024E000C231DC4509F0A8CF0E94A8178091C5022F
:1024F0008F773AC0C5318CE5D80709F462C008F47B
:1025000076C08091C6028160CB3FDC4509F094CF54
:102510008093C60291CFC115FDE5DF0709F44DC0D8
:1025200088F48091C6028D7FCE3F9CE5D90781F368
:102530008091C6028E7FCF3FDC4550F38091C6026A
:102540008360E6CFC230FDE5DF0709F459C008F427
:1025500044C080E0C330DD4509F06ECF0E94831E89
:102560006BCF8091C50281608093C50265CF809159
:10257000C5028460F9CF8091C6028260C9CF809184
:10258000C5028064F1CF0E94A8178091C5028068BF
:10259000EBCF8091C5028D7FE7CF8091C502877F09
:1025A000E3CF8091C5028F7DDFCF8091C5028F7B05
:1025B000DBCF8091C502837FD7CF8091C6028C7F0D
:1025C000A7CF8091C50282FB992790F921E092273D
:1025D00090FB82F990FB83F9C7CF8091C602982FB8
:1025E000909591708E7F892B90FB81F991CF0E94FD
:1025F000A8179091C502892F97FB87F98058B4CF0F
:1026000081E0ACCF81E021CFCF93DF93EB01863126
:102610009C4511F50E94291D9A81992399F08A7A87
:1026200091E009F490E09093FF01811109C089E2E3
:102630000E94041D0E94781D80E0DF91CF910895D3
:1026400085E3F6CF8091FF01811104C089E20E94E9
:102650000B1DF0CF85E3FBCF81E0EFCF9093050218
:10266000809304020895E0910402F09105023097EE
:1026700021F00190F081E02D099480E00895E0912F
:102680000402F0910502309711F480E00895019062
:10269000F081E02D09950895E0910402F091050282
:1026A000309799F020912701222359F02091C502FB
:1026B00027FF07C0DC012C9111962C93119725E080
:1026C0002C930280F381E02D099408952091020259
:1026D000309103022817390771F090930302809319
:1026E0000202E0910402F0910502309721F0068089
:1026F000F781E02D099408952091000230910102A4
:102700002817390771F09093010280930002E0913D
:102710000402F0910502309721F00084F185E02D4C
:10272000099408950E94D11F6093100270931102C2
:10273000809312029093130260930C0270930D0227
:1027400080930E0290930F0208950E94D11F609310
:1027500010027093110280931202909313026093FF
:1027600008027093090280930A0290930B02089565
:1027700085B7806885BF85B7806885BF089508954F
:1027800008950C94BF1308950C94C3130E94B813BA
:102790008BED9DE10E9421200E94C0130C94C11377
:1027A00081E008950C94D013089508950E94BC1FF1
:1027B0000E9486070E9426200E946F0E0E940F1022
:1027C0000C94C413EF92FF920F931F93CF93DF9358
:1027D000CDB7DEB72A970FB6F894DEBF0FBECDBFD8
:1027E0000E94D4130E94D5130E94AC0781110E944D
:1027F000921380E00E947F07182F80910702E82E35
:10280000E126811709F44AC080917F0281FD0E9470
:102810008507F12C01E08E2D8023D9F10E94D2137F
:10282000882399F0FE821F82102381E009F480E062
:1028300088870E94C51F8160782F9A8789874E817B
:102840005F8168858A850E946C1480910702082741
:10285000009307020E94B30E0E941E1081110E9475
:10286000A5130E94331390910602891741F10E942B
:102870003313809306022A960FB6F894DEBF0FBE7C
:10288000CDBFDF91CF911F910F91FF90EF900C94EE
:102890006905F394000F85E0F812BDCF8FEF8983AF
:1028A0008A831B820E94C51F8160782F9D838C8341
:1028B00049815A816B818D810E946C14CBCF2A96FD
:1028C0000FB6F894DEBF0FBECDBFDF91CF911F9141
:1028D0000F91FF90EF900895DF92EF92FF920F9388
:1028E0001F93CF93DF93CDB7DEB72B970FB6F89436
:1028F000DEBF0FBECDBF7A878B87F42E052F162F34
:10290000E72ED82E61110E944C1D1E821D827E2D45
:10291000EC82DD824F2D502F612F8D2D9E812B96C5
:102920000FB6F894DEBF0FBECDBFDF91CF911F91E0
:102930000F91FF90EF90DF900C941F1AFC018081A3
:1029400091810C94D61CCF93C82F882309F43FC0E3
:102950008CEF8C0F813AA0F46C2F80911B01909129
:102960001C010E949C1E882329F08C2F0E940B1DA5
:102970000E94781D8C2F0E94041DCF910C94781D0D
:1029800080E28C0F883048F4C77081E001C0880F66
:10299000CA95EAF70E942C1DF0CFEBE5EC0FE3306F
:1029A00040F4F0E0E953FE4F808190E0CF910C9429
:1029B0006613C85AC73158F4EC2FF0E0EE0FFF1F32
:1029C000E756FE4F80819181CF910C947C13CF917B
:1029D0000895882329F19CEF980F913A20F40E94E2
:1029E0000B1D0C94781D90E2980F983050F487706E
:1029F00091E001C0990F8A95EAF7892F0E94321D54
:102A0000F0CF9BE5980F933020F490E080E00C9499
:102A10006613885A873120F490E080E00C947C1390
:102A200008951F93CF93DF93182FEB010E94A314F7
:102A3000209731F4812FDF91CF911F910C94E914ED
:102A40008FE99FE00197F1F700C000002197F0CFD8
:102A500070E060E0893311F460E570E00C941115CA
:102A6000882321F00E942C1D0C94781D0895882342
:102A700021F00E94321D0C94781D0895BF92CF92D0
:102A8000DF92EF92FF920F931F93CF93DF936C012E
:102A9000D62FC72FFC011281058102950F700E946D
:102AA000221DE82E8823A1F0E12E112389F08C2F1E
:102AB000807F803429F080E28D0FE12C883040F057
:102AC00082E00E94C31D0E94221D91E0E82EE926AB
:102AD000BC2EB2949FE0B922EB2DF0E0E759F74D00
:102AE0000C944C270C2F0F70C07F11F00295007FC3
:102AF0001123A9F0002359F080E28D0F883010F0E7
:102B0000D11109C0802F0E942C1D0E94781D8D2F8D
:102B10000E94A31414C0802F0E943F1DF6CF8D2F5A
:102B20000E94E914002359F080E28D0F883010F0E4
:102B3000D1112CC0802F0E94321D0E94781D2B2D98
:102B40002850330B2430310520F40E9433130E94A7
:102B50006905EE2009F493C10E941E1D80FD8FC1FE
:102B6000F60112820E94181D0E94A11BC6010E943C
:102B700060170E94181DDF91CF911F910F91FF9058
:102B8000EF90DF90CF90BF900C94C21B802F0E94DB
:102B9000451DD3CFFC2FFF70FF2EC07FC03219F030
:102BA000F29480EFF822DD2369F0D13049F111234E
:102BB00091F1002351F1F601858180FFA8CF8F703C
:102BC000858323C0112381F0011106C00E945F1D7F
:102BD0008F290E943015B3CF0130C1F70E945F1DCD
:102BE0008F290E94651DABCF011106C00E946E1D8A
:102BF0008F2D0E943715A3CF013009F4A0CFF6CF57
:102C0000112329F0063008F09ACF8F2DE2CF05303E
:102C100008F095CFEDCF002359F3D93349F4FFEFF6
:102C200027EE33E0F15020403040E1F700C00000D3
:102C30008D2F0E94E91483CF8C2F86958695837003
:102C400069F0813009F07BCF8D2F9C2F937011118B
:102C500002C090E080E00E947C1371CF8D2F9C2FEA
:102C60009370111102C090E080E00E94661367CF5C
:102C70008C2F837009F041C0111161CF4D2F429507
:102C800046954770440F440F0D2F0F7010E030E051
:102C900020E0042E04C0000F111F221F331F0A94CE
:102CA000D2F760E070E0CB01D4FF0FC06FE070E0BE
:102CB00080E090E004C0660F771F881F991F4A9537
:102CC000D2F76095709580959095C695C695C3701E
:102CD000602B712B822B932BC23049F058F4C130FA
:102CE00019F00E94551B2BCF0E94431B28CF0E9436
:102CF000671B25CF0E94411B22CF8695112311F01F
:102D00008C2F8170882309F41ACF4D2F4295469558
:102D10004770440F440F0D2F0F7010E030E020E09B
:102D2000042E04C0000F111F221F331F0A94D2F774
:102D300060E070E0CB01D4FF0FC06FE070E080E096
:102D400090E004C0660F771F881F991F4A95D2F73D
:102D50006095709580959095C695C695C370602BCB
:102D6000712B822B932BC23049F058F4C13019F0EB
:102D70000E94181CE4CE0E94061CE1CE0E942A1C70
:102D8000DECE0E947B1BDBCECF70112329F08C2F6F
:102D90000E94A11B8D2F1DCF8D2F0E9437158C2FC8
:102DA0000E94C21BCCCED23F89F160F4D03FC9F063
:102DB000D13F29F1112309F442C00111A8CE8C2F73
:102DC0008F7121C0D33F39F1D43FA1F7112369F1AD
:102DD000CF718C2F0E94A11B63E08C2F0E94AE1D2F
:102DE000AECE112341F0053008F0A9CE8C2F8F71A3
:102DF0000E94E51BA4CE063008F0A1CEF7CF8C2FA1
:102E00008F71112369F20E94A11B99CE8C2F8F71B3
:102E10001123C9F3C5CF112329F08C2F8F710E9484
:102E20008C1B8DCE0E94871B8ACE81E00E94C31D21
:102E3000023008F484CE82E00E94C31D80CE0023BD
:102E400059F0D93309F0F4CE8FEF97EEE3E08150DB
:102E50009040E040E1F7EACE8C2F8F71A1CF4C2F4C
:102E60004F706D2FC6010E9471050E94B91A67CE7E
:102E70004C2F4F706D2FC6010E94740560CEDF91FC
:102E8000CF911F910F91FF90EF90DF90CF90BF9067
:102E900008950F931F93CF93DF93EC01688179819D
:102EA0008A810E94E01C8C010E943C1C0E94401BF5
:102EB000B801CE01DF91CF911F910F910C943E1577
:102EC000CF93DF93EC018B819C81892B29F0888142
:102ED000998189238F3F59F4DF91CF910895CE01D5
:102EE0000E944917CE01DF91CF910C943604CE0198
:102EF0000E945D048111F3CF0E94221D882361F39B
:102F00008A81882349F382E0DF91CF910C94C31D1D
:102F1000882321F00E943F1D0C94781D089588237A
:102F200021F00E94451D0C94781D089590E080E0EA
:102F30000E94661390E080E00E947C130E944C1D6A
:102F40000E945C1D0C94781D0E94121D0C94961713
:102F50000E943C1D0C94A417E92FE295EF70E250FB
:102F6000EE3070F4F0E0E758F74D0C944C27803FBA
:102F700019F020F4883E20F481E00895843FE1F3C5
:102F800080E00895883EC0F3813FD1F7F5CF93FBF1
:102F9000882780F908950E94D61C0C94AC17CF9313
:102FA000DF9300D000D00F92CDB7DEB70F900F9017
:102FB0000F900F900F90DF91CF910895CF93DF93F3
:102FC00000D000D000D0CDB7DEB726960FB6F8946B
:102FD000DEBF0FBECDBFDF91CF9108951F93CF937A
:102FE000DF93C091150216E0809116028C1304C085
:102FF000DF91CF911F910895D0E01C9FF0011D9F9C
:10300000F00D1124E95EFD4F408151816281738191
:10301000848195810E94DE172196C770E5CF40918B
:103020004702509148026091490270914A02809192
:103030004B0290914C020C94DE171F93CF93DF93B9
:1030400080914C02807FA9F480914902882389F005
:1030500080911502C091160260914702709148025A
:10306000A0914A02B0914B02D62FD72316E0C81385
:1030700004C0DF91CF911F91089590E0109711F057
:10308000DF3F19F401968770F2CF189F9001199FC6
:10309000300D1124F901E95EFD4F41814713F2CF54
:1030A00040814613EFCF42814111ECCF43815481DF
:1030B0004A1B5B0B4C32514028F780914C028F70B9
:1030C000806180934C02F901E45EFD4F80818F7036
:1030D0008061808387E492E00E946017DF91CF9146
:1030E0001F910C94EE17AF92BF92CF92DF92EF92A6
:1030F000FF920F931F93CF93DF93CDB7DEB7619706
:103100000FB6F894DEBF0FBECDBF8C0185E0F8018D
:10311000DE011D9601900D928A95E1F7F80140813C
:103120005181E28087E4C82E82E0D82E60914A0265
:1031300070914B026115710509F462C190914702CB
:1031400020914802892F82238F3F09F459C1A3801F
:10315000B480F0904902F501E61BF70BBF01FF2098
:1031600009F4FCC080914C02382F307F6C327140E2
:1031700008F0B2C0311179C0FE2C251323C094137E
:1031800021C0E1101FC08F70806180934C020E94AB
:103190000F18C6010E94601780914C02F8018583C8
:1031A0008F2D61960FB6F894DEBF0FBECDBFDF91B5
:1031B000CF911F910F91FF90EF90DF90CF90BF9034
:1031C000AF900895AB2829F0842F85238F3F09F015
:1031D00033C180E0F82FF170DF2E80FF3CC080917A
:1031E00015022091160236E0821315C04D875E87C6
:1031F0008D859E850E94D61C292F22952F70223006
:10320000F0F0243018F59F70F1F0F8019581907F6F
:10321000D1F4D12C1EC090E0389FF001399FF00D01
:103220001124E95EFD4F6181651306C0608164135E
:1032300003C062816E110FC001968770D5CF9F7059
:1032400011F0882331F3805E883018F3C8010E94A2
:103250006017FD2CA5CFEE2009F4A2CF80914C027F
:10326000816080934C02F12C9BCF251306C09413F0
:1032700004C0F801EE2009F48DC04D875E878D856E
:103280009E850E94CB17882319F1EE2009F18091C9
:103290004C02803270F0209147023091480238870A
:1032A0002F831986BB86AA868C87CE0107960E943B
:1032B000601786E0F801A7E4B2E001900D928A95CC
:1032C000E1F70E941D180E940F18FF24F39468CFA5
:1032D000C8010E946017F9CF311113C07A2DB98A45
:1032E000A88A6E2D89890E94CF1787E492E00E94F8
:1032F000601786E0F60111928A95E9F70E940F188F
:10330000B2CF25130FC094130DC0E1100BC0F8010C
:103310008583C8010E94601786E0F60111928A95A4
:10332000E9F73ECF4D875E878D859E850E94CB173E
:10333000882371F2EE2061F280914C02803208F411
:10334000B8CF20914702309148023A8329831B82EB
:10335000BD82AC828E83CE010196A9CF6C327140C2
:1033600008F041C0FE2CEE2009F4B2CF25132AC08C
:10337000941328C080914C0280FD1BC0982F907F31
:10338000C1F0F8018583903F31F0982F907F905FD6
:103390008F70892B8583C8010E94601786E0F80131
:1033A000A7E4B2E001900D928A95E1F70E940F1810
:1033B000F7CE86E0F801A7E4B2E001900D928A957D
:1033C000E1F7EECE4D875E878D859E850E94CB17F7
:1033D00081116FCF80914C02816080934C02C801B3
:1033E0000E946017DDCE7A2DB98AA88A6E2D898950
:1033F0000E94CF1786E0F60111928A95E9F7D6CFA1
:10340000EE2009F465CF4D875E878D859E850E94ED
:10341000CB17F82E882309F45BCF86E0F801A7E4E8
:10342000B2E001900D928A95E1F787E492E00E9464
:103430009E140E941D18BACF81E08E25CBCE1F931B
:10344000CF93DF93CDB7DEB72C970FB6F894DEBFDE
:103450000FBECDBF4F83588769877A878B879C873C
:10346000CE0107960E947318882369F08A859B8590
:10347000892B39F04F815885842F85238F3F09F0A0
:1034800071C016E05FC086E0FE013796DE0111963E
:1034900001900D928A95E1F78A859B85892B89F3A6
:1034A0008F81988589238F3F61F32091160230E048
:1034B000C90101968770992740911502481719068E
:1034C00071F40E94A817109216021092150286E05D
:1034D000E7E4F2E0DF011D928A95E9F7D2CF96E0AA
:1034E000929FD001939FB00D1124A95EBD4FFE01A4
:1034F000319601900D929A95E1F7809316020E9401
:10350000EE17BFCF819FC0011124895E9D4F0E949D
:1035100073188823E9F0E09115021E9FF001112431
:10352000E95EFD4F40815181628173818481958183
:103530000E94DE178091150290E00196877099270E
:103540008093150280911502909116028913DACFAB
:103550002C960FB6F894DEBF0FBECDBFDF91CF9192
:103560001F91089569857A858B859C850E94DE1759
:1035700088CFEF92FF920F931F93CF93DF938C012D
:10358000892B81F0F12CEE24E394E8012196F801D7
:103590008491843770F4843008F05FC08130B1F0DA
:1035A0008230A1F1DF91CF911F910F91FF90EF90A9
:1035B0000895853709F44CC008F43DC09CE7980F86
:1035C000903780F78F770E94E91449C00E5F1F4F34
:1035D000FE01849190E2980F983060F48770FE2D80
:1035E00001C0FF0F8A95EAF78F2F0E944F1D0E949E
:1035F000781D02C00E94A3148F2D815030F2EFE994
:10360000FFE03197F1F700C00000F7CF0E5F1F4FCA
:10361000FE01849190E2980F983050F48770FE2D4F
:1036200001C0FF0F8A95EAF78F2F0E94551DDFCF4B
:103630000E94E914E1CF0E5F1F4FFE01C491C150FB
:10364000D8F28FE99FE00197F1F700C00000F7CFB3
:103650000E5F1F4FFE01F490CFCF0E94A3148E0186
:10366000CBCF08950C94311B0E94321B60935602FD
:103670007093570280935802909359020C949617B6
:1036800008950C94341B0F931F93009156021091D0
:1036900057022091580230915902602B712B822BD6
:1036A000932B1F910F910C94341B0F931F93009138
:1036B000560210915702209158023091590260230E
:1036C0007123822393231F910F910C94341B0F932A
:1036D0001F93009156021091570220915802309189
:1036E000590260277127822793271F910F910C940D
:1036F000341B0C9420030E94791B60935202709338
:10370000530280935402909355020C94961760E0F4
:1037100070E0CB010C947B1B0F931F9341E050E0B2
:1037200060E070E08A019B0104C0000F111F221F9E
:10373000331F8A95D2F7C901B8011F910F910C94DC
:103740007B1B0F931F9341E050E060E070E004C0EA
:10375000440F551F661F771F8A95D2F7809152023A
:1037600090915302A0915402B09155028A019B019D
:10377000082B192B2A2B3B2BC901B8011F910F9144
:103780000C947B1B0F931F9341E050E060E070E0CE
:1037900004C0440F551F661F771F8A95D2F7CB01CF
:1037A000BA016095709580959095009152021091A4
:1037B00053022091540230915502602371238223D9
:1037C00093231F910F910C947B1B0F931F9341E048
:1037D00050E060E070E004C0440F551F661F771F83
:1037E0008A95D2F78091520290915302A09154028F
:1037F000B09155028A019B01082719272A273B27E8
:10380000C901B8011F910F910C947B1B0F931F935B
:1038100000915202109153022091540230915502AE
:10382000602B712B822B932B1F910F910C947B1B80
:103830000F931F9300915202109153022091540252
:103840003091550260237123822393231F910F919E
:103850000C947B1B0F931F93009152021091530203
:1038600020915402309155026027712782279327B7
:103870001F910F910C947B1B0895E92FEE0FEE0F13
:103880009E0F890F982F977041E001C0440F9A95C1
:10389000EAF786958695869595E0899FF001112433
:1038A000E35BFD4F30E020E070E05191DF011197C4
:1038B000CB01022E02C0969587950A94E2F781709B
:1038C00081958527842385278C932F5F3F4F253053
:1038D000310559F70895E92FEE0FEE0F9E0F890F6E
:1038E000982F977086958695869525E0829FF001A2
:1038F0001124E35BFD4F50E040E080E0219130E097
:10390000092E02C0369527950A94E2F721703327D5
:10391000042E01C0220F0A94EAF7822B4F5F5F4FFB
:103920004530510559F70895BF92CF92DF92EF923B
:10393000FF920F931F93CF93DF938C01C09052029D
:10394000D0905302E0905402F090550280915602BC
:1039500090915702A0915802B0915902C82AD92AD1
:10396000EA2AFB2ACFE1D0E0BC2ED701C6010C2EFB
:1039700004C0B695A795979587950A94D2F780FDD0
:103980000EC0219788F7B12C8B2DDF91CF911F911D
:103990000F91FF90EF90DF90CF90BF900895B80106
:1039A0008C2F0E949305019761F3EECFCF93DF93A5
:1039B000EC010E94941CBE01DF91CF910C94930501
:1039C0001F93CF93DF93EB0190911402992331F071
:1039D000CB01DF91CF911F910C94D61C882379F0F5
:1039E000CB010E94941C182F682FCE010E943D1C11
:1039F000BE01812FDF91CF911F910C949305CB01D4
:103A00000E946B1C182FF4CF682F80911B0190919E
:103A10001C010C941C1F682F80911B0190911C01AC
:103A20000C94271F80911B0190911C010C94321F54
:103A300080915A02859585958595089580915A02C1
:103A40008770089590915A02977081E009F480E0A0
:103A5000089580917E02089590917E02892B809333
:103A60007E020895809590917E02982390937E0225
:103A7000089580937E02089510927E020895909199
:103A80007D02892B80937D020895809590917D021F
:103A9000982390937D02089510927D02089590914D
:103AA0007C02892B80937C020895809590917C0202
:103AB000982390937C02089510927C02089580913F
:103AC0005B02089508950C94621D90915B02981713
:103AD00021F080935B020C94631D089580915B023A
:103AE000882329F010925B0280E00C94631D0895F6
:103AF000E0911B01F0911C0180917E028083E09196
:103B00001B01F0911C01808190917D02892B8083A3
:103B1000E0911B01F0911C01808190917C02892B26
:103B2000808390915B02992381F0E0911B01F091D9
:103B30001C018081892B808380911B0190911C0145
:103B40000E94881E81110E946E1D80911B01909120
:103B50001C010C944C1308950C94AB1D98E0899FA4
:103B600090011124622B60935A020E94A11B809144
:103B70005A028595859585950C94AC1D10925A0234
:103B800080E00C94AC1D90915A028095892380931B
:103B90005A02282F277071F4282F082E000C330B9F
:103BA0009217130639F08595859585950E94C21B5D
:103BB0000C94BE1D089580E0089590E080E00E947E
:103BC000FA2721E08B3E9E4F09F020E0822F0895D6
:103BD00082E090E00C94EC2783E090E00C94EC27DA
:103BE000CF9384E090E00E94EC27C82F81E290E020
:103BF0000E94EC27982F8C2FCF910895CF93C92F37
:103C0000682F84E090E00E9400286C2F81E290E011
:103C1000CF910C940028AB01BC018FE090E00C9494
:103C20001228AB01BC0183E190E00C94122860E003
:103C300070E0CB010C94111E60E070E0CB010E949B
:103C40000B1E0C94171E6BEE7EEF90E080E00E943E
:103C50001E2860E082E090E00E94002860E083E09F
:103C600090E00E9400281092560210925702109283
:103C700058021092590260E084E090E00E9400280F
:103C800060E081E290E00E94002860E085E090E042
:103C90000E94002860E086E090E00E9400286FEF1C
:103CA00087E090E00E94002840E050E0BA0188E000
:103CB00090E00E94122860E08DE090E00E940028D1
:103CC00040E050E0BA0188E190E00E94122860E0F4
:103CD00087E190E00E94002840E050E0BA018CE1CA
:103CE00090E00E94122860E080E290E00E940028AC
:103CF00040E050E0BA0188E190E00E9412280C9464
:103D00001C1E0C94231E682F8EE090E00C9400285B
:103D1000FC01329680912701882321F08091C50211
:103D20009EE187FF96E080E0915008F4089521918C
:103D30002223D1F38F5FF8CF662301F12091270171
:103D40002223F1F02091C50227FF1AC0462F469585
:103D5000469546954E3190F4677021E030E002C000
:103D6000220F331F6A95E2F7840F911DFC018281B7
:103D700090E02823392381E0232B69F480E0089523
:103D8000FC01329608962191261721F0E817F907D1
:103D9000D1F7F4CF81E008959C01FC0132969FEFAA
:103DA00080E04191461751F09F3F19F4411101C045
:103DB000982F8F5F8630A9F79F3F09F40895290F48
:103DC000311D97FD3A95F90162830895FC01329601
:103DD00008962191261303C0DF0111971C92E81762
:103DE000F907B9F70895E62FE695E695E695EE31E1
:103DF00068F4E80FF92FF11D677021E030E001C091
:103E0000220F6A95EAF78281822B82830895E62F3A
:103E1000E695E695E695EE3170F4E80FF92FF11D81
:103E2000677021E030E001C0220F6A95EAF7209523
:103E3000828128232283089520912701222329F0BB
:103E40002091C50227FD0C94F31E0C94CC1E2091EA
:103E50002701222329F02091C50227FD0C94071F7A
:103E60000C94E61EFC01329680912701882351F0C4
:103E70008091C50287FF06C08EE1DF011D928A9501
:103E8000E9F7089586E0F9CF089508950C94451F49
:103E90008091CB02843059F10E94461F80E00E943D
:103EA00069050E94DE0D1092800288E190E020E416
:103EB0000FB6F894A895809360000FBE2093600021
:103EC00083B7817F846083BF83B7816083BF789429
:103ED000889583B78E7F83BF0FB6F894A89580919D
:103EE0006000886180936000109260000FBE0895AA
:103EF00008950E94441F0E94AC070E94781F80E032
:103F00000E947F0791E0811101C090E0892F089500
:103F100008950C94881F0E94A8170E9433130E94D2
:103F200069050E94AA0E0C94891F1F921FB61F924A
:103F300011248F939F93AF93BF938091800281113F
:103F400013C08091C1029091C202A091C302B091AE
:103F5000C4024196A11DB11D8093C1029093C2027B
:103F6000A093C302B093C402BF91AF919F918F9170
:103F70001F901FBE1F90189582E084BD93E095BDF1
:103F80009AEF97BD80936E0008952FB7F8948091B3
:103F9000C1029091C202A091C302B091C4022FBF8E
:103FA00008952FB7F8946091C1027091C202809178
:103FB000C3029091C4022FBF08959C014FB7F8949B
:103FC0008091C1029091C202A091C302B091C4023B
:103FD0004FBF821B930B089578941F921FB61F92B8
:103FE00011248F939F93AF93BF938091C1029091BF
:103FF000C202A091C302B091C4020196A11DB11DDD
:104000008093C1029093C202A093C302B093C402F2
:10401000BF91AF919F918F911F901FBE1F901895D8
:1040200087E797E7909301088093000888E19AE07A
:104030000FB6F894A895809360000FBE909360002F
:10404000FFCF9093CB018093CA0108950E94DD1D9C
:10405000811102C00E94811E0E94E81D80937F0290
:104060000E94F01D9093C6028093C5020E94EC1D31
:10407000682F70E090E080E00E94411B6091520246
:104080007091530280915402909155020C94791BC7
:104090008091A10208950895CF93DF9300D00F92ED
:1040A000CDB7DEB79091CB02943019F589837B832D
:1040B0006A8382E08093E9008FEF9091E80081505D
:1040C00095FD06C095ED9A95F1F700008111F5CFA9
:1040D0008091E80085FF0DC050E040E063E070E0B3
:1040E000CE0101960E9457228091E8008E7780933E
:1040F000E8000F900F900F90DF91CF910895BC01D1
:1041000084E00C944C20BC0183E00C944C20CF93B1
:10411000DF93EC01809127018823B1F18091C502E2
:1041200087FF32C060E282E08093E9008FEF9091D8
:10413000E800815095FD06C095ED9A95F1F70000D5
:104140008111F5CF8091E80085FF1BC08091270188
:1041500070E050E040E0811104C050E040E068E0D1
:1041600070E0CE010E9457228091E8008E77809304
:10417000E80080E2FE01A1E8B2E001900D928A958C
:10418000E1F7DF91CF91089568E081E0CDCF809194
:10419000CA02811109C00E94E7230E944424809131
:1041A000E20084608093E20008951092CA020895AC
:1041B00008950895089542E061EC81E00E94632330
:1041C00042E261EC82E00C9463238091CD02833063
:1041D00009F45FC030F48130C1F1823009F49BC032
:1041E00008958A3009F487C08B3009F46DC0893096
:1041F00009F04EC08091CC02813209F049C0809113
:10420000D0029091D102029708F042C08091E8005C
:10421000877F8093E8008091E80082FF35C090910D
:10422000F3008091F200029729F48091F1008B7FD6
:10423000813021F48091F1008093A1028091E80007
:104240008B778093E8000C9497238091CC02813A7D
:10425000F9F48091E800877F8093E8008091D00294
:104260009091D102892B61F460E281E892E070E0E4
:104270000E94A6228091E8008B778093E800089541
:1042800060E090E080E0F3CF8091CB028111C3CF5A
:1042900008958091CC02813AD9F78091D002909113
:1042A000D102892BA9F78091E800877F8093E800ED
:1042B0008091E80080FFFCCF809127018093F1007E
:1042C0008091E8008E77BDCF8091CC02813201F7DA
:1042D0008091D0029091D102892BD1F68091E80093
:1042E000877F8093E8000E9497238091CE0280937D
:1042F00027010C94A8178091CC02813249F6809155
:10430000E800877F8093E8000E9497238091CF0286
:104310008093A20208958091CC02813A09F0B8CF2F
:104320008091E800877F8093E8008091E80080FF1B
:10433000FCCF8091A202C2CF84B7877F84BF0FB623
:10434000F894A89580916000886180936000109235
:1043500060000FBE80E890E00FB6F8948093610093
:10436000909361000FBE0E94C6130E94E7230E9433
:1043700044248091E20084608093E20078940E945B
:10438000CD260E94D6138DE191E00E942E138091DC
:10439000CB028530A9F00E94E2130E94D4130E9440
:1043A000D513F5CF0E94481F8091C902882341F0A0
:1043B0000E94791F882321F00E9441220E94A817A1
:1043C0008091CB02853071F30E948B1FE4CF0C9457
:1043D000E921292F33272330310519F168F42130E1
:1043E000310509F444C02230310509F445C090E09C
:1043F00080E030E020E025C02132310549F1223251
:104400003105A9F780E490E028E834E061157105F2
:10441000C1F08DE690E02BE134E06130710589F068
:10442000E6CF99278130910581F0009729F0029716
:10443000F1F6E4E9F3E002C0EAECF3E0849190E005
:104440009F01FA01318320830895EAEAF3E0F6CF71
:1044500089E090E020EE33E06115710591F389E089
:1044600090E029EF33E06130710559F3C0CF82E16C
:1044700090E029E034E0E5CF8BE390E02EEC33E0F0
:10448000E0CF80E189BD82E189BD09B400FEFDCFA6
:104490008091D8008F7D8093D8008091E000826069
:1044A0008093E0008091E00081FDFCCF0895AF9201
:1044B000BF92CF92DF92FF920F931F93CF93DF9320
:1044C0006C01EB018A010E94B623F82E811123C0F2
:1044D0000115110539F0F80180819181C81BD90BB4
:1044E000C80ED91EB12CA12C2097A9F08091E8000C
:1044F00085FD22C08091E8008E778093E800011549
:104500001105A1F0F80180819181A80EB91EB18238
:10451000A08285E0F82E8F2DDF91CF911F910F9112
:10452000FF90DF90CF90BF90AF9008950E94B62388
:104530008823D1F2F82EEFCFF60181916F0180939D
:10454000F1002197FFEFAF1ABF0ACECFFC01809197
:10455000D2029091D30286179707A0F061157105DA
:1045600029F49091E8009E779093E80090E061151F
:10457000710551F4911108C08091E80082FF34C0A8
:1045800080E00895BC01F2CF8091CB028823C1F175
:104590008530C1F18091E80083FD30C08091E80052
:1045A00082FDEACF8091E80080FFE1CF8091F300A7
:1045B0002091F200382F6115710519F0283031056E
:1045C00058F091E02830310509F090E02091E800A2
:1045D0002E772093E800CBCF81918093F10061503A
:1045E00071092F5F3F4FE7CF8091CB02882341F0C5
:1045F000853041F08091E80083FFBECF81E00895CF
:1046000082E0089583E00895FC018091D2029091A8
:10461000D30286179707A0F06115710529F48091E0
:10462000E8008E778093E80090E06115710551F401
:10463000911108C08091E80082FF35C080E00895A4
:10464000BC01F2CF8091CB028823C9F18530C9F13A
:104650008091E80083FD31C08091E80082FDEACFBF
:104660008091E80080FFE1CF8091F3002091F2007B
:10467000382F6115710519F02830310558F091E097
:104680002830310509F090E08091E8008E77809322
:10469000E800CBCF84918093F1003196615071098D
:1046A0002F5F3F4FE6CF8091CB02882341F08530CA
:1046B00041F08091E80083FFBDCF81E0089582E062
:1046C000089583E00895982F973028F08F70809395
:1046D000E90081E008959093E900242F762F50E0BF
:1046E000981731F07091EC002091ED005091F0009E
:1046F00021FD02C09F5FE8CF3091EB003E7F3093F9
:10470000EB003091ED003D7F3093ED003091EB00F8
:1047100031603093EB007093EC002093ED005093E8
:10472000F0002091EE0027FDE5CF80E00895809114
:10473000CC0287FF13C08091E80082FF06C0809101
:10474000E8008B778093E80004C08091CB02811150
:10475000F2CF08958091CB028823D9F38091E800AD
:1047600080FFF8CF8091E8008E77ECCF2091E400B5
:104770003091E50095E6A9012091EC00822F81702F
:1047800020FF06C08091E80080FF06C080E0089509
:104790002091E80022FD1AC08091CB02882389F085
:1047A000853089F08091EB0085FD0FC02091E400F9
:1047B0003091E50042175307F9F29150E1F684E099
:1047C000089582E0089583E0089581E008950E94AD
:1047D00055240E945D24E0EEF0E0808181608083BA
:1047E000E8EDF0E080818F77808319BCA7EDB0E021
:1047F0008C918E7F8C9380818F7E80831092CA02F1
:1048000008950F931F93CF93DF930E9455240E9426
:104810005D24C8EDD0E088818F77888388818068A7
:10482000888388818F7D888319BC1092CB02109277
:10483000C7021092C9021092C80200EE10E0F801FF
:1048400080818B7F808388818160888342E060E003
:1048500080E00E946323E1EEF0E080818E7F808320
:10486000E2EEF0E0808181608083808188608083D7
:10487000F80180818E7F8083888180618883DF91C9
:10488000CF911F910F910895E8EDF0E080818F7E28
:104890008083E7EDF0E080818160808384E082BFE7
:1048A00081E08093CA020C940124E8EDF0E080815D
:1048B0008E7F80831092E20008951092DA001092A9
:1048C000E10008951F920F920FB60F9211242F93BB
:1048D0003F934F935F936F937F938F939F93AF9388
:1048E000BF93EF93FF938091E10082FF0BC0809113
:1048F000E20082FF07C08091E1008B7F8093E1009E
:104900000E94CC268091DA0080FF19C08091D800E7
:1049100080FF15C08091DA008E7F8093DA0080914D
:10492000D90080FF96C080E189BD82E189BD09B4CC
:1049300000FEFDCF81E08093CB020E94C7208091D2
:10494000E10080FF19C08091E20080FF15C08091D6
:10495000E2008E7F8093E2008091E200806180938C
:10496000E2008091D80080628093D80019BC85E075
:104970008093CB020E94D9208091E10084FF2BC05C
:104980008091E20084FF27C080E189BD82E189BD7A
:1049900089B5982F917080FFFBCF8091D8008F7DD3
:1049A0008093D8008091E1008F7E8093E100809118
:1049B000E2008F7E8093E2008091E200816080932C
:1049C000E2008091C702882309F449C084E0809303
:1049D000CB020E94DA208091E10083FF29C0809100
:1049E000E20083FF25C08091E100877F8093E10092
:1049F00082E08093CB021092C7028091E1008E7F0B
:104A00008093E1008091E2008E7F8093E2008091AC
:104A1000E20080618093E20042E060E080E00E947A
:104A200063238091F00088608093F0000E94D8207A
:104A3000FF91EF91BF91AF919F918F917F916F9176
:104A40005F914F913F912F910F900FBE0F901F904C
:104A5000189519BC1092CB020E94D52070CF80917E
:104A6000E30087FD93E09093CB02B3CF1F920F92A8
:104A70000FB60F9211242F933F934F935F936F9331
:104A80007F938F939F93AF93BF93CF93DF93EF93D6
:104A9000FF93D091E900DF708091EC00C82FC170C6
:104AA00080FDC0E81092E9008091F000877F80933C
:104AB000F00078940E947A251092E9008091F0002D
:104AC00088608093F000CD2BCF70C093E900FF91F8
:104AD000EF91DF91CF91BF91AF919F918F917F9196
:104AE0006F915F914F913F912F910F900FBE0F905B
:104AF0001F9018951F93CF93DF93CDB7DEB7AA977A
:104B00000FB6F894DEBF0FBECDBF8CEC92E02091C3
:104B1000F100FC012193CF01F2E0843D9F07B9F73A
:104B20000E94E5208091E80083FF1EC18091CC02A5
:104B30009091CD029A3008F017C1E92FF0E0E957C3
:104B4000F74D0C944C27803899F0823809F00CC14D
:104B50008091D0028F70873008F006C18093E90001
:104B60008091EB0085FB882780F91092E90006C050
:104B70008091C8029091C902911182609091E800E1
:104B8000977F9093E8008093F1001092F10080915C
:104B9000E8008E77E5C0882309F4D3C0823009F09D
:104BA000E3C08091CE028111D6C08091D0028F7077
:104BB0002FEF280F263008F0D7C08093E90020910E
:104BC000EB0020FFC8C0933031F48091EB0080628D
:104BD0008093EB00C0C09091EB0090619093EB004C
:104BE00021E030E001C0220F8A95EAF72093EA0025
:104BF0001092EA008091EB008860EACF8111B4C086
:104C00001091CE021F778091E3008078812B8093F2
:104C1000E3008091E800877F8093E8000E9497235B
:104C20008091E80080FFFCCF8091E3008068809352
:104C3000E30082E0111183E08093CB0295C080589D
:104C4000823008F091C08091CE029091CF028C3DCD
:104C500023E09207A1F583E08A838AE289834FB734
:104C6000F894DE01139620E03EE051E2E32FF0E0FD
:104C700050935700E49120FF03C0E295EF703F5F2F
:104C8000EF708E2F90E0EA30C0F0C7968D939D9321
:104C90002F5F243159F74FBF8091E800877F8093C1
:104CA000E8006AE270E0CE0101960E94A62280919F
:104CB000E8008B778093E80057C0C096E7CF6091FB
:104CC000D0027091D102AE014F5F5F4F0E94E72189
:104CD000BC01892B09F448C09091E800977F90931C
:104CE000E80089819A810E940423E1CF8038E1F5B0
:104CF0008091E800877F8093E8008091C7028093CD
:104D0000F10045CF811130C09091CE02923060F514
:104D10008091E800877F8093E8009093C7020E940B
:104D200097238091C702882311F084E005C0809109
:104D3000E30087FDFACF81E08093CB020E94DB2065
:104D400013C08091CE02813079F481E0933009F074
:104D500080E08093C9021092E9008091E800877F8B
:104D60008093E8000E9497238091E80083FF0AC0A7
:104D70008091E800877F8093E8008091EB0080625B
:104D80008093EB00AA960FB6F894DEBF0FBECDBF9E
:104D9000DF91CF911F9108950895CF938091CB0219
:104DA0008823A1F0C091E900CF709091EC00892F89
:104DB000817090FD80E8C82B1092E9008091E80096
:104DC00083FD0E947A25CF70C093E900CF910895AA
:104DD000991B79E004C0991F961708F0961B881F4D
:104DE0007A95C9F78095089587FB082E062687FDDA
:104DF000819567FD61950E94E8260EF4919507FC68
:104E000081950895AA1BBB1B51E107C0AA1FBB1FB8
:104E1000A617B70710F0A61BB70B881F991F5A9546
:104E2000A9F780959095BC01CD01089597FB072EB9
:104E300016F4009407D077FD09D00E94022707FCE2
:104E400005D03EF4909581959F4F0895709561959A
:104E50007F4F0895A1E21A2EAA1BBB1BFD010DC0B6
:104E6000AA1FBB1FEE1FFF1FA217B307E407F5071A
:104E700020F0A21BB30BE40BF50B661F771F881FF6
:104E8000991F1A9469F760957095809590959B018C
:104E9000AC01BD01CF010895EE0FFF1F0590F49105
:104EA000E02D09940E945A27332312F48A1B9B0B8E
:104EB0000C946B27A29FB001B39FC001A39F700DFC
:104EC000811D1124911DB29F700D811D1124911D12
:104ED00008950E945A27B7FF0895821B930B0895E7
:104EE0000E945A27A59F900DB49F900DA49F800DFE
:104EF000911D11240895B7FF0C9470270E9470270C
:104F0000821B930B08958F929F92AF92BF92CF9284
:104F1000DF92EF92FF92CF93DF93EC01688179816A
:104F20008A819B81611571058105910521F464E2F7
:104F300079ED8BE597E02DE133EF41E050E00E9401
:104F4000342849015A019B01AC01A7EAB1E40E944F
:104F500070276B017C01ACEEB4EFA50194010E94B7
:104F60007E27DC01CB018C0D9D1DAE1DBF1DB7FF43
:104F700003C00197A109B04888839983AA83BB83A2
:104F80009F77DF91CF91FF90EF90DF90CF90BF9010
:104F9000AF909F908F9008950E948327089580E09E
:104FA00091E00E9483270895B0E0A0E08093000183
:104FB00090930101A0930201B09303010895FC01B5
:104FC0004150504030F001900616D1F73197CF0193
:104FD0000895882799270895F999FECF92BD81BD3C
:104FE000F89A992780B50895A6E1B0E044E050E032
:104FF0000C942628A8E1B0E042E050E00C9426286A
:10500000262FF999FECF92BD81BDF89A019700B481
:10501000021639F01FBA20BD0FB6F894FA9AF99A21
:105020000FBE08950396272F0E9401280E94002892
:10503000252F0E940128242F0C9401280196272F48
:105040000E9401280C940028DC01CB01FC01F99995
:10505000FECF06C0F2BDE1BDF89A319600B40D92C4
:1050600041505040B8F70895052E97FB1EF4009468
:105070000E944B2857FD07D00E942A2707FC03D027
:105080004EF40C944B2850954095309521953F4F08
:105090004F4F5F4F089590958095709561957F4F24
:1050A0008F4F9F4F0895F894FFCF870F8F0F960F64
:1050B0009B0FA00FA50FAA0FAF0FB40FB90FBE0F14
:1050C000C30FC70FCC0FCF0FD20FD50FD80FDA0FEA
:1050D000DD0F72157215CA15CA151C169F159F157E
:1050E0009F153816C416D316D3162F179F159F1564
:1050F0003817B717B717C017C017C217C017C01790
:10510000C017B717B717C717C017C017C717A325FA
:10511000CB25B426CB25B426FE251F26B42676261D
:025120008226E5
:105122000100000002000600010102000500050561
:1051320001191A1B1C1D1E1F2021225C02482087F8
:10514200204B2083207F2001E200E900EA00B50025
:10515200B600B700CD008301CC008A019201940110
:105162002102230224022502260227022A02B30078
:10517200B4006F007000818283379496F6F70001C5
:10518200020202020606060909090909090F0F0FA0
:105192000F0F0F15151518191919191919191919A8
:1051A20019232425252525252500FF0100010000BE
:1051B200FFFF0000010001FF00E200E900EA00B584
:1051C20000B600B700CD008301CC008A01920194A1
:1051D200012102230224022502260227022A02B307
:0A51E20000B4006F007000818283AA
:00000001FF
