:100000000C9464020C94AB020C94AB020C94AB0203
:100010000C94AB020C94AB020C94AB020C94AB02AC
:100020000C94AB020C94AB020C94C7250C949B2649
:100030000C94FA200C94AB020C94AB020C94AB021F
:100040000C94AB020C94AB020C94AB020C94AB027C
:100050000C94AB020C9451210C94AB020C94AB02A7
:100060000C94AB020C94AB020C94AB020C94AB025C
:100070000C94AB020C94AB020C94AB020C94AB024C
:100080000C94AB020C94AB020C94AB020C94AB023C
:100090000C94AB020C94AB020C94AB020C94AB022C
:1000A0000C94AB020C94AB020C94AB0200576900A9
:1000B0006A006B006C0000576E006F0070007100EA
:1000C0000057295D2A5D2B5D2C5D000000000000BB
:1000D00000002A2B280000000000000000000000A3
:1000E000000000000029000000002C1E3420212206
:1000F00024342627252E362D3738271E1F2021226F
:10010000232425263333362E37381F0405060708E7
:10011000090A0B0C0D0E0F101112131415161718D7
:10012000191A1B1C1D2F3130232D35040506070815
:10013000090A0B0C0D0E0F101112131415161718B7
:10014000191A1B1C1D2F3130354C00000000000017
:10015000000000000000000000000000000000009F
:1001600000000000000000000000000000007E0F02
:1001700000D4FFFFFFC7000000781E0F0500047FBA
:100180003F1F643214643214783C1E1E140A052288
:1001900023252628292A2C2D2F3032333536383A7C
:1001A0003B3D3E4042434547494A4C4E50515355D2
:1001B00057595A5C5E6062646668696B6D6F7173F3
:1001C0007577797B7D7F81838587898A8C8E9092F4
:1001D0009496989A9C9E9FA1A3A5A7A8AAACAEAFFF
:1001E000B1B3B4B6B8B9BBBCBEBFC1C2C3C5C6C744
:1001F000C9CACBCCCDCED0D1D2D2D3D4D5D6D7D7F5
:10020000D8D9D9DADADBDBDBDCDCDCDCDCDDDDDD3C
:10021000DDDCDCDCDCDCDBDBDBDADAD9D9D8D7D738
:10022000D6D5D4D3D2D2D1D0CECDCCCBCAC9C7C6E5
:10023000C5C3C2C1BFBEBCBBB9B8B6B4B3B1AFAE23
:10024000ACAAA8A7A5A3A19F9E9C9A9896949290C9
:100250008E8C8A89878583817F7D7B7977757371A1
:100260006F6D6B6968666462605E5C5A595755537E
:1002700051504E4C4A4947454342403E3D3B3A3837
:1002800036353332302F2D2C2A292826252322FFDC
:10029000AA7F554000010101010101010101020293
:1002A0000202020202020203030303030303030424
:1002B00004040404040405050505050606060606EF
:1002C000070707070708080808090909090A0A0AA9
:1002D0000B0B0B0C0C0C0D0D0D0E0E0E0F0F0F104B
:1002E00010111111121213131414151516161717D5
:1002F000181819191A1A1B1B1C1D1D1E1E1F202041
:10030000212222232424252626272829292A2B2C8A
:100310002D2D2E2F30313232333435363738393AAD
:100320003B3C3D3E3F404142434445464748494AA5
:100330004C4D4E4F50515354555658595A5B5D5E73
:100340005F616264656668696B6C6D6F707273750E
:1003500077787A7B7D7E8082838587888A8C8E8F72
:1003600091939596989A9C9EA0A2A3A5A7A9ABADA0
:10037000AFB1B3B5B7BABCBEC0C2C4C6C9CBCDCF8E
:10038000D1D4D6D8DBDDDFE2E4E7E9EBEEF0F3F53C
:10039000F8FAFDFF14036200690067004B004E008D
:1003A0004F0042007600320000001E036C00650022
:1003B00061006600630075007400740065007200DF
:1003C0006C0061006200730000000403090409026C
:1003D0003B00020100A0FA09040000010301010032
:1003E0000921110100012240000705810308000ACC
:1003F000090401000103000000092111010001228C
:100400006D000705820320000A12011001000000A0
:1004100008EBCE070001000102000105010980A1DF
:1004200001850319012AB700150126B7009501754A
:10043000108100C0050C0901A101850419012AA041
:1004400002150126A002950175108100C005010961
:1004500006A1018505050719E029E7150025019585
:1004600008750181020507190029EF15002501957E
:10047000F07501810205081901290595057501919D
:1004800002950175039101C005010906A101050747
:1004900019E029E7150025019508750181029501EC
:1004A000750881010507190029FF150026FF009531
:1004B0000675088100050819012905950575019142
:1004C00002950175039101C011241FBECFEFDAE040
:1004D000DEBFCDBF04B603FE27C08091EC02909131
:1004E000ED02A091EE02B091EF028730904BA74051
:1004F000B04BD1F41092EC021092ED021092EE0289
:100500001092EF0214BE84B7877F84BF0FB6F894B1
:10051000A8958091600088618093600010926000CF
:100520000FBEE0E0F8E3099511E0A0E0B1E0ECEEE9
:10053000F3E502C005900D92A23EB107D9F722E083
:10054000A2EEB1E001C01D92AC3EB207E1F70E94FD
:1005500001230C94B8290C940000FC0180818130A7
:1005600079F48091E60190E020911A0130911B010D
:10057000821793071CF401960C94EE1C80E0FCCFCC
:100580000E94750E0E9414098823C9F08091E6012B
:10059000813069F0882331F0823069F04FEF6FEFDE
:1005A0008BE203C04FEF6FEF80E00C94E90A4FEF4E
:1005B0006FEF85E5FACF4FEF6FEF8AEAF6CF089538
:1005C000CF92DF92EF92FF926B017C011092E501D6
:1005D0001092E4010E9425058093E6018130A1F08C
:1005E000882331F08230A1F04FEF6FEF8BE203C030
:1005F0004FEF6FEF80E00E94E90AC701B601FF905C
:10060000EF90DF90CF9008954FEF6FEF85E5F3CF38
:100610004FEF6FEF8AEAEFCF811151C08091E40173
:100620009091E501662389F197FF04C01092E501DE
:100630001092E4018091E4019091E501019690937C
:10064000E5018093E4012091E4013091E501C901C5
:1006500037FF04C088279927821B930B40911C0108
:1006600050911D018417950754F18091E6011216EF
:100670001306F4F420911A0130911B01821713061E
:100680008CF48F5F8093E6010FC01816190624F4CE
:100690001092E5011092E4018091E4019091E5014E
:1006A0000197CDCF1092E6018091E6010C94EE1CEB
:1006B000882311F08150E6CF80911A01E3CF08958D
:1006C000FB018A322DE59207D9F028F489329D4545
:1006D00079F081E008958B322DE59207B9F08C32E4
:1006E0009D45B9F782818823A1F38BE691E005C08F
:1006F0008281882371F388E691E00E94ED03E9CFBF
:100700008281882331F389E691E0F7CF82818823C3
:1007100001F38AE691E0F1CFCF93DF939C013A9504
:1007200021153F4168F5EC01CC27D170DC01AA27E7
:10073000B270AC01442754709C012227387094FF9A
:1007400011C080E1CD2B09F480E0AB2B09F0806271
:10075000452B09F08064232B09F08068FB01DF91B1
:10076000CF91099481E0CD2B09F480E0AB2B09F007
:100770008260452B09F08460232B81F38860EECFE3
:10078000DF91CF910895CF93DF93EC01805E9109C3
:10079000089720F06AEE78E1209711F462E976E19B
:1007A000CE010E948C038C2FDF91CF910C94051603
:1007B000CF93DF93EC010E944B16CE01805E91092E
:1007C000089720F061EF78E1209711F469E976E16C
:1007D000CE01DF91CF910C948C03CF93DF93EC018A
:1007E0000E94C303CE01DF91CF910C94D80381E026
:1007F00008950C94600308950C94FB031F93CF930A
:10080000DF9300D000D00F92CDB7DEB749835A8373
:100810006B8330912E0289819A8131111DC066232C
:10082000B9F02223A9F00E94F61D182F682F8981A4
:100830009A810E949F1D69817A81812F0F900F906C
:100840000F900F900F90DF91CF911F910C94850521
:100850000E94CD1D182FEFCF0E94F61D69817A816D
:10086000EDCFFC01262F408151816281738184810B
:100870000C94FE03CF93DF93EC0160E00E943104FF
:10088000BE01DF91CF910C94FC030E94421F8111A5
:1008900002C00E94E61F0E948A100C948A070E94E0
:1008A00040140C948D0708950E940A190E94530465
:1008B0002FEF84E39CE0215080409040E1F700C09E
:1008C00000000C9475210F931F93CF93DF93EC01DD
:1008D00061E00E9431048C01BE010E949E13BE01A2
:1008E000C8010E94F9038823B9F1BE01C8010E9422
:1008F000E613882389F1BE01C8010E9415118823DF
:1009000059F1BE01C8010E949F11882329F1BE013F
:10091000C8010E94F1118823F9F0BE01C8010E94AC
:1009200014138823C9F0BE01C8010E94810F8823D7
:1009300099F08A81882339F001158CE5180751F068
:100940000F3D1C4579F0CE01DF91CF911F910F91A2
:100950000C94F7030E94540480E0DF91CF911F9123
:100960000F9108950E94E61FF7CFDF92EF92FF925A
:100970000F931F93CF93DF93E82FF0E0E653FF4FE1
:10098000D490282F26952695269530E0F901E65932
:10099000FE4F0491877010E0082E02C01595079550
:1009A0000A94E2F701701127F901E65AFE4FE4902C
:1009B000F12C082E02C0F594E7940A94E2F791E036
:1009C000E922FF24F901E65BFE4FC491D0E002C0AA
:1009D000D595C7958A95E2F7C170DD2701151105F8
:1009E00019F081EE0E940516E114F10419F086EE6B
:1009F0000E9405168D2D0E948A16EF2819F086EEAA
:100A00000E944B16012B19F081EE0E944B16CD2B44
:100A100051F08CE2DF91CF911F910F91FF90EF90F9
:100A2000DF900C948A16DF91CF911F910F91FF9068
:100A3000EF90DF900895982F9F709A50963018F09D
:100A4000805D0C94B504895AFCCFCF92DF92EF926F
:100A5000FF926C01EE24FF2420E0C114D104E104D4
:100A6000F10419F0C701B60120E1C72ED82EE92EF6
:100A7000FF24C114D104E104F10419F0285FC70177
:100A8000B6016B017C0154E0F694E794D794C794C7
:100A90005A95D1F7C114D104E104F10419F02C5F87
:100AA000C701B6016B017C0142E0F694E794D7944C
:100AB000C7944A95D1F7C114D104E104F10419F0A7
:100AC0002E5FC701B6019695879577956795672B39
:100AD000682B692B09F02F5F822FFF90EF90DF903A
:100AE000CF90089508950C94720581E008950C94B8
:100AF0007505CF93C82F0E9473058C2FCF910C944E
:100B0000770590E080E008950895E62F272F280FBD
:100B10003327331FC90125E0289FB001299F700D9D
:100B20001124E60FF72FF11DEE0FFF1FE455FF4FC5
:100B3000859194910895FC01EE0FFF1FE658FE4F3A
:100B4000859194910895CF93DF930E9485050E942B
:100B5000AF06EC01811520E5920708F041C0811530
:100B600030E4930708F0B4C0803E910518F5803C4E
:100B7000910508F09DC0883A910570F4853A910579
:100B800008F08EC081309105F9F00097E9F00497E4
:100B9000D8F4D0E0C0E018C08F3B9105D0F7C85A18
:100BA000D0E0CC0FDD1FC15CDE4F0990D881C02D95
:100BB000D4640AC08115904258F4C11581E0D80769
:100BC00018F4C83ED10528F7CE01DF91CF910895E2
:100BD000C11590E3D90708F071C0CE019F706AC0BB
:100BE000811525E5920758F5811534E5930708F03E
:100BF0009EC0811542E5940750F4C11581E5D807E0
:100C000008F469C0DC2FCC27C16FD06ADDCF982FE4
:100C1000969596959E0123703327C115D34508F00C
:100C200077C0C1E0D0E002C0CC0FDD1F2A95E2F70B
:100C300020E2929FC0011124C82BD92B67C0C11597
:100C400089E5D807A8F4C11598E5D90708F074C05C
:100C5000C11526E5D20708F09CCF8C2F0E944607CD
:100C6000C82FD0E0DC2FCC27CC27DF71D062ACCFEF
:100C7000C1153AE5D30708F464C0CE01905681153A
:100C8000904208F086CF8D2F8F710E94460790E02A
:100C9000982F882788279F719C012C2BE901E6CF8C
:100CA000C55AD0E0C359DE4FC881D0E0D0648CCFA4
:100CB000805C91090E949B05EC0186CFCE019927AB
:100CC000D3FF03C0EC01D86C7FCFEC01D06C7CCF9C
:100CD000DF70D06A79CFCE01E4E096958795EA95EA
:100CE000E1F783702C2F26952695237090E2299F9B
:100CF00090011124382B8C2F8370C1E0D0E002C00A
:100D0000CC0FDD1F8A95E2F7C22BD32BDC685CCFBA
:100D1000C1E0D0E002C0CC0FDD1F2A95E2F730E23F
:100D2000939FC0011124C82BD92BDA684DCFD82F3F
:100D3000CC27C46FD06A48CFDC2FCC27C06FD06AD5
:100D400043CF8C2F8F700E94460734E0D695C7950D
:100D50003A95E1F7CF709C2FEC01D06935CF8238FE
:100D60009105B1F1B0F48133910509F475C048F4EF
:100D70008932910509F469C08A32910509F473C07A
:100D800008958533910509F459C08933910501F11E
:100D90000895833E9105A9F138F4803E9105F9F05C
:100DA000823E910549F10895863E9105A9F1873E5D
:100DB0009105C9F1843E910519F52091DE0221FFCC
:100DC0001FC08091DD0284FD14C087EE90E008957D
:100DD0002091DD022370A1F080EE90E00895209133
:100DE000DD0220FD47C03091DE0230FF09C024FF44
:100DF00044C090E080E004C02091DD0222FDF7CFE6
:100E000008952091DD0222FD3BC03091DE0230FDCD
:100E1000E3CF24FFF5CFEDCF2091DD0223FFF0CF0C
:100E200024FDE7CFD2CF2091DD0223FD2CC03091ED
:100E3000DE0231FFEECF84EE90E008952091DD02D6
:100E400025FFDECF89E290E008952091DD0225FFA5
:100E5000D7CF85E390E008952091DD0226FFD0CF23
:100E60008AE290E008952091DD0226FFC9CF81E358
:100E700090E0089589E390E0089583EE90E008956E
:100E800082EE90E0089586EE90E008959091DD0264
:100E900092FF06C0282F28712830F9F4877F8460DC
:100EA00093FF06C0282F28712831F1F4877E8461D2
:100EB0002091DE0220FF06C0382F38713830D9F477
:100EC000877F816021FF06C0282F28712831D1F447
:100ED000877E816194FD877E0895282F24712430B8
:100EE000F9F68B7F8860DCCF282F2471243101F73D
:100EF0008B7E8861DDCF382F3171313019F78E7FCD
:100F00008860E0CF282F2171213121F78E7E886102
:100F1000E1CF08950C94890708950C948C07E82F6D
:100F2000F0E0E254FD4F808108950895A0E7B1E01C
:100F300041E050E08D918F3F91F0E82FE295EF7006
:100F4000F0E061A18F709A0101C0220F8A95EAF743
:100F5000922F9095962391A382A1822B82A381E068
:100F6000A537B80739F71092BD021092BE0281E092
:100F70000E94F8070C944504CF93A0E7B1E050E03D
:100F800040E030E061E070E02D912F3FA9F0E22FCA
:100F9000E295EF70F0E080A190E02F7002C095958F
:100FA00087952A95E2F780FD21C0CB01042E01C070
:100FB000880F0A94EAF7382B4F5F5F4F4530510591
:100FC00019F78091BD02C0E0831719F03093BD027C
:100FD000C1E02C2F41E06EEB72E08DEB92E00E94BD
:100FE000F9070E944F048C2FCF91089580E0E3CF42
:100FF0000895FF920F931F93CF93DF93F82E092F3D
:10100000162FD72FC42F222349F081E08093E901C6
:101010000E942A219093E8018093E7018091E901E1
:101020008823A1F08091E7019091E8010E9442217C
:10103000069760F0EF2DF02FA12FBD2FCE0FDF2FE1
:10104000D11DEC17FD0741F41092E901DF91CF911A
:101050001F910F91FF90089581918D93F2CFEF92A0
:10106000FF920F931F93CF93DF93EB01E82FD111E2
:1010700010C0442321F0F0E0EC56FD4FE4916E2FB8
:101080007E2F8E2FDF91CF911F910F91FF90EF90C8
:1010900008950D2F10E0282F30E0442329F02C561E
:1010A0003D4FF901249130E0F6E0CF9FC0011124BB
:1010B000EFEFF0E0BF010E946728AB018C2F90E0BA
:1010C000880F991FA5E5A49FB001A59F700D11245D
:1010D000861B970B982F990F980FBF01601B710B00
:1010E000629FD001639FB00D729FB00D11248B2FB2
:1010F0009D9FB0011124672F7727EF01C61BD70BE7
:10110000BE01629FE001639FD00D729FD00D11243C
:101110007F01E91AF108E09EB001E19E700DF09E9A
:10112000700D1124672F7727E61BF70BE29F8001D4
:10113000E39F100DF29F100D1124E12F722F42300A
:10114000510599F048F44115510569F041305105B8
:1011500081F0EB2F8D2F07C04430510569F080F0EE
:1011600046305105B1F76E2F8DCFE22F7B2F812FA7
:10117000FACFE22F7D2FF7CFEB2F822F712FF3CFF6
:101180007B2F822FED2FEFCF41E00C942F08089595
:101190000C94C408CF93DF93762FE901682F842F36
:1011A0000E94C808798368838A83DF91CF9108956C
:1011B0008091BF02982F9E7F29F481708260809376
:1011C000BF0208958635E8F381708465F8CF88E022
:1011D00090E00C945929CF92DF92EF92FF926B012D
:1011E0007C010E94D808B701A60188E090E0FF903A
:1011F000EF90DF90CF900C947729EFEBF2E083E053
:10120000808311828FEF8283838314826081718156
:10121000828193810C94EB088091BF0280FF02C011
:101220008695089580E008958091BF0281700895A9
:101230009091C302933018F49F5F9093C302882368
:1012400051F06091BF027091C0028091C1029091F3
:10125000C2020C94EB08089581E00C941809909157
:10126000C302992319F091509093C302882351F03F
:101270006091BF027091C0028091C1029091C20240
:101280000C94EB08089581E00C942F0970E00C9405
:10129000F10F609122018091BF0280FF0AC080910E
:1012A000210123E0829FC00111248C539D4F0C9497
:1012B0004609809123019091240123E0829FF0014F
:1012C0001124EC53FD4F891750F7118210821282BE
:1012D0008F5F3396F8CF9091BF0290FF14C090912A
:1012E00023012091240133E0939FF0011124EC535A
:1012F000FD4F921710F00C9449098183608342835B
:101300009F5F3396F6CF0895CF93DF9300D00F926F
:10131000CDB7DEB79091BF0290FF0AC09E012F5F4C
:101320003F4F0E94CA084B8169818A810E946B09E4
:101330000F900F900F90DF91CF910895CF93DF938F
:10134000EC01EC81F0E0E157FE4F4491EFEBF2E06D
:10135000628181810E9484098C818F5F8C83DF91FF
:10136000CF910895CF93DF93EC01EFEBF2E043814F
:1013700062818C810E9484098C818F5F8C83DF91D4
:10138000CF9108950F931F93CF93DF9300D00F92C7
:10139000CDB7DEB78C018091EA0181110AC09E01B0
:1013A0002F5F3F4F4FEF6FEF0E94CA088A818093F3
:1013B000EA01F8016481613069F08091EA0140E05E
:1013C000662361F040E0623011F44091EA0180E070
:1013D00060E004C06091EA0140E080E00E946B0997
:1013E000F801848190E0019663E070E00E947B2820
:1013F00084830F900F900F90DF91CF911F910F91E9
:101400000895AF92BF92CF92DF92EF92FF920F9327
:101410001F93CF93DF9300D00F92CDB7DEB7182F75
:10142000F62E042FE22E9091BF0290FF29C0E92FE3
:10143000E695AE2FB0E0AB58BE4F8C9180930F0273
:101440009E7F923059F59E012F5F3F4F812F0E9462
:10145000CA084B8169818A810E946B091093C0027E
:10146000F092C1020093C202EE2051F06091BF02DF
:101470007091C0028091C1029091C2020E94EB085B
:101480000F900F900F90DF91CF911F910F91FF90D0
:10149000EF90DF90CF90BF90AF900895823019F415
:1014A0000091C202DBCF863019F41091C002D6CF72
:1014B0008930D9F3893191F6E9518E2F8170D82E78
:1014C000E695F0E0E157FD4FA590B490C12CBB2408
:1014D00060912501C61618F00E944909BFCF2C2D36
:1014E00030E0A29EC001A39E900DB29E900D1124EB
:1014F00070E00E946728812FD11013C0860F4091A1
:101500002301420F532F511D9A01220F331F240F25
:10151000351F2C533D4F402F6F2D0E94CA08C39496
:10152000D7CF861BECCFEFEBF2E09181282F4381E0
:10153000628188E0890F0C94010A81E00C94930A7F
:10154000EFEBF2E09181282F4381628188EF890FD0
:101550000C94010A81E00C94A00AEFEBF2E06281A6
:1015600021E1620F08F46FEF282F438181810C94F1
:10157000010A81E00C94AD0AEFEBF2E0628121E117
:10158000621B08F460E0282F438181810C94010ADA
:1015900081E00C94BC0AEFEBF2E0438121E1420FC1
:1015A00008F44FEF282F628181810C94010A81E0B9
:1015B0000C94CB0AEFEBF2E0438121E1421B08F4EB
:1015C00040E0282F628181810C94010A81E00C9413
:1015D000DA0A21E00C94010A20E00C94010AEF924F
:1015E000FF921F93CF93DF93EC0110E0EE24EA9477
:1015F000F12C60912501161770F00E9449099A811B
:101600008C8190FF27C08F5F8C83DF91CF911F91DA
:10161000FF90EF90089520912301422F410F55270D
:10162000551FCA019A01220F331F280F391F2C534F
:101630003D4F70E0C7010E947B28962F8C8140911E
:10164000C2026091C102199F800D11240E94CA0834
:101650001F5FCFCF8150D8CFAF92BF92CF92DF9292
:10166000EF92FF920F931F93CF93DF93FC01828140
:101670000FEF80FF01E010E045E0A42E80912501EE
:101680001817C8F00E9449098091EC01013009F057
:1016900055C0811102C08091250181508093EC01D9
:1016A000DF91CF911F910F91FF90EF90DF90CF903E
:1016B000BF90AF900895C0912301C12ED12CCC0DC5
:1016C000DD2DD11DCE01880F991FC80FD91FCC5316
:1016D000DD4F198218821A8234E0E32EF12CB12CEE
:1016E0008091EC018B0D86301CF16A2D0E945928E7
:1016F000892F082E000C990BC816D90691F48091F9
:10170000C2028E9DA0018F9D500D112455954795C5
:10171000559547959E016091C1028091C0020E943B
:10172000CA08B00EF1E0EF1AF108D1F61F5FA6CF9C
:1017300087FFDFCF90912501890FDBCF90E00196E5
:101740006091250170E00E947B28A8CF0F931F9322
:10175000CF93DF93809123019091240123E0829F16
:10176000F0011124EC53FD4F891740F1C0E0D3E0A4
:1017700060912501C61740F10E94490920911F017F
:101780008091EB01820F8093EB0190912001920FE9
:1017900090932001191654F4082E000C990B4091D7
:1017A00025014150550B841795071CF02195209376
:1017B0001F01DF91CF911F910F9108951182108227
:1017C00012828F5F3396D0CF0C2F10E070E0C801EB
:1017D0000E947B2820912301820F482F50E0209106
:1017E000EB01022E000C330B02171307BCF0209103
:1017F0002001022E000C330B201731077CF08D9F47
:10180000900111242C533D4F4091C2026091C102BE
:101810008091C0020E94CA08CF5FAACFFA01EE0FE2
:10182000FF1FE40FF51FEC53FD4F1182108212824F
:10183000F3CF8F929F92AF92BF92CF92DF92EF92AF
:10184000FF920F931F93CF93DF93EC014C81042FF2
:1018500010E09801D8010E94BF289B01AC010E94B2
:10186000D5284B015C01E0E2F0E0E01BF10BA5E5BF
:10187000B0E0AC019B010E94D5286B017C019F0167
:10188000DF010E94B7289B01AC010E94E0289B0168
:10189000AC01280D391D4A1D5B1DC701B6010E9410
:1018A0008F28F22E822F90E039E23F1560F143E05D
:1018B000249F9001112435952795122F109500E053
:1018C00085E5E82EEF1880912501081758F10E9450
:1018D00049099C8181E0992319F0903219F48FEF26
:1018E00080931E0180911E01890F8C83DF91CF911F
:1018F0001F910F91FF90EF90DF90CF90BF90AF902E
:101900009F908F90089525E530E0B901681B790B11
:101910009B01220F331F260F371F37FFCCCF2F5FBE
:101920003F4FC9CF8E2D01FD8F2D20912301622FB6
:10193000600F7727771F9B01220F331F260F371F5A
:101940002C533D4F412F6091C1020E94CA080F5F86
:10195000BACF0F931F93CF93DF93EC0110E000E019
:10196000909125019017110609F06CF40E94490925
:101970008C8190E00196817099278C83DF91CF91C3
:101980001F910F91089520912301A801420F511D2D
:101990009A01220F331F240F351F2C533D4F4C81CA
:1019A0006091C1028091C00296959017110651F086
:1019B0004CF0442349F04091C2020E94CA080F5FD4
:1019C0001F4FCECF4423B9F340E0F7CF4F925F9241
:1019D0006F927F928F929F92AF92BF92CF92DF923F
:1019E000EF92FF920F931F93CF93DF93FC016280DE
:1019F000448081E08483EFE8F1E07490EEE0F2E06F
:101A0000E491812C75E0972EF2E0CF2EDD24D39463
:101A1000AA24AA94B12C55245A94E7190E2F10E049
:101A200080912501881690F0DF91CF911F910F9141
:101A3000FF90EF90DF90CF90BF90AF909F908F90EE
:101A40007F906F905F904F900C944909E82CF12C97
:101A500082E0861568F09E9CF0019F9CF00D112499
:101A6000E351FE4F8091C00280838091C102818347
:101A7000411023C09E9CF0019F9CF00D1124E35166
:101A8000FE4F1382128220912301C701820F911D04
:101A90009C01220F331F280F391F2C533D4F9E9C52
:101AA000F0019F9CF00D1124E351FE4F42816181B2
:101AB00080810E94CA088394B3CF9E9CE0019F9CC2
:101AC000D00D1124C351DE4F8B818823E9F0815062
:101AD0008B83859DC00111246C8170E00E94672872
:101AE000FB01FF27E157FE4F8491E82FE719E59DA1
:101AF000C0011124B8010E9467288091C202689F2A
:101B0000B00111247A83BFCF0E9434292091C202F0
:101B1000269521582C9DA0012D9D500D1124452F57
:101B20005527841795070CF0AECF82E0861588F410
:101B30000E943429B5010E947B2888830E943429A1
:101B40002091C1022695622F70E00E947B28280F09
:101B500029839E9CF0019F9CF00D1124E351FE4FC0
:101B600012828091C202893C58F088EC9E9CF00160
:101B70009F9CF00D1124E351FE4F8483838383CF18
:101B80008431A0F784E1F2CFEFEBF2E080818E7F29
:101B9000808360817181828193810E94EB08109221
:101BA00010022FEF80E792E0215080409040E1F753
:101BB00000C000000C944909EFEBF2E080818E7FB9
:101BC0008083109210022FEF80E792E02150804036
:101BD0009040E1F700C000000C94490910921002F7
:101BE00080910D0281110AC081E080930D028091E5
:101BF000BF02817080930C020C94DC0D08956091FB
:101C0000BF02669570E04BE050E086E291E00E94F2
:101C10004429892B19F481E0809310020E942A2123
:101C2000909307028093060208959091BF0290FF5F
:101C300035C09170811128C092609093BF026623D5
:101C400051F06091BF027091C0028091C1029091E9
:101C5000C2020E94EB086091BF02669570E04BE003
:101C600050E086E291E00E944429892BA1F0109275
:101C7000100281E0809309024091C2026091C1028A
:101C80008091C0020C94EC0A8B3210F09465D5CF91
:101C9000880F982BD2CF0E94FF0DEBCF0895682FAD
:101CA0009091BF02969581E0890F8B3208F081E018
:101CB0000C94150E81E00C944F0E682F9091BF028A
:101CC00096958FEF890F09F48AE20C94150E81E046
:101CD0000C945D0E61E00C94150EEFEBF2E0808148
:101CE0008160808386950C946A0E8091BF0280FD8E
:101CF0000C94C40D0C946D0E60E00C94150E809144
:101D00000E0281112EC00E94421F811104C00E9448
:101D1000E61F0E94FD080E94E7086093BF027093CF
:101D2000C0028093C1029093C2026E7F61F40E9450
:101D3000FD080E94E7086093BF027093C002809381
:101D4000C1029093C2020E94D808109210028091A2
:101D5000BF0280FF03C086950E947C0E81E08093C5
:101D60000E020895EFEBF2E080818160808386951A
:101D70000C947C0E10920D0280910C0281110E9435
:101D8000B20E0C94FF0D0F931F93CF93DF938091AE
:101D90001002882309F496C080910F02E091BF02DF
:101DA000E695E81BE0930802823091F5F0E0E557F4
:101DB000FE4FE491CE2FD0E00EE919E080910902A8
:101DC000882361F0109209020E942A219093070251
:101DD0008093060210920B0210920A020E942A219E
:101DE000E0910602F09107028E1B9F0B8F3F9F47E9
:101DF00008F068C0EC0FFD1FF0930702E0930602A5
:101E000086E092E0F801DF91CF911F910F91099444
:101E1000863049F4F0E0E857FE4FE491CE2FD0E051
:101E200002EB19E0CBCF893051F4E695F0E0EB57A7
:101E3000FE4FE491CE2FD0E00FEE1AE0BFCF8F30EF
:101E400051F4E695F0E0EE57FE4FE491CE2FD0E04E
:101E50000CE21BE0B3CF853149F4F0E0E158FE4FCE
:101E6000E491CE2FD0E006EA1BE0A8CFC8E2D0E094
:101E700009E11CE0883109F4A1CF833239F4EDE7A0
:101E8000F1E0C591D49102EC19E098CFC4EFD1E014
:101E900009EA1CE0843209F491CFC0EDD7E007ECE9
:101EA00018E0853209F08ACF8E2F63E00E944D281A
:101EB000E92FF0E0E658FE4FE491CE2FD0E006EE99
:101EC0001CE07CCFDF91CF911F910F910895FA0113
:101ED000811101C0FB010994CF93DF93C82FD62F46
:101EE0000E940C098C1740F00E940C098D1720F4F9
:101EF000DF91CF910C945A0E8C2FDF91CF910C94DF
:101F00006A0E0F931F93CF938C01FB01C281CC23E8
:101F100009F465C00E948B1E8272F801E35CFC45E7
:101F2000E431F10538F4E654F64D0C94B1280E94E2
:101F3000750EC0E08C2FCF911F910F91089547E649
:101F40005EE06AE57EE00E94670FF3CF4AE55EE05F
:101F500067E67EE0F8CF4AEA5AE06DE97AE0F3CF2F
:101F60004DE95AE06AEA7AE0EECF48EC5AE069EBD4
:101F70007AE0E9CF49EB5AE068EC7AE0E4CF46EE4C
:101F80005AE067ED7AE0DFCF47ED5AE066EE7AE09F
:101F9000DACF43E459E06CE279E0D5CF4CE259E086
:101FA00063E479E0D0CF81E00E946A0EC2CF65E0A1
:101FB00082E00E946C0FBDCF68E086E0FACF6EE051
:101FC00089E0F7CF64E18FE0F4CF67E185E1F1CFFD
:101FD00088E1EACF62E289E1ECCF83E2E5CFC1E0BC
:101FE000A9CF3F9A48B14F7758B15068EFB7F894EE
:101FF0009B01220F331F260F371F280F391F281769
:10200000390741F4EFBF8FE594E00197F1F700C085
:1020100000000895DC016D91CD0178E058B9000011
:1020200000C067FF48B9660F000000C000C000C0D4
:1020300048B900C07A9591F7E2CF0C940C03509800
:10204000589A52985A9A89B181704A9905C090E07D
:10205000892B80931302089592E0FACFE091130246
:10206000EE0FEE0FE093130249B1842F817049B156
:1020700042FB222720F942FF02C022E030E0822BFF
:10208000E82BE0931302EF70F0E0E056FE4F808102
:1020900090911202890F8093120220E0823054F056
:1020A000809111028F5F8093110260E080E00E94B6
:1020B0001D1021E0809112028F3F54F48091110293
:1020C00081508093110261E080E00E941D1021E0A8
:1020D00080911202082E000C990B62E070E00E94C1
:1020E0007B2880931202822F0895CF93DF93EC0117
:1020F00097FF0CC0FB018281882341F00E94A01051
:10210000CE019F770E94FA100E94DB1081E0DF91E0
:10211000CF9108958CE090E00E94512990E0B0E0CA
:10212000A0E08093D3029093D402A093D502B09301
:10213000D60208956091D3028CE090E00C9465295A
:102140000E94A114869581708093D8029091D30249
:10215000913029F4882319F089E30E948A160E949D
:102160008B1E8093D7020E949E1E8091D3028130E5
:1021700089F0882359F0823091F08430B9F08FE3F0
:102180009CE90197F1F700C00000089582EE0E94DB
:102190000516F5CF88E193E00E94ED03F0CF82EEC3
:1021A0000E94051687E50E948A16E9CF86EE0E94F6
:1021B0008A1688E1F8CF8091D302813071F08823AC
:1021C00041F0823031F0843099F08091D7020C9444
:1021D0009B1E82EE0E944B16F8CF8CE20E948A165C
:1021E0008091D802882389F389E30E948A16EDCF73
:1021F00088E2FBCF0F931F93CF93DF938C01CCE04A
:10220000D0E0C8010C2E02C0969587950A94E2F79B
:102210008F700E941B052497CC3F8FEFD80789F75A
:10222000DF91CF911F910F9108950F931F93CF933B
:10223000DF93EC018B01FB018281882361F00E9416
:102240008B1ECE01825E9C458530910520F48093E3
:10225000D3020E949A10B801CE01DF91CF911F9155
:102260000F910C9475100F931F93CF93DF93C42F8E
:10227000D22FFC0182818823C9F0409316020E946C
:102280002A21909315028093140280E28C0F8830EB
:1022900008F050C0C77081E001C0880FCA95EAF706
:1022A000DF91CF911F910F910C949216109116020D
:1022B000141335C080911402909115020E9442219E
:1022C0008C32914060F5C0E2CD0F1D17B9F080E26D
:1022D000810F883040F4177081E001C0880F1A9593
:1022E000EAF70E949916C83048F481E09D2F977054
:1022F00001C0880F9A95EAF70E949216802F0E94DB
:102300008A16C830B8F4D77081E001C0880FDA951A
:10231000EAF7DF91CF911F910F910C94991680E20B
:102320008C0F883038F4C77081E001C0880FCA95DF
:10233000EAF7EFCFDF91CF911F910F9108950F939F
:102340009C01CB01243F4CE5340759F1A8F4293D09
:10235000FCE53F0701F12A3D4CE53407D1F1283D6A
:102360003C4591F406E221EE41EE68ED7CE50E94E9
:10237000331180E00F910895263FFCE53F07E9F017
:10238000B0F0273F3C45F9F0FC018281882339F108
:1023900010921602EFCF07E225EE45EE69ED7CE5DF
:1023A000E6CF06E221EE40EE64EF7CE5E0CF07E207
:1023B00025EE44EE65EF7CE5DACF06E221EE42EE53
:1023C00066EF7CE5D4CF07E225EE46EE67EF7CE5CD
:1023D000CECF08E221E045EE6AED7CE5C8CF81E092
:1023E000C9CFCF93DF93EC01FB018281882309F4ED
:1023F00019C1C230FCE5DF07C0F1C6319CE5D90741
:1024000030F09E012B5F3C452930310570F50E946C
:10241000551F9093DE028093DD02C031ECE5DE07AC
:1024200009F4CFC008F05BC0C8308CE5D80709F4C8
:10243000B6C088F5C430ECE5DE0709F4A8C0C0F4E6
:10244000C2308CE5D80709F49CC08091DD0282601F
:10245000C330DC4509F498C08091DD029091DE0222
:102460000E94631F0E940A1980E0DF91CF910895B6
:102470008091DD028061C630ECE5DE0709F484C09E
:102480008091DD028860C730DC4508F47DC0809112
:10249000DD02806279C0CC308CE5D80709F489C0B0
:1024A00070F48091DD028C60CA30ECE5DE0709F43F
:1024B0006BC008F478C08091DD028E7F65C0CE309D
:1024C0008CE5D80709F479C08091DD028B7FCF308D
:1024D000DC4508F459C08091DD028F7E55C0CC3FA9
:1024E000ECE5DE0709F457C030F5C3318CE5D807B9
:1024F00009F46FC078F4C131ECE5DE0709F465C07A
:10250000C231DC4509F0A8CF0E940A198091DD0292
:102510008F773AC0C5318CE5D80709F462C008F45A
:1025200076C08091DE028160CB3FDC4509F094CF1C
:102530008093DE0291CFC115FDE5DF0709F44DC0A0
:1025400088F48091DE028D7FCE3F9CE5D90781F330
:102550008091DE028E7FCF3FDC4550F38091DE021A
:102560008360E6CFC230FDE5DF0709F459C008F407
:1025700044C080E0C330DD4509F06ECF0E94E81F03
:102580006BCF8091DD0281608093DD0265CF809109
:10259000DD028460F9CF8091DE028260C9CF809134
:1025A000DD028064F1CF0E940A198091DD0280680B
:1025B000EBCF8091DD028D7FE7CF8091DD02877FB9
:1025C000E3CF8091DD028F7DDFCF8091DD028F7BB5
:1025D000DBCF8091DD02837FD7CF8091DE028C7FBD
:1025E000A7CF8091DD0282FB992790F921E0922705
:1025F00090FB82F990FB83F9C7CF8091DE02982F80
:10260000909591708E7F892B90FB81F991CF0E94DC
:102610000A199091DD02892F97FB87F98058B4CF72
:1026200081E0ACCF81E021CFCF93DF93EB01863106
:102630009C4511F50E948B1E9A81992399F08A7A04
:1026400091E009F490E090931702811109C089E2AA
:102650000E94661E0E94DD1E80E0DF91CF910895EA
:1026600085E3F6CF80911702811104C089E20E94B0
:102670006D1EF0CF85E3FBCF81E0EFCFCF93DF93EB
:10268000EC0181E0898B8F810E948E1E88850E94DB
:10269000A41E0E94DD1EEA81FB81309739F06C890F
:1026A0007D89CE010696DF91CF910994DF91CF917C
:1026B0000895EF92FF920F931F93CF93DF93EC0156
:1026C0008A85811134C0EB80FC8087E5F81A26E109
:1026D0002E9DC0012F9D900D1124DC01AC5FBE4FDB
:1026E0001496ED91FC911597309731F054966D91B9
:1026F0007C91865F9E4F099586E18E9D80018F9D1E
:10270000100D11240C5F1E4FF80187810E94941E4A
:10271000F80180850E94AA1E0E94DD1E188219867B
:102720001B861E821D821092190210921802DF91E0
:10273000CF911F910F91FF90EF900895DF92EF924C
:10274000FF920F931F93CF93DF937C01FB01828154
:10275000882391F0809131018F3F71F0C4E0D1E086
:1027600010E000E0DD24D39480913101082E000CAC
:10277000990B8017910744F4DF91CF911F910F912E
:10278000FF90EF90DF9008958E818823D9F089859E
:102790009A858E159F0539F480911802909119023F
:1027A0008E159F0579F0DF86FC86EB86898981117D
:1027B00003C0CE010E943E13CE0106960E9459131B
:1027C0000E94B11E0F5F1F4F6696CECFEF92FF9211
:1027D0000F931F93CF93DF937C0197558F3F910504
:1027E00009F0D8F520913101022E000C330B281787
:1027F000390714F480933101FB01228136E1389FBF
:102800008001399F100D1124E801CC5FDE4F288B29
:1028100092818E81992349F1FA86E9868F5F8E83B2
:102820000E942A219E878D870E94C41E8F830E944A
:102830008B1E88870E94A11E9885892B8887E88136
:10284000F981309731F06C897D89C801865F9E4F90
:102850000995F0921902E092180281E0DF91CF9180
:102860001F910F91FF90EF9008958823B1F389890C
:10287000882399F3C801865F9E4F0E945913EDCFBC
:10288000EF92FF920F931F93CF93DF9380913101CB
:1028900010E006E18F3FC9F5DF91CF911F910F91B5
:1028A000FF90EF900895029FF001039FF00D112417
:1028B000EC5FFE4FE288F388E114F10421F48CE22E
:1028C000E82EFF24F394029FE001039FD00D112412
:1028D000CC5FDE4F8E818823B9F08D859E850E9466
:1028E0004221E816F90680F4109F700111248989AD
:1028F000811105C0C7018C5F9E4F0E943E13C70126
:10290000865F9E4F0E9459131F5F212F30E08091F8
:102910003101082E000C990B8217930724F6BCCFC7
:1029200090931F0280931E020895E0911E02F09181
:102930001F02309721F00190F081E02D099480E092
:102940000895E0911E02F0911F02309711F480E08B
:1029500008950190F081E02D09950895E0911E02FF
:10296000F0911F02309799F020913E01222359F0F7
:102970002091DD0227FF07C0DC012C9111962C93DA
:10298000119725E02C930280F381E02D099408959E
:1029900020911C0230911D022817390771F0909385
:1029A0001D0280931C02E0911E02F0911F023097DD
:1029B00021F00680F781E02D0994089520911A02F4
:1029C00030911B022817390771F090931B028093F6
:1029D0001A02E0911E02F0911F02309721F000844C
:1029E000F185E02D099408950E94362160932A0212
:1029F00070932B0280932C0290932D0260932602F9
:102A000070932702809328029093290208950E94D0
:102A1000362160932A0270932B0280932C029093AC
:102A20002D026093220270932302809324029093DC
:102A30002502089585B7806885BF85B7806885BF02
:102A40000895089508950C94211508950C94251562
:102A50000E941A1580E49FE10E9486210E9422159F
:102A60000C94231581E008950C943215089508956F
:102A70000E9421210E9496070E948B210E947F0EB6
:102A80000E941F100C942615EF92FF920F931F9334
:102A9000CF93DF93CDB7DEB72A970FB6F894DEBF9A
:102AA0000FBECDBF0E9436150E9437150E94BC078D
:102AB00081110E94F41480E00E948F07182F8091EA
:102AC0002102E82EE126811709F44AC0809199027B
:102AD00081FD0E949507F12C01E08E2D8023D9F114
:102AE0000E943415882399F0FE821F82102381E012
:102AF00009F480E088870E942A218160782F9A87D4
:102B000089874E815F8168858A850E94CE15809174
:102B100021020827009321020E94C30E0E942E105A
:102B200081110E9407150E94951490912002891727
:102B300041F10E949514809320022A960FB6F894D2
:102B4000DEBF0FBECDBFDF91CF911F910F91FF90E0
:102B5000EF900C947905F394000F85E0F812BDCF47
:102B60008FEF89838A831B820E942A218160782FBC
:102B70009D838C8349815A816B818D810E94CE1502
:102B8000CBCF2A960FB6F894DEBF0FBECDBFDF9134
:102B9000CF911F910F91FF90EF900895DF92EF92E8
:102BA000FF920F931F93CF93DF93CDB7DEB72B9791
:102BB0000FB6F894DEBF0FBECDBF7A878B87F42E99
:102BC000052F162FE72ED82E61110E94B11E1E82EE
:102BD0001D827E2DEC82DD824F2D502F612F8D2D99
:102BE0009E812B960FB6F894DEBF0FBECDBFDF914E
:102BF000CF911F910F91FF90EF90DF900C94811B6C
:102C0000FC01808191810C94381ECF93C82F8823BA
:102C100009F43FC08CEF8C0F813AA0F46C2F8091A7
:102C20003201909133010E940120882329F08C2FDA
:102C30000E946D1E0E94DD1E8C2F0E94661ECF9189
:102C40000C94DD1E80E28C0F883048F4C77081E060
:102C500001C0880FCA95EAF70E948E1EF0CFEBE5FF
:102C6000EC0FE33040F4F0E0E252FE4F808190E060
:102C7000CF910C94C814C85AC73158F4EC2FF0E027
:102C8000EE0FFF1FE055FE4F80819181CF910C9494
:102C9000DE14CF910895882329F19CEF980F913A83
:102CA00020F40E946D1E0C94DD1E90E2980F983067
:102CB00050F4877091E001C0990F8A95EAF7892F47
:102CC0000E94941EF0CF9BE5980F933020F490E083
:102CD00080E00C94C814885A873120F490E080E09A
:102CE0000C94DE1408951F93CF93DF93182FEB01FC
:102CF0000E940516209731F4812FDF91CF911F910B
:102D00000C944B168FE99FE00197F1F700C000008B
:102D10002197F0CF70E060E0893311F460E570E056
:102D20000C947316882321F00E948E1E0C94DD1ED5
:102D30000895882321F00E94941E0C94DD1E0895AE
:102D4000BF92CF92DF92EF92FF920F931F93CF9398
:102D5000DF936C01D62FC72FFC01128105810295EC
:102D60000F700E94841EE82E8823A1F0E12E11230B
:102D700089F08C2F807F803429F080E28D0FE12C48
:102D8000883040F082E00E94281F0E94841E91E05B
:102D9000E82EE926BC2EB2949FE0B922EB2DF0E09C
:102DA000E253F64D0C94B1280C2F0F70C07F11F038
:102DB0000295007F1123A9F0002359F080E28D0FC6
:102DC000883010F0D11109C0802F0E948E1E0E9401
:102DD000DD1E8D2F0E94051614C0802F0E94A41E98
:102DE000F6CF8D2F0E944B16002359F080E28D0FF5
:102DF000883010F0D1112CC0802F0E94941E0E94A8
:102E0000DD1E2B2D2850330B2430310520F40E9479
:102E100095140E947905EE2009F493C10E94801E4A
:102E200080FD8FC1F60112820E947A1E0E94031D4E
:102E3000C6010E94C2180E947A1EDF91CF911F9195
:102E40000F91FF90EF90DF90CF90BF900C94241DD6
:102E5000802F0E94AA1ED3CFFC2FFF70FF2EC07FB1
:102E6000C03219F0F29480EFF822DD2369F0D130FE
:102E700049F1112391F1002351F1F601858180FF81
:102E8000A8CF8F70858323C0112381F0011106C064
:102E90000E94C41E8F290E949216B3CF0130C1F741
:102EA0000E94C41E8F290E94CA1EABCF011106C00A
:102EB0000E94D31E8F2D0E949916A3CF013009F4D2
:102EC000A0CFF6CF112329F0063008F09ACF8F2D2E
:102ED000E2CF053008F095CFEDCF002359F3D93379
:102EE00049F4FFEF27EE33E0F15020403040E1F7A6
:102EF00000C000008D2F0E944B1683CF8C2F86952B
:102F00008695837069F0813009F07BCF8D2F9C2FDF
:102F10009370111102C090E080E00E94DE1471CF26
:102F20008D2F9C2F9370111102C090E080E00E94C1
:102F3000C81467CF8C2F837009F041C0111161CF85
:102F40004D2F429546954770440F440F0D2F0F703B
:102F500010E030E020E0042E04C0000F111F221FFB
:102F6000331F0A94D2F760E070E0CB01D4FF0FC0AA
:102F70006FE070E080E090E004C0660F771F881F6C
:102F8000991F4A95D2F76095709580959095C69552
:102F9000C695C370602B712B822B932BC23049F0E6
:102FA00058F4C13019F00E94B71C2BCF0E94A51C09
:102FB00028CF0E94C91C25CF0E94A31C22CF869532
:102FC000112311F08C2F8170882309F41ACF4D2F13
:102FD000429546954770440F440F0D2F0F7010E037
:102FE00030E020E0042E04C0000F111F221F331F09
:102FF0000A94D2F760E070E0CB01D4FF0FC06FE01D
:1030000070E080E090E004C0660F771F881F991F72
:103010004A95D2F76095709580959095C695C6951E
:10302000C370602B712B822B932BC23049F058F464
:10303000C13019F00E947A1DE4CE0E94681DE1CED5
:103040000E948C1DDECE0E94DD1CDBCECF701123D2
:1030500029F08C2F0E94031D8D2F1DCF8D2F0E94D4
:1030600099168C2F0E94241DCCCED23F89F160F49A
:10307000D03FC9F0D13F29F1112309F442C0011119
:10308000A8CE8C2F8F7121C0D33F39F1D43FA1F747
:10309000112369F1CF718C2F0E94031D63E08C2FE7
:1030A0000E94131FAECE112341F0053008F0A9CEC7
:1030B0008C2F8F710E94471DA4CE063008F0A1CE40
:1030C000F7CF8C2F8F71112369F20E94031D99CEC7
:1030D0008C2F8F711123C9F3C5CF112329F08C2FA9
:1030E0008F710E94EE1C8DCE0E94E91C8ACE81E079
:1030F0000E94281F023008F484CE82E00E94281F1C
:1031000080CE002359F0D93309F0F4CE8FEF97EE3B
:10311000E3E081509040E040E1F7EACE8C2F8F71E0
:10312000A1CF4C2F4F706D2FC6010E9481050E94C8
:103130001B1C67CE4C2F4F706D2FC6010E9484055B
:1031400060CEDF91CF911F910F91FF90EF90DF90B4
:10315000CF90BF9008950F931F93CF93DF93EC010F
:10316000688179818A810E94421E8C010E949E1D85
:103170000E94A21CB801CE01DF91CF911F910F9147
:103180000C94A016CF93DF93EC018B819C81892B4B
:1031900029F08881998189238F3F59F4DF91CF915C
:1031A0000895CE010E94AB18CE01DF91CF910C940F
:1031B0003A04CE010E9463048111F3CF0E94841E61
:1031C000882361F38A81882349F382E0DF91CF91DC
:1031D0000C94281F882321F00E94A41E0C94DD1E4D
:1031E0000895882321F00E94AA1E0C94DD1E0895E4
:1031F00090E080E00E94C81490E080E00E94DE141D
:103200000E94B11E0E94C11E0C94DD1E0E94741EFD
:103210000C94F8180E949E1E0C940619E92FE29552
:10322000EF70E250EE3070F4F0E0E252F64D0C94A4
:10323000B128803F19F020F4883E20F481E0089501
:10324000843FE1F380E00895883EC0F3813FD1F7E9
:10325000F5CF93FB882780F908950E94381E0C94BF
:103260000E19CF93DF9300D000D00F92CDB7DEB709
:103270000F900F900F900F900F90DF91CF910895C6
:10328000CF93DF9300D000D000D0CDB7DEB7269625
:103290000FB6F894DEBF0FBECDBFDF91CF9108957A
:1032A0001F93CF93DF93C0912F0216E080913002DD
:1032B0008C1304C0DF91CF911F910895D0E01C9F23
:1032C000F0011D9FF00D1124EF5CFD4F40815181F5
:1032D00062817381848195810E9440192196C77013
:1032E000E5CF40916102509162026091630270915A
:1032F000640280916502909166020C9440191F93BC
:10330000CF93DF9380916602807FA9F4809163025E
:10331000882389F080912F02C09130026091610270
:1033200070916202A0916402B0916502D62FD723FA
:1033300016E0C81304C0DF91CF911F91089590E06B
:10334000109711F0DF3F19F401968770F2CF189FA4
:103350009001199F300D1124F901EF5CFD4F41815F
:103360004713F2CF40814613EFCF42814111ECCF9A
:10337000438154814A1B5B0B4C32514028F78091AA
:1033800066028F70806180936602F901EA5CFD4FEE
:1033900080818F708061808381E692E00E94C218F4
:1033A000DF91CF911F910C945019AF92BF92CF92A1
:1033B000DF92EF92FF920F931F93CF93DF93CDB7DE
:1033C000DEB761970FB6F894DEBF0FBECDBF8C019C
:1033D00085E0F801DE011D9601900D928A95E1F7D6
:1033E000F80140815181E28081E6C82E82E0D82E2A
:1033F00060916402709165026115710509F462C102
:103400009091610220916202892F82238F3F09F4FB
:1034100059C1A380B480F0906302F501E61BF70B5D
:10342000BF01FF2009F4FCC080916602382F307F75
:103430006C32714008F0B2C0311179C0FE2C2513F6
:1034400023C0941321C0E1101FC08F70806180934E
:1034500066020E947119C6010E94C218809166021C
:10346000F80185838F2D61960FB6F894DEBF0FBEED
:10347000CDBFDF91CF911F910F91FF90EF90DF9023
:10348000CF90BF90AF900895AB2829F0842F85236B
:103490008F3F09F033C180E0F82FF170DF2E80FFFD
:1034A0003CC080912F022091300236E0821315C07B
:1034B0004D875E878D859E850E94381E292F229517
:1034C0002F702230F0F0243018F59F70F1F0F801E1
:1034D0009581907FD1F4D12C1EC090E0389FF001EF
:1034E000399FF00D1124EF5CFD4F6181651306C01B
:1034F0006081641303C062816E110FC001968770F2
:10350000D5CF9F7011F0882331F3805E883018F397
:10351000C8010E94C218FD2CA5CFEE2009F4A2CF4D
:1035200080916602816080936602F12C9BCF251307
:1035300006C0941304C0F801EE2009F48DC04D8735
:103540005E878D859E850E942D19882319F1EE20B6
:1035500009F180916602803270F020916102309111
:10356000620238872F831986BB86AA868C87CE0194
:1035700007960E94C21886E0F801A1E6B2E0019029
:103580000D928A95E1F70E947F190E947119FF241C
:10359000F39468CFC8010E94C218F9CF311113C04B
:1035A0007A2DB98AA88A6E2D89890E94311981E6FF
:1035B00092E00E94C21886E0F60111928A95E9F71E
:1035C0000E947119B2CF25130FC094130DC0E110E2
:1035D0000BC0F8018583C8010E94C21886E0F6017D
:1035E00011928A95E9F73ECF4D875E878D859E853E
:1035F0000E942D19882371F2EE2061F280916602FB
:10360000803208F4B8CF20916102309162023A838F
:1036100029831B82BD82AC828E83CE010196A9CF05
:103620006C32714008F041C0FE2CEE2009F4B2CF9C
:1036300025132AC0941328C08091660280FD1BC008
:10364000982F907FC1F0F8018583903F31F0982F3B
:10365000907F905F8F70892B8583C8010E94C2186C
:1036600086E0F801A1E6B2E001900D928A95E1F7BB
:103670000E947119F7CE86E0F801A1E6B2E0019050
:103680000D928A95E1F7EECE4D875E878D859E85FA
:103690000E942D1981116FCF809166028160809305
:1036A0006602C8010E94C218DDCE7A2DB98AA88AA6
:1036B0006E2D89890E94311986E0F60111928A9552
:1036C000E9F7D6CFEE2009F465CF4D875E878D856B
:1036D0009E850E942D19F82E882309F45BCF86E081
:1036E000F801A1E6B2E001900D928A95E1F781E63A
:1036F00092E00E9400160E947F19BACF81E08E25C9
:10370000CBCE1F93CF93DF93CDB7DEB72C970FB6F9
:10371000F894DEBF0FBECDBF4F83588769877A8785
:103720008B879C87CE0107960E94D519882369F064
:103730008A859B85892B39F04F815885842F852375
:103740008F3F09F071C016E05FC086E0FE0137963A
:10375000DE01119601900D928A95E1F78A859B858D
:10376000892B89F38F81988589238F3F61F320917D
:10377000300230E0C90101968770992740912F02ED
:103780004817190671F40E940A191092300210921B
:103790002F0286E0E1E6F2E0DF011D928A95E9F76B
:1037A000D2CF96E0929FD001939FB00D1124AF5CD1
:1037B000BD4FFE01319601900D929A95E1F78093ED
:1037C00030020E945019BFCF819FC00111248F5C2D
:1037D0009D4F0E94D5198823E9F0E0912F021E9F8A
:1037E000F0011124EF5CFD4F4081518162817381B2
:1037F000848195810E94401980912F0290E001966A
:103800008770992780932F0280912F029091300228
:103810008913DACF2C960FB6F894DEBF0FBECDBF5A
:10382000DF91CF911F91089569857A858B859C855D
:103830000E94401988CFEF92FF920F931F93CF936E
:10384000DF938C01892B81F0F12CEE24E394E801C5
:103850002196F8018491843770F4843008F05FC0B9
:103860008130B1F08230A1F1DF91CF911F910F91A2
:10387000FF90EF900895853709F44CC008F43DC0DF
:103880009CE7980F903780F78F770E944B1649C0BE
:103890000E5F1F4FFE01849190E2980F983060F404
:1038A0008770FE2D01C0FF0F8A95EAF78F2F0E94C7
:1038B000B41E0E94DD1E02C00E9405168F2D81508D
:1038C00030F2EFE9FFE03197F1F700C00000F7CFE9
:1038D0000E5F1F4FFE01849190E2980F983050F4D4
:1038E0008770FE2D01C0FF0F8A95EAF78F2F0E9487
:1038F000BA1EDFCF0E944B16E1CF0E5F1F4FFE01B5
:10390000C491C150D8F28FE99FE00197F1F700C050
:103910000000F7CF0E5F1F4FFE01F490CFCF0E9443
:1039200005168E01CBCF08950C94931C0E94941C15
:10393000609370027093710280937202909373028D
:103940000C94F81808950C94961C0F931F930091F3
:103950007002109171022091720230917302602BFB
:10396000712B822B932B1F910F910C94961C0F930C
:103970001F93009170021091710220917202309198
:10398000730260237123822393231F910F910C9460
:10399000961C0F931F930091700210917102209159
:1039A00072023091730260277127822793271F913B
:1039B0000F910C94961C0C94E0020E94DB1C609307
:1039C0006C0270936D0280936E0290936F020C9460
:1039D000F81860E070E0CB010C94DD1C0F931F938E
:1039E00041E050E060E070E08A019B0104C0000FFC
:1039F000111F221F331F8A95D2F7C901B8011F91E9
:103A00000F910C94DD1C0F931F9341E050E060E098
:103A100070E004C0440F551F661F771F8A95D2F7C8
:103A200080916C0290916D02A0916E02B0916F0234
:103A30008A019B01082B192B2A2B3B2BC901B801AA
:103A40001F910F910C94DD1C0F931F9341E050E0E8
:103A500060E070E004C0440F551F661F771F8A9511
:103A6000D2F7CB01BA016095709580959095009141
:103A70006C0210916D0220916E0230916F026023F2
:103A80007123822393231F910F910C94DD1C0F93BC
:103A90001F9341E050E060E070E004C0440F551F08
:103AA000661F771F8A95D2F780916C0290916D0204
:103AB000A0916E02B0916F028A019B01082719271D
:103AC0002A273B27C901B8011F910F910C94DD1CD7
:103AD0000F931F9300916C0210916D0220916E0262
:103AE00030916F02602B712B822B932B1F910F91C2
:103AF0000C94DD1C0F931F9300916C0210916D02CA
:103B000020916E0230916F026023712382239323F0
:103B10001F910F910C94DD1C0F931F9300916C0269
:103B200010916D0220916E0230916F026027712713
:103B3000822793271F910F910C94DD1C0895E92F84
:103B4000EE0FEE0F9E0F890F982F977041E001C086
:103B5000440F9A95EAF786958695869595E0899F14
:103B6000F0011124E959FD4F30E020E070E051915F
:103B7000DF011197CB01022E02C0969587950A941A
:103B8000E2F7817081958527842385278C932F5FA9
:103B90003F4F2530310559F70895E92FEE0FEE0F0D
:103BA0009E0F890F982F977086958695869525E0AC
:103BB000829FF0011124E959FD4F50E040E080E080
:103BC000219130E0092E02C0369527950A94E2F73C
:103BD00021703327042E01C0220F0A94EAF7822BAA
:103BE0004F5F5F4F4530510559F70895BF92CF920F
:103BF000DF92EF92FF920F931F93CF93DF938C018D
:103C0000C0906C02D0906D02E0906E02F0906F0256
:103C10008091700290917102A0917202B091730232
:103C2000C82AD92AEA2AFB2ACFE1D0E0BC2ED70144
:103C3000C6010C2E04C0B695A795979587950A9452
:103C4000D2F780FD0EC0219788F7B12C8B2DDF9124
:103C5000CF911F910F91FF90EF90DF90CF90BF9089
:103C60000895B8018C2F0E94A305019761F3EECF50
:103C7000CF93DF93EC010E94F61DBE01DF91CF913F
:103C80000C94A3051F93CF93DF93EB0190912E0229
:103C9000992331F0CB01DF91CF911F910C94381E05
:103CA000882379F0CB010E94F61D182F682FCE01D2
:103CB0000E949F1DBE01812FDF91CF911F910C9417
:103CC000A305CB010E94CD1D182FF4CF682F809142
:103CD0003201909133010C948120682F8091320140
:103CE000909133010C948C2080913201909133019A
:103CF0000C949720809174028595859585950895FB
:103D0000809174028770089590917402977081E099
:103D100009F480E0089580919802089590919802A6
:103D2000892B80939802089580959091980298230A
:103D300090939802089580939802089510929802A3
:103D4000089580919702089590919702892B80930E
:103D500097020895809590919702982390939702E7
:103D6000089510929702089590919602892B80935E
:103D700096020895809590919602982390939602CA
:103D800008951092960208958091750208950895FD
:103D90000C94C71E90917502981721F080937502BC
:103DA0000C94C81E089580917502882329F0109202
:103DB000750280E00C94C81E0895E0913201F091E4
:103DC0003301809198028083E0913201F0913301B8
:103DD000808190919702892B8083E0913201F0914C
:103DE0003301808190919602892B80839091750296
:103DF000992381F0E0913201F09133018081892B88
:103E0000808380913201909133010E94ED1F8111D6
:103E10000E94D31E80913201909133010C94AE1414
:103E200008950C94101F98E0899F90011124622B33
:103E3000609374020E94031D80917402859585959C
:103E400085950C94111F1092740280E00C94111F40
:103E5000909174028095892380937402282F277093
:103E600071F4282F082E000C330B9217130639F02B
:103E70008595859585950E94241D0C94231F089592
:103E800080E0089590E080E00E945F2921E08B3E71
:103E90009E4F09F020E0822F089582E090E00C947C
:103EA000512983E090E00C945129CF9384E090E075
:103EB0000E945129C82F81E290E00E945129982F39
:103EC0008C2FCF910895CF93C92F682F84E090E075
:103ED0000E9465296C2F81E290E0CF910C946529B6
:103EE000AB01BC018FE090E00C947729AB01BC01E1
:103EF00083E190E00C94772960E070E0CB010C94B2
:103F0000761F60E070E0CB010E94701F0C947C1F54
:103F10006BEE7EEF90E080E00E94832960E082E01B
:103F200090E00E94652960E083E090E00E946529AE
:103F3000109270021092710210927202109273022B
:103F400060E084E090E00E94652960E081E290E01A
:103F50000E94652960E085E090E00E94652960E0AC
:103F600086E090E00E9465296FEF87E090E00E9474
:103F7000652940E050E0BA0188E090E00E9477298E
:103F800060E08DE090E00E94652940E050E0BA01D9
:103F900088E190E00E94772960E087E190E00E944C
:103FA000652940E050E0BA018CE190E00E94772959
:103FB00060E080E290E00E94652940E050E0BA01B4
:103FC00088E190E00E9477290C94811F0C94881F4F
:103FD000682F8EE090E00C946529FC013296809168
:103FE0003E01882321F08091DD029EE187FF96E06B
:103FF00080E0915008F4089521912223D1F38F5F3E
:10400000F8CF662301F120913E012223F1F02091A7
:10401000DD0227FF1AC0462F4695469546954E313C
:1040200090F4677021E030E002C0220F331F6A95E0
:10403000E2F7840F911DFC01828190E0282339234F
:1040400081E0232B69F480E00895FC013296089604
:104050002191261721F0E817F907D1F7F4CF81E075
:1040600008959C01FC0132969FEF80E04191461734
:1040700051F09F3F19F4411101C0982F8F5F863096
:10408000A9F79F3F09F40895290F311D97FD3A952F
:10409000F90162830895FC01329608962191261356
:1040A00003C0DF0111971C92E817F907B9F70895CB
:1040B000E62FE695E695E695EE3168F4E80FF92FE0
:1040C000F11D677021E030E001C0220F6A95EAF728
:1040D0008281822B82830895E62FE695E695E69508
:1040E000EE3170F4E80FF92FF11D677021E030E038
:1040F00001C0220F6A95EAF7209582812823228346
:10410000089520913E01222329F02091DD0227FD10
:104110000C9458200C94312020913E01222329F048
:104120002091DD0227FD0C946C200C944B20FC01A7
:10413000329680913E01882351F08091DD0287FF05
:1041400006C08EE1DF011D928A95E9F7089586E0A9
:10415000F9CF089508950C94AA208091E302843049
:1041600059F10E94AB2080E00E9479050E94EE0D7B
:1041700010929A0288E190E020E40FB6F894A89596
:10418000809360000FBE2093600083B7817F8460BE
:1041900083BF83B7816083BF7894889583B78E7F10
:1041A00083BF0FB6F894A8958091600088618093D2
:1041B0006000109260000FBE089508950E94A9202B
:1041C0000E94BC070E94DD2080E00E948F0791E0E2
:1041D000811101C090E0892F089508950C94ED207D
:1041E0000E940A190E9495140E9479050E94BA0E35
:1041F0000C94EE201F921FB61F9211248F939F9351
:10420000AF93BF9380919A02811113C08091D9021C
:104210009091DA02A091DB02B091DC024196A11DDF
:10422000B11D8093D9029093DA02A093DB02B09380
:10423000DC02BF91AF919F918F911F901FBE1F9085
:10424000189582E084BD93E095BD9AEF97BD809369
:104250006E0008952FB7F8948091D9029091DA02F8
:10426000A091DB02B091DC022FBF08952FB7F89424
:104270006091D9027091DA028091DB029091DC02A8
:104280002FBF08959C014FB7F8948091D902909167
:10429000DA02A091DB02B091DC024FBF821B930BCC
:1042A000089578941F921FB61F9211248F939F93A5
:1042B000AF93BF938091D9029091DA02A091DB0273
:1042C000B091DC020196A11DB11D8093D90290939B
:1042D000DA02A093DB02B093DC02BF91AF919F9111
:1042E0008F911F901FBE1F90189587E797E79093B7
:1042F00001088093000888E19AE00FB6F894A89529
:10430000809360000FBE90936000FFCF9093E30115
:104310008093E20108950E94421F811102C00E9411
:10432000E61F0E944D1F809399020E94551F909393
:10433000DE028093DD020E94511F682F70E090E042
:1043400080E00E94A31C60916C0270916D028091CC
:104350006E0290916F020C94DB1C8091BB02089559
:104360000895CF93DF9300D00F92CDB7DEB7909131
:10437000E302943019F589837B836A8382E080931A
:10438000E9008FEF9091E800815095FD06C095ED12
:104390009A95F1F700008111F5CF8091E80085FF33
:1043A0000DC050E040E063E070E0CE0101960E9455
:1043B000BC238091E8008E778093E8000F900F90E7
:1043C0000F90DF91CF910895BC0184E00C94B1214E
:1043D000BC0183E00C94B121CF93DF93EC01809179
:1043E0003E018823B1F18091DD0287FF32C060E297
:1043F00082E08093E9008FEF9091E800815095FD75
:1044000006C095ED9A95F1F700008111F5CF8091E6
:10441000E80085FF1BC080913E0170E050E040E065
:10442000811104C050E040E068E070E0CE010E94DD
:10443000BC238091E8008E778093E80080E2FE0143
:10444000ABE9B2E001900D928A95E1F7DF91CF914F
:10445000089568E081E0CDCF8091E202811109C02A
:104460000E944C250E94A9258091E20084608093DF
:10447000E20008951092E2020895089508950895C3
:1044800042E061EC81E00E94C82442E261EC82E0FB
:104490000C94C8248091E502833009F45FC030F4A5
:1044A0008130C1F1823009F49BC008958A3009F44B
:1044B00087C08B3009F46DC0893009F04EC08091FF
:1044C000E402813209F049C08091E8029091E9024A
:1044D000029708F042C08091E800877F8093E8004F
:1044E0008091E80082FF35C09091F3008091F20046
:1044F000029729F48091F1008B7F813021F4809123
:10450000F1008093BB028091E8008B778093E800F4
:104510000C94FC248091E402813AF9F48091E80043
:10452000877F8093E8008091E8029091E902892BCF
:1045300061F460E28BE992E070E00E940B248091CC
:10454000E8008B778093E800089560E090E080E0D9
:10455000F3CF8091E3028111C3CF08958091E402EB
:10456000813AD9F78091E8029091E902892BA9F765
:104570008091E800877F8093E8008091E80080FFC9
:10458000FCCF80913E018093F1008091E8008E770E
:10459000BDCF8091E402813201F78091E8029091D1
:1045A000E902892BD1F68091E800877F8093E800AB
:1045B0000E94FC248091E60280933E010C940A192B
:1045C0008091E402813249F68091E800877F8093F0
:1045D000E8000E94FC248091E7028093BC020895C9
:1045E0008091E402813A09F0B8CF8091E800877F9A
:1045F0008093E8008091E80080FFFCCF8091BC02AE
:10460000C2CF84B7877F84BF0FB6F894A8958091F6
:104610006000886180936000109260000FBE80E8A7
:1046200090E00FB6F89480936100909361000FBE04
:104630000E9428150E944C250E94A9258091E20025
:1046400084608093E20078940E9432280E9438159A
:1046500084E391E00E9490148091E3028530A9F0F8
:104660000E9444150E9436150E943715F5CF0E940E
:10467000AD208091E102882341F00E94DE20882352
:1046800021F00E94A6230E940A198091E30285303E
:1046900071F30E94F020E4CF0C944E23292F33278E
:1046A0002330310519F168F42130310509F444C093
:1046B0002230310509F445C090E080E030E020E090
:1046C00025C02132310549F122323105A9F780E4B4
:1046D00090E028E834E061157105C1F08DE690E0C6
:1046E0002BE134E06130710589F0E6CF9927813004
:1046F000910581F0009729F00297F1F6E4E9F3E0E3
:1047000002C0EAECF3E0849190E09F01FA0131836A
:1047100020830895EAEAF3E0F6CF89E090E020EE06
:1047200033E06115710591F389E090E029EF33E002
:104730006130710559F3C0CF82E190E029E034E0A7
:10474000E5CF8BE390E02EEC33E0E0CF80E189BD54
:1047500082E189BD09B400FEFDCF8091D8008F7D34
:104760008093D8008091E00082608093E000809187
:10477000E00081FDFCCF0895AF92BF92CF92DF920F
:10478000FF920F931F93CF93DF936C01EB018A018C
:104790000E941B25F82E811123C00115110539F047
:1047A000F80180819181C81BD90BC80ED91EB12C8C
:1047B000A12C2097A9F08091E80085FD22C080916E
:1047C000E8008E778093E80001151105A1F0F8014B
:1047D00080819181A80EB91EB182A08285E0F82E59
:1047E0008F2DDF91CF911F910F91FF90DF90CF9090
:1047F000BF90AF9008950E941B258823D1F2F82E18
:10480000EFCFF60181916F018093F1002197FFEFC7
:10481000AF1ABF0ACECFFC018091EA029091EB0261
:1048200086179707A0F06115710529F49091E800AB
:104830009E779093E80090E06115710551F4911115
:1048400008C08091E80082FF34C080E00895BC0178
:10485000F2CF8091E3028823C1F18530C1F18091CC
:10486000E80083FD30C08091E80082FDEACF8091AE
:10487000E80080FFE1CF8091F3002091F200382F13
:104880006115710519F02830310558F091E0283094
:10489000310509F090E02091E8002E772093E800A0
:1048A000CBCF81918093F100615071092F5F3F4F11
:1048B000E7CF8091E302882341F0853041F0809179
:1048C000E80083FFBECF81E0089582E0089583E091
:1048D0000895FC018091EA029091EB0286179707F8
:1048E000A0F06115710529F48091E8008E7780931E
:1048F000E80090E06115710551F4911108C08091B4
:10490000E80082FF35C080E00895BC01F2CF8091BD
:10491000E3028823C9F18530C9F18091E80083FD65
:1049200031C08091E80082FDEACF8091E80080FFED
:10493000E1CF8091F3002091F200382F61157105CD
:1049400019F02830310558F091E02830310509F090
:1049500090E08091E8008E778093E800CBCF84913F
:104960008093F1003196615071092F5F3F4FE6CF80
:104970008091E302882341F0853041F08091E80086
:1049800083FFBDCF81E0089582E0089583E008951C
:10499000982F973028F08F708093E90081E0089578
:1049A0009093E900242F762F50E0981731F0709102
:1049B000EC002091ED005091F00021FD02C09F5FBE
:1049C000E8CF3091EB003E7F3093EB003091ED006B
:1049D0003D7F3093ED003091EB0031603093EB0080
:1049E0007093EC002093ED005093F0002091EE00C6
:1049F00027FDE5CF80E008958091E40287FF13C092
:104A00008091E80082FF06C08091E8008B77809358
:104A1000E80004C08091E3028111F2CF08958091F3
:104A2000E3028823D9F38091E80080FFF8CF8091DA
:104A3000E8008E77ECCF2091E4003091E50095E618
:104A4000A9012091EC00822F817020FF06C0809187
:104A5000E80080FF06C080E008952091E80022FD74
:104A60001AC08091E302882389F0853089F0809113
:104A7000EB0085FD0FC02091E4003091E500421766
:104A80005307F9F29150E1F684E0089582E0089529
:104A900083E0089581E008950E94BA250E94C2250E
:104AA000E0EEF0E0808181608083E8EDF0E08081DD
:104AB0008F77808319BCA7EDB0E08C918E7F8C93AB
:104AC00080818F7E80831092E20208950F931F935E
:104AD000CF93DF930E94BA250E94C225C8EDD0E093
:104AE00088818F77888388818068888388818F7D9B
:104AF000888319BC1092E3021092DF021092E10247
:104B00001092E00200EE10E0F80180818B7F80833C
:104B100088818160888342E060E080E00E94C82450
:104B2000E1EEF0E080818E7F8083E2EEF0E0808134
:104B300081608083808188608083F80180818E7F9E
:104B40008083888180618883DF91CF911F910F914D
:104B50000895E8EDF0E080818F7E8083E7EDF0E05E
:104B600080818160808384E082BF81E08093E20263
:104B70000C946625E8EDF0E080818E7F80831092B2
:104B8000E20008951092DA001092E10008951F9259
:104B90000F920FB60F9211242F933F934F935F9371
:104BA0006F937F938F939F93AF93BF93EF93FF93F5
:104BB0008091E10082FF0BC08091E20082FF07C07C
:104BC0008091E1008B7F8093E1000E9431288091E9
:104BD000DA0080FF19C08091D80080FF15C0809155
:104BE000DA008E7F8093DA008091D90080FF96C032
:104BF00080E189BD82E189BD09B400FEFDCF81E07D
:104C00008093E3020E942C228091E10080FF19C072
:104C10008091E20080FF15C08091E2008E7F80933A
:104C2000E2008091E20080618093E2008091D800F0
:104C300080628093D80019BC85E08093E3020E94D3
:104C40003E228091E10084FF2BC08091E20084FF2E
:104C500027C080E189BD82E189BD89B5982F917017
:104C600080FFFBCF8091D8008F7D8093D80080910A
:104C7000E1008F7E8093E1008091E2008F7E80933F
:104C8000E2008091E20081608093E2008091DF0287
:104C9000882309F449C084E08093E3020E943F2204
:104CA0008091E10083FF29C08091E20083FF25C04D
:104CB0008091E100877F8093E10082E08093E302AE
:104CC0001092DF028091E1008E7F8093E10080915D
:104CD000E2008E7F8093E2008091E2008061809309
:104CE000E20042E060E080E00E94C8248091F00091
:104CF00088608093F0000E943D22FF91EF91BF9168
:104D0000AF919F918F917F916F915F914F913F9163
:104D10002F910F900FBE0F901F90189519BC1092F5
:104D2000E3020E943A2270CF8091E30087FD93E076
:104D30009093E302B3CF1F920F920FB60F921124FC
:104D40002F933F934F935F936F937F938F939F9393
:104D5000AF93BF93CF93DF93EF93FF93D091E9008D
:104D6000DF708091EC00C82FC17080FDC0E8109208
:104D7000E9008091F000877F8093F00078940E9492
:104D8000DF261092E9008091F00088608093F000A7
:104D9000CD2BCF70C093E900FF91EF91DF91CF91C0
:104DA000BF91AF919F918F917F916F915F914F9143
:104DB0003F912F910F900FBE0F901F9018951F934A
:104DC000CF93DF93CDB7DEB7AA970FB6F894DEBFC7
:104DD0000FBECDBF84EE92E02091F100FC01219343
:104DE000CF01F2E08C3E9F07B9F70E944A228091E2
:104DF000E80083FF1EC18091E4029091E5029A30A1
:104E000008F017C1E92FF0E0E451F64D0C94B128F9
:104E1000803899F0823809F00CC18091E8028F70D7
:104E2000873008F006C18093E9008091EB0085FB94
:104E3000882780F91092E90006C08091E0029091E5
:104E4000E102911182609091E800977F9093E800D1
:104E50008093F1001092F1008091E8008E77E5C018
:104E6000882309F4D3C0823009F0E3C08091E602C0
:104E70008111D6C08091E8028F702FEF280F263065
:104E800008F0D7C08093E9002091EB0020FFC8C054
:104E9000933031F48091EB0080628093EB00C0C0CE
:104EA0009091EB0090619093EB0021E030E001C025
:104EB000220F8A95EAF72093EA001092EA00809187
:104EC000EB008860EACF8111B4C01091E6021F7731
:104ED0008091E3008078812B8093E3008091E8004B
:104EE000877F8093E8000E94FC248091E80080FF87
:104EF000FCCF8091E30080688093E30082E0111191
:104F000083E08093E30295C08058823008F091C01E
:104F10008091E6029091E7028C3D23E09207A1F593
:104F200083E08A838AE289834FB7F894DE0113967F
:104F300020E03EE051E2E32FF0E050935700E4918F
:104F400020FF03C0E295EF703F5FEF708E2F90E07F
:104F5000EA30C0F0C7968D939D932F5F243159F7A7
:104F60004FBF8091E800877F8093E8006AE270E09D
:104F7000CE0101960E940B248091E8008B778093EC
:104F8000E80057C0C096E7CF6091E8027091E9024F
:104F9000AE014F5F5F4F0E944C23BC01892B09F487
:104FA00048C09091E800977F9093E80089819A81AA
:104FB0000E946924E1CF8038E1F58091E800877F85
:104FC0008093E8008091DF028093F10045CF81114A
:104FD00030C09091E602923060F58091E800877FC2
:104FE0008093E8009093DF020E94FC248091DF020E
:104FF000882311F084E005C08091E30087FDFACF9B
:1050000081E08093E3020E94402213C08091E60277
:10501000813079F481E0933009F080E08093E102FF
:105020001092E9008091E800877F8093E8000E9459
:10503000FC248091E80083FF0AC08091E800877F0C
:105040008093E8008091EB0080628093EB00AA9649
:105050000FB6F894DEBF0FBECDBFDF91CF911F9189
:1050600008950895CF938091E3028823A1F0C09121
:10507000E900CF709091EC00892F817090FD80E85D
:10508000C82B1092E9008091E80083FD0E94DF2682
:10509000CF70C093E900CF910895991B79E004C0C7
:1050A000991F961708F0961B881F7A95C9F7809567
:1050B000089587FB082E062687FD819567FD61957B
:1050C0000E944D280EF4919507FC81950895AA1B26
:1050D000BB1B51E107C0AA1FBB1FA617B70710F0E3
:1050E000A61BB70B881F991F5A95A9F78095909515
:1050F000BC01CD01089597FB072E16F4009407D04C
:1051000077FD09D00E94672807FC05D03EF49095F2
:1051100081959F4F0895709561957F4F0895A1E205
:105120001A2EAA1BBB1BFD010DC0AA1FBB1FEE1F21
:10513000FF1FA217B307E407F50720F0A21BB30B6C
:10514000E40BF50B661F771F881F991F1A9469F7E8
:1051500060957095809590959B01AC01BD01CF0144
:105160000895EE0FFF1F0590F491E02D09940E9421
:10517000BF28332312F48A1B9B0B0C94D028A29FC8
:10518000B001B39FC001A39F700D811D1124911D1B
:10519000B29F700D811D1124911D08950E94BF289A
:1051A000B7FF0895821B930B08950E94BF28A59F07
:1051B000900DB49F900DA49F800D911D1124089512
:1051C000B7FF0C94D5280E94D528821B930B089515
:1051D0008F929F92AF92BF92CF92DF92EF92FF9207
:1051E000CF93DF93EC01688179818A819B8161157E
:1051F00071058105910521F464E279ED8BE597E075
:105200002DE133EF41E050E00E94992949015A0114
:105210009B01AC01A7EAB1E40E94D5286B017C0197
:10522000ACEEB4EFA50194010E94E328DC01CB01B0
:105230008C0D9D1DAE1DBF1DB7FF03C00197A109B9
:10524000B04888839983AA83BB839F77DF91CF91EE
:10525000FF90EF90DF90CF90BF90AF909F908F9096
:1052600008950E94E828089580E091E00E94E828CF
:105270000895B0E0A0E08093000190930101A09315
:105280000201B09303010895FC014150504030F0F9
:1052900001900616D1F73197CF01089588279927F5
:1052A0000895F999FECF92BD81BDF89A992780B5EE
:1052B0000895A6E1B0E044E050E00C948B29A8E109
:1052C000B0E042E050E00C948B29262FF999FECFF4
:1052D00092BD81BDF89A019700B4021639F01FBA49
:1052E00020BD0FB6F894FA9AF99A0FBE0895039666
:1052F000272F0E9466290E946529252F0E94662972
:10530000242F0C9466290196272F0E9466290C945D
:105310006529DC01CB01FC01F999FECF06C0F2BD85
:10532000E1BDF89A319600B40D9241505040B8F763
:105330000895052E97FB1EF400940E94B02957FD96
:1053400007D00E948F2807FC03D04EF40C94B0299C
:1053500050954095309521953F4F4F4F5F4F0895A1
:1053600090958095709561957F4F8F4F9F4F0895D1
:10537000F894FFCF970F9F0FA60FAB0FB00FB50F8D
:10538000BA0FBF0FC40FC90FCE0FD30FD70FDC0F4B
:10539000DF0FE20FE50FE80FEA0FED0FD416D4167A
:1053A0002C172C177E170117011701179A172618AB
:1053B000351835189118011701179A181919191964
:1053C0002219221924192219221922191919191915
:1053D00029192219221929190827302719283027B5
:0C53E0001928632784271928DB27E727FA
:1053EC00010000000000AD02000000000000000001
:1053FC000000000000000000000002000600010197
:10540C0002000500050501191A1B1C1D1E1F202179
:10541C0022FF7602AD21EC21B021E821E42101E24A
:10542C0000E900EA00B500B600B700CD008301CC5E
:10543C00008A0192019401210223022402250226F2
:10544C000227022A02B300B4006F0070008182832D
:10545C00379496F6F70001020202020606060909C5
:10546C00090909090F0F0F0F0F0F15151518191929
:10547C001919191919191919232425252525252533
:10548C0000FF0100010000FFFF0000010001FF0010
:10549C00E200E900EA00B500B600B700CD008301D8
:1054AC00CC008A01920194012102230224022502DC
:1054BC00260227022A02B300B4006F00700081821A
:0254CC0083005B
:00000001FF
