:100000000C9485020C94CC020C94CC020C94CC027F
:100010000C94CC020C94CC020C94CC020C94CC0228
:100020000C94CC020C94CC020C9495260C94692769
:100030000C9441210C94CC020C94CC020C94CC0274
:100040000C94CC020C94CC020C94CC020C94CC02F8
:100050000C94CC020C9498210C94CC020C94CC02FD
:100060000C94CC020C94CC020C94CC020C94CC02D8
:100070000C94CC020C94CC020C94CC020C94CC02C8
:100080000C94CC020C94CC020C94CC020C94CC02B8
:100090000C94CC020C94CC020C94CC020C94CC02A8
:1000A0000C94CC020C94CC020C94CC020057680047
:1000B00069006A006B0000576C006D006E006F00F5
:1000C0000057700071007200730000000000000013
:1000D00000002A2B280000000000000000000000A3
:1000E000000000000029000000002C1E3420212206
:1000F00024342627252E362D3738271E1F2021226F
:10010000232425263333362E37381F0405060708E7
:10011000090A0B0C0D0E0F101112131415161718D7
:10012000191A1B1C1D2F3130232D35040506070815
:10013000090A0B0C0D0E0F101112131415161718B7
:10014000191A1B1C1D2F3130354C00000000000017
:10015000000000000000000000000000000000009F
:1001600000000000000000000000000000007E0F02
:1001700000D4FFFFFFC7000000781E0F0500047FBA
:100180003F1F643214643214783C1E1E140A052288
:1001900023252628292A2C2D2F3032333536383A7C
:1001A0003B3D3E4042434547494A4C4E50515355D2
:1001B00057595A5C5E6062646668696B6D6F7173F3
:1001C0007577797B7D7F81838587898A8C8E9092F4
:1001D0009496989A9C9E9FA1A3A5A7A8AAACAEAFFF
:1001E000B1B3B4B6B8B9BBBCBEBFC1C2C3C5C6C744
:1001F000C9CACBCCCDCED0D1D2D2D3D4D5D6D7D7F5
:10020000D8D9D9DADADBDBDBDCDCDCDCDCDDDDDD3C
:10021000DDDCDCDCDCDCDBDBDBDADAD9D9D8D7D738
:10022000D6D5D4D3D2D2D1D0CECDCCCBCAC9C7C6E5
:10023000C5C3C2C1BFBEBCBBB9B8B6B4B3B1AFAE23
:10024000ACAAA8A7A5A3A19F9E9C9A9896949290C9
:100250008E8C8A89878583817F7D7B7977757371A1
:100260006F6D6B6968666462605E5C5A595755537E
:1002700051504E4C4A4947454342403E3D3B3A3837
:1002800036353332302F2D2C2A292826252322FFDC
:10029000AA7F554000010101010101010101020293
:1002A0000202020202020203030303030303030424
:1002B00004040404040405050505050606060606EF
:1002C000070707070708080808090909090A0A0AA9
:1002D0000B0B0B0C0C0C0D0D0D0E0E0E0F0F0F104B
:1002E00010111111121213131414151516161717D5
:1002F000181819191A1A1B1B1C1D1D1E1E1F202041
:10030000212222232424252626272829292A2B2C8A
:100310002D2D2E2F30313232333435363738393AAD
:100320003B3C3D3E3F404142434445464748494AA5
:100330004C4D4E4F50515354555658595A5B5D5E73
:100340005F616264656668696B6C6D6F707273750E
:1003500077787A7B7D7E8082838587888A8C8E8F72
:1003600091939596989A9C9EA0A2A3A5A7A9ABADA0
:10037000AFB1B3B5B7BABCBEC0C2C4C6C9CBCDCF8E
:10038000D1D4D6D8DBDDDFE2E4E7E9EBEEF0F3F53C
:10039000F8FAFDFF14036200690067004B004E008D
:1003A0004F0042007600320000001E036C00650022
:1003B00061006600630075007400740065007200DF
:1003C0006C0061006200730000000403090409026C
:1003D0005B00030100A0FA09040000010301010011
:1003E0000921110100012240000705810308000ACC
:1003F000090401000203000000092111010001228B
:1004000022000705820320000107050303200001E5
:10041000090402000103000000092111010001226A
:100420006D000705840320000A120110010000007E
:1004300008EBCE07000100010200010660FF096120
:10044000A1010962150026FF0095207508810209A7
:1004500063150026FF00952075089102C00501096B
:1004600080A101850319012AB700150126B700955F
:100470000175108100C0050C0901A1018504190155
:100480002AA002150126A002950175108100C00561
:10049000010906A1018505050719E029E7150025D1
:1004A000019508750181020507190029EF1500253E
:1004B0000195F07501810205081901290595057559
:1004C000019102950175039101C005010906A10181
:1004D000050719E029E71500250195087501810236
:1004E0009501750881010507190029FF150026FFF0
:1004F00000950675088100050819012905950575FF
:10050000019102950175039101C011241FBECFEF27
:10051000DAE0DEBFCDBF04B603FE27C08091FA0249
:100520009091FB02A091FC02B091FD028730904BAC
:10053000A740B04BD1F41092FA021092FB02109235
:10054000FC021092FD0214BE84B7877F84BF0FB6F1
:10055000F894A89580916000886180936000109263
:1005600060000FBEE0E0F8E3099511E0A0E0B1E023
:10057000E8E8F5E502C005900D92A03FB107D9F774
:1005800022E0A0EFB1E001C01D92AA3FB207E1F75F
:100590000E9453230C94862A0C940000FC01808155
:1005A000813041F48185811109C08285882331F031
:1005B00083E00895823021F081E0089582E008957B
:1005C00084E008951F93CF93DF930E945D09182F55
:1005D000811102C00E94BC03C4E0D0E04FEF6FEF76
:1005E00080E00E94320B2FE78AE196E021508040A4
:1005F0009040E1F700C000004FEF6FEF8BE20E94E8
:10060000320B2FE78AE196E0215080409040E1F7DD
:1006100000C00000219711F7111105C0DF91CF91A3
:100620001F910C94BC03DF91CF911F910C948A030E
:1006300097FD09C020910401309105012817390761
:1006400014F00C94351D0C94E2028091F40190E0BA
:100650002091040130910501821793071CF4019643
:100660000C94180390E080E0FBCF8091F40190E0BF
:10067000009719F001970C94180380910401909150
:100680000501F9CF81113BC08091F2019091F301F6
:10069000662331F197FF04C01092F3011092F2012A
:1006A0008091F2019091F30101969093F301809370
:1006B000F2018091F2019091F3019C0197FF04C037
:1006C00022273327281B390B40911C0150911D0113
:1006D00024173507A4F0181619067CF40C9425038A
:1006E0001816190624F41092F3011092F201809169
:1006F000F2019091F3010197D8CF0C94350308953E
:10070000FC012081213021F4818190E00C941803B8
:100710000C94E2028091F401813079F0882341F059
:10072000823079F00E94E2024FEF6FEF8BE203C05C
:100730004FEF6FEF80E00C94320B4FEF6FEF85E5DA
:10074000FACF4FEF6FEF8AEAF6CFCF92DF92EF92B8
:10075000FF926B017C011092F3011092F2010E9452
:100760006E058093F4010E948A03C701B601FF90D1
:10077000EF90DF90CF9008950E94BE0E0E945D0919
:1007800081110C948A0308950E94CE02833031F0C7
:10079000843031F0823031F40C9425030C9435030D
:1007A0000C94BC030895CF93DF939C013A952115D7
:1007B0003F4168F5EC01CC27D170DC01AA27B2706B
:1007C000AC01442754709C012227387094FF11C05B
:1007D00080E1CD2B09F480E0AB2B09F08062452B42
:1007E00009F08064232B09F08068FB01DF91CF9131
:1007F000099481E0CD2B09F480E0AB2B09F08260F5
:10080000452B09F08460232B81F38860EECFDF91C4
:10081000CF910895CF93DF93EC01805E9109089703
:1008200020F062E379E1209711F46AED76E1CE01E0
:100830000E94D3038C2FDF91CF910C944D16CF9350
:10084000DF93EC010E949316CE01805E9109089718
:1008500020F069E379E1209711F461EE76E1CE01B1
:10086000DF91CF910C94D303CF93DF93EC010E94DF
:100870000A04CE01DF91CF910C941F0481E008950A
:1008800081E008950C94400408950C9444041F934F
:10089000CF93DF9300D000D00F92CDB7DEB749835E
:1008A0005A836B8330913C0289819A8131111DC03A
:1008B0006623B9F02223A9F00E943D1E182F682F4D
:1008C00089819A810E94E61D69817A81812F0F902A
:1008D0000F900F900F900F90DF91CF911F910C947C
:1008E000CE050E94141E182FEFCF0E943D1E698175
:1008F0007A81EDCFFC01262F408151816281738185
:1009000084810C944704CF93DF93EC0160E00E9454
:100910007A04BE01DF91CF910C9445040E94891F97
:10092000811102C00E942D200E94D3100C94D30785
:100930000E9489140C94D60708950E9452190E94AF
:100940009C042FEF84E39CE0215080409040E1F72D
:1009500000C000000C94BC210F931F93CF93DF9332
:10096000EC0161E00E947A048C01BE010E94E71351
:10097000BE01C8010E9442048823B9F1BE01C8012A
:100980000E942F14882389F1BE01C8010E945E11C4
:10099000882359F1BE01C8010E94E811882329F17A
:1009A000BE01C8010E943A128823F9F0BE01C801B5
:1009B0000E945D138823C9F0BE01C8010E94CA0FBE
:1009C000882399F08A81882339F001158CE518076E
:1009D00051F00F3D1C4579F0CE01DF91CF911F9171
:1009E0000F910C943E040E949D0480E0DF91CF9112
:1009F0001F910F9108950E942D20F7CFDF92EF9263
:100A0000FF920F931F93CF93DF93E82FF0E0E6530D
:100A1000FF4FD490282F26952695269530E0F90192
:100A2000E659FE4F0491877010E0082E02C015951C
:100A300007950A94E2F701701127F901E65AFE4F73
:100A4000E490F12C082E02C0F594E7940A94E2F7A2
:100A500091E0E922FF24F901E65BFE4FC491D0E06A
:100A600002C0D595C7958A95E2F7C170DD270115BB
:100A7000110519F081EE0E944D16E114F10419F0F0
:100A800086EE0E944D168D2D0E94D216EF2819F089
:100A900086EE0E949316012B19F081EE0E949316A8
:100AA000CD2B51F08CE2DF91CF911F910F91FF90F0
:100AB000EF90DF900C94D216DF91CF911F910F91A0
:100AC000FF90EF90DF900895982F9F709A50963086
:100AD00018F0805D0C94FE04895AFCCFCF92DF920F
:100AE000EF92FF926C01EE24FF2420E0C114D104A8
:100AF000E104F10419F0C701B60120E1C72ED82E98
:100B0000E92EFF24C114D104E104F10419F0285F97
:100B1000C701B6016B017C0154E0F694E794D794C9
:100B2000C7945A95D1F7C114D104E104F10419F026
:100B30002C5FC701B6016B017C0142E0F694E7949B
:100B4000D794C7944A95D1F7C114D104E104F104B4
:100B500019F02E5FC701B601969587957795679531
:100B6000672B682B692B09F02F5F822FFF90EF9086
:100B7000DF90CF90089508950C94BB0581E008950F
:100B80000C94BE05CF93C82F0E94BC058C2FCF912B
:100B90000C94C00590E080E008950895E62F272F7B
:100BA000280F3327331FC90125E0289FB001299F53
:100BB000700D1124E60FF72FF11DEE0FFF1FE45506
:100BC000FF4F859194910895FC01EE0FFF1FE658A9
:100BD000FE4F859194910895CF93DF930E94CE05A7
:100BE0000E94F806EC01811520E5920708F041C04B
:100BF000811530E4930708F0B4C0803E910518F5E4
:100C0000803C910508F09DC0883A910570F4853AC2
:100C1000910508F08EC081309105F9F00097E9F058
:100C20000497D8F4D0E0C0E018C08F3B9105D0F70E
:100C3000C85AD0E0CC0FDD1FC15CDE4F0990D881CF
:100C4000C02DD4640AC08115904258F4C11581E0CA
:100C5000D80718F4C83ED10528F7CE01DF91CF910F
:100C60000895C11590E3D90708F071C0CE019F70B7
:100C70006AC0811525E5920758F5811534E593077B
:100C800008F09EC0811542E5940750F4C11581E536
:100C9000D80708F469C0DC2FCC27C16FD06ADDCF3C
:100CA000982F969596959E0123703327C115D345AD
:100CB00008F077C0C1E0D0E002C0CC0FDD1F2A955C
:100CC000E2F720E2929FC0011124C82BD92B67C004
:100CD000C11589E5D807A8F4C11598E5D90708F02A
:100CE00074C0C11526E5D20708F09CCF8C2F0E9456
:100CF0008F07C82FD0E0DC2FCC27CC27DF71D06244
:100D0000ACCFC1153AE5D30708F464C0CE019056C4
:100D10008115904208F086CF8D2F8F710E948F072A
:100D200090E0982F882788279F719C012C2BE90140
:100D3000E6CFC55AD0E0C359DE4FC881D0E0D064B9
:100D40008CCF805C91090E94E405EC0186CFCE0136
:100D50009927D3FF03C0EC01D86C7FCFEC01D06C96
:100D60007CCFDF70D06A79CFCE01E4E0969587958D
:100D7000EA95E1F783702C2F26952695237090E253
:100D8000299F90011124382B8C2F8370C1E0D0E073
:100D900002C0CC0FDD1F8A95E2F7C22BD32BDC6893
:100DA0005CCFC1E0D0E002C0CC0FDD1F2A95E2F796
:100DB00030E2939FC0011124C82BD92BDA684DCFA4
:100DC000D82FCC27C46FD06A48CFDC2FCC27C06F78
:100DD000D06A43CF8C2F8F700E948F0734E0D69556
:100DE000C7953A95E1F7CF709C2FEC01D06935CFCC
:100DF00082389105B1F1B0F48133910509F475C0E1
:100E000048F48932910509F469C08A32910509F4E0
:100E100073C008958533910509F459C0893391054C
:100E200001F10895833E9105A9F138F4803E9105C2
:100E3000F9F0823E910549F10895863E9105A9F1A8
:100E4000873E9105C9F1843E910519F52091EC0288
:100E500021FF1FC08091EB0284FD14C087EE90E05B
:100E600008952091EB022370A1F080EE90E00895A8
:100E70002091EB0220FD47C03091EC0230FF09C009
:100E800024FF44C090E080E004C02091EB0222FDEA
:100E9000F7CF08952091EB0222FD3BC03091EC0288
:100EA00030FDE3CF24FFF5CFEDCF2091EB0223FF00
:100EB000F0CF24FDE7CFD2CF2091EB0223FD2CC051
:100EC0003091EC0231FFEECF84EE90E00895209156
:100ED000EB0225FFDECF89E290E008952091EB023E
:100EE00025FFD7CF85E390E008952091EB0226FF00
:100EF000D0CF8AE290E008952091EB0226FFC9CF7F
:100F000081E390E0089589E390E0089583EE90E016
:100F1000089582EE90E0089586EE90E00895909115
:100F2000EB0292FF06C0282F28712830F9F4877F42
:100F3000846093FF06C0282F28712831F1F4877E42
:100F400084612091EC0220FF06C0382F38713830C0
:100F5000D9F4877F816021FF06C0282F28712831AE
:100F6000D1F4877E816194FD877E0895282F2471B6
:100F70002430F9F68B7F8860DCCF282F2471243150
:100F800001F78B7E8861DDCF382F3171313019F751
:100F90008E7F8860E0CF282F2171213121F78E7E4E
:100FA0008861E1CF08950C94D20708950C94D50779
:100FB000E82FF0E0E453FD4F808108950895A0E705
:100FC000B1E041E050E08D918F3F91F0E82FE29544
:100FD000EF70F0E061A18F709A0101C0220F8A9535
:100FE000EAF7922F9095962391A382A1822B82A358
:100FF00081E0A537B80739F71092CB021092CC02E6
:1010000081E00E9441080C948E04CF93A0E7B1E0E8
:1010100050E040E030E061E070E02D912F3FA9F01A
:10102000E22FE295EF70F0E080A190E02F7002C017
:10103000959587952A95E2F780FD21C0CB01042E76
:1010400001C0880F0A94EAF7382B4F5F5F4F453095
:10105000510519F78091CB02C0E0831719F0309346
:10106000CB02C1E02C2F41E06CEC72E08BEC92E003
:101070000E9442080E9498048C2FCF91089580E02E
:10108000E3CF0895FF920F931F93CF93DF93F82E32
:10109000092F162FD72FC42F222349F081E08093E8
:1010A000F7010E9471219093F6018093F5018091E0
:1010B000F7018823A1F08091F5019091F6010E943B
:1010C0008921069760F0EF2DF02FA12FBD2FCE0FB5
:1010D000DF2FD11DEC17FD0741F41092F701DF91CE
:1010E000CF911F910F91FF90089581918D93F2CF31
:1010F000EF92FF920F931F93CF93DF93EB01E82FB3
:10110000D11110C0442321F0F0E0EC56FD4FE491E2
:101110006E2F7E2F8E2FDF91CF911F910F91FF9019
:10112000EF9008950D2F10E0282F30E0442329F090
:101130002C563D4FF901249130E0F6E0CF9FC001DD
:101140001124EFEFF0E0BF010E943529AB018C2F95
:1011500090E0880F991FA5E5A49FB001A59F700D91
:101160001124861B970B982F990F980FBF01601BB6
:10117000710B629FD001639FB00D729FB00D11245F
:101180008B2F9D9FB0011124672F7727EF01C61B7E
:10119000D70BBE01629FE001639FD00D729FD00DFF
:1011A00011247F01E91AF108E09EB001E19E700D63
:1011B000F09E700D1124672F7727E61BF70BE29F37
:1011C0008001E39F100DF29F100D1124E12F722F6B
:1011D0004230510599F048F44115510569F041300C
:1011E000510581F0EB2F8D2F07C04430510569F078
:1011F00080F046305105B1F76E2F8DCFE22F7B2F57
:10120000812FFACFE22F7D2FF7CFEB2F822F712F77
:10121000F3CF7B2F822FED2FEFCF41E00C94780896
:1012200008950C940D09CF93DF93762FE901682F71
:10123000842F0E941109798368838A83DF91CF917B
:1012400008958091CD02982F9E7F29F4817082604D
:101250008093CD0208958635E8F381708465F8CFD8
:1012600088E090E00C94272ACF92DF92EF92FF92D1
:101270006B017C010E942109B701A60188E090E082
:10128000FF90EF90DF90CF900C94452AEDECF2E0C8
:1012900083E0808311828FEF828383831482608155
:1012A0007181828193810C9434098091CD0280FFF9
:1012B00002C08695089580E008958091CD028170E6
:1012C00008959091D102933018F49F5F9093D102CA
:1012D000882351F06091CD027091CE028091CF02AF
:1012E0009091D0020C943409089581E00C94610926
:1012F0009091D102992319F091509093D1028823B3
:1013000051F06091CD027091CE028091CF02909108
:10131000D0020C943409089581E00C94780970E0AF
:101320000C943A10609122018091CD0280FF0AC096
:101330008091210123E0829FC00111248E529D4F94
:101340000C948F09809123019091240123E0829FC6
:10135000F0011124EE52FD4F891750F711821082CF
:1013600012828F5F3396F8CF9091CD0290FF14C018
:10137000909123012091240133E0939FF0011124E7
:10138000EE52FD4F921710F00C9492098183608306
:1013900042839F5F3396F6CF0895CF93DF9300D0BB
:1013A0000F92CDB7DEB79091CD0290FF0AC09E019B
:1013B0002F5F3F4F0E9413094B8169818A810E94F0
:1013C000B4090F900F900F90DF91CF910895CF93B4
:1013D000DF93EC01EC81F0E0E157FE4F4491EDEC3E
:1013E000F2E0628181810E94CD098C818F5F8C83C4
:1013F000DF91CF910895CF93DF93EC01EDECF2E014
:10140000438162818C810E94CD098C818F5F8C83A6
:10141000DF91CF9108950F931F93CF93DF9300D067
:101420000F92CDB7DEB78C018091F80181110AC00F
:101430009E012F5F3F4F4FEF6FEF0E9413098A818C
:101440008093F801F8016481613069F08091F801BE
:1014500040E0662361F040E0623011F44091F80111
:1014600080E060E004C06091F80140E080E00E940C
:10147000B409F801848190E0019663E070E00E9475
:10148000492984830F900F900F90DF91CF911F9186
:101490000F910895AF92BF92CF92DF92EF92FF9299
:1014A0000F931F93CF93DF9300D00F92CDB7DEB78A
:1014B000182FF62E042FE22E9091CD0290FF29C016
:1014C000E92FE695AE2FB0E0AB58BE4F8C918093DC
:1014D0001D029E7F923059F59E012F5F3F4F812F55
:1014E0000E9413094B8169818A810E94B40910937B
:1014F000CE02F092CF020093D002EE2051F0609124
:10150000CD027091CE028091CF029091D0020E94C4
:1015100034090F900F900F90DF91CF911F910F9191
:10152000FF90EF90DF90CF90BF90AF900895823002
:1015300019F40091D002DBCF863019F41091CE025D
:10154000D6CF8930D9F3893191F6E9518E2F817048
:10155000D82EE695F0E0E157FD4FA590B490C12C50
:10156000BB2460912501C61618F00E949209BFCFD6
:101570002C2D30E0A29EC001A39E900DB29E900D36
:10158000112470E00E943529812FD11013C0860FDD
:1015900040912301420F532F511D9A01220F331FF7
:1015A000240F351F2E523D4F402F6F2D0E941309DF
:1015B000C394D7CF861BECCFEDECF2E09181282FBE
:1015C0004381628188E0890F0C944A0A81E00C947F
:1015D000DC0AEDECF2E09181282F4381628188EFF3
:1015E000890F0C944A0A81E00C94E90AEDECF2E0D0
:1015F000628121E1620F08F46FEF282F438181811E
:101600000C944A0A81E00C94F60AEDECF2E0628157
:1016100021E1621B08F460E0282F438181810C9452
:101620004A0A81E00C94050BEDECF2E0438121E1E4
:10163000420F08F44FEF282F628181810C944A0AEF
:1016400081E00C94140BEDECF2E0438121E1421BAC
:1016500008F440E0282F628181810C944A0A81E0DD
:101660000C94230B21E00C944A0A20E00C944A0AC3
:10167000EF92FF921F93CF93DF93EC0110E0EE24E3
:10168000EA94F12C60912501161770F00E949209DE
:101690009A818C8190FF27C08F5F8C83DF91CF91DF
:1016A0001F91FF90EF90089520912301422F410F49
:1016B0005527551FCA019A01220F331F280F391FC2
:1016C0002E523D4F70E0C7010E944929962F8C8110
:1016D0004091D0026091CF02199F800D11240E9489
:1016E00013091F5FCFCF8150D8CFAF92BF92CF9257
:1016F000DF92EF92FF920F931F93CF93DF93FC0142
:1017000082810FEF80FF01E010E045E0A42E809180
:1017100025011817C8F00E9492098091FA01013042
:1017200009F055C0811102C080912501815080933C
:10173000FA01DF91CF911F910F91FF90EF90DF9011
:10174000CF90BF90AF900895C0912301C12ED12CAE
:10175000CC0DDD2DD11DCE01880F991FC80FD91FCB
:10176000CE52DD4F198218821A8234E0E32EF12C1A
:10177000B12C8091FA018B0D86301CF16A2D0E94EC
:101780002729892F082E000C990BC816D90691F429
:101790008091D0028E9DA0018F9D500D11245595F2
:1017A0004795559547959E016091CF028091CE0255
:1017B0000E941309B00EF1E0EF1AF108D1F61F5F95
:1017C000A6CF87FFDFCF90912501890FDBCF90E077
:1017D00001966091250170E00E944929A8CF0F93DE
:1017E0001F93CF93DF93809123019091240123E0F5
:1017F000829FF0011124EE52FD4F891740F1C0E0A5
:10180000D3E060912501C61740F10E949209209112
:101810001F018091F901820F8093F90190912001BD
:10182000920F90932001191654F4082E000C990B76
:10183000409125014150550B841795071CF02195C7
:1018400020931F01DF91CF911F910F910895118275
:10185000108212828F5F3396D0CF0C2F10E070E091
:10186000C8010E94492920912301820F482F50E08E
:101870002091F901022E000C330B02171307BCF064
:1018800020912001022E000C330B201731077CF031
:101890008D9F900111242E523D4F4091D0026091B6
:1018A000CF028091CE020E941309CF5FAACFFA0126
:1018B000EE0FFF1FE40FF51FEE52FD4F1182108255
:1018C0001282F3CF8F929F92AF92BF92CF92DF920C
:1018D000EF92FF920F931F93CF93DF93EC014C8114
:1018E000042F10E09801D8010E948D299B01AC01C2
:1018F0000E94A3294B015C01E0E2F0E0E01BF10B48
:10190000A5E5B0E0AC019B010E94A3296B017C011D
:101910009F01DF010E9485299B01AC010E94AE2935
:101920009B01AC01280D391D4A1D5B1DC701B60185
:101930000E945D29F22E822F90E039E23F1560F17E
:1019400043E0249F9001112435952795122F10957F
:1019500000E085E5E82EEF1880912501081758F181
:101960000E9492099C8181E0992319F0903219F428
:101970008FEF80931E0180911E01890F8C83DF9170
:10198000CF911F910F91FF90EF90DF90CF90BF907C
:10199000AF909F908F90089525E530E0B901681BC6
:1019A000790B9B01220F331F260F371F37FFCCCF38
:1019B0002F5F3F4FC9CF8E2D01FD8F2D2091230129
:1019C000622F600F7727771F9B01220F331F260F8F
:1019D000371F2E523D4F412F6091CF020E941309B5
:1019E0000F5FBACF0F931F93CF93DF93EC0110E0FB
:1019F00000E0909125019017110609F06CF40E9407
:101A000092098C8190E00196817099278C83DF91F7
:101A1000CF911F910F91089520912301A801420FAA
:101A2000511D9A01220F331F240F351F2E523D4F97
:101A30004C816091CF028091CE029695901711064D
:101A400051F04CF0442349F04091D0020E94130918
:101A50000F5F1F4FCECF4423B9F340E0F7CF4F9233
:101A60005F926F927F928F929F92AF92BF92CF922E
:101A7000DF92EF92FF920F931F93CF93DF93FC01BE
:101A80006280448081E08483EFE8F1E07490EEE0CE
:101A9000F2E0E491812C75E0972EF2E0CF2EDD2468
:101AA000D394AA24AA94B12C55245A94E7190E2F42
:101AB00010E080912501881690F0DF91CF911F9161
:101AC0000F91FF90EF90DF90CF90BF90AF909F90DD
:101AD0008F907F906F905F904F900C949209E82CBC
:101AE000F12C82E0861568F09E9CF0019F9CF00D21
:101AF0001124E550FE4F8091CE0280838091CF0269
:101B00008183411023C09E9CF0019F9CF00D112405
:101B1000E550FE4F1382128220912301C701820FEC
:101B2000911D9C01220F331F280F391F2E523D4F4C
:101B30009E9CF0019F9CF00D1124E550FE4F4281C8
:101B4000618180810E9413098394B3CF9E9CE00140
:101B50009F9CD00D1124C550DE4F8B818823E9F066
:101B600081508B83859DC00111246C8170E00E949F
:101B70003529FB01FF27E157FE4F8491E82FE71934
:101B8000E59DC0011124B8010E9435298091D00241
:101B9000689FB00111247A83BFCF0E94022A20914E
:101BA000D002269521582C9DA0012D9D500D112469
:101BB000452F5527841795070CF0AECF82E0861588
:101BC00088F40E94022AB5010E94492988830E9454
:101BD000022A2091CF022695622F70E00E944929A7
:101BE000280F29839E9CF0019F9CF00D1124E55045
:101BF000FE4F12828091D002893C58F088EC9E9C66
:101C0000F0019F9CF00D1124E550FE4F84838383E7
:101C100083CF8431A0F784E1F2CFEDECF2E0808154
:101C20008E7F808360817181828193810E943409DB
:101C300010921E022FEF80E792E0215080409040EA
:101C4000E1F700C000000C949209EDECF2E0808115
:101C50008E7F808310921E022FEF80E792E021504A
:101C600080409040E1F700C000000C94920910926F
:101C70001E0280911B0281110AC081E080931B0229
:101C80008091CD02817080931A020C94250E0895E4
:101C90006091CD02669570E04BE050E086E291E005
:101CA0000E94122A892B19F481E080931E020E945F
:101CB0007121909315028093140208959091CD02A2
:101CC00090FF35C09170811128C092609093CD0231
:101CD000662351F06091CD027091CE028091CF02C7
:101CE0009091D0020E9434096091CD02669570E017
:101CF0004BE050E086E291E00E94122A892BA1F08D
:101D000010921E0281E0809317024091D0026091F0
:101D1000CF028091CE020C94350B8B3210F094657B
:101D2000D5CF880F982BD2CF0E94480EEBCF0895C5
:101D3000682F9091CD02969581E0890F8B3208F043
:101D400081E00C945E0E81E00C94980E682F9091C7
:101D5000CD0296958FEF890F09F48AE20C945E0EFE
:101D600081E00C94A60E61E00C945E0EEDECF2E0C6
:101D700080818160808386950C94B30E8091CD0222
:101D800080FD0C940D0E0C94B60E60E00C945E0E6B
:101D900080911C0281112EC00E94891F811104C0F4
:101DA0000E942D200E9446090E9430096093CD02B6
:101DB0007093CE028093CF029093D0026E7F61F435
:101DC0000E9446090E9430096093CD027093CE02B2
:101DD0008093CF029093D0020E94210910921E029C
:101DE0008091CD0280FF03C086950E94C50E81E0E0
:101DF00080931C020895EDECF2E080818160808385
:101E000086950C94C50E10921B0280911A028111C6
:101E10000E94FB0E0C94480E0F931F93CF93DF93F9
:101E200080911E02882309F496C080911D02E091E2
:101E3000CD02E695E81BE0931602823091F5F0E0C2
:101E4000E557FE4FE491CE2FD0E007EE19E08091E8
:101E50001702882361F0109217020E94712190935B
:101E600015028093140210921902109218020E9417
:101E70007121E0911402F09115028E1B9F0B8F3F90
:101E80009F4708F068C0EC0FFD1FF0931502E09328
:101E9000140284E192E0F801DF91CF911F910F913C
:101EA0000994863049F4F0E0E857FE4FE491CE2FD4
:101EB000D0E00BEF19E0CBCF893051F4E695F0E09C
:101EC000EB57FE4FE491CE2FD0E008E31BE0BFCFED
:101ED0008F3051F4E695F0E0EE57FE4FE491CE2FAF
:101EE000D0E005E71BE0B3CF853149F4F0E0E158DD
:101EF000FE4FE491CE2FD0E00FEE1BE0A8CFC8E25A
:101F0000D0E002E61CE0883109F4A1CF833239F435
:101F1000EDE7F1E0C591D4910BE01AE098CFC4EF62
:101F2000D1E002EF1CE0843209F491CFC0EDD7E09C
:101F300000E119E0853209F08ACF8E2F63E00E941C
:101F40001B29E92FF0E0E658FE4FE491CE2FD0E0B8
:101F50000FE21DE07CCFDF91CF911F910F9108958B
:101F6000FA01811101C0FB010994CF93DF93C82FBF
:101F7000D62F0E9455098C1740F00E9455098D17E5
:101F800020F4DF91CF910C94A30E8C2FDF91CF9191
:101F90000C94B30E0F931F93CF938C01FB01C2815E
:101FA000CC2309F465C00E94D21E8272F801E35C62
:101FB000FC45E431F10538F4E857F54D0C947F29E0
:101FC0000E94BE0EC0E08C2FCF911F910F910895FB
:101FD00040EB5EE063EA7EE00E94B00FF3CF43EA9D
:101FE0005EE060EB7EE0F8CF43EF5AE066EE7AE029
:101FF000F3CF46EE5AE063EF7AE0EECF41E15BE0EB
:1020000062E07BE0E9CF42E05BE061E17BE0E4CFCE
:102010004FE25BE060E27BE0DFCF40E25BE06FE25B
:102020007BE0DACF4CE859E065E779E0D5CF45E7CA
:1020300059E06CE879E0D0CF81E00E94B30EC2CFC6
:1020400065E082E00E94B50FBDCF68E086E0FACF80
:102050006EE089E0F7CF64E18FE0F4CF67E185E1DE
:10206000F1CF88E1EACF62E289E1ECCF83E2E5CF0C
:10207000C1E0A9CF3F9A48B14F7758B15068EFB748
:10208000F8949B01220F331F260F371F280F391F8B
:102090002817390741F4EFBF8FE594E00197F1F776
:1020A00000C000000895DC016D91CD0178E058B9C1
:1020B000000000C067FF48B9660F000000C000C004
:1020C00000C048B900C07A9591F7E2CF0C94420362
:1020D0005098589A52985A9A89B181704A9905C075
:1020E00090E0892B80932102089592E0FACFE0914D
:1020F0002102EE0FEE0FE093210249B1842F81708F
:1021000049B142FB222720F942FF02C022E030E021
:10211000822BE82BE0932102EF70F0E0E056FE4FB7
:10212000808190912002890F8093200220E08230EC
:1021300054F080911F028F5F80931F0260E080E067
:102140000E94661021E0809120028F3F54F480911C
:102150001F02815080931F0261E080E00E946610A0
:1021600021E080912002082E000C990B62E070E0C3
:102170000E94492980932002822F0895CF93DF93F4
:10218000EC0197FF0CC0FB018281882341F00E9483
:10219000E910CE019F770E9443110E94241181E033
:1021A000DF91CF9108958CE090E00E941F2A90E08B
:1021B000B0E0A0E08093E1029093E202A093E302FA
:1021C000B093E40208956091E1028CE090E00C94F9
:1021D000332A0E94E914869581708093E6029091DB
:1021E000E102913029F4882319F089E30E94D21684
:1021F0000E94D21E8093E5020E94E51E8091E102BA
:10220000813089F0882359F0823091F08430B9F020
:102210008FE39CE90197F1F700C00000089582EE7A
:102220000E944D16F5CF88E193E00E943404F0CF70
:1022300082EE0E944D1687E50E94D216E9CF86EE07
:102240000E94D21688E1F8CF8091E102813071F0CE
:10225000882341F0823031F0843099F08091E5029A
:102260000C94E21E82EE0E949316F8CF8CE20E943C
:10227000D2168091E602882389F389E30E94D21660
:10228000EDCF88E2FBCF0F931F93CF93DF938C01A9
:10229000CCE0D0E0C8010C2E02C0969587950A9438
:1022A000E2F78F700E9464052497CC3F8FEFD80728
:1022B00089F7DF91CF911F910F9108950F931F938D
:1022C000CF93DF93EC018B01FB018281882361F0C6
:1022D0000E94D21ECE01825E9C458530910520F47D
:1022E0008093E1020E94E310B801CE01DF91CF910B
:1022F0001F910F910C94BE100F931F93CF93DF93F8
:10230000C42FD22FFC0182818823C9F0409324027C
:102310000E947121909323028093220280E28C0F0D
:10232000883008F050C0C77081E001C0880FCA959E
:10233000EAF7DF91CF911F910F910C94DA1610916B
:102340002402141335C080912202909123020E942E
:1023500089218A3F910560F5C0E2CD0F1D17B9F0C4
:1023600080E2810F883040F4177081E001C0880F4F
:102370001A95EAF70E94E116C83048F481E09D2FD3
:10238000977001C0880F9A95EAF70E94DA16802F9D
:102390000E94D216C830B8F4D77081E001C0880F0F
:1023A000DA95EAF7DF91CF911F910F910C94E11626
:1023B00080E28C0F883038F4C77081E001C0880F4C
:1023C000CA95EAF7EFCFDF91CF911F910F91089552
:1023D0000F939C01CB01243F4CE5340759F1A8F43D
:1023E000293DFCE53F0701F12A3D4CE53407D1F1D9
:1023F000283D3C4591F406E221EE41EE68ED7CE596
:102400000E947C1180E00F910895263FFCE53F0774
:10241000E9F0B0F0273F3C45F9F0FC0182818823C8
:1024200039F110922402EFCF07E225EE45EE69ED77
:102430007CE5E6CF06E221EE40EE64EF7CE5E0CFFE
:1024400007E225EE44EE65EF7CE5DACF06E221EE09
:1024500042EE66EF7CE5D4CF07E225EE46EE67EF6D
:102460007CE5CECF08E221E045EE6AED7CE5C8CF01
:1024700081E0C9CFCF93DF93EC01FB0182818823F8
:1024800009F419C1C230FCE5DF07C0F1C6319CE593
:10249000D90730F09E012B5F3C452930310570F59E
:1024A0000E949C1F9093EC028093EB02C031ECE5FC
:1024B000DE0709F4CFC008F05BC0C8308CE5D80750
:1024C00009F4B6C088F5C430ECE5DE0709F4A8C00D
:1024D000C0F4C2308CE5D80709F49CC08091EB02AF
:1024E0008260C330DC4509F498C08091EB02909182
:1024F000EC020E94AA1F0E94521980E0DF91CF9146
:1025000008958091EB028061C630ECE5DE0709F4A6
:1025100084C08091EB028860C730DC4508F47DC040
:102520008091EB02806279C0CC308CE5D80709F449
:1025300089C070F48091EB028C60CA30ECE5DE0754
:1025400009F46BC008F478C08091EB028E7F65C0FF
:10255000CE308CE5D80709F479C08091EB028B7FEF
:10256000CF30DC4508F459C08091EB028F7E55C016
:10257000CC3FECE5DE0709F457C030F5C3318CE5FC
:10258000D80709F46FC078F4C131ECE5DE0709F42F
:1025900065C0C231DC4509F0A8CF0E945219809174
:1025A000EB028F773AC0C5318CE5D80709F462C0D9
:1025B00008F476C08091EC028160CB3FDC4509F0E5
:1025C00094CF8093EC0291CFC115FDE5DF0709F4AC
:1025D0004DC088F48091EC028D7FCE3F9CE5D907F9
:1025E00081F38091EC028E7FCF3FDC4550F38091E8
:1025F000EC028360E6CFC230FDE5DF0709F459C085
:1026000008F444C080E0C330DD4509F06ECF0E947D
:102610002F206BCF8091EB0281608093EB0265CF1E
:102620008091EB028460F9CF8091EC028260C9CF87
:102630008091EB028064F1CF0E9452198091EB02ED
:102640008068EBCF8091EB028D7FE7CF8091EB022A
:10265000877FE3CF8091EB028F7DDFCF8091EB020C
:102660008F7BDBCF8091EB02837FD7CF8091EC0211
:102670008C7FA7CF8091EB0282FB992790F921E014
:10268000922790FB82F990FB83F9C7CF8091EC02EF
:10269000982F909591708E7F892B90FB81F991CF27
:1026A0000E9452199091EB02892F97FB87F980586D
:1026B000B4CF81E0ACCF81E021CFCF93DF93EB01AA
:1026C00086319C4511F50E94D21E9A81992399F07A
:1026D0008A7A91E009F490E090932502811109C073
:1026E00089E20E94AD1E0E94241F80E0DF91CF91FD
:1026F000089585E3F6CF80912502811104C089E217
:102700000E94B41EF0CF85E3FBCF81E0EFCFCF93E3
:10271000DF93EC0181E0898B8F810E94D51E888533
:102720000E94EB1E0E94241FEA81FB81309739F042
:102730006C897D89CE010696DF91CF910994DF9156
:10274000CF910895EF92FF920F931F93CF93DF9352
:10275000EC018A85811134C0EB80FC8087E5F81A92
:1027600026E12E9DC0012F9D900D1124DC01AA5F52
:10277000BE4F1496ED91FC911597309731F0549619
:102780006D917C91845F9E4F099586E18E9D8001BD
:102790008F9D100D11240A5F1E4FF80187810E9442
:1027A000DB1EF80180850E94F11E0E94241F188202
:1027B00019861B861E821D82109227021092260205
:1027C000DF91CF911F910F91FF90EF900895DF92CD
:1027D000EF92FF920F931F93CF93DF937C01FB0146
:1027E0008281882391F0809131018F3F71F0C6E0A2
:1027F000D1E010E000E0DD24D39480913101082E77
:10280000000C990B8017910744F4DF91CF911F9131
:102810000F91FF90EF90DF9008958E818823D9F07B
:1028200089859A858E159F0539F4809126029091AD
:1028300027028E159F0579F0DF86FC86EB86898955
:10284000811103C0CE010E948713CE0106960E941B
:10285000A2130E94F81E0F5F1F4F6696CECFEF9215
:10286000FF920F931F93CF93DF937C0197558F3F78
:10287000910509F0D8F520913101022E000C330B9F
:102880002817390714F480933101FB01228136E1C6
:10289000389F8001399F100D1124E801CA5FDE4F77
:1028A000288B92818E81992349F1FA86E9868F5F80
:1028B0008E830E9471219E878D870E940B1F8F83BC
:1028C0000E94D21E88870E94E81E9885892B8887DF
:1028D000E881F981309731F06C897D89C801845F86
:1028E0009E4F0995F0922702E092260281E0DF9147
:1028F000CF911F910F91FF90EF9008958823B1F32E
:102900008989882399F3C801845F9E4F0E94A2138E
:10291000EDCFEF92FF920F931F93CF93DF938091B0
:10292000310110E006E18F3FC1F5DF91CF911F919A
:102930000F91FF90EF900895029FF001039FF00D1B
:102940001124EA5FFE4FE288F388E114F10419F4E0
:102950008AEFE82EF12C029FE001039FD00D112495
:10296000CA5FDE4F8E818823B9F08D859E850E94D7
:102970008921E816F90680F4109F700111248989D5
:10298000811105C0C7018A5F9E4F0E948713C7014E
:10299000845F9E4F0E94A2131F5F212F30E0809121
:1029A0003101082E000C990B821793072CF6BDCF2E
:1029B00090932D0280932C020895E0912C02F091C7
:1029C0002D02309721F00190F081E02D099480E0F4
:1029D0000895E0912C02F0912D02309711F480E0DF
:1029E00008950190F081E02D09950895E0912C0261
:1029F000F0912D02309799F020913E01222359F059
:102A00002091EB0227FF07C0DC012C9111962C933B
:102A1000119725E02C930280F381E02D099408950D
:102A200020912A0230912B022817390771F09093D8
:102A30002B0280932A02E0912C02F0912D02309714
:102A400021F00680F781E02D099408952091280255
:102A5000309129022817390771F090932902809349
:102A60002802E0912C02F0912D02309721F0008491
:102A7000F185E02D099408950E947D21609338022C
:102A80007093390280933A0290933B026093340230
:102A900070933502809336029093370208950E9416
:102AA0007D21609338027093390280933A029093AB
:102AB0003B02609330027093310280933202909314
:102AC0003302089585B7806885BF85B7806885BF64
:102AD0000895089508950C94691508950C946D1542
:102AE0000E94621587E89FE10E94CD210E946A152D
:102AF0000C946B1581E008950C947A15089508954F
:102B00000E9468210E94DF070E94D2210E94C80E05
:102B10000E9468100C946E15EF92FF920F931F9312
:102B2000CF93DF93CDB7DEB72A970FB6F894DEBF09
:102B30000FBECDBF0E947E150E947F150E94050822
:102B400081110E943C1580E00E94D807182F8091C7
:102B50002F02E82EE126811709F44AC08091A702CE
:102B600081FD0E94DE07F12C01E08E2D8023D9F13A
:102B70000E947C15882399F0FE821F82102381E039
:102B800009F480E088870E9471218160782F9A87FC
:102B900089874E815F8168858A850E94161680919B
:102BA0002F02082700932F020E940C0F0E9477101B
:102BB00081110E944F150E94DD1490912E028917F9
:102BC00041F10E94DD1480932E022A960FB6F894EC
:102BD000DEBF0FBECDBFDF91CF911F910F91FF9050
:102BE000EF900C94C205F394000F85E0F812BDCF6E
:102BF0008FEF89838A831B820E9471218160782FE5
:102C00009D838C8349815A816B818D810E94161628
:102C1000CBCF2A960FB6F894DEBF0FBECDBFDF91A3
:102C2000CF911F910F91FF90EF900895DF92EF9257
:102C3000FF920F931F93CF93DF93CDB7DEB72B9700
:102C40000FB6F894DEBF0FBECDBF7A878B87F42E08
:102C5000052F162FE72ED82E61110E94F81E1E8216
:102C60001D827E2DEC82DD824F2D502F612F8D2D08
:102C70009E812B960FB6F894DEBF0FBECDBFDF91BD
:102C8000CF911F910F91FF90EF90DF900C94C81B94
:102C9000FC01808191810C947F1ECF93C82F8823E3
:102CA00009F43FC08CEF8C0F813AA0F46C2F809117
:102CB0003201909133010E944820882329F08C2F03
:102CC0000E94B41E0E94241F8C2F0E94AD1ECF9123
:102CD0000C94241F80E28C0F883048F4C77081E088
:102CE00001C0880FCA95EAF70E94D51EF0CFEBE528
:102CF000EC0FE33040F4F0E0E252FE4F808190E0D0
:102D0000CF910C941015C85AC73158F4EC2FF0E04D
:102D1000EE0FFF1FE055FE4F80819181CF910C9403
:102D20002615CF910895882329F19CEF980F913AA9
:102D300020F40E94B41E0C94241F90E2980F983047
:102D400050F4877091E001C0990F8A95EAF7892FB6
:102D50000E94DB1EF0CF9BE5980F933020F490E0AB
:102D600080E00C941015885A873120F490E080E0C0
:102D70000C94261508951F93CF93DF93182FEB0122
:102D80000E944D16209731F4812FDF91CF911F9132
:102D90000C9493168FE99FE00197F1F700C00000B3
:102DA0002197F0CF70E060E0893311F460E570E0C6
:102DB0000C94BB16882321F00E94D51E0C94241F6E
:102DC0000895882321F00E94DB1E0C94241F08958F
:102DD000BF92CF92DF92EF92FF920F931F93CF9308
:102DE000DF936C01D62FC72FFC011281058102955C
:102DF0000F700E94CB1EE82E8823A1F0E12E112334
:102E000089F08C2F807F803429F080E28D0FE12CB7
:102E1000883040F082E00E946F1F0E94CB1E91E03C
:102E2000E82EE926BC2EB2949FE0B922EB2DF0E00B
:102E3000E456F54D0C947F290C2F0F70C07F11F0D4
:102E40000295007F1123A9F0002359F080E28D0F35
:102E5000883010F0D11109C0802F0E94D51E0E9429
:102E6000241F8D2F0E944D1614C0802F0E94EB1E30
:102E7000F6CF8D2F0E949316002359F080E28D0F1C
:102E8000883010F0D1112CC0802F0E94DB1E0E94D0
:102E9000241F2B2D2850330B2430310520F40E94A1
:102EA000DD140E94C205EE2009F493C10E94C71EE2
:102EB00080FD8FC1F60112820E94C11E0E944A1D30
:102EC000C6010E940A190E94C11EDF91CF911F9175
:102ED0000F91FF90EF90DF90CF90BF900C946B1DFF
:102EE000802F0E94F11ED3CFFC2FFF70FF2EC07FDA
:102EF000C03219F0F29480EFF822DD2369F0D1306E
:102F000049F1112391F1002351F1F601858180FFF0
:102F1000A8CF8F70858323C0112381F0011106C0D3
:102F20000E940B1F8F290E94DA16B3CF0130C1F720
:102F30000E940B1F8F290E94111FABCF011106C0E9
:102F40000E941A1F8F2D0E94E116A3CF013009F4B1
:102F5000A0CFF6CF112329F0063008F09ACF8F2D9D
:102F6000E2CF053008F095CFEDCF002359F3D933E8
:102F700049F4FFEF27EE33E0F15020403040E1F715
:102F800000C000008D2F0E94931683CF8C2F869552
:102F90008695837069F0813009F07BCF8D2F9C2F4F
:102FA0009370111102C090E080E00E94261571CF4D
:102FB0008D2F9C2F9370111102C090E080E00E9431
:102FC000101567CF8C2F837009F041C0111161CFAC
:102FD0004D2F429546954770440F440F0D2F0F70AB
:102FE00010E030E020E0042E04C0000F111F221F6B
:102FF000331F0A94D2F760E070E0CB01D4FF0FC01A
:103000006FE070E080E090E004C0660F771F881FDB
:10301000991F4A95D2F76095709580959095C695C1
:10302000C695C370602B712B822B932BC23049F055
:1030300058F4C13019F00E94FE1C2BCF0E94EC1CEA
:1030400028CF0E94101D25CF0E94EA1C22CF869512
:10305000112311F08C2F8170882309F41ACF4D2F82
:10306000429546954770440F440F0D2F0F7010E0A6
:1030700030E020E0042E04C0000F111F221F331F78
:103080000A94D2F760E070E0CB01D4FF0FC06FE08C
:1030900070E080E090E004C0660F771F881F991FE2
:1030A0004A95D2F76095709580959095C695C6958E
:1030B000C370602B712B822B932BC23049F058F4D4
:1030C000C13019F00E94C11DE4CE0E94AF1DE1CEB7
:1030D0000E94D31DDECE0E94241DDBCECF701123B3
:1030E00029F08C2F0E944A1D8D2F1DCF8D2F0E94FD
:1030F000E1168C2F0E946B1DCCCED23F89F160F47B
:10310000D03FC9F0D13F29F1112309F442C0011188
:10311000A8CE8C2F8F7121C0D33F39F1D43FA1F7B6
:10312000112369F1CF718C2F0E944A1D63E08C2F0F
:103130000E945A1FAECE112341F0053008F0A9CEEF
:103140008C2F8F710E948E1DA4CE063008F0A1CE68
:10315000F7CF8C2F8F71112369F20E944A1D99CEEF
:103160008C2F8F711123C9F3C5CF112329F08C2F18
:103170008F710E94351D8DCE0E94301D8ACE81E058
:103180000E946F1F023008F484CE82E00E946F1FFD
:1031900080CE002359F0D93309F0F4CE8FEF97EEAB
:1031A000E3E081509040E040E1F7EACE8C2F8F7150
:1031B000A1CF4C2F4F706D2FC6010E94CA050E94EF
:1031C000621C67CE4C2F4F706D2FC6010E94CD053B
:1031D00060CEDF91CF911F910F91FF90EF90DF9024
:1031E000CF90BF9008950F931F93CF93DF93EC017F
:1031F000688179818A810E94891E8C010E94E51D67
:103200000E94E91CB801CE01DF91CF911F910F916F
:103210000C94E816CF93DF93EC018B819C81892B72
:1032200029F08881998189238F3F59F4DF91CF91CB
:103230000895CE010E94F318CE01DF91CF910C9436
:103240008304CE010E94AC048111F3CF0E94CB1EF7
:10325000882361F38A81882349F382E0DF91CF914B
:103260000C946F1F882321F00E94EB1E0C94241FE6
:103270000895882321F00E94F11E0C94241F0895C4
:1032800090E080E00E94101590E080E00E942615FA
:103290000E94F81E0E94081F0C94241F0E94BB1E4F
:1032A0000C9440190E94E51E0C944E19E92FE295EA
:1032B000EF70E250EE3070F4F0E0E455F54D0C9410
:1032C0007F29803F19F020F4883E20F481E00895A2
:1032D000843FE1F380E00895883EC0F3813FD1F759
:1032E000F5CF93FB882780F908950E947F1E0C94E8
:1032F0005619CF93DF9300D000D00F92CDB7DEB731
:103300000F900F900F900F900F90DF91CF91089535
:10331000CF93DF9300D000D000D0CDB7DEB7269694
:103320000FB6F894DEBF0FBECDBFDF91CF910895E9
:103330001F93CF93DF93C0913D0216E080913E0230
:103340008C1304C0DF91CF911F910895D0E01C9F92
:10335000F0011D9FF00D1124E15CFD4F4081518172
:1033600062817381848195810E9488192196C7703A
:10337000E5CF40916F02509170026091710270919F
:10338000720280917302909174020C9488191F93B9
:10339000CF93DF9380917402807FA9F480917102B2
:1033A000882389F080913D02C0913E0260916F02B6
:1033B00070917002A0917202B0917302D62FD72340
:1033C00016E0C81304C0DF91CF911F91089590E0DB
:1033D000109711F0DF3F19F401968770F2CF189F14
:1033E0009001199F300D1124F901E15CFD4F4181DD
:1033F0004713F2CF40814613EFCF42814111ECCF0A
:10340000438154814A1B5B0B4A3F510528F7809149
:1034100074028F70806180937402F901EC5BFD4F40
:1034200080818F70806180838FE692E00E940A190C
:10343000DF91CF911F910C949819AF92BF92CF92C8
:10344000DF92EF92FF920F931F93CF93DF93CDB74D
:10345000DEB761970FB6F894DEBF0FBECDBF8C010B
:1034600085E0F801DE011D9601900D928A95E1F745
:10347000F80140815181E2808FE6C82E82E0D82E8B
:1034800060917202709173026115710509F461C156
:1034900090916F0220917002892F82238F3F09F44F
:1034A00058C1A380B480F0907102F501E61BF70BC0
:1034B000FF2009F4FCC080917402382F307FEA3F6E
:1034C000F10508F0B2C0311179C0FE2C251323C0DC
:1034D000941321C0E1101FC08F708061809374022B
:1034E0000E94B919C6010E940A1980917402F8015C
:1034F00085838F2D61960FB6F894DEBF0FBECDBFCA
:10350000DF91CF911F910F91FF90EF90DF90CF90BF
:10351000BF90AF900895AB2829F0842F85238F3F6B
:1035200009F033C180E0F82FF170DF2E80FF3CC03E
:1035300080913D0220913E0236E0821315C04D87F6
:103540005E878D859E850E947F1E292F22952F7074
:103550002230F0F0243018F59F70F1F0F8019581D9
:10356000907FD1F4D12C1EC090E0389FF001399F9C
:10357000F00D1124E15CFD4F6181651306C060818F
:10358000641303C062816E110FC001968770D5CF9E
:103590009F7011F0882331F3805E883018F3C801E2
:1035A0000E940A19FD2CA5CFEE2009F4A2CF80912C
:1035B0007402816080937402F12C9BCF251306C0A6
:1035C000941304C0F801EE2009F48DC04D875E8786
:1035D0008D859E850E947519882319F1EE2009F1C9
:1035E00080917402803270F020916F0230917002ED
:1035F00038872F831986BB86AA868C87CE010796CB
:103600000E940A1986E0F801AFE6B2E001900D923F
:103610008A95E1F70E94C7190E94B919FF24F39413
:1036200068CFC8010E940A19F9CF311113C07A2D51
:10363000B98AA88A6E2D89890E9479198FE692E04D
:103640000E940A1986E0F60111928A95E9F70E9414
:10365000B919B2CF25130FC094130DC0E1100BC0E0
:10366000F8018583C8010E940A1986E0F6011192CB
:103670008A95E9F73ECF4D875E878D859E850E94AE
:103680007519882371F2EE2061F280917402803204
:1036900008F4B8CF20916F02309170023A832983E9
:1036A0001B82BD82AC828E83CE010196A9CFEA3FF8
:1036B000F10508F041C0FE2CEE2009F4B2CF25132D
:1036C0002AC0941328C08091740280FD1BC0982FDB
:1036D000907FC1F0F8018583903F31F0982F907F63
:1036E000905F8F70892B8583C8010E940A1986E03C
:1036F000F801AFE6B2E001900D928A95E1F70E94E1
:10370000B919F7CE86E0F801AFE6B2E001900D926C
:103710008A95E1F7EECE4D875E878D859E850E9466
:10372000751981116FCF809174028160809374024A
:10373000C8010E940A19DDCE7A2DB98AA88A6E2D99
:1037400089890E94791986E0F60111928A95E9F734
:10375000D6CFEE2009F465CF4D875E878D859E8597
:103760000E947519F82E882309F45BCF86E0F801D2
:10377000AFE6B2E001900D928A95E1F78FE692E014
:103780000E9448160E94C719BACF81E08E25CBCE81
:103790001F93CF93DF93CDB7DEB72C970FB6F89476
:1037A000DEBF0FBECDBF4F83588769877A878B876F
:1037B0009C87CE0107960E941D1A882369F08A858E
:1037C0009B85892B39F04F815885842F85238F3F26
:1037D00009F071C016E05FC086E0FE013796DE0199
:1037E000119601900D928A95E1F78A859B85892B28
:1037F00089F38F81988589238F3F61F320913E0261
:1038000030E0C90101968770992740913D02481721
:10381000190671F40E94521910923E0210923D0254
:1038200086E0EFE6F2E0DF011D928A95E9F7D2CF5C
:1038300096E0929FD001939FB00D1124A15CBD4FE3
:10384000FE01319601900D929A95E1F780933E0228
:103850000E949819BFCF819FC0011124815C9D4FA8
:103860000E941D1A8823E9F0E0913D021E9FF0019D
:103870001124E15CFD4F408151816281738184811B
:1038800095810E94881980913D0290E00196877091
:10389000992780933D0280913D0290913E028913C9
:1038A000DACF2C960FB6F894DEBF0FBECDBFDF91F6
:1038B000CF911F91089569857A858B859C850E949B
:1038C000881988CFEF92FF920F931F93CF93DF93C6
:1038D0008C01892B81F0F12CEE24E394E8012196F0
:1038E000F8018491843770F4843008F05FC081302F
:1038F000B1F08230A1F1DF91CF911F910F91FF9034
:10390000EF900895853709F44CC008F43DC09CE75A
:10391000980F903780F78F770E94931649C00E5FFB
:103920001F4FFE01849190E2980F983060F48770E9
:10393000FE2D01C0FF0F8A95EAF78F2F0E94FB1E14
:103940000E94241F02C00E944D168F2D815030F21C
:10395000EFE9FFE03197F1F700C00000F7CF0E5F0D
:103960001F4FFE01849190E2980F983050F48770B9
:10397000FE2D01C0FF0F8A95EAF78F2F0E94011FCD
:10398000DFCF0E949316E1CF0E5F1F4FFE01C4915F
:10399000C150D8F28FE99FE00197F1F700C0000015
:1039A000F7CF0E5F1F4FFE01F490CFCF0E944D1650
:1039B0008E01CBCF08950C94DA1C0E94DB1C60931F
:1039C0007E0270937F0280938002909381020C9418
:1039D000401908950C94DD1C0F931F9300917E02F3
:1039E00010917F022091800230918102602B712B17
:1039F000822B932B1F910F910C94DD1C0F931F931F
:103A000000917E0210917F0220918002309181020C
:103A100060237123822393231F910F910C94DD1C4B
:103A20000F931F9300917E0210917F0220918002DC
:103A30003091810260277127822793271F910F9170
:103A40000C94DD1C0C94A5030E94221D60937A0245
:103A500070937B0280937C0290937D020C944019BA
:103A600060E070E0CB010C94241D0F931F9341E0A4
:103A700050E060E070E08A019B0104C0000F111F5C
:103A8000221F331F8A95D2F7C901B8011F910F91E8
:103A90000C94241D0F931F9341E050E060E070E010
:103AA00004C0440F551F661F771F8A95D2F7809177
:103AB0007A0290917B02A0917C02B0917D028A01F2
:103AC0009B01082B192B2A2B3B2BC901B8011F91F5
:103AD0000F910C94241D0F931F9341E050E060E080
:103AE00070E004C0440F551F661F771F8A95D2F7F8
:103AF000CB01BA01609570958095909500917A02FE
:103B000010917B0220917C0230917D026023712311
:103B1000822393231F910F910C94241D0F931F93C5
:103B200041E050E060E070E004C0440F551F661FA4
:103B3000771F8A95D2F780917A0290917B02A091AB
:103B40007C02B0917D028A019B01082719272A2750
:103B50003B27C901B8011F910F910C94241D0F93AD
:103B60001F9300917A0210917B0220917C02309188
:103B70007D02602B712B822B932B1F910F910C9444
:103B8000241D0F931F9300917A0210917B022091C4
:103B90007C0230917D0260237123822393231F9145
:103BA0000F910C94241D0F931F9300917A02109192
:103BB0007B0220917C0230917D0260277127822751
:103BC00093271F910F910C94241D0895E92FEE0F58
:103BD000EE0F9E0F890F982F977041E001C0440FA0
:103BE0009A95EAF786958695869595E0899FF001E6
:103BF0001124EB58FD4F30E020E070E05191DF01DF
:103C00001197CB01022E02C0969587950A94E2F790
:103C1000817081958527842385278C932F5F3F4F63
:103C20002530310559F70895E92FEE0FEE0F9E0F5D
:103C3000890F982F977086958695869525E0829FA7
:103C4000F0011124EB58FD4F50E040E080E021915D
:103C500030E0092E02C0369527950A94E2F72170CC
:103C60003327042E01C0220F0A94EAF7822B4F5FFC
:103C70005F4F4530510559F70895BF92CF92DF92BB
:103C8000EF92FF920F931F93CF93DF938C01C0901D
:103C90007A02D0907B02E0907C02F0907D028091CD
:103CA0007E0290917F02A0918002B0918102C82A89
:103CB000D92AEA2AFB2ACFE1D0E0BC2ED701C601DF
:103CC0000C2E04C0B695A795979587950A94D2F7C0
:103CD00080FD0EC0219788F7B12C8B2DDF91CF91FD
:103CE0001F910F91FF90EF90DF90CF90BF900895BC
:103CF000B8018C2F0E94EC05019761F3EECFCF93B2
:103D0000DF93EC010E943D1EBE01DF91CF910C9428
:103D1000EC051F93CF93DF93EB0190913C02992325
:103D200031F0CB01DF91CF911F910C947F1E88233E
:103D300079F0CB010E943D1E182F682FCE010E9402
:103D4000E61DBE01812FDF91CF911F910C94EC05F0
:103D5000CB010E94141E182FF4CF682F80913201DE
:103D6000909133010C94C820682F8091320190917A
:103D700033010C94D32080913201909133010C9443
:103D8000DE208091820285958595859508958091A4
:103D900082028770089590918202977081E009F401
:103DA00080E008958091A60208959091A602892B43
:103DB0008093A602089580959091A60298239093EF
:103DC000A60208958093A60208951092A60208956F
:103DD0008091A50208959091A502892B8093A50258
:103DE000089580959091A50298239093A502089537
:103DF0001092A50208959091A402892B8093A402A9
:103E0000089580959091A40298239093A402089518
:103E10001092A402089580918302089508950C944D
:103E20000E1F90918302981721F0809383020C94C7
:103E30000F1F089580918302882329F01092830236
:103E400080E00C940F1F0895E0913201F09133014E
:103E50008091A6028083E0913201F091330180814C
:103E60009091A502892B8083E0913201F09133017A
:103E700080819091A402892B808390918302992361
:103E800081F0E0913201F09133018081892B8083B0
:103E900080913201909133010E94342081110E945F
:103EA0001A1F80913201909133010C94F6140895F9
:103EB0000C94571F98E0899F90011124622B609306
:103EC00082020E944A1D8091820285958595859582
:103ED0000C94581F1092820280E00C94581F90910D
:103EE00082028095892380938202282F277071F4A3
:103EF000282F082E000C330B9217130639F08595E6
:103F0000859585950E946B1D0C946A1F089580E02D
:103F1000089590E080E00E942D2A21E08B3E9E4F84
:103F200009F020E0822F089582E090E00C941F2A8F
:103F300083E090E00C941F2ACF9384E090E00E94ED
:103F40001F2AC82F81E290E00E941F2A982F8C2FF1
:103F5000CF910895CF93C92F682F84E090E00E94FD
:103F6000332A6C2F81E290E0CF910C94332AAB017D
:103F7000BC018FE090E00C94452AAB01BC0183E1C9
:103F800090E00C94452A60E070E0CB010C94BD1FDA
:103F900060E070E0CB010E94B71F0C94C31F6BEE72
:103FA0007EEF90E080E00E94512A60E082E090E0A5
:103FB0000E94332A60E083E090E00E94332A10924E
:103FC0007E0210927F02109280021092810260E0C5
:103FD00084E090E00E94332A60E081E290E00E9459
:103FE000332A60E085E090E00E94332A60E086E0BA
:103FF00090E00E94332A6FEF87E090E00E94332A1E
:1040000040E050E0BA0188E090E00E94452A60E07C
:104010008DE090E00E94332A40E050E0BA0188E150
:1040200090E00E94452A60E087E190E00E94332AF8
:1040300040E050E0BA018CE190E00E94452A60E047
:1040400080E290E00E94332A40E050E0BA0188E12B
:1040500090E00E94452A0C94C81F0C94CF1F682F33
:104060008EE090E00C94332AFC01329680913E0160
:10407000882321F08091EB029EE187FF96E080E0AB
:10408000915008F4089521912223D1F38F5FF8CF46
:10409000662301F120913E012223F1F02091EB02F1
:1040A00027FF1AC0462F4695469546954E3190F407
:1040B000677021E030E002C0220F331F6A95E2F7FB
:1040C000840F911DFC01828190E02823392381E037
:1040D000232B69F480E00895FC0132960896219123
:1040E000261721F0E817F907D1F7F4CF81E00895FA
:1040F0009C01FC0132969FEF80E04191461751F000
:104100009F3F19F4411101C0982F8F5F8630A9F7A6
:104110009F3F09F40895290F311D97FD3A95F90144
:1041200062830895FC01329608962191261303C0FC
:10413000DF0111971C92E817F907B9F70895E62FE8
:10414000E695E695E695EE3168F4E80FF92FF11D56
:10415000677021E030E001C0220F6A95EAF78281A2
:10416000822B82830895E62FE695E695E695EE315B
:1041700070F4E80FF92FF11D677021E030E001C005
:10418000220F6A95EAF720958281282322830895D9
:1041900020913E01222329F02091EB0227FD0C946F
:1041A0009F200C94782020913E01222329F0209119
:1041B000EB0227FD0C94B3200C949220FC01329664
:1041C00080913E01882351F08091EB0287FF06C069
:1041D0008EE1DF011D928A95E9F7089586E0F9CF17
:1041E000089508950C94F1208091F102843059F1E2
:1041F0000E94F22080E00E94C2050E94370E1092B9
:10420000A80288E190E020E40FB6F894A895809386
:1042100060000FBE2093600083B7817F846083BFFE
:1042200083B7816083BF7894889583B78E7F83BF7F
:104230000FB6F894A8958091600088618093600023
:10424000109260000FBE089508950E94F0200E9411
:1042500005080E94242180E00E94D80791E0811186
:1042600001C090E0892F089508950C9434210E9494
:1042700052190E94DD140E94C2050E94030F0C9483
:1042800035211F921FB61F9211248F939F93AF93D6
:10429000BF938091A802811113C08091E702909191
:1042A000E802A091E902B091EA024196A11DB11D78
:1042B0008093E7029093E802A093E902B093EA02A8
:1042C000BF91AF919F918F911F901FBE1F90189526
:1042D00082E084BD93E095BD9AEF97BD80936E0018
:1042E00008952FB7F8948091E7029091E802A09189
:1042F000E902B091EA022FBF08952FB7F8946091B8
:10430000E7027091E8028091E9029091EA022FBFE2
:1043100008959C014FB7F8948091E7029091E802CC
:10432000A091E902B091EA024FBF821B930B08955E
:1043300078941F921FB61F9211248F939F93AF936F
:10434000BF938091E7029091E802A091E902B091B9
:10435000EA020196A11DB11D8093E7029093E80245
:10436000A093E902B093EA02BF91AF919F918F9120
:104370001F901FBE1F90189587E797E7909301083D
:104380008093000888E19AE00FB6F894A89580938E
:1043900060000FBE90936000FFCF9093F101809377
:1043A000F00108950E94891F811102C00E942D20F2
:1043B0000E94941F8093A7020E949C1F9093EC027E
:1043C0008093EB020E94981F682F70E090E080E0DD
:1043D0000E94EA1C60917A0270917B0280917C02BB
:1043E00090917D020C94221D8091C9020895089538
:1043F000CF93DF9300D00F92CDB7DEB79091F1024B
:10440000943011F589837B836A839093E9008FEF61
:104410009091E800815095FD06C095ED9A95F1F7D1
:1044200000008111F5CF8091E80085FF0DC050E0BC
:1044300040E063E070E0CE0101960E943B24809151
:10444000E8008E778093E8000F900F900F90DF9137
:10445000CF910895BC0184E00C94F821BC0183E065
:104460000C94F821CF93DF93EC0180913E018823D7
:10447000B1F18091EB0287FF32C060E284E080936B
:10448000E9008FEF9091E800815095FD06C095ED11
:104490009A95F1F700008111F5CF8091E80085FF32
:1044A0001BC080913E0170E050E040E0811104C0EB
:1044B00050E040E068E070E0CE010E943B24809133
:1044C000E8008E778093E80080E2FE01A9EAB2E07E
:1044D00001900D928A95E1F7DF91CF91089568E000
:1044E00081E0CDCF8091F002811109C00E941A268F
:1044F0000E9477268091E20084608093E200089514
:104500001092F002089508950895089542E061EC34
:1045100081E00E94962542E261EC84E00E949625AB
:1045200042E261EC82E00E94962542E260EC83E088
:104530000C9496258091F302833009F461C030F425
:104540008130D1F1823009F49DC008958A3009F498
:1045500089C08B3009F46FC0893009F050C0809158
:10456000F202813209F04BC08091F6029091F7027D
:10457000009719F0029709F042C08091E800877F08
:104580008093E8008091E80082FF35C09091F300AD
:104590008091F200029729F48091F1008B7F8130A5
:1045A00021F48091F1008093C9028091E8008B771B
:1045B0008093E8000C94CA258091F202813AF9F4C4
:1045C0008091E800877F8093E8008091F6029091C7
:1045D000F702892B61F460E289EA92E070E00E94C0
:1045E000D9248091E8008B778093E800089560E0FB
:1045F00090E080E0F3CF8091F1028111C3CF089564
:104600008091F202813AD9F78091F6029091F702F7
:10461000892BA9F78091E800877F8093E80080913B
:10462000E80080FFFCCF80913E018093F1008091F3
:10463000E8008E77BDCF8091F202813201F7809140
:10464000F6029091F702892BD1F68091E800877FDE
:104650008093E8000E94CA258091F40280933E0175
:104660000C9452198091F202813249F68091E8004F
:10467000877F8093E8000E94CA258091F50280938D
:10468000CA0208958091F202813A09F0B8CF809170
:10469000E800877F8093E8008091E80080FFFCCFEE
:1046A0008091CA02C2CFCDB7DEB7A0970FB6F894FB
:1046B000DEBF0FBECDBF84B7877F84BF0FB6F8942F
:1046C000A8958091600088618093600010926000DE
:1046D0000FBE80E890E00FB6F8948093610090934D
:1046E00061000FBE0E9470150E941A260E94772654
:1046F0008091E20084608093E20078940E94002917
:104700000E94801584E391E00E94D81413E0809108
:10471000F1028530C9F00E948C158091F10284303D
:10472000D1F00E947E150E947F15F1CF0E94F420E7
:104730008091EF02882341F00E942521882321F0F7
:104740000E9425240E9452198091F102853071F354
:104750000E943721E0CF1093E9008091E80082FFAA
:10476000E0CF8091E80090E085FF09C050E040E094
:1047700060E270E0CE0101960E948A2491E080916F
:10478000E8008B778093E800992359F260E2CE012C
:1047900001960E948003C5CF0C94CE23292F332786
:1047A0002330310521F168F42130310509F443C08B
:1047B0002230310509F444C090E080E030E020E090
:1047C00026C02132310551F122323105A9F763307B
:1047D000710590F7FB01EE0FFF1FEC51FE4F20819A
:1047E00031816F517E4FFB01808190E010C099278D
:1047F0008130910581F0009729F00297E9F6E4E90C
:10480000F3E002C0EAECF3E0849190E09F01FA014A
:10481000318320830895EAEAF3E0F6CF633071052F
:1048200058F6660F771FFB01E651FE4F208131815C
:1048300089E090E0ECCF82E190E029E234E0E7CF3C
:104840008BE590E02EEC33E0E2CF80E189BD82E1A0
:1048500089BD09B400FEFDCF8091D8008F7D809383
:10486000D8008091E00082608093E0008091E000B9
:1048700081FDFCCF0895AF92BF92CF92DF92FF925D
:104880000F931F93CF93DF936C01EB018A010E947A
:10489000E925F82E811123C00115110539F0F80121
:1048A00080819181C81BD90BC80ED91EB12CA12CB7
:1048B0002097A9F08091E80085FD22C08091E80052
:1048C0008E778093E80001151105A1F0F801808131
:1048D0009181A80EB91EB182A08285E0F82E8F2D9D
:1048E000DF91CF911F910F91FF90DF90CF90BF90FC
:1048F000AF9008950E94E9258823D1F2F82EEFCFDA
:10490000F60181916F018093F1002197FFEFAF1ABB
:10491000BF0ACECFAF92BF92CF92DF92FF920F939A
:104920001F93CF93DF936C01EB018A010E94E9256D
:10493000F82E811123C00115110539F0F80180818D
:104940009181C81BD90BC80ED91EB12CA12C209760
:10495000A9F08091E80085FD22C08091E8008B7766
:104960008093E80001151105A1F0F8018081918183
:10497000A80EB91EB182A08285E0F82E8F2DDF919E
:10498000CF911F910F91FF90DF90CF90BF90AF908C
:1049900008950E94E9258823D1F2F82EEFCF809167
:1049A000F100F60181936F012197FFEFAF1ABF0A63
:1049B000CECFFC018091F8029091F90286179707FB
:1049C000A0F06115710529F49091E8009E7790930D
:1049D000E80090E06115710551F4911108C08091D3
:1049E000E80082FF34C080E00895BC01F2CF8091DE
:1049F000F1028823C1F18530C1F18091E80083FD87
:104A000030C08091E80082FDEACF8091E80080FF0D
:104A1000E1CF8091F3002091F200382F61157105EC
:104A200019F02830310558F091E02830310509F0AF
:104A300090E02091E8002E772093E800CBCF819181
:104A40008093F100615071092F5F3F4FE7CF809154
:104A5000F102882341F0853041F08091E80083FF26
:104A6000BECF81E0089582E0089583E00895FC01BF
:104A70008091F8029091F90286179707A0F06115CE
:104A8000710529F48091E8008E778093E80090E02A
:104A90006115710551F4911108C08091E80082FF01
:104AA00035C080E00895BC01F2CF8091F1028823E7
:104AB000C9F18530C9F18091E80083FD31C0809152
:104AC000E80082FDEACF8091E80080FFE1CF80918D
:104AD000F3002091F200382F6115710519F028308C
:104AE000310558F091E02830310509F090E08091CF
:104AF000E8008E778093E800CBCF84918093F1001B
:104B00003196615071092F5F3F4FE6CF8091F102DE
:104B1000882341F0853041F08091E80083FFBDCFCC
:104B200081E0089582E0089583E00895982F9730FA
:104B300028F08F708093E90081E008959093E90058
:104B4000242F762F50E0981731F07091EC002091CF
:104B5000ED005091F00021FD02C09F5FE8CF309141
:104B6000EB003E7F3093EB003091ED003D7F3093C2
:104B7000ED003091EB0031603093EB007093EC006E
:104B80002093ED005093F0002091EE0027FDE5CF3B
:104B900080E008958091F20287FF13C08091E800C1
:104BA00082FF06C08091E8008B778093E80004C004
:104BB0008091F1028111F2CF08958091F102882352
:104BC000D9F38091E80080FFF8CF8091E8008E77DC
:104BD000ECCF2091E4003091E50095E6A901209109
:104BE000EC00822F817020FF06C08091E80080FFDA
:104BF00006C080E008952091E80022FD1AC080914F
:104C0000F102882389F0853089F08091EB0085FDE1
:104C10000FC02091E4003091E50042175307F9F2EC
:104C20009150E1F684E0089582E0089583E00895CC
:104C300081E008950E9488260E949026E0EEF0E030
:104C4000808181608083E8EDF0E080818F778083D0
:104C500019BCA7EDB0E08C918E7F8C9380818F7E04
:104C600080831092F00208950F931F93CF93DF93E8
:104C70000E9488260E949026C8EDD0E088818F7718
:104C8000888388818068888388818F7D888319BC28
:104C90001092F1021092ED021092EF021092EE02C9
:104CA00000EE10E0F80180818B7F80838881816035
:104CB000888342E060E080E00E949625E1EEF0E02B
:104CC00080818E7F8083E2EEF0E08081816080834E
:104CD000808188608083F80180818E7F80838881D5
:104CE00080618883DF91CF911F910F910895E8ED46
:104CF000F0E080818F7E8083E7EDF0E0808181604D
:104D0000808384E082BF81E08093F0020C9434269B
:104D1000E8EDF0E080818E7F80831092E2000895BC
:104D20001092DA001092E10008951F920F920FB6D0
:104D30000F9211242F933F934F935F936F937F9321
:104D40008F939F93AF93BF93EF93FF938091E10075
:104D500082FF0BC08091E20082FF07C08091E100DA
:104D60008B7F8093E1000E94FF288091DA0080FF12
:104D700019C08091D80080FF15C08091DA008E7F25
:104D80008093DA008091D90080FF96C080E189BDD0
:104D900082E189BD09B400FEFDCF81E08093F1027C
:104DA0000E9472228091E10080FF19C08091E20090
:104DB00080FF15C08091E2008E7F8093E200809199
:104DC000E20080618093E2008091D800806280934D
:104DD000D80019BC85E08093F1020E948422809162
:104DE000E10084FF2BC08091E20084FF27C080E1B6
:104DF00089BD82E189BD89B5982F917080FFFBCF75
:104E00008091D8008F7D8093D8008091E1008F7EC3
:104E10008093E1008091E2008F7E8093E200809198
:104E2000E20081608093E2008091ED02882309F422
:104E300049C084E08093F1020E9485228091E100C4
:104E400083FF29C08091E20083FF25C08091E100AB
:104E5000877F8093E10082E08093F1021092ED025F
:104E60008091E1008E7F8093E1008091E2008E7F4F
:104E70008093E2008091E20080618093E20042E052
:104E800060E080E00E9496258091F0008860809329
:104E9000F0000E948322FF91EF91BF91AF919F910B
:104EA0008F917F916F915F914F913F912F910F90D3
:104EB0000FBE0F901F90189519BC1092F1020E941E
:104EC000802270CF8091E30087FD93E09093F10200
:104ED000B3CF1F920F920FB60F9211242F933F93CF
:104EE0004F935F936F937F938F939F93AF93BF93F2
:104EF000CF93DF93EF93FF93D091E900DF70809120
:104F0000EC00C82FC17080FDC0E81092E9008091CC
:104F1000F000877F8093F00078940E94AD27109274
:104F2000E9008091F00088608093F000CD2BCF7075
:104F3000C093E900FF91EF91DF91CF91BF91AF91C5
:104F40009F918F917F916F915F914F913F912F91A1
:104F50000F900FBE0F901F9018951F93CF93DF9364
:104F6000CDB7DEB7AA970FB6F894DEBF0FBECDBFA0
:104F700082EF92E02091F100FC012193CF01F2E059
:104F80008A3F9F07B9F70E949A228091E80083FF29
:104F90001EC18091F2029091F3029A3008F017C17D
:104FA000E92FF0E0E654F54D0C947F29803899F014
:104FB000823809F00CC18091F6028F70873008F0BA
:104FC00006C18093E9008091EB0085FB882780F97A
:104FD0001092E90006C08091EE029091EF029111CB
:104FE00082609091E800977F9093E8008093F100B1
:104FF0001092F1008091E8008E77E5C0882309F4D3
:10500000D3C0823009F0E3C08091F4028111D6C090
:105010008091F6028F702FEF280F263008F0D7C04E
:105020008093E9002091EB0020FFC8C0933031F459
:105030008091EB0080628093EB00C0C09091EB0008
:1050400090619093EB0021E030E001C0220F8A953F
:10505000EAF72093EA001092EA008091EB00886062
:10506000EACF8111B4C01091F4021F778091E30060
:105070008078812B8093E3008091E800877F809384
:10508000E8000E94CA258091E80080FFFCCF809153
:10509000E30080688093E30082E0111183E0809355
:1050A000F10295C08058823008F091C08091F402DE
:1050B0009091F5028C3D23E09207A1F583E08A836D
:1050C0008AE289834FB7F894DE01139620E03EE030
:1050D00051E2E32FF0E050935700E49120FF03C02A
:1050E000E295EF703F5FEF708E2F90E0EA30C0F0F6
:1050F000C7968D939D932F5F243159F74FBF8091B1
:10510000E800877F8093E8006AE270E0CE010196B4
:105110000E94D9248091E8008B778093E80057C0E3
:10512000C096E7CF6091F6027091F702AE014F5F33
:105130005F4F0E94CC23BC01892B09F448C0909199
:10514000E800977F9093E80089819A810E94372533
:10515000E1CF8038E1F58091E800877F8093E80017
:105160008091ED028093F10045CF811130C0909184
:10517000F402923060F58091E800877F8093E80028
:105180009093ED020E94CA258091ED02882311F0D0
:1051900084E005C08091E30087FDFACF81E0809331
:1051A000F1020E94862213C08091F402813079F4CA
:1051B00081E0933009F080E08093EF021092E900E3
:1051C0008091E800877F8093E8000E94CA25809143
:1051D000E80083FF0AC08091E800877F8093E800A1
:1051E0008091EB0080628093EB00AA960FB6F89452
:1051F000DEBF0FBECDBFDF91CF911F9108950895FF
:10520000CF938091F1028823A1F0C091E900CF7083
:105210009091EC00892F817090FD80E8C82B10924E
:10522000E9008091E80083FD0E94AD27CF70C09314
:10523000E900CF910895991B79E004C0991F961752
:1052400008F0961B881F7A95C9F78095089587FB0B
:10525000082E062687FD819567FD61950E941B2912
:105260000EF4919507FC81950895AA1BBB1B51E193
:1052700007C0AA1FBB1FA617B70710F0A61BB70BC6
:10528000881F991F5A95A9F780959095BC01CD016B
:10529000089597FB072E16F4009407D077FD09D0E8
:1052A0000E94352907FC05D03EF4909581959F4FCB
:1052B0000895709561957F4F0895A1E21A2EAA1B5B
:1052C000BB1BFD010DC0AA1FBB1FEE1FFF1FA217B6
:1052D000B307E407F50720F0A21BB30BE40BF50BB3
:1052E000661F771F881F991F1A9469F7609570953C
:1052F000809590959B01AC01BD01CF010895EE0F03
:10530000FF1F0590F491E02D09940E948D2933230D
:1053100012F48A1B9B0B0C949E29A29FB001B39F91
:10532000C001A39F700D811D1124911DB29F700DAE
:10533000811D1124911D08950E948D29B7FF0895A4
:10534000821B930B08950E948D29A59F900DB49FF9
:10535000900DA49F800D911D11240895B7FF0C940A
:10536000A3290E94A329821B930B08958F929F92D9
:10537000AF92BF92CF92DF92EF92FF92CF93DF93E3
:10538000EC01688179818A819B81611571058105B4
:10539000910521F464E279ED8BE597E02DE133EF9F
:1053A00041E050E00E94672A49015A019B01AC018B
:1053B000A7EAB1E40E94A3296B017C01ACEEB4EF33
:1053C000A50194010E94B129DC01CB018C0D9D1D2A
:1053D000AE1DBF1DB7FF03C00197A109B048888368
:1053E0009983AA83BB839F77DF91CF91FF90EF9042
:1053F000DF90CF90BF90AF909F908F9008950E94C4
:10540000B629089580E091E00E94B6290895B0E0A1
:10541000A0E08093000190930101A0930201B0935A
:1054200003010895FC014150504030F001900616F0
:10543000D1F73197CF010895882799270895F999D1
:10544000FECF92BD81BDF89A992780B50895A6E157
:10545000B0E044E050E00C94592AA8E1B0E042E00A
:1054600050E00C94592A262FF999FECF92BD81BDA8
:10547000F89A019700B4021639F01FBA20BD0FB692
:10548000F894FA9AF99A0FBE08950396272F0E946E
:10549000342A0E94332A252F0E94342A242F0C9468
:1054A000342A0196272F0E94342A0C94332ADC01D7
:1054B000CB01FC01F999FECF06C0F2BDE1BDF89A1F
:1054C000319600B40D9241505040B8F70895052E22
:1054D00097FB1EF400940E947E2A57FD07D00E947D
:1054E0005D2907FC03D04EF40C947E2A509540951C
:1054F000309521953F4F4F4F5F4F08959095809580
:10550000709561957F4F8F4F9F4F0895F894FFCF0F
:10551000E00FE80FEF0FF40FF90FFE0F0310081064
:105520000D10121017101C102010251028102B1011
:105530002E103110331036101C171C1774177417E7
:10554000C617491749174917E2176E187D187D18B5
:10555000D91849174917E218611961196A196A19A6
:105560006C196A196A196A196119611971196A192C
:105570006A197119D627FE27E728FE27E728312860
:085580005228E728A928B528EC
:105588000100000002000000C40300000000000049
:1055980000000000000000000000000006000101FB
:1055A80002000500050501191A1B1C1D1E1F2021DC
:1055B80022FF8402F4213222F7212E222A2201E23C
:1055C80000E900EA00B500B600B700CD008301CCC1
:1055D800008A019201940121022302240225022655
:1055E8000227022A02B300B4006F00700081828390
:1055F800379496F6F7000102020202060606090928
:10560800090909090F0F0F0F0F0F1515151819198B
:105618001919191919191919232425252525252595
:1056280000FF0100010000FFFF0000010001FF0072
:10563800E200E900EA00B500B600B700CD0083013A
:10564800CC008A019201940121022302240225023E
:10565800260227022A02B300B4006F00700081827C
:105668008340226DCA043B045D04E003F903190476
:00000001FF
