:100000000C946C020C94B3020C94B3020C94B302E3
:100010000C94B3020C94B3020C94B3020C94B3028C
:100020000C94B3020C94B3020C9424240C94F82482
:100030000C94571F0C94B3020C94B3020C94B302AB
:100040000C94B3020C94B3020C94B3020C94B3025C
:100050000C94B3020C94AE1F0C94B3020C94B30234
:100060000C94B3020C94B3020C94B3020C94B3023C
:100070000C94B3020C94B3020C94B3020C94B3022C
:100080000C94B3020C94B3020C94B3020C94B3021C
:100090000C94B3020C94B3020C94B3020C94B3020C
:1000A0000C94B3020C94B3020C94B30201016B00E4
:1000B00001016A0001016900010168001150690035
:1000C0006A006B006C0012506E006F0070007100CF
:1000D0001050295D2A5D2B5D2C5D000000000000A2
:1000E00000002A2B28000000000000000000000093
:1000F000000000000029000000002C1E34202122F6
:1001000024342627252E362D3738271E1F2021225E
:10011000232425263333362E37381F0405060708D7
:10012000090A0B0C0D0E0F101112131415161718C7
:10013000191A1B1C1D2F3130232D35040506070805
:10014000090A0B0C0D0E0F101112131415161718A7
:10015000191A1B1C1D2F3130354C00000000000007
:10016000000000000000000000000000000000008F
:1001700000000000000000000000000000007E0FF2
:1001800000D4FFFFFFC7000000781E0F0500047FAA
:100190003F1F643214643214783C1E1E140A052278
:1001A00023252628292A2C2D2F3032333536383A6C
:1001B0003B3D3E4042434547494A4C4E50515355C2
:1001C00057595A5C5E6062646668696B6D6F7173E3
:1001D0007577797B7D7F81838587898A8C8E9092E4
:1001E0009496989A9C9E9FA1A3A5A7A8AAACAEAFEF
:1001F000B1B3B4B6B8B9BBBCBEBFC1C2C3C5C6C734
:10020000C9CACBCCCDCED0D1D2D2D3D4D5D6D7D7E4
:10021000D8D9D9DADADBDBDBDCDCDCDCDCDDDDDD2C
:10022000DDDCDCDCDCDCDBDBDBDADAD9D9D8D7D728
:10023000D6D5D4D3D2D2D1D0CECDCCCBCAC9C7C6D5
:10024000C5C3C2C1BFBEBCBBB9B8B6B4B3B1AFAE13
:10025000ACAAA8A7A5A3A19F9E9C9A9896949290B9
:100260008E8C8A89878583817F7D7B797775737191
:100270006F6D6B6968666462605E5C5A595755536E
:1002800051504E4C4A4947454342403E3D3B3A3827
:1002900036353332302F2D2C2A292826252322FFCC
:1002A000AA7F554000010101010101010101020283
:1002B0000202020202020203030303030303030414
:1002C00004040404040405050505050606060606DF
:1002D000070707070708080808090909090A0A0A99
:1002E0000B0B0B0C0C0C0D0D0D0E0E0E0F0F0F103B
:1002F00010111111121213131414151516161717C5
:10030000181819191A1A1B1B1C1D1D1E1E1F202030
:10031000212222232424252626272829292A2B2C7A
:100320002D2D2E2F30313232333435363738393A9D
:100330003B3C3D3E3F404142434445464748494A95
:100340004C4D4E4F50515354555658595A5B5D5E63
:100350005F616264656668696B6C6D6F70727375FE
:1003600077787A7B7D7E8082838587888A8C8E8F62
:1003700091939596989A9C9EA0A2A3A5A7A9ABAD90
:10038000AFB1B3B5B7BABCBEC0C2C4C6C9CBCDCF7E
:10039000D1D4D6D8DBDDDFE2E4E7E9EBEEF0F3F52C
:1003A000F8FAFDFF14036200690067004B004E007D
:1003B0004F0042007600320000001E036C00650012
:1003C00061006600630075007400740065007200CF
:1003D0006C0061006200730000000403090409025C
:1003E0003B00020100A0FA09040000010301010022
:1003F0000921110100012240000705810308000ABC
:10040000090401000103000000092111010001227B
:100410006D000705820320000A1201100100000090
:1004200008EBCE070001000102000105010980A1CF
:1004300001850319012AB700150126B7009501753A
:10044000108100C0050C0901A101850419012AA031
:1004500002150126A002950175108100C005010951
:1004600006A1018505050719E029E7150025019575
:1004700008750181020507190029EF15002501956E
:10048000F07501810205081901290595057501918D
:1004900002950175039101C005010906A101050737
:1004A00019E029E7150025019508750181029501DC
:1004B000750881010507190029FF150026FF009521
:1004C0000675088100050819012905950575019132
:1004D00002950175039101C011241FBECFEFDAE030
:1004E000DEBFCDBF04B603FE27C08091C902909144
:1004F000CA02A091CB02B091CC028730904BA740AA
:10050000B04BD1F41092C9021092CA021092CB02E1
:100510001092CC0214BE84B7877F84BF0FB6F894C4
:10052000A8958091600088618093600010926000BF
:100530000FBEE0E0F8E3099511E0A0E0B1E0E6EAE3
:10054000F0E502C005900D92A63CB107D9F722E074
:10055000A6ECB1E001C01D92A93CB207E1F70E94F0
:100560005E210C9415280C940000FB018A322DE5C5
:10057000920721F128F489329D4591F081E0089598
:100580008B322DE5920719F18C329D45B9F78281A6
:100590008823A1F380EE0E9469148CEA90E008C0E1
:1005A0008281882359F380EE0E94691488EB90E0E1
:1005B0000E94060580EE0E94AF14E0CF828188235E
:1005C000E9F280EE0E94691484EB90E0F1CF828121
:1005D0008823A1F280EE0E94691480EB90E0E8CFBE
:1005E000811106C089EA611101C08AEA0C94EE14F7
:1005F0000895CF92DF92EF92FF926B017C010E94EF
:100600001305813031F0823081F04FEF6FEF80E0E1
:1006100003C04FEF6FEF85E50E94D30AC701B60113
:10062000FF90EF90DF90CF9008954FEF6FEF8AEA41
:10063000F3CFCF93DF939C013A9521153F4168F5A5
:10064000EC01CC27D170DC01AA27B270AC014427A1
:1006500054709C012227387094FF11C080E1CD2B8B
:1006600009F480E0AB2B09F08062452B09F080642F
:10067000232B09F08068FB01DF91CF91099481E081
:10068000CD2B09F480E0AB2B09F08260452B09F0FB
:100690008460232B81F38860EECFDF91CF910895A2
:1006A000CF93DF93EC01805E9109089720F06EE410
:1006B00077E1209711F466EF74E1CE010E941903EF
:1006C0008C2FDF91CF910C946914CF93DF93EC01C1
:1006D0000E94AF14CE01805E9109089720F065E575
:1006E00077E1209711F46DEF74E1CE01DF91CF91A6
:1006F0000C941903CF93DF93EC010E945003CE01B9
:10070000DF91CF910C94650381E008950C94B502BC
:1007100008950C9488031F93CF93DF9300D000D0EB
:100720000F92CDB7DEB749835A836B8330910B02AA
:1007300089819A8131111DC06623B9F02223A9F065
:100740000E945A1C182F682F89819A810E94031CCD
:1007500069817A81812F0F900F900F900F900F90E9
:10076000DF91CF911F910C9473050E94311C182FBB
:10077000EFCF0E945A1C69817A81EDCFFC01262FB0
:10078000408151816281738184810C948B03CF936A
:10079000DF93EC0160E00E94BE03BE01DF91CF91C8
:1007A0000C9489030E94A31D811102C00E94471E60
:1007B0000E9440100C9478070C947B0708950E94C7
:1007C0006E170E94DE032FEF84E39CE021508040EF
:1007D0009040E1F700C000000C94D21F0F931F93CC
:1007E000CF93DF93EC0161E00E94BE038C01BE0158
:1007F0000E948603882389F1BE01C8010E94CB10A4
:10080000882359F1BE01C8010E945511882329F19E
:10081000BE01C8010E94A7118823F9F0BE01C801DA
:100820000E94CA128823C9F0BE01C8010E94370F76
:10083000882399F08A81882339F001158CE51807FF
:1008400051F00F3D1C4579F0CE01DF91CF911F9102
:100850000F910C9484030E94DF0380E0DF91CF911D
:100860001F910F9108950E94471EF7CFDF92EF92DC
:10087000FF920F931F93CF93DF93E82FF0E0E652A0
:10088000FF4FD490282F26952695269530E0F90124
:10089000E658FE4F0491877010E0082E02C01595AF
:1008A00007950A94E2F701701127F901E659FE4F06
:1008B000E490F12C082E02C0F594E7940A94E2F734
:1008C00091E0E922FF24F901E65AFE4FC491D0E0FD
:1008D00002C0D595C7958A95E2F7C170DD2701154D
:1008E000110519F081EE0E946914E114F10419F068
:1008F00086EE0E9469148D2D0E94EE14EF2819F0E7
:1009000086EE0E94AF14012B19F081EE0E94AF1405
:10091000CD2B51F08CE2DF91CF911F910F91FF9081
:10092000EF90DF900C94EE14DF91CF911F910F9117
:10093000FF90EF90DF900895EF92FF920F931F9337
:10094000CF93DF938C01F62E8AE0E82EF801849194
:10095000882309F454C0813009F04DC0E801219684
:10096000FE018491813091F42196FE0184910E94D0
:10097000EE148E010F5F1F4F8F2D815038F3EFE97A
:10098000FFE03197F1F700C00000F7CF823039F473
:10099000E8012296FE0184910E946914EACF833017
:1009A00039F4E8012296FE0184910E94AF14E1CF50
:1009B0008430F9F6E8012296FE01249190E080E06F
:1009C000FE0131962053330B2A30310548F0019750
:1009D00080F2EFE9FFE03197F1F700C00000F7CFB8
:1009E000E89EA001E99E500D1124C901840F951FB6
:1009F0002491EF01E5CF0E943604E801BACFDF91E0
:100A0000CF911F910F91FF90EF90089560E00C94AB
:100A10009C04982F9F709A50963018F0805D0C942B
:100A20003604895AFCCFCF92DF92EF92FF926C018D
:100A3000EE24FF2420E0C114D104E104F10419F0F4
:100A4000C701B60120E1C72ED82EE92EFF24C1141C
:100A5000D104E104F10419F0285FC701B6016B016C
:100A60007C0154E0F694E794D794C7945A95D1F753
:100A7000C114D104E104F10419F02C5FC701B601DF
:100A80006B017C0142E0F694E794D794C7944A95B1
:100A9000D1F7C114D104E104F10419F02E5FC701AC
:100AA000B6019695879577956795672B682B692B87
:100AB00009F02F5F822FFF90EF90DF90CF90089585
:100AC00008950C94600581E008950C946305CF931C
:100AD000C82F0E9461058C2FCF910C94650590E082
:100AE00080E008950895E62F272F280F3327331F1E
:100AF000C90125E0289FB001299F700D1124E60F40
:100B0000F72FF11DEE0FFF1FE454FF4F85919491D5
:100B10000895FC01EE0FFF1FE657FE4F859194915B
:100B20000895CF93DF930E9473050E949D06EC0108
:100B3000811520E5920708F041C0811530E4930744
:100B400008F0B4C0803E910518F5803C910508F08E
:100B50009DC0883A910570F4853A910508F08EC0E1
:100B600081309105F9F00097E9F00497D8F4D0E0CE
:100B7000C0E018C08F3B9105D0F7C85AD0E0CC0F29
:100B8000DD1FCC5DDE4F0990D881C02DD4640AC032
:100B90008115904258F4C11581E0D80718F4C83E79
:100BA000D10528F7CE01DF91CF910895C11590E3CB
:100BB000D90708F071C0CE019F706AC0811525E584
:100BC000920758F5811534E5930708F09EC081150A
:100BD00042E5940750F4C11581E5D80708F469C0CF
:100BE000DC2FCC27C16FD06ADDCF982F96959695D4
:100BF0009E0123703327C115D34508F077C0C1E0AB
:100C0000D0E002C0CC0FDD1F2A95E2F720E2929FD0
:100C1000C0011124C82BD92B67C0C11589E5D8079D
:100C2000A8F4C11598E5D90708F074C0C11526E5E8
:100C3000D20708F09CCF8C2F0E943407C82FD0E039
:100C4000DC2FCC27CC27DF71D062ACCFC1153AE5C1
:100C5000D30708F464C0CE0190568115904208F085
:100C600086CF8D2F8F710E94340790E0982F8827B0
:100C700088279F719C012C2BE901E6CFC55AD0E053
:100C8000CE5ADE4FC881D0E0D0648CCF805C910911
:100C90000E948905EC0186CFCE019927D3FF03C0BE
:100CA000EC01D86C7FCFEC01D06C7CCFDF70D06AC8
:100CB00079CFCE01E4E096958795EA95E1F78370C8
:100CC0002C2F26952695237090E2299F90011124C0
:100CD000382B8C2F8370C1E0D0E002C0CC0FDD1F19
:100CE0008A95E2F7C22BD32BDC685CCFC1E0D0E061
:100CF00002C0CC0FDD1F2A95E2F730E2939FC001BE
:100D00001124C82BD92BDA684DCFD82FCC27C46F2C
:100D1000D06A48CFDC2FCC27C06FD06A43CF8C2F4E
:100D20008F700E94340734E0D695C7953A95E1F765
:100D3000CF709C2FEC01D06935CF82389105B1F18D
:100D4000B0F48133910509F475C048F489329105F6
:100D500009F469C08A32910509F473C00895853396
:100D6000910509F459C08933910501F10895833E35
:100D70009105A9F138F4803E9105F9F0823E910584
:100D800049F10895863E9105A9F1873E9105C9F183
:100D9000843E910519F52091BB0221FF1FC080916F
:100DA000BA0284FD14C087EE90E008952091BA0243
:100DB0002370A1F080EE90E008952091BA0220FD0A
:100DC00047C03091BB0230FF09C024FF44C090E00F
:100DD00080E004C02091BA0222FDF7CF089520914F
:100DE000BA0222FD3BC03091BB0230FDE3CF24FFAD
:100DF000F5CFEDCF2091BA0223FFF0CF24FDE7CF4E
:100E0000D2CF2091BA0223FD2CC03091BB0231FF1A
:100E1000EECF84EE90E008952091BA0225FFDECF58
:100E200089E290E008952091BA0225FFD7CF85E3AB
:100E300090E008952091BA0226FFD0CF8AE290E098
:100E400008952091BA0226FFC9CF81E390E008956A
:100E500089E390E0089583EE90E0089582EE90E0BB
:100E6000089586EE90E008959091BA0292FF06C030
:100E7000282F28712830F9F4877F846093FF06C0FB
:100E8000282F28712831F1F4877E84612091BB02DC
:100E900020FF06C0382F38713830D9F4877F816041
:100EA00021FF06C0282F28712831D1F4877E816167
:100EB00094FD877E0895282F24712430F9F68B7FC6
:100EC0008860DCCF282F2471243101F78B7E886164
:100ED000DDCF382F3171313019F78E7F8860E0CF48
:100EE000282F2171213121F78E7E8861E1CF08956D
:100EF0000C94770708950C947A07E82FF0E0E556F4
:100F0000FD4F808108950895A5E5B1E041E050E0EE
:100F10008D918F3F91F0E82FE295EF70F0E061A1A5
:100F20008F709A0101C0220F8A95EAF7922F90954F
:100F3000962391A382A1822B82A381E0AA35B807D0
:100F400039F710929A0210929B0281E00E94E60704
:100F50000C94D203CF93A5E5B1E050E040E030E03F
:100F600061E070E02D912F3FA9F0E22FE295EF7044
:100F7000F0E080A190E02F7002C0959587952A95AA
:100F8000E2F780FD21C0CB01042E01C0880F0A9436
:100F9000EAF7382B4F5F5F4F4530510519F78091C5
:100FA0009A02C0E0831719F030939A02C1E02C2F07
:100FB00041E06BE972E08AE992E00E94E7070E9453
:100FC000DC038C2FCF91089580E0E3CF0895FF924A
:100FD0000F931F93CF93DF93F82E092F162FD72F40
:100FE000C42F222349F081E08093CA010E94871F09
:100FF0009093C9018093C8018091CA018823A1F010
:101000008091C8019091C9010E949F1F069760F0CE
:10101000EF2DF02FA12FBD2FCE0FDF2FD11DEC17FD
:10102000FD0741F41092CA01DF91CF911F910F91FA
:10103000FF90089581918D93F2CFEF92FF920F93DD
:101040001F93CF93DF93EB01E82FD11110C04423FE
:1010500021F0F0E0EC55FD4FE4916E2F7E2F8E2FA6
:10106000DF91CF911F910F91FF90EF9008950D2F79
:1010700010E0282F30E0442329F02C553D4FF90192
:10108000249130E0F6E0CF9FC0011124EFEFF0E0B3
:10109000BF010E94C426AB018C2F90E0880F991FDE
:1010A000A5E5A49FB001A59F700D1124861B970B89
:1010B000982F990F980FBF01601B710B629FD00191
:1010C000639FB00D729FB00D11248B2F9D9FB001B7
:1010D0001124672F7727EF01C61BD70BBE01629F34
:1010E000E001639FD00D729FD00D11247F01E91A9A
:1010F000F108E09EB001E19E700DF09E700D11248C
:10110000672F7727E61BF70BE29F8001E39F100D07
:10111000F29F100D1124E12F722F4230510599F0EA
:1011200048F44115510569F04130510581F0EB2F2C
:101130008D2F07C04430510569F080F046305105CD
:10114000B1F76E2F8DCFE22F7B2F812FFACFE22FB9
:101150007D2FF7CFEB2F822F712FF3CF7B2F822F95
:10116000ED2FEFCF41E00C941D0808950C94B208C8
:10117000CF93DF93762FE901682F842F0E94B60862
:10118000798368838A83DF91CF91089580919C024F
:10119000982F9E7F29F48170826080939C0208952D
:1011A0008635E8F381708465F8CF88E090E00C9490
:1011B000B627CF92DF92EF92FF926B017C010E94E3
:1011C000C608B701A60188E090E0FF90EF90DF909D
:1011D000CF900C94D427ECE9F2E083E08083118275
:1011E0008FEF8283838314826081718182819381F6
:1011F0000C94D90880919C0280FF02C086950895C6
:1012000080E008959091A002933018F49F5F90932E
:10121000A002882351F060919C0270919D02809100
:101220009E0290919F020C94D908089581E00C943D
:1012300002099091A002992319F091509093A00275
:10124000882351F060919C0270919D0280919E02D2
:1012500090919F020C94D908089581E00C9419098B
:1012600070E00C94A70F6091080180919C0280FFB0
:101270000AC08091070123E0829FC00111248F558D
:101280009D4F0C9430098091090190910A0123E04F
:10129000829FF0011124EF55FD4F891750F71182FD
:1012A000108212828F5F3396F8CF90919C0290FF4C
:1012B00014C09091090120910A0133E0939FF0013D
:1012C0001124EF55FD4F921710F00C9433098183D0
:1012D000608342839F5F3396F6CF0895CF93DF9369
:1012E00000D00F92CDB7DEB790919C0290FF0AC05C
:1012F0009E012F5F3F4F0E94B8084B8169818A8110
:101300000E9455090F900F900F90DF91CF91089593
:10131000CF93DF93EC01EC81F0E0E156FE4F449176
:10132000ECE9F2E0628181810E946E098C818F5F1D
:101330008C83DF91CF910895CF93DF93EC01ECE99B
:10134000F2E0438162818C810E946E098C818F5F03
:101350008C83DF91CF9108950F931F93CF93DF93E9
:1013600000D00F92CDB7DEB78C018091CB018111F7
:101370000AC09E012F5F3F4F4FEF6FEF0E94B808EA
:101380008A818093CB01F8016481613069F080919A
:10139000CB0140E0662361F040E0623011F44091FF
:1013A000CB0180E060E004C06091CB0140E080E0D0
:1013B0000E945509F801848190E0019663E070E095
:1013C0000E94D82684830F900F900F90DF91CF91C9
:1013D0001F910F910895AF92BF92CF92DF92EF923B
:1013E000FF920F931F93CF93DF9300D00F92CDB74F
:1013F000DEB7182FF62E042FE22E90919C0290FF5C
:1014000029C0E92FE695AE2FB0E0A65ABE4F8C91C9
:101410008093EE019E7F923059F59E012F5F3F4FE2
:10142000812F0E94B8084B8169818A810E945509E9
:1014300010939D02F0929E0200939F02EE2051F0C5
:1014400060919C0270919D0280919E0290919F02FA
:101450000E94D9080F900F900F90DF91CF911F91AC
:101460000F91FF90EF90DF90CF90BF90AF900895D5
:10147000823019F400919F02DBCF863019F410916D
:101480009D02D6CF8930D9F3893191F6E9518E2F5B
:101490008170D82EE695F0E0E156FD4FA590B4900E
:1014A000C12CBB2460910B01C61618F00E943309B1
:1014B000BFCF2C2D30E0A29EC001A39E900DB29E06
:1014C000900D112470E00E94C426812FD11013C00A
:1014D000860F40910901420F532F511D9A01220F8F
:1014E000331F240F351F2F553D4F402F6F2D0E9466
:1014F000B808C394D7CF861BECCFECE9F2E091811A
:10150000282F4381628188E0890F0C94EB0981E0E8
:101510000C947D0AECE9F2E09181282F43816281ED
:1015200088EF890F0C94EB0981E00C948A0AECE9AE
:10153000F2E0628121E1620F08F46FEF282F43810E
:1015400081810C94EB0981E00C94970AECE9F2E0BC
:10155000628121E1621B08F460E0282F43818181D0
:101560000C94EB0981E00C94A60AECE9F2E04381CB
:1015700021E1420F08F44FEF282F628181810C9402
:10158000EB0981E00C94B50AECE9F2E0438121E13A
:10159000421B08F440E0282F628181810C94EB0902
:1015A00081E00C94C40A21E00C94EB0920E00C9437
:1015B000EB09EF92FF921F93CF93DF93EC0110E0C2
:1015C000EE24EA94F12C60910B01161770F00E9442
:1015D00033099A818C8190FF27C08F5F8C83DF91C4
:1015E000CF911F91FF90EF90089520910901422F14
:1015F000410F5527551FCA019A01220F331F280F8B
:10160000391F2F553D4F70E0C7010E94D826962FF5
:101610008C8140919F0260919E02199F800D112440
:101620000E94B8081F5FCFCF8150D8CFAF92BF9232
:10163000CF92DF92EF92FF920F931F93CF93DF939E
:10164000FC0182810FEF80FF01E010E045E0A42E55
:1016500080910B011817C8F00E9433098091CD01C9
:10166000013009F055C0811102C080910B018150F9
:101670008093CD01DF91CF911F910F91FF90EF905B
:10168000DF90CF90BF90AF900895C0910901C12E17
:10169000D12CCC0DDD2DD11DCE01880F991FC80F87
:1016A000D91FCF55DD4F198218821A8234E0E32EFC
:1016B000F12CB12C8091CD018B0D86301CF16A2D5F
:1016C0000E94B626892F082E000C990BC816D90641
:1016D00091F480919F028E9DA0018F9D500D112449
:1016E00055954795559547959E0160919E0280912D
:1016F0009D020E94B808B00EF1E0EF1AF108D1F691
:101700001F5FA6CF87FFDFCF90910B01890FDBCF43
:1017100090E0019660910B0170E00E94D826A8CF5E
:101720000F931F93CF93DF938091090190910A014A
:1017300023E0829FF0011124EF55FD4F891740F1FE
:10174000C0E0D3E060910B01C61740F10E9433095D
:10175000209105018091CC01820F8093CC01909162
:101760000601920F90930601191654F4082E000CEE
:10177000990B40910B014150550B841795071CF0B4
:10178000219520930501DF91CF911F910F9108952D
:101790001182108212828F5F3396D0CF0C2F10E00F
:1017A00070E0C8010E94D82620910901820F482FBD
:1017B00050E02091CC01022E000C330B02171307CE
:1017C000BCF020910601022E000C330B20173107CC
:1017D0007CF08D9F900111242F553D4F40919F0229
:1017E00060919E0280919D020E94B808CF5FAACFAF
:1017F000FA01EE0FFF1FE40FF51FEF55FD4F1182A9
:1018000010821282F3CF8F929F92AF92BF92CF92AB
:10181000DF92EF92FF920F931F93CF93DF93EC0130
:101820004C81042F10E09801D8010E941C279B01D5
:10183000AC010E9432274B015C01E0E2F0E0E01BCA
:10184000F10BA5E5B0E0AC019B010E9432276B01D2
:101850007C019F01DF010E9414279B01AC010E94C3
:101860003D279B01AC01280D391D4A1D5B1DC70199
:10187000B6010E94EC26F22E822F90E039E23F154D
:1018800060F143E0249F9001112435952795122F94
:10189000109500E085E5E82EEF1880910B01081700
:1018A00058F10E9433099C8181E0992319F090320C
:1018B00019F48FEF8093040180910401890F8C83C8
:1018C000DF91CF911F910F91FF90EF90DF90CF901C
:1018D000BF90AF909F908F90089525E530E0B901BB
:1018E000681B790B9B01220F331F260F371F37FF11
:1018F000CCCF2F5F3F4FC9CF8E2D01FD8F2D209173
:101900000901622F600F7727771F9B01220F331F7A
:10191000260F371F2F553D4F412F60919E020E9489
:10192000B8080F5FBACF0F931F93CF93DF93EC01EB
:1019300010E000E090910B019017110609F06CF493
:101940000E9433098C8190E00196817099278C83E5
:10195000DF91CF911F910F91089520910901A80166
:10196000420F511D9A01220F331F240F351F2F558F
:101970003D4F4C8160919E0280919D0296959017FB
:10198000110651F04CF0442349F040919F020E940F
:10199000B8080F5F1F4FCECF4423B9F340E0F7CF15
:1019A0004F925F926F927F928F929F92AF92BF926F
:1019B000CF92DF92EF92FF920F931F93CF93DF931B
:1019C000FC016280448081E08483EFE9F1E074905F
:1019D000EEE1F2E0E491812C75E0972EF2E0CF2E5B
:1019E000DD24D394AA24AA94B12C55245A94E7193F
:1019F0000E2F10E080910B01881690F0DF91CF91AF
:101A00001F910F91FF90EF90DF90CF90BF90AF901C
:101A10009F908F907F906F905F904F900C943309C0
:101A2000E82CF12C82E0861568F09E9CF0019F9CCA
:101A3000F00D1124E253FE4F80919D02808380912E
:101A40009E028183411023C09E9CF0019F9CF00D5B
:101A50001124E253FE4F1382128220910901C70123
:101A6000820F911D9C01220F331F280F391F2F5504
:101A70003D4F9E9CF0019F9CF00D1124E253FE4FC0
:101A80004281618180810E94B8088394B3CF9E9C7B
:101A9000E0019F9CD00D1124C253DE4F8B8188231F
:101AA000E9F081508B83859DC00111246C8170E029
:101AB0000E94C426FB01FF27E156FE4F8491E82FC8
:101AC000E719E59DC0011124B8010E94C426809148
:101AD0009F02689FB00111247A83BFCF0E94912793
:101AE00020919F02269521582C9DA0012D9D500DDF
:101AF0001124452F5527841795070CF0AECF82E0AF
:101B0000861588F40E949127B5010E94D826888303
:101B10000E94912720919E022695622F70E00E94DC
:101B2000D826280F29839E9CF0019F9CF00D11243C
:101B3000E253FE4F128280919F02893C58F088EC5C
:101B40009E9CF0019F9CF00D1124E253FE4F848374
:101B5000838383CF8431A0F784E1F2CFECE9F2E014
:101B600080818E7F808360817181828193810E94D8
:101B7000D9081092EF012FEF80E792E021508040CA
:101B80009040E1F700C000000C94330960919C0282
:101B9000669570E04BE050E08CE091E00E94A12758
:101BA000892B19F481E08093EF010E94871F9093A5
:101BB000E8018093E701089590919C0290FF35C061
:101BC0009170811128C0926090939C02662351F01D
:101BD00060919C0270919D0280919E0290919F0263
:101BE0000E94D90860919C02669570E04BE050E03D
:101BF0008CE091E00E94A127892BA1F01092EF01C7
:101C000081E08093EA0140919F0260919E02809161
:101C10009D020C94D60A8B3210F09465D5CF880FB4
:101C2000982BD2CF0E94C60DEBCF0895682F9091CC
:101C30009C02969581E0890F8B3208F081E00C942C
:101C4000DC0D81E00C94160E682F90919C02969505
:101C50008FEF890F09F48AE20C94DC0D81E00C947B
:101C6000240E61E00C94DC0DECE9F2E080818160EF
:101C7000808386950C94310E80919C0280FD0C949B
:101C8000AE0D0C94340E60E00C94DC0D8091ED01EF
:101C900081112EC00E94A31D811104C00E94471E05
:101CA0000E94EB080E94D50860939C0270939D02ED
:101CB00080939E0290939F026E7F61F40E94EB08D6
:101CC0000E94D50860939C0270939D0280939E02AF
:101CD00090939F020E94C6081092EF0180919C028F
:101CE00080FF03C086950E94430E81E08093ED0142
:101CF00008950F931F93CF93DF938091EF01882373
:101D000009F496C08091EE01E0919C02E695E81BF3
:101D1000E093E901823091F5F0E0E556FE4FE49161
:101D2000CE2FD0E008E819E08091EA01882361F025
:101D30001092EA010E94871F9093E8018093E701C7
:101D40001092EC011092EB010E94871FE091E701D5
:101D5000F091E8018E1B9F0B8F3F9F4708F068C0F2
:101D6000EC0FFD1FF093E801E093E70187EE91E0AF
:101D7000F801DF91CF911F910F910994863049F4BA
:101D8000F0E0E856FE4FE491CE2FD0E00CE919E0E8
:101D9000CBCF893051F4E695F0E0EB56FE4FE4915D
:101DA000CE2FD0E009ED1AE0BFCF8F3051F4E69589
:101DB000F0E0EE56FE4FE491CE2FD0E006E11BE0BE
:101DC000B3CF853149F4F0E0E157FE4FE491CE2FD7
:101DD000D0E000E91BE0A8CFC8E2D0E003E01CE0BF
:101DE000883109F4A1CF833239F4EDE8F1E0C591EF
:101DF000D4910CEA19E098CFC4EFD1E003E91CE0DC
:101E0000843209F491CFC0EDD7E005EB18E08532BC
:101E100009F08ACF8E2F63E00E94AA26E92FF0E016
:101E2000E657FE4FE491CE2FD0E000ED1CE07CCFD2
:101E3000DF91CF911F910F910895FA01811101C097
:101E4000FB010994CF93DF93C82FD62F0E94FA0885
:101E50008C1740F00E94FA088D1720F4DF91CF9183
:101E60000C94210E8C2FDF91CF910C94310E0F9397
:101E70001F93CF938C01FB01C281CC2309F465C071
:101E80000E94EF1C8272F801E35CFC45E431F1052D
:101E900038F4E95EF74D0C940E270E943C0EC0E02A
:101EA0008C2FCF911F910F9108954EE25EE061E279
:101EB0007EE00E941D0FF3CF41E25EE06EE27EE025
:101EC000F8CF44E95AE067E87AE0F3CF47E85AE010
:101ED00064E97AE0EECF42EB5AE063EA7AE0E9CFD8
:101EE00043EA5AE062EB7AE0E4CF40ED5AE061EC7D
:101EF0007AE0DFCF41EC5AE060ED7AE0DACF4DE2F4
:101F000059E066E179E0D5CF46E159E06DE279E04C
:101F1000D0CF81E00E94310EC2CF65E082E00E9406
:101F2000220FBDCF68E086E0FACF6EE089E0F7CF00
:101F300064E18FE0F4CF67E185E1F1CF88E1EACF9A
:101F400062E289E1ECCF83E2E5CFC1E0A9CF3F9A1D
:101F500048B14F7758B15068EFB7F8949B01220F02
:101F6000331F260F371F280F391F2817390741F451
:101F7000EFBF8FE594E00197F1F700C000000895EE
:101F8000DC016D91CD0178E058B9000000C067FF19
:101F900048B9660F000000C000C000C048B900C0CA
:101FA0007A9591F7E2CF0C94F0025098589A529893
:101FB0005A9A89B181704A9905C090E0892B809323
:101FC000F201089592E0FACFE091F201EE0FEE0FE8
:101FD000E093F20149B1842F817049B142FB22277D
:101FE00020F942FF02C022E030E0822BE82BE09390
:101FF000F201EF70F0E0EB57FE4F80819091F1011C
:10200000890F8093F10120E0823054F08091F0013B
:102010008F5F8093F00160E080E00E94D30F21E0A9
:102020008091F1018F3F54F48091F00181508093B1
:10203000F00161E080E00E94D30F21E08091F10186
:10204000082E000C990B62E070E00E94D826809365
:10205000F101822F0895CF93DF93EC0197FF0CC01D
:10206000FB018281882341F00E945610CE019F77A8
:102070000E94B0100E94911081E0DF91CF910895ED
:102080008CE090E00E94AE2790E0B0E0A0E080936A
:10209000B0029093B102A093B202B093B30208953C
:1020A0006091B0028CE090E00C94C2270E9405136E
:1020B000869581708093B5029091B002913029F499
:1020C000882319F089E30E94EE140E94EF1C80938C
:1020D000B4020E94021D8091B002813089F08823F1
:1020E00059F0823091F08430B9F08FE39CE9019788
:1020F000F1F700C00000089582EE0E946914F5CF48
:1021000088E193E00E947A03F0CF82EE0E94691486
:1021100087E50E94EE14E9CF86EE0E94EE1488E176
:10212000F8CF8091B002813071F0882341F0823085
:1021300031F0843099F08091B4020C94FF1C82EE4F
:102140000E94AF14F8CF8CE20E94EE148091B50289
:10215000882389F389E30E94EE14EDCF88E2FBCF58
:102160000F931F93CF93DF938C01CCE0D0E0C80195
:102170000C2E02C0969587950A94E2F78F700E9404
:1021800009052497CC3F8FEFD80789F7DF91CF91CE
:102190001F910F9108950F931F93CF93DF93EC013D
:1021A0008B01FB018281882361F00E94EF1CCE012C
:1021B000825E9C458530910520F48093B0020E9498
:1021C0005010B801CE01DF91CF911F910F910C9467
:1021D0002B100F931F93CF93DF93C42FD22FFC01AB
:1021E00082818823C9F04093F5010E94871F909354
:1021F000F4018093F30180E28C0F883008F050C026
:10220000C77081E001C0880FCA95EAF7DF91CF91CE
:102210001F910F910C94F6141091F501141335C011
:102220008091F3019091F4010E949F1F8C329140A4
:1022300060F5C0E2CD0F1D17B9F080E2810F883044
:1022400040F4177081E001C0880F1A95EAF70E94E8
:10225000FD14C83048F481E09D2F977001C0880FAD
:102260009A95EAF70E94F614802F0E94EE14C83067
:10227000B8F4D77081E001C0880FDA95EAF7DF91F2
:10228000CF911F910F910C94FD1480E28C0F883038
:1022900038F4C77081E001C0880FCA95EAF7EFCF24
:1022A000DF91CF911F910F9108950F939C01CB0166
:1022B000243F4CE5340759F1A8F4293DFCE53F07DC
:1022C00001F12A3D4CE53407D1F1283D3C4591F41C
:1022D00006E221EE41EE68ED7CE50E94E91080E027
:1022E0000F910895263FFCE53F07E9F0B0F0273F46
:1022F0003C45F9F0FC018281882339F11092F50107
:10230000EFCF07E225EE45EE69ED7CE5E6CF06E28C
:1023100021EE40EE64EF7CE5E0CF07E225EE44EEEF
:1023200065EF7CE5DACF06E221EE42EE66EF7CE572
:10233000D4CF07E225EE46EE67EF7CE5CECF08E28C
:1023400021E045EE6AED7CE5C8CF81E0C9CFCF93AF
:10235000DF93EC01FB018281882309F419C1C230AB
:10236000FCE5DF07C0F1C6319CE5D90730F09E01DE
:102370002B5F3C452930310570F50E94B61D9093C6
:10238000BB028093BA02C031ECE5DE0709F4CFC08E
:1023900008F05BC0C8308CE5D80709F4B6C088F5F2
:1023A000C430ECE5DE0709F4A8C0C0F4C2308CE507
:1023B000D80709F49CC08091BA028260C330DC4522
:1023C00009F498C08091BA029091BB020E94C41D8A
:1023D0000E946E1780E0DF91CF9108958091BA023C
:1023E0008061C630ECE5DE0709F484C08091BA0252
:1023F0008860C730DC4508F47DC08091BA028062F5
:1024000079C0CC308CE5D80709F489C070F480918C
:10241000BA028C60CA30ECE5DE0709F46BC008F440
:1024200078C08091BA028E7F65C0CE308CE5D80727
:1024300009F479C08091BA028B7FCF30DC4508F473
:1024400059C08091BA028F7E55C0CC3FECE5DE07C3
:1024500009F457C030F5C3318CE5D80709F46FC0D3
:1024600078F4C131ECE5DE0709F465C0C231DC4522
:1024700009F0A8CF0E946E178091BA028F773AC0F8
:10248000C5318CE5D80709F462C008F476C08091A4
:10249000BB028160CB3FDC4509F094CF8093BB0247
:1024A00091CFC115FDE5DF0709F44DC088F4809197
:1024B000BB028D7FCE3F9CE5D90781F38091BB02A3
:1024C0008E7FCF3FDC4550F38091BB028360E6CF27
:1024D000C230FDE5DF0709F459C008F444C080E0CC
:1024E000C330DD4509F06ECF0E94491E6BCF80914D
:1024F000BA0281608093BA0265CF8091BA0284608B
:10250000F9CF8091BB028260C9CF8091BA0280640A
:10251000F1CF0E946E178091BA028068EBCF809154
:10252000BA028D7FE7CF8091BA02877FE3CF809197
:10253000BA028F7DDFCF8091BA028F7BDBCF809193
:10254000BA02837FD7CF8091BB028C7FA7CF8091C7
:10255000BA0282FB992790F921E0922790FB82F939
:1025600090FB83F9C7CF8091BB02982F9095917013
:102570008E7F892B90FB81F991CF0E946E179091ED
:10258000BA02892F97FB87F98058B4CF81E0ACCF8E
:1025900081E021CFCF93DF93EB0186319C4511F58C
:1025A0000E94EF1C9A81992399F08A7A91E009F4AC
:1025B00090E09093F601811109C089E20E94CA1C43
:1025C0000E943E1D80E0DF91CF91089585E3F6CF14
:1025D0008091F601811104C089E20E94D11CF0CFE4
:1025E00085E3FBCF81E0EFCF9093FC018093FB016B
:1025F0000895E091FB01F091FC01309721F00190EA
:10260000F081E02D099480E00895E091FB01F091C4
:10261000FC01309711F480E008950190F081E02DE5
:1026200009950895E091FB01F091FC01309799F034
:1026300020912301222359F02091BA0227FF07C0DD
:10264000DC012C9111962C93119725E02C9302809C
:10265000F381E02D099408952091F9013091FA0158
:102660002817390771F09093FA018093F901E091EE
:10267000FB01F091FC01309721F00680F781E02DFD
:10268000099408952091F7013091F801281739072E
:1026900071F09093F8018093F701E091FB01F091C4
:1026A000FC01309721F00084F185E02D0994089514
:1026B0000E94931F6093070270930802809309029F
:1026C00090930A02609303027093040280930502C0
:1026D0009093060208950E94931F609307027093DF
:1026E00008028093090290930A026093FF0170939D
:1026F00000028093010290930202089585B78068DA
:1027000085BF85B7806885BF0895089508950C94A6
:10271000851308950C9489130E947E1381EA9DE12C
:102720000E94E31F0E9486130C94871381E0089592
:102730000C949613089508950E947E1F0E948407AA
:102740000E94E81F0E94460E0E94D50F0C948A1327
:10275000EF92FF920F931F93CF93DF93CDB7DEB726
:102760002A970FB6F894DEBF0FBECDBF0E949A1312
:102770000E949B130E94AA0781110E94581380E0B7
:102780000E947D07182F8091FE01E82EE126811717
:1027900009F44AC08091760281FD0E948307F12CE2
:1027A00001E08E2D8023D9F10E949813882399F09F
:1027B000FE821F82102381E009F480E088870E9456
:1027C000871F8160782F9A8789874E815F8168850E
:1027D0008A850E9432148091FE0108270093FE0131
:1027E0000E94790E0E94E40F81110E946B130E94D7
:1027F000F9129091FD01891741F10E94F91280931D
:10280000FD012A960FB6F894DEBF0FBECDBFDF9153
:10281000CF911F910F91FF90EF900C946705F39467
:10282000000F85E0F812BDCF8FEF89838A831B826A
:102830000E94871F8160782F9D838C8349815A81F4
:102840006B818D810E943214CBCF2A960FB6F894FB
:10285000DEBF0FBECDBFDF91CF911F910F91FF90D3
:10286000EF900895DF92EF92FF920F931F93CF9313
:10287000DF93CDB7DEB72B970FB6F894DEBF0FBE50
:10288000CDBF7A878B87F42E052F162FE72ED82EF3
:1028900061110E94121D1E821D827E2DEC82DD823E
:1028A0004F2D502F612F8D2D9E812B960FB6F894B2
:1028B000DEBF0FBECDBFDF91CF911F910F91FF9073
:1028C000EF90DF900C94E519FC01808191810C94CC
:1028D0009C1CCF93C82F882309F43FC08CEF8C0F2A
:1028E000813AA0F46C2F80911701909118010E94F9
:1028F000621E882329F08C2F0E94D11C0E943E1D4D
:102900008C2F0E94CA1CCF910C943E1D80E28C0F2C
:10291000883048F4C77081E001C0880FCA95EAF793
:102920000E94F21CF0CFEBE5EC0FE33040F4F0E056
:10293000ED53FE4F808190E0CF910C942C13C85A38
:10294000C73158F4EC2FF0E0EE0FFF1FEB56FE4FAF
:1029500080819181CF910C944213CF910895882367
:1029600029F19CEF980F913A20F40E94D11C0C940D
:102970003E1D90E2980F983050F4877091E001C0AE
:10298000990F8A95EAF7892F0E94F81CF0CF9BE5F2
:10299000980F933020F490E080E00C942C13885A28
:1029A000873120F490E080E00C94421308951F9347
:1029B000CF93DF93182FEB010E946914209731F415
:1029C000812FDF91CF911F910C94AF148FE99FE07D
:1029D0000197F1F700C000002197F0CF70E060E0B0
:1029E000893311F460E570E00C94D714882321F04A
:1029F0000E94F21C0C943E1D0895882321F00E9431
:102A0000F81C0C943E1D0895BF92CF92DF92EF9276
:102A1000FF920F931F93CF93DF936C01D62FC72F95
:102A2000FC011281058102950F700E94E81CE82EBE
:102A30008823A1F0E12E112389F08C2F807F803430
:102A400029F080E28D0FE12C883040F082E00E9476
:102A5000891D0E94E81C91E0E82EE926BC2EB29464
:102A60009FE0B922EB2DF0E0E55DF74D0C940E27C9
:102A70000C2F0F70C07F11F00295007F1123A9F079
:102A8000002359F080E28D0F883010F0D11109C079
:102A9000802F0E94F21C0E943E1D8D2F0E946914FF
:102AA00014C0802F0E94051DF6CF8D2F0E94AF14F9
:102AB000002359F080E28D0F883010F0D1112CC026
:102AC000802F0E94F81C0E943E1D2B2D2850330B96
:102AD0002430310520F40E94F9120E946705EE208F
:102AE00009F493C10E94E41C80FD8FC1F60112829B
:102AF0000E94DE1C0E94671BC6010E9426170E94CE
:102B0000DE1CDF91CF911F910F91FF90EF90DF902E
:102B1000CF90BF900C94881B802F0E940B1DD3CFA9
:102B2000FC2FFF70FF2EC07FC03219F0F29480EFAF
:102B3000F822DD2369F0D13049F1112391F100230E
:102B400051F1F601858180FFA8CF8F70858323C066
:102B5000112381F0011106C00E94251D8F290E94BA
:102B6000F614B3CF0130C1F70E94251D8F290E94B2
:102B70002B1DABCF011106C00E94341D8F2D0E946A
:102B8000FD14A3CF013009F4A0CFF6CF112329F013
:102B9000063008F09ACF8F2DE2CF053008F095CFA0
:102BA000EDCF002359F3D93349F4FFEF27EE33E09B
:102BB000F15020403040E1F700C000008D2F0E940E
:102BC000AF1483CF8C2F86958695837069F0813002
:102BD00009F07BCF8D2F9C2F9370111102C090E0D4
:102BE00080E00E94421371CF8D2F9C2F93701111A2
:102BF00002C090E080E00E942C1367CF8C2F83707E
:102C000009F041C0111161CF4D2F42954695477093
:102C1000440F440F0D2F0F7010E030E020E0042E21
:102C200004C0000F111F221F331F0A94D2F760E067
:102C300070E0CB01D4FF0FC06FE070E080E090E067
:102C400004C0660F771F881F991F4A95D2F76095B9
:102C5000709580959095C695C695C370602B712B25
:102C6000822B932BC23049F058F4C13019F00E94E6
:102C70001B1B2BCF0E94091B28CF0E942D1B25CF89
:102C80000E94071B22CF8695112311F08C2F817093
:102C9000882309F41ACF4D2F429546954770440F6B
:102CA000440F0D2F0F7010E030E020E0042E04C020
:102CB000000F111F221F331F0A94D2F760E070E04B
:102CC000CB01D4FF0FC06FE070E080E090E004C063
:102CD000660F771F881F991F4A95D2F760957095E8
:102CE00080959095C695C695C370602B712B822BED
:102CF000932BC23049F058F4C13019F00E94DE1B0A
:102D0000E4CE0E94CC1BE1CE0E94F01BDECE0E94DE
:102D1000411BDBCECF70112329F08C2F0E94671B43
:102D20008D2F1DCF8D2F0E94FD148C2F0E94881B8C
:102D3000CCCED23F89F160F4D03FC9F0D13F29F128
:102D4000112309F442C00111A8CE8C2F8F7121C02C
:102D5000D33F39F1D43FA1F7112369F1CF718C2F03
:102D60000E94671B63E08C2F0E94741DAECE11235E
:102D700041F0053008F0A9CE8C2F8F710E94AB1B5B
:102D8000A4CE063008F0A1CEF7CF8C2F8F7111237F
:102D900069F20E94671B99CE8C2F8F711123C9F3A2
:102DA000C5CF112329F08C2F8F710E94521B8DCE1D
:102DB0000E944D1B8ACE81E00E94891D023008F4DA
:102DC00084CE82E00E94891D80CE002359F0D93341
:102DD00009F0F4CE8FEF97EEE3E081509040E040B1
:102DE000E1F7EACE8C2F8F71A1CF4C2F4F706D2F52
:102DF000C6010E946F050E947F1A67CE4C2F4F704C
:102E00006D2FC6010E94720560CEDF91CF911F9198
:102E10000F91FF90EF90DF90CF90BF9008950F93A8
:102E20001F93CF93DF93EC01688179818A810E949F
:102E3000A61C8C010E94021C0E94061BB801CE0138
:102E4000DF91CF911F910F910C940415CF93DF93D5
:102E5000EC018B819C81892B29F0888199818923C0
:102E60008F3F59F4DF91CF910895CE010E940F1743
:102E7000CE01DF91CF910C94C703CE010E94EE03E7
:102E80008111F3CF0E94E81C882361F38A81882393
:102E900049F382E0DF91CF910C94891D882321F0C2
:102EA0000E94051D0C943E1D0895882321F00E9468
:102EB0000B1D0C943E1D089590E080E00E942C13A1
:102EC00090E080E00E9442130E94121D0E94221D89
:102ED0000C943E1D0E94D81C0C945C170E94021D8D
:102EE0000C946A17E92FE295EF70E250EE3070F41F
:102EF000F0E0E55CF74D0C940E27803F19F020F4CC
:102F0000883E20F481E00895843FE1F380E0089555
:102F1000883EC0F3813FD1F7F5CF93FB882780F936
:102F200008950E949C1C0C947217CF93DF9300D0DD
:102F300000D00F92CDB7DEB70F900F900F900F908B
:102F40000F90DF91CF910895CF93DF9300D000D001
:102F500000D0CDB7DEB726960FB6F894DEBF0FBE11
:102F6000CDBFDF91CF9108951F93CF93DF93C09191
:102F70000C0216E080910D028C1304C0DF91CF91FA
:102F80001F910895D0E01C9FF0011D9FF00D1124AA
:102F9000E25FFD4F4081518162817381848195811F
:102FA0000E94A4172196C770E5CF40913E02509130
:102FB0003F026091400270914102809142029091E3
:102FC00043020C94A4171F93CF93DF938091430285
:102FD000807FA9F480914002882389F080910C02BF
:102FE000C0910D0260913E0270913F02A09141029A
:102FF000B0914202D62FD72316E0C81304C0DF9148
:10300000CF911F91089590E0109711F0DF3F19F4D0
:1030100001968770F2CF189F9001199F300D1124EF
:10302000F901E25FFD4F41814713F2CF4081461322
:10303000EFCF42814111ECCF438154814A1B5B0B9E
:103040004C32514028F7809143028F708061809309
:103050004302F901ED5EFD4F80818F7080618083B6
:103060008EE392E00E942617DF91CF911F910C947E
:10307000B417AF92BF92CF92DF92EF92FF920F936D
:103080001F93CF93DF93CDB7DEB761970FB6F89458
:10309000DEBF0FBECDBF8C0185E0F801DE011D96BD
:1030A00001900D928A95E1F7F80140815181E2800B
:1030B0008EE3C82E82E0D82E6091410270914202C8
:1030C0006115710509F462C190913E0220913F02A1
:1030D000892F82238F3F09F459C1A380B480F090D7
:1030E0004002F501E61BF70BBF01FF2009F4FCC00D
:1030F00080914302382F307F6C32714008F0B2C0AB
:10310000311179C0FE2C251323C0941321C0E11086
:103110001FC08F708061809343020E94D517C60143
:103120000E94261780914302F80185838F2D6196B6
:103130000FB6F894DEBF0FBECDBFDF91CF911F91C8
:103140000F91FF90EF90DF90CF90BF90AF900895D8
:10315000AB2829F0842F85238F3F09F033C180E00D
:10316000F82FF170DF2E80FF3CC080910C0220917F
:103170000D0236E0821315C04D875E878D859E85D2
:103180000E949C1C292F22952F702230F0F02430B1
:1031900018F59F70F1F0F8019581907FD1F4D12C52
:1031A0001EC090E0389FF001399FF00D1124E25FBE
:1031B000FD4F6181651306C06081641303C06281A5
:1031C0006E110FC001968770D5CF9F7011F08823C4
:1031D00031F3805E883018F3C8010E942617FD2C59
:1031E000A5CFEE2009F4A2CF8091430281608093A5
:1031F0004302F12C9BCF251306C0941304C0F801A1
:10320000EE2009F48DC04D875E878D859E850E94D6
:103210009117882319F1EE2009F180914302803241
:1032200070F020913E0230913F0238872F8319863B
:10323000BB86AA868C87CE0107960E94261786E059
:10324000F801AEE3B2E001900D928A95E1F70E9499
:10325000E3170E94D517FF24F39468CFC8010E949A
:103260002617F9CF311113C07A2DB98AA88A6E2D8D
:1032700089890E9495178EE392E00E94261786E0C6
:10328000F60111928A95E9F70E94D517B2CF25135E
:103290000FC094130DC0E1100BC0F8018583C80165
:1032A0000E94261786E0F60111928A95E9F73ECF33
:1032B0004D875E878D859E850E949117882371F2C8
:1032C000EE2061F280914302803208F4B8CF209161
:1032D0003E0230913F023A8329831B82BD82AC8239
:1032E0008E83CE010196A9CF6C32714008F041C0A7
:1032F000FE2CEE2009F4B2CF25132AC0941328C067
:103300008091430280FD1BC0982F907FC1F0F8018F
:103310008583903F31F0982F907F905F8F70892B3D
:103320008583C8010E94261786E0F801AEE3B2E06B
:1033300001900D928A95E1F70E94D517F7CE86E0AD
:10334000F801AEE3B2E001900D928A95E1F7EECE7E
:103350004D875E878D859E850E94911781116FCF65
:1033600080914302816080934302C8010E94261726
:10337000DDCE7A2DB98AA88A6E2D89890E9495178B
:1033800086E0F60111928A95E9F7D6CFEE2009F48E
:1033900065CF4D875E878D859E850E949117F82E9B
:1033A000882309F45BCF86E0F801AEE3B2E0019038
:1033B0000D928A95E1F78EE392E00E9464140E94D8
:1033C000E317BACF81E08E25CBCE1F93CF93DF9347
:1033D000CDB7DEB72C970FB6F894DEBF0FBECDBFCA
:1033E0004F83588769877A878B879C87CE0107969A
:1033F0000E943918882369F08A859B85892B39F0CA
:103400004F815885842F85238F3F09F071C016E0C6
:103410005FC086E0FE013796DE01119601900D92A5
:103420008A95E1F78A859B85892B89F38F81988519
:1034300089238F3F61F320910D0230E0C90101968D
:103440008770992740910C024817190671F40E9461
:103450006E1710920D0210920C0286E0EEE3F2E07D
:10346000DF011D928A95E9F7D2CF96E0929FD001B5
:10347000939FB00D1124A25FBD4FFE0131960190C4
:103480000D929A95E1F780930D020E94B417BFCF79
:10349000819FC0011124825F9D4F0E9439188823AB
:1034A000E9F0E0910C021E9FF0011124E25FFD4F54
:1034B0004081518162817381848195810E94A4172A
:1034C00080910C0290E001968770992780930C02FE
:1034D00080910C0290910D028913DACF2C960FB6D1
:1034E000F894DEBF0FBECDBFDF91CF911F9108953D
:1034F00069857A858B859C850E94A41788CFEF9279
:10350000FF920F931F93CF93DF938C01892B81F050
:10351000F12CEE24E394E8012196F801849184379C
:1035200070F4843008F05FC08130B1F08230A1F1D6
:10353000DF91CF911F910F91FF90EF900895853704
:1035400009F44CC008F43DC09CE7980F903780F711
:103550008F770E94AF1449C00E5F1F4FFE01849108
:1035600090E2980F983060F48770FE2D01C0FF0F35
:103570008A95EAF78F2F0E94151D0E943E1D02C0FA
:103580000E9469148F2D815030F2EFE9FFE03197EE
:10359000F1F700C00000F7CF0E5F1F4FFE018491CE
:1035A00090E2980F983050F48770FE2D01C0FF0F05
:1035B0008A95EAF78F2F0E941B1DDFCF0E94AF1460
:1035C000E1CF0E5F1F4FFE01C491C150D8F28FE9C9
:1035D0009FE00197F1F700C00000F7CF0E5F1F4F8B
:1035E000FE01F490CFCF0E9469148E01CBCF0895D5
:1035F0000C94F71A0E94F81A60934D0270934E02D1
:1036000080934F02909350020C945C1708950C9491
:10361000FA1A0F931F9300914D0210914E022091C0
:103620004F0230915002602B712B822B932B1F91F4
:103630000F910C94FA1A0F931F9300914D02109161
:103640004E0220914F023091500260237123822359
:1036500093231F910F910C94FA1A0F931F930091CB
:103660004D0210914E0220914F023091500260277E
:103670007127822793271F910F910C94FA1A0C94AB
:10368000F9020E943F1B6093490270934A028093A3
:103690004B0290934C020C945C1760E070E0CB01FD
:1036A0000C94411B0F931F9341E050E060E070E0E9
:1036B0008A019B0104C0000F111F221F331F8A952E
:1036C000D2F7C901B8011F910F910C94411B0F93C0
:1036D0001F9341E050E060E070E004C0440F551FCC
:1036E000661F771F8A95D2F78091490290914A020E
:1036F000A0914B02B0914C028A019B01082B192B1F
:103700002A2B3B2BC901B8011F910F910C94411B2F
:103710000F931F9341E050E060E070E004C0440F5D
:10372000551F661F771F8A95D2F7CB01BA016095A6
:103730007095809590950091490210914A022091D0
:103740004B0230914C0260237123822393231F91FB
:103750000F910C94411B0F931F9341E050E060E0E8
:1037600070E004C0440F551F661F771F8A95D2F77B
:103770008091490290914A02A0914B02B0914C0273
:103780008A019B01082719272A273B27C901B8016D
:103790001F910F910C94411B0F931F9300914902AD
:1037A00010914A0220914B0230914C02602B712BF8
:1037B000822B932B1F910F910C94411B0F931F93FE
:1037C0000091490210914A0220914B0230914C0223
:1037D00060237123822393231F910F910C94411B2B
:1037E0000F931F930091490210914A0220914B02BE
:1037F00030914C0260277127822793271F910F91E8
:103800000C94411B0895E92FEE0FEE0F9E0F890FC8
:10381000982F977041E001C0440F9A95EAF786957A
:103820008695869595E0899FF0011124EC5BFD4F0C
:1038300030E020E070E05191DF011197CB01022EC2
:1038400002C0969587950A94E2F781708195852745
:10385000842385278C932F5F3F4F2530310559F7FF
:103860000895E92FEE0FEE0F9E0F890F982F977096
:1038700086958695869525E0829FF0011124EC5B64
:10388000FD4F50E040E080E0219130E0092E02C081
:10389000369527950A94E2F721703327042E01C04C
:1038A000220F0A94EAF7822B4F5F5F4F4530510594
:1038B00059F70895BF92CF92DF92EF92FF920F9344
:1038C0001F93CF93DF938C01C0904902D0904A029E
:1038D000E0904B02F0904C0280914D0290914E028C
:1038E000A0914F02B0915002C82AD92AEA2AFB2A95
:1038F000CFE1D0E0BC2ED701C6010C2E04C0B69596
:10390000A795979587950A94D2F780FD0EC02197C9
:1039100088F7B12C8B2DDF91CF911F910F91FF90E4
:10392000EF90DF90CF90BF900895B8018C2F0E9448
:103930009105019761F3EECFCF93DF93EC010E94E5
:103940005A1CBE01DF91CF910C9491051F93CF9328
:10395000DF93EB0190910B02992331F0CB01DF91C2
:10396000CF911F910C949C1C882379F0CB010E946D
:103970005A1C182F682FCE010E94031CBE01812FF4
:10398000DF91CF911F910C949105CB010E94311CC6
:10399000182FF4CF682F80911701909118010C9483
:1039A000E21E682F80911701909118010C94ED1E72
:1039B00080911701909118010C94F81E809151028A
:1039C0008595859585950895809151028770089514
:1039D00090915102977081E009F480E00895809100
:1039E0007502089590917502892B80937502089550
:1039F0008095909175029823909375020895809315
:103A00007502089510927502089590917402892BA1
:103A100080937402089580959091740298239093F6
:103A20007402089510927402089590917302892B84
:103A300080937302089580959091730298239093D8
:103A400073020895109273020895809152020895AE
:103A500008950C94281D90915202981721F080939C
:103A600052020C94291D089580915202882329F056
:103A70001092520280E00C94291D0895E0911701E4
:103A8000F0911801809175028083E0911701F09107
:103A90001801808190917402892B8083E091170135
:103AA000F0911801808190917302892B808390910D
:103AB0005202992381F0E0911701F0911801808161
:103AC000892B808380911701909118010E944E1ECE
:103AD00081110E94341D80911701909118010C945E
:103AE000121308950C94711D98E0899F9001112480
:103AF000622B609351020E94671B80915102859551
:103B0000859585950C94721D1092510280E00C945D
:103B1000721D909151028095892380935102282F24
:103B2000277071F4282F082E000C330B9217130600
:103B300039F08595859585950E94881B0C94841D88
:103B4000089580E0089590E080E00E94BC2721E085
:103B50008B3E9E4F09F020E0822F089582E090E096
:103B60000C94AE2783E090E00C94AE27CF9384E0D2
:103B700090E00E94AE27C82F81E290E00E94AE271D
:103B8000982F8C2FCF910895CF93C92F682F84E061
:103B900090E00E94C2276C2F81E290E0CF910C94BC
:103BA000C227AB01BC018FE090E00C94D427AB019D
:103BB000BC0183E190E00C94D42760E070E0CB017D
:103BC0000C94D71D60E070E0CB010E94D11D0C94D5
:103BD000DD1D6BEE7EEF90E080E00E94E02760E06C
:103BE00082E090E00E94C22760E083E090E00E94C3
:103BF000C22710924D0210924E0210924F02109264
:103C0000500260E084E090E00E94C22760E081E220
:103C100090E00E94C22760E085E090E00E94C22709
:103C200060E086E090E00E94C2276FEF87E090E0BE
:103C30000E94C22740E050E0BA0188E090E00E9474
:103C4000D42760E08DE090E00E94C22740E050E081
:103C5000BA0188E190E00E94D42760E087E190E01B
:103C60000E94C22740E050E0BA018CE190E00E943F
:103C7000D42760E080E290E00E94C22740E050E05C
:103C8000BA0188E190E00E94D4270C94E21D0C94C4
:103C9000E91D682F8EE090E00C94C227FC0132965B
:103CA00080912301882321F08091BA029EE187FF51
:103CB00096E080E0915008F4089521912223D1F3F9
:103CC0008F5FF8CF662301F1209123012223F1F0C9
:103CD0002091BA0227FF1AC0462F46954695469571
:103CE0004E3190F4677021E030E002C0220F331FA4
:103CF0006A95E2F7840F911DFC01828190E02823F0
:103D0000392381E0232B69F480E00895FC01329689
:103D100008962191261721F0E817F907D1F7F4CF7B
:103D200081E008959C01FC0132969FEF80E0419173
:103D3000461751F09F3F19F4411101C0982F8F5F32
:103D40008630A9F79F3F09F40895290F311D97FD8B
:103D50003A95F90162830895FC0132960896219103
:103D6000261303C0DF0111971C92E817F907B9F772
:103D70000895E62FE695E695E695EE3168F4E80FAE
:103D8000F92FF11D677021E030E001C0220F6A9524
:103D9000EAF78281822B82830895E62FE695E695E5
:103DA000E695EE3170F4E80FF92FF11D677021E010
:103DB00030E001C0220F6A95EAF72095828128231E
:103DC0002283089520912301222329F02091BA0211
:103DD00027FD0C94B91E0C94921E209123012223DE
:103DE00029F02091BA0227FD0C94CD1E0C94AC1E34
:103DF000FC01329680912301882351F08091BA0210
:103E000087FF06C08EE1DF011D928A95E9F70895CC
:103E100086E0F9CF089508950C940B1F8091C0029D
:103E2000843049F10E940C1F80E00E9467051092C7
:103E3000770288E190E020E40FB6F894A89580938B
:103E400060000FBE2093600083B7817F846083BFD2
:103E500083B7816083BF7894889583B78E7F83BF53
:103E60000FB6F894A89580916000886180936000F7
:103E7000109260000FBE089508950E940A1F0E94CC
:103E8000AA070E943C1F80E00E947D0791E08111FB
:103E900001C090E0892F089508950C944C1F0E9452
:103EA0006E170E94F9120E9467050C944D1F1F9215
:103EB0001FB61F9211248F939F93AF93BF9380914E
:103EC0007702811113C08091B6029091B702A09140
:103ED000B802B091B9024196A11DB11D8093B602FE
:103EE0009093B702A093B802B093B902BF91AF917B
:103EF0009F918F911F901FBE1F90189582E084BDE7
:103F000093E095BD9AEF97BD80936E0008952FB70B
:103F1000F8948091B6029091B702A091B802B09146
:103F2000B9022FBF08952FB7F8946091B60270912F
:103F3000B7028091B8029091B9022FBF08959C01F9
:103F40004FB7F8948091B6029091B702A091B80251
:103F5000B091B9024FBF821B930B089578941F92C2
:103F60001FB61F9211248F939F93AF93BF9380919D
:103F7000B6029091B702A091B802B091B902019631
:103F8000A11DB11D8093B6029093B702A093B80211
:103F9000B093B902BF91AF919F918F911F901FBEB7
:103FA0001F90189587E797E7909301088093000882
:103FB00088E19AE00FB6F894A895809360000FBE50
:103FC00090936000FFCF9093C7018093C60108953E
:103FD0000E94A31D811102C00E94471E0E94AE1DB7
:103FE000809376020E94B61D9093BB028093BA0222
:103FF0000E94B21D682F70E090E080E00E94071BD5
:104000006091490270914A0280914B0290914C025A
:104010000C943F1B8091980208950895CF93DF93ED
:1040200000D00F92CDB7DEB79091C002943019F551
:1040300089837B836A8382E08093E9008FEF90918C
:10404000E800815095FD06C095ED9A95F1F70000C6
:104050008111F5CF8091E80085FF0DC050E040E070
:1040600063E070E0CE0101960E9419228091E80081
:104070008E778093E8000F900F900F90DF91CF9193
:104080000895BC0184E00C940E20BC0183E00C94E4
:104090000E20CF93DF93EC01809123018823B1F1AF
:1040A0008091BA0287FF32C060E282E08093E9002B
:1040B0008FEF9091E800815095FD06C095ED9A959F
:1040C000F1F700008111F5CF8091E80085FF1BC05A
:1040D0008091230170E050E040E0811104C050E085
:1040E00040E068E070E0CE010E9419228091E80073
:1040F0008E778093E80080E2FE01A8E7B2E00190AD
:104100000D928A95E1F7DF91CF91089568E081E003
:10411000CDCF8091BF02811109C00E94A9230E94C6
:1041200006248091E20084608093E200089510925A
:10413000BF02089508950895089542E061EC81E07A
:104140000E94252342E261EC82E00C9425238091B9
:10415000C202833009F45FC030F48130C1F1823093
:1041600009F49BC008958A3009F487C08B3009F4A4
:104170006DC0893009F04EC08091C102813209F0D2
:1041800049C08091C5029091C602029708F042C0D2
:104190008091E800877F8093E8008091E80082FFAB
:1041A00035C09091F3008091F200029729F480913C
:1041B000F1008B7F813021F48091F100809398028F
:1041C0008091E8008B778093E8000C9459238091CC
:1041D000C102813AF9F48091E800877F8093E8007A
:1041E0008091C5029091C602892B61F460E288E754
:1041F00092E070E00E9468228091E8008B778093C3
:10420000E800089560E090E080E0F3CF8091C00284
:104210008111C3CF08958091C102813AD9F780916D
:10422000C5029091C602892BA9F78091E800877F8B
:104230008093E8008091E80080FFFCCF809123010B
:104240008093F1008091E8008E77BDCF8091C1020C
:10425000813201F78091C5029091C602892BD1F677
:104260008091E800877F8093E8000E945923809125
:10427000C302809323010C946E178091C102813296
:1042800049F68091E800877F8093E8000E945923D7
:104290008091C4028093990208958091C102813A6D
:1042A00009F0B8CF8091E800877F8093E800809183
:1042B000E80080FFFCCF80919902C2CF84B7877F4E
:1042C00084BF0FB6F894A8958091600088618093B0
:1042D0006000109260000FBE80E890E00FB6F89486
:1042E00080936100909361000FBE0E948C130E9426
:1042F000A9230E9406248091E20084608093E2005A
:1043000078940E948F260E949C1389E191E00E947C
:10431000F4128091C0028530A9F00E94A8130E9477
:104320009A130E949B13F5CF0E940E1F8091BE022C
:10433000882341F00E943D1F882321F00E94032220
:104340000E946E178091C002853071F30E944F1F4A
:10435000E4CF0C94AB21292F33272330310519F1F9
:1043600068F42130310509F444C02230310509F4E4
:1043700045C090E080E030E020E025C021323105EA
:1043800049F122323105A9F780E490E028E934E0D0
:1043900061157105C1F08DE690E02BE234E06130EB
:1043A000710589F0E6CF99278130910581F000975A
:1043B00029F00297F1F6E4EAF3E002C0EAEDF3E057
:1043C000849190E09F01FA01318320830895EAEB04
:1043D000F3E0F6CF89E090E020EF33E0611571055E
:1043E00091F389E090E029E034E06130710559F300
:1043F000C0CF82E190E029E134E0E5CF8BE390E0AB
:104400002EED33E0E0CF80E189BD82E189BD09B4C2
:1044100000FEFDCF8091D8008F7D8093D8008091E1
:10442000E00082608093E0008091E00081FDFCCF9D
:104430000895AF92BF92CF92DF92FF920F931F9396
:10444000CF93DF936C01EB018A010E947823F82E51
:10445000811123C00115110539F0F8018081918186
:10446000C81BD90BC80ED91EB12CA12C2097A9F0BE
:104470008091E80085FD22C08091E8008E778093CE
:10448000E80001151105A1F0F80180819181A80EC5
:10449000B91EB182A08285E0F82E8F2DDF91CF91D9
:1044A0001F910F91FF90DF90CF90BF90AF90089534
:1044B0000E9478238823D1F2F82EEFCFF601819164
:1044C0006F018093F1002197FFEFAF1ABF0ACECFA3
:1044D000FC018091C7029091C80286179707A0F04F
:1044E0006115710529F49091E8009E779093E8009A
:1044F00090E06115710551F4911108C08091E800B8
:1045000082FF34C080E00895BC01F2CF8091C002E8
:104510008823C1F18530C1F18091E80083FD30C06E
:104520008091E80082FDEACF8091E80080FFE1CF32
:104530008091F3002091F200382F6115710519F078
:104540002830310558F091E02830310509F090E02D
:104550002091E8002E772093E800CBCF81918093C3
:10456000F100615071092F5F3F4FE7CF8091C0028A
:10457000882341F0853041F08091E80083FFBECF71
:1045800081E0089582E0089583E00895FC01809120
:10459000C7029091C80286179707A0F061157105B0
:1045A00029F48091E8008E778093E80090E061150F
:1045B000710551F4911108C08091E80082FF35C067
:1045C00080E00895BC01F2CF8091C0028823C9F138
:1045D0008530C9F18091E80083FD31C08091E80009
:1045E00082FDEACF8091E80080FFE1CF8091F30067
:1045F0002091F200382F6115710519F0283031052E
:1046000058F091E02830310509F090E08091E80001
:104610008E778093E800CBCF84918093F100319620
:10462000615071092F5F3F4FE6CF8091C002882310
:1046300041F0853041F08091E80083FFBDCF81E0FB
:10464000089582E0089583E00895982F973028F028
:104650008F708093E90081E008959093E900242F02
:10466000762F50E0981731F07091EC002091ED001A
:104670005091F00021FD02C09F5FE8CF3091EB0028
:104680003E7F3093EB003091ED003D7F3093ED00A5
:104690003091EB0031603093EB007093EC0020938D
:1046A000ED005093F0002091EE0027FDE5CF80E073
:1046B00008958091C10287FF13C08091E80082FFB6
:1046C00006C08091E8008B778093E80004C0809159
:1046D000C0028111F2CF08958091C0028823D9F3DE
:1046E0008091E80080FFF8CF8091E8008E77ECCFD2
:1046F0002091E4003091E50095E6A9012091EC00BD
:10470000822F817020FF06C08091E80080FF06C0E4
:1047100080E008952091E80022FD1AC08091C00237
:10472000882389F0853089F08091EB0085FD0FC0EA
:104730002091E4003091E50042175307F9F29150BF
:10474000E1F684E0089582E0089583E0089581E031
:1047500008950E9417240E941F24E0EEF0E080815B
:1047600081608083E8EDF0E080818F77808319BCE1
:10477000A7EDB0E08C918E7F8C9380818F7E8083BB
:104780001092BF0208950F931F93CF93DF930E945F
:1047900017240E941F24C8EDD0E088818F7788837A
:1047A00088818068888388818F7D888319BC109276
:1047B000C0021092BC021092BE021092BD0200EE26
:1047C00010E0F80180818B7F8083888181608883FD
:1047D00042E060E080E00E942523E1EEF0E080818D
:1047E0008E7F8083E2EEF0E0808181608083808133
:1047F00088608083F80180818E7F808388818061DA
:104800008883DF91CF911F910F910895E8EDF0E03B
:1048100080818F7E8083E7EDF0E0808181608083FE
:1048200084E082BF81E08093BF020C94C323E8ED53
:10483000F0E080818E7F80831092E20008951092D4
:10484000DA001092E10008951F920F920FB60F92B6
:1048500011242F933F934F935F936F937F938F9385
:104860009F93AF93BF93EF93FF938091E10082FFFB
:104870000BC08091E20082FF07C08091E1008B7F36
:104880008093E1000E948E268091DA0080FF19C09B
:104890008091D80080FF15C08091DA008E7F8093D0
:1048A000DA008091D90080FF96C080E189BD82E165
:1048B00089BD09B400FEFDCF81E08093C0020E9453
:1048C00089208091E10080FF19C08091E20080FF83
:1048D00015C08091E2008E7F8093E2008091E2001B
:1048E00080618093E2008091D80080628093D8003C
:1048F00019BC85E08093C0020E949B208091E1005A
:1049000084FF2BC08091E20084FF27C080E189BD35
:1049100082E189BD89B5982F917080FFFBCF80918E
:10492000D8008F7D8093D8008091E1008F7E8093A6
:10493000E1008091E2008F7E8093E2008091E200AE
:1049400081608093E2008091BC02882309F449C011
:1049500084E08093C0020E949C208091E10083FF4C
:1049600029C08091E20083FF25C08091E100877F0C
:104970008093E10082E08093C0021092BC0280919B
:10498000E1008E7F8093E1008091E2008E7F809332
:10499000E2008091E20080618093E20042E060E00A
:1049A00080E00E9425238091F00088608093F000D1
:1049B0000E949A20FF91EF91BF91AF919F918F91AB
:1049C0007F916F915F914F913F912F910F900FBE0B
:1049D0000F901F90189519BC1092C0020E9497204A
:1049E00070CF8091E30087FD93E09093C002B3CF36
:1049F0001F920F920FB60F9211242F933F934F9354
:104A00005F936F937F938F939F93AF93BF93CF9356
:104A1000DF93EF93FF93D091E900DF708091EC007A
:104A2000C82FC17080FDC0E81092E9008091F000AD
:104A3000877F8093F00078940E943C251092E900D3
:104A40008091F00088608093F000CD2BCF70C093F0
:104A5000E900FF91EF91DF91CF91BF91AF919F91CD
:104A60008F917F916F915F914F913F912F910F9017
:104A70000FBE0F901F9018951F93CF93DF93CDB764
:104A8000DEB7AA970FB6F894DEBF0FBECDBF81EC9C
:104A900092E02091F100FC012193CF01F2E0893CEA
:104AA0009F07B9F70E94A7208091E80083FF1EC1ED
:104AB0008091C1029091C2029A3008F017C1E92F8B
:104AC000F0E0E75BF74D0C940E27803899F08238C0
:104AD00009F00CC18091C5028F70873008F006C1C3
:104AE0008093E9008091EB0085FB882780F9109284
:104AF000E90006C08091BD029091BE0291118260D2
:104B00009091E800977F9093E8008093F1001092D5
:104B1000F1008091E8008E77E5C0882309F4D3C0C6
:104B2000823009F0E3C08091C3028111D6C0809128
:104B3000C5028F702FEF280F263008F0D7C0809362
:104B4000E9002091EB0020FFC8C0933031F4809140
:104B5000EB0080628093EB00C0C09091EB0090610D
:104B60009093EB0021E030E001C0220F8A95EAF734
:104B70002093EA001092EA008091EB008860EACF6F
:104B80008111B4C01091C3021F778091E300807837
:104B9000812B8093E3008091E800877F8093E80079
:104BA0000E9459238091E80080FFFCCF8091E300B0
:104BB00080688093E30082E0111183E08093C0025B
:104BC00095C08058823008F091C08091C3029091C6
:104BD000C4028C3D23E09207A1F583E08A838AE238
:104BE00089834FB7F894DE01139620E03EE051E24E
:104BF000E32FF0E050935700E49120FF03C0E295CB
:104C0000EF703F5FEF708E2F90E0EA30C0F0C796F4
:104C10008D939D932F5F243159F74FBF8091E8000A
:104C2000877F8093E8006AE270E0CE0101960E94DF
:104C300068228091E8008B778093E80057C0C09687
:104C4000E7CF6091C5027091C602AE014F5F5F4F22
:104C50000E94A921BC01892B09F448C09091E80069
:104C6000977F9093E80089819A810E94C622E1CFC4
:104C70008038E1F58091E800877F8093E80080919B
:104C8000BC028093F10045CF811130C09091C302E6
:104C9000923060F58091E800877F8093E8009093E0
:104CA000BC020E9459238091BC02882311F084E049
:104CB00005C08091E30087FDFACF81E08093C002B8
:104CC0000E949D2013C08091C302813079F481E05D
:104CD000933009F080E08093BE021092E900809149
:104CE000E800877F8093E8000E9459238091E800C4
:104CF00083FF0AC08091E800877F8093E80080915D
:104D0000EB0080628093EB00AA960FB6F894DEBFAA
:104D10000FBECDBFDF91CF911F9108950895CF931E
:104D20008091C0028823A1F0C091E900CF709091DA
:104D3000EC00892F817090FD80E8C82B1092E9006B
:104D40008091E80083FD0E943C25CF70C093E9006C
:104D5000CF910895991B79E004C0991F961708F028
:104D6000961B881F7A95C9F78095089587FB082EB2
:104D7000062687FD819567FD61950E94AA260EF49F
:104D8000919507FC81950895AA1BBB1B51E107C0B3
:104D9000AA1FBB1FA617B70710F0A61BB70B881FCB
:104DA000991F5A95A9F780959095BC01CD0108955A
:104DB00097FB072E16F4009407D077FD09D00E94C8
:104DC000C42607FC05D03EF4909581959F4F089529
:104DD000709561957F4F0895A1E21A2EAA1BBB1B07
:104DE000FD010DC0AA1FBB1FEE1FFF1FA217B307B7
:104DF000E407F50720F0A21BB30BE40BF50B661FCD
:104E0000771F881F991F1A9469F760957095809590
:104E100090959B01AC01BD01CF010895EE0FFF1FDE
:104E20000590F491E02D09940E941C27332312F47D
:104E30008A1B9B0B0C942D27A29FB001B39FC0012E
:104E4000A39F700D811D1124911DB29F700D811DB6
:104E50001124911D08950E941C27B7FF0895821BFD
:104E6000930B08950E941C27A59F900DB49F900D51
:104E7000A49F800D911D11240895B7FF0C94322733
:104E80000E943227821B930B08958F929F92AF92BC
:104E9000BF92CF92DF92EF92FF92CF93DF93EC011C
:104EA000688179818A819B816115710581059105F0
:104EB00021F464E279ED8BE597E02DE133EF41E0F9
:104EC00050E00E94F62749015A019B01AC01A7EA74
:104ED000B1E40E9432276B017C01ACEEB4EFA50176
:104EE00094010E944027DC01CB018C0D9D1DAE1D5D
:104EF000BF1DB7FF03C00197A109B04888839983FC
:104F0000AA83BB839F77DF91CF91FF90EF90DF90D3
:104F1000CF90BF90AF909F908F9008950E944527AB
:104F2000089580E091E00E9445270895B0E0A0E058
:104F30008093000190930101A0930201B0930301BB
:104F40000895FC014150504030F001900616D1F711
:104F50003197CF010895882799270895F999FECFB1
:104F600092BD81BDF89A992780B50895A6E1B0E079
:104F700044E050E00C94E827A8E1B0E042E050E0C3
:104F80000C94E827262FF999FECF92BD81BDF89A9F
:104F9000019700B4021639F01FBA20BD0FB6F8947D
:104FA000FA9AF99A0FBE08950396272F0E94C327F5
:104FB0000E94C227252F0E94C327242F0C94C327A9
:104FC0000196272F0E94C3270C94C227DC01CB0136
:104FD000FC01F999FECF06C0F2BDE1BDF89A319609
:104FE00000B40D9241505040B8F70895052E97FB3C
:104FF0001EF400940E940D2857FD07D00E94EC2655
:1050000007FC03D04EF40C940D2850954095309534
:1050100021953F4F4F4F5F4F089590958095709524
:1050200061957F4F8F4F9F4F0895F894FFCF4D0F9D
:10503000550F5C0F610F660F6B0F700F750F7A0FB6
:105040007F0F840F890F8D0F920F950F980F9B0F75
:105050009E0FA00FA30F3815381590159015E21567
:10506000651565156515FE158A1699169916F516B6
:1050700065156515FE167D177D1786178617881727
:105080008617861786177D177D178D178617861743
:105090008D1765258D2576268D257626C025E1255B
:0650A000762638264426A6
:1050A60001000000010102000500050501191A1B97
:1050B6001C1D1E1F20212253020A2049200D2045B7
:1050C60020412001E200E900EA00B500B600B70081
:1050D600CD008301CC008A019201940121022302B2
:1050E60024022502260227022A02B300B4006F001A
:1050F6007000818283379496F6F70001020202025D
:105106000606060909090909090F0F0F0F0F0F15E2
:1051160015151819191919191919191919232425E1
:10512600252525252500FF0100010000FFFF0000C1
:10513600010001FF00E200E900EA00B500B600B791
:1051460000CD008301CC008A019201940121022343
:105156000224022502260227022A02B300B4006FA7
:065166000070008182834D
:00000001FF
